:020000040800F2
:10000000D0B30020DD01000827320008ED2B0008E6
:1000100025320008CD0B0008093900080000000057
:100020000000000000000000000000004501000882
:100030007D0C0008000000008901000875330008ED
:10004000F7010008F7010008F7010008F7010008B0
:10005000F7010008F7010008F7010008F7010008A0
:10006000F7010008F7010008F7010008F701000890
:10007000F7010008F7010008F7010008F701000880
:10008000F7010008F7010008F7010008F701000870
:10009000F7010008F7010008F7010008F701000860
:1000A000F7010008F7010008F7010008F701000850
:1000B000F7010008F7010008F7010008F701000840
:1000C000F7010008F7010008F7010008F701000830
:1000D000F7010008E5380008F1380008FD3800088D
:1000E000F7010008F7010008F7010008F701000810
:1000F000F7010008F7010008F7010008F701000800
:10010000F7010008F7010008F7010008F7010008EF
:10011000F9360008F7010008F7010008C1340008AB
:10012000F7010008F7010008F7010008F7010008CF
:10013000DFF80CD000F0EAFB0048004771400008EF
:10014000D0B30020224B19680868B0E8F00F80F3A4
:100150000988BFF36F8F4FF0000080F311884EF0D5
:100160000D0E70470000000006480068006880F32C
:10017000088862B661B6BFF34F8FBFF36F8F00DFA1
:1001800000BF00BF08ED00E0EFF30980BFF36F8F01
:100190000F4B1A6820E9F00F106008B54FF05000BF
:1001A00080F31188BFF34F8FBFF36F8F05F060FDB1
:1001B0004FF0000080F31188BDE808401968086816
:1001C000B0E8F00F80F30988BFF36F8F704700BF6E
:1001D0001C000020EFF305807047000006488047B0
:1001E00006480047FEE7FEE7FEE7FEE7FEE7FEE71C
:1001F000FEE7FEE7FEE7FEE70534000831010008F0
:10020000202A04DB203A21FA02F00021704721FA6B
:1002100002F3D040C2F120029140084319467047D2
:1002200040EA01039B0703D009E008C9121F08C078
:10023000042AFAD203E011F8013B00F8013B521EF8
:10024000F9D27047D2B201E000F8012B491EFBD26F
:1002500070470022F6E710B513460A4604461946D1
:10026000FFF7F0FF204610BD30B5044600200346DE
:1002700000E05B1C934203D2E05CCD5C401BF8D0F5
:1002800030BDF0B480EA0102D40F4200B2EB410F5E
:1002900002D20246084611464A0042D0C30DDDB2E2
:1002A000C1F3C752AD1A202D35DAC1F3160141F45E
:1002B000000204B15242C5F1200602FA06F12A41B9
:1002C0001044B3EBD05F23D0C4B1012DA0EBC350D9
:1002D00009DCF0BC4FF0004202EAC352DBB200F589
:1002E000000000F087BA400000F1807000EBC350BE
:1002F000A0F1807040EAD170490009E0490841EA64
:10030000C071A0EBC35000F50000400800EBC350E3
:10031000F0BC00F066BA6142012202EB4101001B11
:10032000F6E7F0BC704781F00041AAE780F000409A
:10033000A7E780EA010210B502F00043400022D096
:100340004A001FD0010E01EB1261C0F35600C2F348
:10035000560240F4000042F40002A0FB0220000418
:100360007F39140400D0401C50EA124001D44000F0
:10037000491EC2B20C0604EBD010401C4008802A73
:1003800002D003E0002010BD20F00100002900DAB7
:100390000020184310BD420005D0C0F3C75252429E
:1003A000914201DC0020704700EBC15070472DE9FD
:1003B000FE4F804681EA0300C00F0C46009021F0FA
:1003C000004123F00045B8EB0200A94105D24046A8
:1003D000214690461C460B46024623F0004010433F
:1003E00047D0270DC7F30A00C3F30A510290401A01
:1003F000019040286BDAC3F3130040F4801B00988F
:10040000924620B10023D2EB030A63EB0B0B019859
:100410005946C0F14002504600F0C2F906460D466A
:1004200050465946019A00F0CAF910EB08006141A4
:10043000002487EA115284EAE7731A4340D0009AF5
:1004400062B3019A012A4FEA075215DC001B61EBE7
:1004500002014FF0004202EA0752CDE90042001CBF
:1004600041F5801132462B4600F001FA03B0BDE899
:10047000F08F40462146F9E7001B61EB0201001CAA
:1004800041F5801300185B412018A2F5001747EBD7
:10049000030140EAD570B6196D4111E06D084FEACD
:1004A000360645EAC0754FEA0752001B61EB0201B0
:1004B000001C41F5801149084FEA300000195141F4
:1004C00032462B4603B0BDE8F04F00F0C1B90098AA
:1004D000012240000023D0EB020263EBE07300989E
:1004E00021464FEAE074B8EB000061EB0401E9E754
:1004F00083F000435BE781F0004158E72DE9FE4FB0
:1005000081EA030404F0004421F0004100944FF01C
:10051000000B23F0004350EA01045ED052EA0304CA
:100520005BD0C3F30A54C1F30A552C44A4F2F3344C
:100530000194A0FB0254C1F3130141F48011C3F3F1
:10054000130343F4801301FB024400FB034E840AAF
:10055000970A44EA815447EA8357A4FB0768029547
:100560008D0A05FB07854FEA932C04FB0C542705E5
:10057000029D4FEA065847EA1637B5EB08056EEBC1
:10058000070C870E920E47EA811742EA8312A7FBF7
:100590000201B6EB0B0164EB00042B0D43EA0C33B4
:1005A0005E1844EB1C50DA465146E7FB0201C5F3E6
:1005B00013044FEA0B3343EA14534FEA0432019C0D
:1005C00043EA0603A4F10C040294009CCDE900B4B4
:1005D00000F04DF903B0BDE8F08F00200146F9E7C7
:1005E0002DE9F04D81EA030404F0004B21F00045B1
:1005F00014464FF0000A23F0004150EA050220D0D3
:1006000054EA01021DD0C5F30A570246C5F313038D
:10061000C1F31300C1F30A5640F4801543F480136C
:10062000A7EB0608101BD64608F2FD3873EB050051
:1006300002D308F1010801E092185B41B8F1000F04
:1006400003DA00200146BDE8F08D00204FF4801150
:10065000064684460EE0171B73EB050705D3121BF5
:1006600063EB050306434CEA010C49084FEA3000EE
:1006700092185B4150EA0107EDD152EA030012D013
:1006800082EA040083EA0501084305D0101BAB4150
:1006900006D20122002306E000224FF0004302E0D0
:1006A0006FF0010253101AEB06004CEB085110EBEF
:1006B0000A0041EB0B01BDE8F04D00F0C9B870B580
:1006C00021F0004303430CD0C1F30A550024D5EBBD
:1006D000040564EB0403D617AD1AB34102DB002016
:1006E000014670BD201841EB025170BD96230022D7
:1006F000114600F07FB80EB540F23341029100215F
:10070000CDE900110A460B4600F0B1F803B000BD78
:10071000C1F30A5210B5C1F3130140F2FF3341F4A3
:1007200080119A4201DA002010BD40F233439A4210
:10073000A2F2334203DC5242FFF762FD10BD90404B
:1007400010BD00F0004230F000400AD0C10D01F5AC
:100750006071C0F3160042EA0151C208400711431C
:10076000704700200146704701F0004330B421F08B
:10077000004150EA010206D00A0DA2F56072C1F3F1
:100780001301002A02DC30BC00207047440F44EA09
:10079000C104C100E01830BC00EBC25000F021B829
:1007A000202A04DB203A00FA02F100207047914031
:1007B000C2F1200320FA03F3194390407047202A26
:1007C00006DBCB17203A41FA02F043EAE07306E079
:1007D00041FA02F3D040C2F1200291400843194689
:1007E00070470029A8BF7047401C490008BF20F08F
:1007F0000100704710B4B0FA80FC00FA0CF050EA27
:10080000010404BF10BC704749B1CCF1200421FAA7
:1008100004F411FA0CF118BF012121430843A3EBA2
:100820000C01CB1D4FEA00614FEA102042BF0020AF
:1008300010BC704700EBC35010440029A4BF10BC8B
:100840007047401C490008BF20F0010010BC7047F1
:1008500010B5141E73F1000408DA401C41F10001C8
:1008600092185B411A4301D120F0010010BD2DE91F
:10087000F04D92469B4611B1B1FA81F202E0B0FA16
:1008800080F220329046FFF78BFF04460F4640EA85
:100890000A0041EA0B0153465A46084313D0114659
:1008A00053EA010019D0C8F140025046FFF7A8FCF6
:1008B00005460E46504659464246FFF771FF08432B
:1008C00005D0012004E020463946BDE8F08D002027
:1008D000054346EAE0762C4337430A986305E40A69
:1008E000A0EB08000022FD0A44EA47540A3002D572
:1008F00000200146E9E7010510196941DDE90845D5
:1009000000196941BDE8F04DA2E70000064C074D13
:1009100006E0E06840F0010394E8070098471034CF
:10092000AC42F6D3FFF708FC0C7900082C790008DC
:1009300070B58C1810F8015B15F0070301D110F8A1
:10094000013B2A1106D110F8012B03E010F8016BCE
:1009500001F8016B5B1EF9D12B0705D40023521E51
:100960000DD401F8013BFAE710F8013BCB1A921CB9
:1009700003E013F8015B01F8015B521EF9D5A142B7
:10098000D8D3002070BD0000054910B5097801F0EA
:10099000070100F01DF9044600F0E9F8204610BDFB
:1009A0000202002038B5084C218841F4805160F3E0
:1009B000020141F40050208080B2ADF800000098A0
:1009C00000F0C6F8208838BD020200204FF496716E
:1009D000484300E0401E0028FCDC704738B5642026
:1009E00003F09AFD0122124D54022146284600F0E0
:1009F0001AFC642003F090FD00222146284600F0F6
:100A000012FC642003F088FD00F06EF8094C208889
:100A100020F4805020F00700801D20F4005020803A
:100A200080B2ADF80000009800F092F8208838BD40
:100A3000000C014002020020F8B5144E4FF48075FE
:100A400000222946304600F0EEFB0120FFF7BEFFF2
:100A50003223032269460E4801F0ECFA9DF80000AB
:100A60009DF8011000049DF8024040EA0120044373
:100A70000120FFF7ABFF01222946304600F0D3FBEF
:100A80000120FFF7A3FF2046F8BD0000000C014045
:100A900000030020022108B561F3174061F30F0045
:100AA00000F02CF8FFF7C8FF0090BDF8000008BD6B
:100AB000022161F3174010B5012161F30F0000F02E
:100AC0001DF8FFF7B9FF80B210BD022161F3174096
:100AD00008B5002161F30F0000F010F8FFF7ACFF3C
:100AE0000090BDF8000008BD0020562161F31740BA
:100AF000012161F30F0000F001B8000038B5010CCE
:100B00008DF80010010A8DF801100F4D8DF80200CC
:100B10004FF4807400222146284600F084FB012017
:100B2000FFF754FF322303226946084801F02AFBED
:100B30000120FFF74BFF01222146284600F073FBFE
:100B40000120FFF743FF38BD000C014000030020E7
:100B500001B481B00020009055208DF80200BDF84E
:100B60000400ADF80000009802B0FFF7C7BF0021F5
:100B7000012262F3174160F30F010846FFF7BEBF81
:100B800070B5044600688168C943C9071CD18168F3
:100B900021F00101816000F04BFB05460FE000BF32
:100BA00000F046FB401B022809D9A06A40F0100063
:100BB000A062E06A40F00100E062012070BD2068A0
:100BC0008068C043C007EBD0002070BDFEE7000086
:100BD00070B50A460021234C234B052A05D0234D2E
:100BE000062A18D0072A28D129E04FF081429042E6
:100BF00001DC104602E0984200DD18461146FFF77E
:100C000092FB2146FFF795FBFFF79BFD6FF0030278
:100C1000FFF755FD0EE0A84201D3002002E0984204
:100C200000DD18462146FFF784FBFFF78AFD00220E
:100C30000F4B13E0FFF76CFD81B2084670BD0D4904
:100C4000A84201D3002002E0884200DD0846214688
:100C5000FFF76FFBFFF775FD0022074BFFF7C0FCA6
:100C6000E8E7000000FF7F470000A041000080800F
:100C7000000034400000C0410000384070470000D0
:100C8000F8B50024009490F824202546012A12D0BB
:100C9000012280F824204A681F23072A0DD2066803
:100CA000776B521E02EB820293409F430B68934086
:100CB0001F43776319E00220F8BD06680D2A0AD2A7
:100CC000376BD21F02EB820293409F430B68934025
:100CD0001F43376309E0F76A0D3A02EB8202934043
:100CE0009F430B6893401F43F7620A680723066817
:100CF0000A2A0AD3F7680A3A02EB420293409F435A
:100D00008B6893401F43F76008E0376902EB4202AB
:100D100093409F438B6893401F4337610A68102AB2
:100D200001D0112A20D1124B02689A4217D1936840
:100D30001B0219D4936843F40003936009681029D7
:100D400012D10C490C4A0968B1FBF2F101EB8101A7
:100D5000490000E0491E00910029FBD104E0816AAE
:100D600041F020018162012480F824502046F8BD22
:100D7000002401401800002040420F002DE9F041FE
:100D800004004FF000057FD0A06A002628B9E66273
:100D900084F82460204600F081F82046FFF7F0FE3A
:100DA000A16AC90600D420B1A06A40F01000A06278
:100DB0006AE0A16A21F4885141F00201A16233493D
:100DC00023688B42E16904D1B1F5402F01D14FF482
:100DD0000021277B4FF4807C41EA470261680A4387
:100DE000A168614508D0012906D0002194F814E0DB
:100DF000BEF1010F02D00AE06146F7E7C7B1A76A6A
:100E000047F02007A762E76A47F00107E7625F68DB
:100E100027F469470F435F60236899681C4F394086
:100E200011439960A16861450BD0012909D00CE0FC
:100E3000DFF860E0A7690EEB47370F4347F4006126
:100E4000E5E7218A0D05A5F580152168CB6A23F415
:100E500070032B43CB62216889680F4B1940914284
:100E600008D1E662A16A21F0020141F00101A1620C
:100E7000BDE8F081A06A20F0020040F01000A062FE
:100E8000E06A40F00100E0620120F1E7003C01402F
:100E9000FDF7E1FF00E0FFFFFE0E1FFF00B585B08C
:100EA0000021009101910291039100680E4988424E
:100EB00018D10E48816941F400718161816901F4A2
:100EC00000710491816941F0040181618069694682
:100ED00000F00400049001200090032001900448D9
:100EE00000F0A0F805B000BD002401400010024051
:100EF000000801402DE9F05F90F82110002402293C
:100F000003D004218163012485E001680A6822F08E
:100F10000E020A6001680A6822F001020A603F4E70
:100F20003E4FB215DFF8F4C0DFF8F090DFF8ECA028
:100F3000DFF8E8B0DFF8E4E00168783F130115025C
:100F4000ACF1640CA9F15009AAF13C0AABF1280BF1
:100F5000AEF1140E4FF48018B14227D9B9420ED029
:100F6000614512D049451DD0514518D0594518D07A
:100F7000714501D1424615E0294EB14201D101220D
:100F800010E0274E1436B14201D110220AE0244E5F
:100F90002836B14206D0224A3C32914201D11A464B
:100FA00000E02A461E49091F0A602BE0B94213D00F
:100FB000614517D0494522D051451DD059451DD016
:100FC000714501D142461AE0B14202D14FF0807220
:100FD00015E0134EB14201D1012210E0104E14363B
:100FE000B14201D110220AE00D4E2836B14206D09E
:100FF0000B4A3C32914201D11A4600E02A46074989
:1010000080394A60012180F82110002180F82010E9
:10101000416B01B188472046BDE8F09F8000024047
:10102000080402402DE9F84FDFF8C891002409F1C7
:10103000040A0AF1040B23460F270BF1040ED1E03A
:101040000125A54006EA0502AA4276D1DFF8A8C12B
:101050004E68A6EB0C0866452BD00DDC032E34D071
:1010600005DC36B3012E19D0022E2FD11BE0112E34
:1010700016D0122E2AD119E0B8F5881F19D006DC37
:10108000B8F5803F15D0B8F5801F1FD111E0B8F535
:10109000001F0ED0B8F5041F18D10AE0CB6815E088
:1010A000CB681B1D12E0CB6808330FE0CB680C3314
:1010B0000CE08B682BB1012B4FF0080303D0456186
:1010C00004E0042302E0056100E00023FF2A01D8C8
:1010D000064601E000F104064FEA840501D9A5F1B6
:1010E0002005D6F8008007FA05FC28EA0C0803FA68
:1010F00005F548EA0508C6F800804D68ED0070D592
:101100003E4DAE6946F00106AE61AD6924F00306BE
:1011100005F0010500953A4D06EB050CDCF808508A
:10112000A607360F07FA06F825EA0805DFF8D48087
:10113000404503D14FF0000825E052E0DFF8C880B9
:10114000404502D14FF001081DE0DFF8C080404566
:1011500002D14FF0020816E0DFF8B480404502D11A
:101160004FF003080FE0DFF8AC80404502D14FF0AC
:10117000040808E0DFF8A080404502D14FF00508E0
:1011800001E04FF0060808FA06F848EA0508CCF82E
:1011900008804D68D9F80060ED034D4601D516432F
:1011A00000E096432E604D68DAF80060AD035546C6
:1011B00001D5164300E096432E604D68DBF80060D1
:1011C000ED025D4601D5164300E096432E604D6862
:1011D000DEF80060AD02754601D5164300E0964387
:1011E0002E60641C0A681646E2407FF429AFBDE811
:1011F000F88F0000000401400000111000100240B0
:101200000000014000080140000C014000100140B6
:101210000014014000180140001C01408068084093
:1012200000D0012070470AB1016170470904FBE753
:1012300001488068704700000C00002070B5040071
:101240001BD094F83D00002520B984F83C5020467E
:1012500000F056FA242084F83D002068016821F04F
:101260000101016000F05AFC4D4A6168914201D8C9
:101270004C4900E04C49884201D2012070BD4B49E5
:101280002368B0FBF1F15E6826F03F060E435E6016
:101290006368934206D94FF4967359434FF47A73B7
:1012A000B1FBF3F12368491C1E6A26F03F06314367
:1012B00019626168914210D84900401EB0FBF1F2FA
:1012C000521CC2F30B02042A01D2042022E0B0FB1C
:1012D000F1F0401CC0F30B001CE0A368F3B301EB7A
:1012E000C10202EB0116421EB2FBF6F2521C42F49E
:1012F0008042120549D093B301EBC10202EB011108
:10130000401EB0FBF1F0401CC0F30B0040F48040E5
:1013100040F400402168CA694CF6FF739A431043B9
:10132000C861D4E90701084321680A6822F0C002B5
:1013300010430860D4E9030101432068826848F241
:10134000FF339A4311438160D4E9050108432168C2
:10135000CA6822F0FF021043C86001E00EE016E008
:101360002068016841F0010101602564202084F8B3
:101370003D00256384F83E50002070BD01EB41061E
:10138000421EB2FBF6F2521CB3E70120C2E701EBAA
:101390004101401EB0FBF1F0401CC0F30B00B7E769
:1013A000A086010080841E0000093D0040420F001D
:1013B0002DE9FF4F83B09A46DDE911979346044625
:1013C000DDF84080FFF734FF054694F83D00202803
:1013D0006FD1192301227B492046009501F002FDBF
:1013E0000028F5D194F83C00012862D0012084F84F
:1013F0003C0020680168C90703D1016841F0010180
:1014000001602168086820F400600860222084F8E8
:101410003D00402084F83E0000262664C4F8248065
:10142000A4F82A90608D20856748E062CDE90075B8
:1014300053465A462046049901F0F0FB00287DD11E
:10144000208DDFF8888168B1012814D0022820D0CF
:101450002068016841F48061016020684169806909
:101460000090A0E02068416981690091016841F421
:101470000071016097E02068016821F480610160DB
:1014800072B62068416981690091016841F4007178
:101490000CE02168086840F40060086072B62068BB
:1014A000416981690091016821F48061016062B63F
:1014B00079E084E003284FD801280BD002283B466E
:1014C0004FF000024146204600950ED001F08AFC04
:1014D000A0BB0FE02A463946204601F002FD68BB5A
:1014E00020680069616A087054E001F07BFC28BB49
:1014F00072B61AE02068016821F48061016072B65A
:1015000020680069616A0870606A401C6062208D12
:10151000401E2085608D401E60853B46002241466E
:101520002046009501F05EFC40B92068016841F456
:101530000071016020680069616A00E012E00870D3
:10154000606A401C6062218D491E2185618D491EA3
:10155000618562B621681BE02A463946204601F0C3
:10156000C0FC18B1012007B0BDE8F08F2068006909
:10157000616A0870606A401C6062218D491E218585
:10158000618D491E618521684A69D24352070AD498
:1015900009690170606A401C6062208D401E2085D0
:1015A000608D401E6085208D002883D1202084F826
:1015B0003D0084F83E6084F83C600020D3E70220C0
:1015C000D1E70000020010000000FFFF040001004E
:1015D0002DE9FF4F83B09A46DDE911979346044603
:1015E000DDF84080FFF724FE054694F83D002028F2
:1015F0007FD11923012240492046009501F0F2FBDA
:10160000002876D194F83C00012872D0012084F89B
:101610003C0020680168C90703D1016841F001015D
:1016200001602068016821F400610160212084F8D4
:101630003D00402084F83E0000262664C4F8248043
:10164000A4F82A90608D20852C48E062CDE90075D1
:1016500053465A462046049901F054FB70B930E0D5
:101660002A463946204601F06FFC58B1206C042808
:1016700004D12068016841F400710160012007B0C5
:10168000BDE8F08F606A216800780861606A401CDC
:101690006062218D491E89B22185628D521E62854C
:1016A00022685369DB435B070BD469B10078106192
:1016B000606A401C6062208D401E2085608D401E47
:1016C0006085208D0028CBD12A463946204601F07E
:1016D00063FB0028CAD154F83D0B016841F4007146
:1016E0000160202004F81E09E67766770020C6E72F
:1016F000FFE70220C3E70000020010000000FFFF28
:1017000010B586B00021009101910291039100680B
:10171000104988421BD1104CA06940F00800A0611C
:10172000A069694600F0080004904FF44060009002
:1017300012200190032003900848FFF773FCE06932
:1017400040F48000E061E06900F48000049006B09D
:1017500010BD00000058004000100240000C014085
:101760000248816802781144816070470C000020B3
:10177000074810B5016841F010010160032000F036
:101780008FF8002000F006F800F03EF8002010BDB1
:101790000020024000B5014687B00022372000F04B
:1017A0005FF8372000F04EF81348C16941F020017E
:1017B000C161C06905A900F020000690684600F0EC
:1017C0008DF900F0ABF90D494000B0FBF1F10D4887
:1017D0000B4A491E0260416040F2E7320021C0E935
:1017E0000321816000F090FE10B1012007B000BD20
:1017F000044800F0A5FEF9E70010024040420F0047
:1018000000140040980400200C4808B5816941F09C
:1018100001018161816901F001010091C16941F01B
:101820008051C161C06900F0805000900448416857
:1018300021F0E06141F00071416008BD00100240FC
:1018400000000140002809DB00F01F020121914047
:101850004009800000F1E020C0F80011704700004E
:10186000F0B40E4B1B680C46C3F30223C3F107050B
:10187000042D00D90425191D072901D2002300E0F9
:10188000DB1E012606FA05F1491E214099409E40C3
:10189000761E16403143F0BC02F037B80CED00E084
:1018A000064900F0070208684FF6FF03184040EAB7
:1018B0000220034A10430860704700000CED00E06E
:1018C0000000FA052DE9F84305460078354CC007BD
:1018D00054D0E0690026C00008D4E06940F0805090
:1018E000E061E069012600F0805000902E48016818
:1018F000C90512D40168804641F480710160FFF788
:1019000097FC074605E000BFFFF792FCC01B642868
:1019100023D8D8F80000C005F6D5206A10F440702E
:1019200021D0A98801F4407181421CD0206A1F494E
:10193000012220F440700A6000220A602062C00781
:1019400011D0FFF775FC074641F2883808E000BF68
:10195000FFF76EFCC11B414502D90320BDE8F883A7
:10196000206A8007F4D5206A696820F44070084333
:1019700020621EB1E06920F08050E0612878800785
:1019800005D56068A96820F4404008436060287865
:10199000C00605D56068696920F48000084360606E
:1019A0000020DBE70010024000700040400442428B
:1019B0002DE9F0470F46050061D0434E306800F036
:1019C0000700B84209D2306820F007003843306081
:1019D000306800F00700B84251D128683B4C8107BD
:1019E00012D5400703D5606840F4E0606060287855
:1019F000000703D5606840F4605060606068A968C3
:101A000020F0F000084360602878C00728D068689C
:101A1000012810D02168022810D0890700292EDA69
:101A2000616821F0030101436160FFF701FC80461A
:101A300041F288390DE021688903EFE78901EDE77C
:101A4000FFF7F6FBA0EB0801494502D90320BDE8EA
:101A5000F0876068696800F00C00B0EB810FEFD18F
:101A6000306800F00700B8420BD9306820F007005A
:101A700038433060306800F00700B84201D00120E0
:101A8000E5E72878400705D56068E96820F4E0605C
:101A9000084360602878000706D56068296920F44B
:101AA000605040EAC100606000F058F86168084A80
:101AB000C1F30311515CC84006490860064800683C
:101AC000FFF768FE0020C2E700200240001002403D
:101AD0008C6C000818000020100000200F2202600B
:101AE0000C4A536803F003034360536803F0F003A8
:101AF0008360536803F4E063C36052684FF4E063AB
:101B000003EAD20202610448006800F0070008609E
:101B100070470000001002400020024004480549C0
:101B200000684968044AC1F30221515CC84070470B
:101B300018000020001002409C6C00080448054971
:101B400000684968044AC1F3C221515CC84070472B
:101B500018000020001002409C6C000812A185B003
:101B60000FC98DE80F0014A0144A00680490516852
:101B7000134801F00C03042B10D0082B0ED1C1F335
:101B80008343C9031DF803000AD5516804AAC1F3B1
:101B90004041515C0A4A5043B0FBF1F005B0704738
:101BA00008494843FAE7000002030405060708094C
:101BB0000A0B0C0D0E0F1010010200000010024065
:101BC00000127A0000093D002DE9F84F040070D0A2
:101BD0002078C04DC00749D06868C0F38100012853
:101BE00007D06868C0F38100022809D16868C00383
:101BF00006D52868800339D560680028E7D035E02D
:101C00006068B0F5803F0BD010B1B0F5A02F11D0B7
:101C1000286820F480302860286820F4802002E0C2
:101C2000286840F480302860606890B1FFF700FBBE
:101C300006460AE0286840F480202860F0E700BFEC
:101C4000FFF7F6FA801B642873D828688003F7D55D
:101C50000CE0FFF7EDFA064605E000BFFFF7E8FAF3
:101C6000801B6428F0D828688003F7D420789A4E27
:101C700080074FF001094FF0000839D5686810F06F
:101C80000C0F07D06868C0F38100022809D168688A
:101C9000C00306D42868800714D52069012808D11C
:101CA00010E02069B0B1C6F80090FFF7C1FA07460E
:101CB00005E00AE1FFF7BCFAC01B0228C4D8286877
:101CC0008007F7D52868616920F0F80040EAC10074
:101CD00028600DE0C6F80080FFF7AAFA074604E086
:101CE000FFF7A6FAC01B022823D828688007F7D47C
:101CF000207800072CD57948A169D9B1C0F80090A7
:101D0000FFF796FA074604E0FFF792FAC01B022895
:101D10000FD8686A8007F7D571484FF4FA51006808
:101D2000B0FBF1F0009000BF0098411E0091FAD284
:101D30000EE080E0C0F80080FFF77AFA074604E082
:101D4000FFF776FAC01B022875D8686A8007F7D4B7
:101D50002078400760D5E8690027C00008D4E8690A
:101D600040F08050E861E869012700F08050009061
:101D70005C480168C90513D40168834641F4807149
:101D80000160FFF755FA824606E000BFFFF750FA00
:101D9000A0EB0A0064284ED8DBF80000C005F5D59A
:101DA000E06801280AD008B1052813D0286A20F07D
:101DB00001002862286A20F0040002E0286A40F04E
:101DC00001002862E06841F2883B98B1FFF730FAE1
:101DD00082460BE0286A40F004002862EEE700BF6C
:101DE000FFF726FAA0EB0A0159455AD8286A80075E
:101DF000F6D50CE0FFF71CFA824605E0FFF718FA6B
:101E0000A0EB0A0159454CD8286A8007F6D41FB1C7
:101E1000E86920F08050E861E06988B36968C1F33F
:101E20008101022944D00228C6F8608004D0FFF75F
:101E3000FFF9044638E034E0FFF7FAF9074604E01A
:101E4000FFF7F6F9C01B02282BD828688001F7D4C9
:101E5000206AB0F5803F05D16868A16820F40030A1
:101E600008436860D4E908010843696821F47411E3
:101E700008436860C6F86090FFF7DAF9044606E0A8
:101E800025E000BFFFF7D4F9001B022809D8286815
:101E90008001F7D51BE000BFFFF7CAF9001B02283D
:101EA00002D90320BDE8F88F28688001F4D40EE041
:101EB0000128F7D06868226A00F48031914204D189
:101EC000616A00F47010884201D00120EAE7002026
:101ED000E8E7000000100240000042428004424255
:101EE000180000200070004070B5040005D00025E7
:101EF000A56294F8510010B106E0012070BD84F88D
:101F00005050204600F02EF8022084F8510020683E
:101F1000016821F040010160D4E901010843D4E9DE
:101F200003121143084361690843218B01F40071D6
:101F30000843E1690843216A0843A16A084321680C
:101F40000860A069042101EA104021684860206807
:101F5000C16921F40061C1616565012084F8510007
:101F6000002070BD70B586B00024009401940294E6
:101F700003942B4E03682B49022003222A4DB342BF
:101F800028D18B6943F480538B618B6903F48053B0
:101F900004938B6943F008038B618969039201F014
:101FA000080104912821CDE9001069462846FFF771
:101FB00039F81020CDE90004694628460294FFF75D
:101FC00031F81A48416841F0E06141F00101416097
:101FD00006B070BD164EB342FAD1CB6943F48043CC
:101FE000CB61CB6903F4804304938B6943F008030E
:101FF0008B618969039201F0080104914FF420413B
:10200000CDE9001069462846FFF70CF83014CDE9F9
:102010000004694628460294FFF704F8D8E7000058
:102020000030014000100240000C0140000001405F
:10203000003800402DE9F84F0446406800259846D6
:1020400016460F464FF0040BB0F5827F01D1A06811
:1020500088B194F85000012818D0012084F850006D
:10206000FFF7E6F8814694F851004FF0000A012886
:102070000ED002257DE084F851B013460A46204672
:10208000CDF8008000F02CF9BDE8F88F0220FBE7C6
:10209000002F6DD0002E6BD084F851B0C4F854A03E
:1020A000A763A687E687C4F830A0A4F834A0A4F8F4
:1020B00036A0C4F840A0C4F844A0A068B0F5004F12
:1020C00004D12068016821F4804101602068016822
:1020D000490603D4016841F040010160E068D8B1CD
:1020E00039E020688168C90709D0007BA16B0870BE
:1020F000A06B401CA063E08F401EE0870CE0FFF760
:1021000097F8A0EB0901414503D3B8F1FF3F03D095
:1021100036E0B8F1000F33D0E08F0028E1D11DE0A8
:1021200020688168C90709D0C068A16B0880A06BCE
:10213000801CA063E08F401EE0870CE0FFF778F87A
:10214000A0EB0901414503D3B8F1FF3F03D017E0ED
:10215000B8F1000F14D0E08F0028E1D14A46414683
:10216000204601F061F808B120206065606D00B183
:102170000125012084F8510084F850A0284683E707
:102180000325F6E72DE9F84F044690F850000027A4
:102190001D461646894601280DD04FF0010B84F8E4
:1021A00050B0FFF745F8804694F85100BA46012830
:1021B00004D002278EE00220BDE8F88FB9F1000FAD
:1021C0007DD0002E7BD0032084F85100C4F854A0A9
:1021D000C4F83090A686E686C4F838A0A4F83CA0DF
:1021E000A4F83EA0C4F844A0C4F840A0A068B0F58C
:1021F000004F04D12068016841F4804101602068EB
:102200000168490603D4016841F040010160E068BB
:10221000B0F5006F606803D030B3012E24D040E0E9
:1022200008B1012E1CD1206B21680088C86006E02F
:1022300020688168890709D5216B0988C160206BF6
:10224000801C2063E08E401EE08609E0FEF7F0FF70
:10225000A0EB0800A84202D3681C01D031E07DB396
:10226000E08E0028E4D11FE0206B2168007808731D
:1022700006E020688168890709D5216B0978017318
:10228000206B401C2063E08E401EE08609E0FEF7D4
:10229000CFFFA0EB0800A84202D3681C01D010E0D9
:1022A00075B1E08E0028E4D142462946204600F070
:1022B000E9FF08B120206065A06820B107E008E0D0
:1022C000FFE7032706E02068C16880680090606D22
:1022D00000B1012784F851B084F850A038466BE76C
:1022E0002DE9F84F044690F8500000270A9E1D463D
:1022F00092468B464FF0010901280ED0012084F848
:102300005000FEF795FF804694F85100616801285F
:102310000CD0B1F5827F07D102E00220BDE8F88F32
:10232000A16809B9042801D00227C2E0BBF1000F5F
:1023300027D0BAF1000F24D01DB394F8510004281F
:1023400002D0052084F8510000206065C4F838A050
:10235000E587A587C4F830B0E586A586206460646B
:1023600020680168490603D4016841F0400101601A
:10237000E068B0F5006F606805D0E8B3012D46D085
:102380007FE0012795E008B1012D39D1206B21684C
:102390000088C860206B801C2063E08E401EE086B1
:1023A0002EE02068816889070FD5E18E69B1B9F107
:1023B000010F0AD1216B0988C160206B801C20634A
:1023C000E08E401EE0864FF0000920688168C90752
:1023D0000CD0E18F51B1C068A16B0880A06B801C4C
:1023E000A063E08F401EE0874FF00109FEF720FF59
:1023F000A0EB0800B04200E009E001D3701C50D10E
:10240000E08E0028CDD1E08F0028CAD13FE0206BBC
:10241000216800780873206B401C2063E08E401E0A
:10242000E0862EE02068816889070FD5E18E69B1CA
:10243000B9F1010F0AD1216B09780173206B401C9F
:102440002063E08E401EE0864FF00009206881681E
:10245000C9070CD0E18F51B1C068A16B0870A06BA7
:10246000401CA063E08F401EE0874FF00109FEF79B
:10247000DFFEA0EB0800B04202D3701C01D010E0D8
:102480007EB1E08E0028CDD1E08F0028CAD142462F
:102490003146204600F0F6FE28B101272020606575
:1024A00007E0032705E0A06818B92068C1688068C4
:1024B0000090012084F85100002084F85000384634
:1024C0002CE77047704770B590F83C20012A19D06E
:1024D000012400F83C4F0222427050F83C3C5A68FC
:1024E0009D6822F070060A684968324325F080052D
:1024F00029435A6050F83C2C9160447000210170CF
:10250000084670BD022070BD10B5040003D094F8D9
:102510003D0010B107E0012010BD002084F83C0010
:10252000204600F00CF8022084F83D00211D2068B0
:1025300000F0CCFF012084F83D00002010BD704762
:102540000168CA6842F00102CA600068816801F04F
:102550000701062903D0016841F001010160002054
:102560007047704770B50446006801694FF0000578
:10257000C943890715D4C168C943890711D4E91E25
:10258000016101202077206880698007204602D001
:10259000FFF7E7FF04E000F0C9F8204600F05EF91D
:1025A000257720680169C943490717D4C168C94321
:1025B000490713D46FF004010161022020772068DD
:1025C000806910F4407F204602D0FFF7CAFF04E084
:1025D00000F0ACF8204600F041F925772068016949
:1025E000C943090716D4C168C943090712D46FF05B
:1025F00008010161042020772068C0698007204617
:1026000002D0FFF7AEFF04E000F090F8204600F0A3
:1026100025F9257720680169C943C90617D4C1681F
:10262000C943C90613D46FF0100101610820207757
:102630002068C06910F4407F204602D0FFF791FF68
:1026400004E000F073F8204600F008F925772068D0
:102650000169C943C90708D1C168C943C90704D181
:10266000891E0161204600F01DF920680169C943F7
:10267000090609D4C168C943090605D46FF0800171
:1026800001612046FFF71DFF20680169C943490623
:1026900009D4C168C943490605D46FF040010161FE
:1026A000204600F009F920680169C94389060BD466
:1026B000C168C943890607D46FF020010161204633
:1026C000BDE87040FFF7FEBE70BD000000B585B0EC
:1026D0000021009101910291039100680F49884205
:1026E0001AD10F48816941F0100181618069694602
:1026F00000F0100004904020009002200190039010
:102700000848FEF78FFC0848416821F4406141F019
:10271000E06141F44061416005B000BD000400404B
:10272000001002400010014000000140704770B5E9
:10273000044690F83C000D4601280DD0012684F88F
:102740003C60022084F83D0042B1042A18D0082AD7
:102750002AD00C2A4DD139E0022070BD206800F04B
:1027600009FF2068816941F0080181612068816961
:1027700021F004018161206881692A69114311E017
:10278000206800F027FF2068816941F400618161C1
:102790002068816921F480618161206881692A69EA
:1027A00041EA0221816124E0206800F049FF2068AD
:1027B000C16941F00801C1612068C16921F00401CB
:1027C000C1612068C1692A69114311E0206800F0E5
:1027D0006BFF2068C16941F40061C1612068C16973
:1027E00021F48061C1612068C1692A6941EA02213E
:1027F000C16184F83D60002084F83C0070BD10B5D4
:10280000040003D094F83D0010B107E0012010BD92
:10281000002084F83C00204600F00CF8022084F8E8
:102820003D00211D206800F051FE012084F83D008C
:10283000002010BD08B500680649884208D1064846
:10284000C16941F00201C161C06900F0020000905D
:1028500008BD000000040040001002407047000066
:1028600010B504460068012200F076FE0B4920688E
:10287000884202D00A49884203D1416C41F40041A8
:1028800041642068816801F00701062903D00168CE
:1028900041F001010160002010BD0000002C01404A
:1028A0000034014000680349884201D1FEF758BF57
:1028B00070470000001400407047704770B5026810
:1028C00004461068D168536910F00F0F50D003F020
:1028D000010501F4907635435DD0C20705D0CA05E5
:1028E00003D5E26B42F00102E263420705D5DA0745
:1028F00003D0E26B42F00202E263820705D5DA07F9
:1029000003D0E26B42F00402E263020705D5DA0766
:1029100003D0E26B42F00802E263E26B002A33D09C
:10292000800604D5880602D5204600F001FF206805
:102930004069E16BC0F38010090700D428B320463A
:1029400000F0E8FE2068416949061AD5416921F086
:1029500040014161606BA0B11B494163606BFEF7B0
:10296000C9FA002810D0606B416BBDE87040084781
:10297000830610D58B060ED52046BDE8704000F0CA
:10298000D7BE2046FFF799FF70BD2046FFF795FFA1
:102990000020E06370BD030606D50B0604D5204673
:1029A000BDE8704000F06CBF4006F3D54806F1D595
:1029B000D168204621F04001D160202184F83910EF
:1029C00000F013F970BD00000537000870B5040071
:1029D00004D094F83900002510B106E0012070BD44
:1029E00084F83850204600F023F8242084F8390079
:1029F0002068C16821F40051C160204600F0E4FE67
:102A00002068016921F4904101612068416921F049
:102A10002A0141612068C16841F40051C160E56349
:102A2000202084F8390084F83A00002070BD0000AE
:102A3000F0B585B000240094019402940394D0F87A
:102A400000C0604860490615022203230125844521
:102A500025D1C86940F40020C861C86900F400208D
:102A60000490886940F0100088618869CDE90062AF
:102A700000F01000CDE90330544E69463046FEF7B1
:102A8000D1FAE8028DE8310069463046FEF7CAFA0D
:102A9000002211463420FEF7E3FE342030E0DFF858
:102AA00030E14C484FF40077F4452DD1D1F818C0EF
:102AB0004CF4804CC1F818C0D1F818C00CF4804C0C
:102AC000CDF810C0D1F818C04CF0040CC1F818C0F3
:102AD000896901F00401CDE90331CDE9007269464D
:102AE0000746FEF79FFA009669463846CDE901454C
:102AF000FEF798FA002211462520FEF7B1FE2520A8
:102B0000FEF7A0FE05B0F0BD334EB44525D1CE6929
:102B100046F40036CE61CE6906F4003604968E691E
:102B200046F004068E618969039301F00401049163
:102B30000421CDE9001269460646FEF773FA082023
:102B40008DE8310069463046FEF76CFA00221146E6
:102B50002620FEF785FE2620D2E720488445D1D1E5
:102B6000C86940F48020C861C86900F480200490DE
:102B7000886940F0200088618869194E00F02000C3
:102B800004904FF48070CDE900026946039330460B
:102B9000FEF748FA009769463046CDE90145FEF751
:102BA00041FA1048416821F0300141F0E06141F004
:102BB00030014160002211462720FEF751FE2720F8
:102BC0009EE70000004C0040001002400010014051
:102BD0000038014000080140004400400048004027
:102BE000001401400000014070477047FEE7016893
:102BF0004A69D24352050FD46FF480624A610021C2
:102C000040F8301F202242738173026942F00402AF
:102C10000261017301207047002070472DE9F84FD1
:102C20000446006889460B9D01689846174641F4A2
:102C3000806101602068016841F480710160009545
:102C40004FF0011A0022514620460A9B00F0CAF8B4
:102C5000002853D1216809F0FE0008610AF1010B38
:102C60002B46594620460A9A00F0F0F8F0BB20683F
:102C70004169806900902A4620460A9900F064F96B
:102C800040B1206C042839D12068016841F40071FA
:102C9000016033E0FEB2B8F1010F09D02168380AB3
:102CA00008612A4620460A9900F04EF90028E8D12A
:102CB000206806612A4620460A9900F045F9002856
:102CC000DFD12068016841F4807101600095002225
:102CD000514620460A9B00F085F838B9216809F072
:102CE000FF0040F0010008612B4600E006E0594675
:102CF00020460A9A00F0AAF8002800D00120BDE87A
:102D0000F88F00002DE9F843044600680D46DDE920
:102D1000089701689846164641F4807101604B4659
:102D200000224FF001112046009700F05BF8E0B957
:102D3000216805F0FE0008613B464A4615492046D9
:102D400000F084F888B920684169806900903A46AB
:102D50004946204600F0F8F850B1206C042804D110
:102D60002068016841F4007101600120BDE8F8832A
:102D7000F5B2B8F1010F09D02168300A08613A466E
:102D80004946204600F0E0F80028E6D120680561B9
:102D90000020EBE70200010070B516460D46044620
:102DA0000DE02046FFF723FF08B1012070BD681C2D
:102DB00005D0FEF73DFA801BA84207D835B1206840
:102DC0004069C0434007ECD4002070BD002044F8A7
:102DD000300F20216173A073216941F0200121612E
:102DE0002073E2E72DE9F0471E4690460D46044663
:102DF000C1F30747DDF8209008E0701C06D0FEF70D
:102E000017FAA0EB0900B0420FD876B12068012F65
:102E100018D0806925EA00000004000C14D00021BD
:102E20004145EAD00020BDE8F087002044F8300F8B
:102E300020216173A073216941F020012161207379
:102E40000120F0E74069E5E70121E9E72DE9F047D6
:102E50009A4691460E46044600254FF02008C1F3DD
:102E6000074725E020684069C043400514D4206826
:102E7000016841F40071016021686FF4806048616D
:102E8000256384F83D8084F83E50206C40F00400B7
:102E9000206484F83C501FE0B9F1FF3F08D0FEF7F2
:102EA000C7F9A0EB0A0149450CD8B9F1000F09D0C8
:102EB0002068012F13D0806926EA00000004000C6E
:102EC0000BD0CFE744F8305F84F80D80A5732069FC
:102ED00040F02000206125730120BDE8F0874069A3
:102EE000EAE72DE9F041002590460E4604462027EA
:102EF00017E04069C043C0060CD454F8301B6FF093
:102F00001000486144F810596777A577206A20625D
:102F1000257717E0FEF78CF9A0EB0800B04208D83F
:102F20003EB120684169C9434906E2D40020BDE8AA
:102F3000F08144F8305F6773A573206940F020008A
:102F4000206125730120F2E770B516460D46044650
:102F50000DE02046FFF74BFE08B1012070BD681C54
:102F600005D0FEF765F9801BA84207D835B1206867
:102F70004069C0430006ECD4002070BD002044F836
:102F8000300F20216173A073216941F0200121617C
:102F90002073E2E73EB500240D48009401940294AA
:102FA0000A498460016004730475012505614FF4CA
:102FB00060214460C161FDF7E1FECDE9004569464D
:102FC00003480294FDF75CFE3EBD00000024014072
:102FD000240200202DE9F04F85B0002558480095C7
:102FE000019502950395816941F0400181618169F4
:102FF00001F040010491816941F010018161816912
:1030000001F010010491816941F00401816181693D
:1030100001F004010491816941F008018161816935
:1030200001F008010491816941F02001816180690A
:10303000DFF810B100F02000049001224FF4D871A5
:103040005846FEF7F0F8DFF8009140F2033601220F
:1030500031464846FEF7E7F80122D70339463B4898
:10306000FEF7E1F8DFF8E8A04CF220080122414623
:103070005046FEF7D8F801224FF401413548FEF7DB
:10308000D2F844F27D00CDE900050124694602949E
:103090002E48FDF7C7FF4EF20720CDE9000569462F
:1030A00002945846FDF7BEFF3020CDE9000402949B
:1030B000694658460394FDF7B5FFCDE900640294D4
:1030C000694648460394FDF7ADFF11260097CDE908
:1030D000016469461D480394FDF7A4FF4FF4705046
:1030E000CDE90005694602945046FDF79BFFCDF8F7
:1030F0000080CDE90164694650460394FDF792FFD4
:103100004FF4C0700090CDE90164694658460394BD
:10311000FDF788FF20020090CDE9016469460D4863
:103120000394FDF77FFF0320CDE90240CDE9007451
:1031300069460848FDF776FF05B0BDE8F08F00004E
:103140000010024000100140000C01400018014036
:1031500000140140000801400C480B4901220160A5
:103160004FF48271416000218160C160C0E90412A6
:10317000520282613822C0E90721416281620A213C
:10318000C162FEF7B1BE000000300140A80200207D
:103190000C480B494FF4007201604FF4827141609A
:1031A00000218160C1600161C0E905123822C0E9D7
:1031B0000721416281620A21C162FEF795BE0000CB
:1031C000003800400003002010B58AB000240794A6
:1031D0001C2168460894FDF73CF811480F49C0E9E6
:1031E00000144FF6FF71C0E9024104618461FFF7EA
:1031F00006FB079407A90A480894FFF764F96020C2
:10320000CDE9000402940022694605480494FFF7C2
:103210008EFA0348FFF75AFA0AB010BD00040040C6
:1032200058030020FEE77047F8B5044640684FF4A5
:103230008273984217D1A0684FF48065B0F5004FB3
:1032400001D0A8420FD12068066826F0400606602B
:103250006068984207D1A068A84204D100920B464A
:103260000022012103E000920B460022802120462B
:1032700000F018F8002804D0606D40F02000606570
:103280000320F8BD38B50B46009204460022802189
:1032900000F008F8002804D0606D40F02000606560
:1032A000032038BD2DE9F0411D4617460E46044661
:1032B000DDF8188008E0681C06D0FDF7B9FFA0EB28
:1032C0000800A8420BD255B12068806836EA000099
:1032D00030D00020B842EED10020BDE8F081206857
:1032E000416821F0E00141606068B0F5827F0BD158
:1032F000A068B0F5004F02D0B0F5806F04D120680F
:10330000016821F040010160A06AB0F5005F09D1B9
:103310002068016821F4005101602068016841F4CF
:1033200000510160012084F85100002084F8500011
:103330000320D2E70120CDE701F072FF094C40F2F3
:10334000DE35002220212046FDF76DFF0A2001F026
:10335000E3F8012220212046FDF765FF284601F011
:10336000DBF8EEE7001401404FF47A74204601F0D8
:10337000D3F8FBE710B5502080F31188BFF34F8FCF
:10338000BFF36F8F03F05EFA18B104494FF080501D
:103390000860002080F3118810BD000004ED00E0FB
:1033A00030B595B028216846FCF753FF14210AA8D0
:1033B000FCF74FFF18210FA8FCF74BFF0224012058
:1033C000049000941020059000254FF46010CDE982
:1033D000085007946846FEF7F7FB0AA90F2081E81A
:1033E00031006002CDE90D0502210AA8FEF7E0FADE
:1033F0004FF4404011900F940FA8FEF763FA15B0F8
:1034000030BD00000D48016841F0010101604168D4
:103410000B4A1140416001680A4A1140016001688D
:1034200021F480210160416821F4FE0141604FF4E4
:103430001F0181600449C00308607047001002400A
:103440000000FFF8FFFFF6FE08ED00E02DE9F04177
:103450000E46184D1749083538B3174A1368B3FBA1
:10346000F0F2120C521C92B2B3FBF2F3B3FBF0F089
:1034700080B2401E0860081F521E02600868401C8F
:10348000FDF739F907460C463046FDF734F90022BE
:103490000A4BFDF7A5F83A462346FDF72FF8FDF74E
:1034A00037F980B22860BDE8F0814FF6FF70086000
:1034B0000020F7E72C0400401800002000005940CD
:1034C0000148FFF74FB8000098040020F0B50268EB
:1034D0001C4B1D4D1D4E1E4F1E4C4FF0804C9842F4
:1034E00009D0A04207D0604505D0A84203D0B04221
:1034F00001D0B84204D122F0700E4A6842EA0E02AE
:10350000984209D0A04207D0604505D0A84203D018
:10351000B04201D0B84203D122F44075CA682A43B0
:103520004D6922F080022A4302608A68C2620A68FA
:103530008262984201D0A04201D109690163012150
:103540004161F0BD002C0140000400400008004033
:10355000000C00400034014010B501F01F030121B0
:10356000046A99408C430462016A9A4011430162E3
:1035700010BD0000F0B5026A22F001020262036A87
:1035800042688469124E24F073050C682C4323F0C2
:1035900002058B682B430D4DA84201D0B04205D1E6
:1035A00023F00807CB683B4323F00403A84201D073
:1035B000B04205D14D6922F4407215438A692A430D
:1035C00042608461496841630362F0BD002C0140A0
:1035D00000340140F0B5026A22F010020262026A71
:1035E000436884690D6824F4E64444EA05248D6840
:1035F00022F0200242EA05120F4D104EA84201D0DF
:10360000B04206D1CF6822F0800242EA071222F0CF
:103610004002A84201D0B04207D14D6923F4406373
:1036200043EA85038D6943EA850343608461496801
:1036300081630262F0BD0000002C014000340140B3
:10364000F0B5026A22F480720262026A4368C469B9
:1036500022F4007224F073050C68124E2C438D681E
:1036600042EA05220E4DA84201D0B04206D1CF68F1
:1036700022F4006242EA072222F48062A84201D0CA
:10368000B04207D14D6923F4405343EA05138D69D5
:1036900043EA05134360C4614968C1630262F0BD37
:1036A000002C01400034014030B5026A22F48052FF
:1036B0000262046A4268C3690D6823F4E64343EA80
:1036C00005238D6824F4005444EA0534084DA842CB
:1036D00002D0084DA84204D14D6922F4804242EA4A
:1036E00085124260C36149680164046230BD000014
:1036F000002C0140003401400148FFF7DFB8000012
:103700009803002010B5406A0021C185C184FFF7ED
:10371000D4F810BD0168CA6822F49072CA600168CA
:103720004A6922F001024A61202180F83A1070476C
:1037300010B590F83A10222901D0022010BD8168FE
:10374000B1F5805F11D00169002901681FD0496877
:1037500001F07F03816A4A1C82620B70C18D491E91
:103760000904090CC18518D02BE00269816A002A7E
:103770000268526805D0D2B20A80816A491C81620F
:10378000ECE7C2F308020A80816A891CF7E74A68FD
:10379000816A4B1C83620A70E0E70168CA6822F004
:1037A0002002CA600168CA6822F48072CA60016897
:1037B0004A6922F001024A61202180F83A10FFF79D
:1037C00013FA002010BD00002DE9F0410446006806
:1037D0000169E26821F44051114301612169A06847
:1037E0000843616908432168CA6841F20C639A433F
:1037F0000243CA6020684169A26921F44071114303
:1038000041611E49206864253226884202D1FEF7B4
:1038100095F901E0FEF782F900EBC00101EB001120
:1038200060686FF018078000B1FBF0F2B2FBF5F2B0
:10383000B1FBF0F37A4303EB8202B1FBF0F306EB4A
:103840000212B2FBF5F2B3FBF5F302F0F00202EB69
:103850000312B1FBF0F3B1FBF0F0B0FBF5F07843ED
:1038600003EB800006EB0010B0FBF5F0216800F0E0
:103870000F0010448860BDE8F0810000003801406E
:1038800090F83910212901D0022070478168B1F5E4
:10389000805F016A0BD04A1C02620268097851609D
:1038A000C18C491E0904090CC1840ED017E0098897
:1038B0000268C1F30801516001690029016A02D060
:1038C000491C0162ECE7891CFBE70168CA6822F029
:1038D0008002CA600068C16841F04001C1600020F8
:1038E000704700000148FEF7E9BF0000D803002040
:1038F0000148FEF7E3BF0000180400200148FEF76E
:10390000DDBF000058040020FEE70907090E00286B
:1039100004DB00F1E02080F80014704700F00F0095
:1039200000F1E02080F8141D704702E008C8121F63
:1039300008C1002AFAD170477047002001E001C198
:10394000121F002AFBD1704700F00F01000900EBA5
:10395000800001EB4000C0B27047000010B5064C7B
:103960002078002806D100F049FF201D00F028F83B
:103970000120207010BD000010010020002000F088
:1039800051BF10B50446322000F04CFFA0B2BDE894
:10399000104000F043BF000003480068002801D039
:1039A0000068004770470000F401002003490968DF
:1039B000002901D04968084770470000F401002041
:1039C0000149086070470000F40100200148408868
:1039D000FFF7ECBF1C01002010B58CB00446684610
:1039E00000F06AF890B10598A0800498401CA0717E
:1039F0000398E07102982070019860700098A070A0
:103A00000698401C207200200CB010BD0320FBE77C
:103A100010B500F09DF808B1002010BD012010BDC8
:103A200000B58BB0818805918179491E0491C179D7
:103A30000391017802914178019181780091007A97
:103A4000401E0690684600F08FF810B100200BB0C1
:103A500000BD0220FBE7000070B50446082817D817
:103A60000D4D0120287005F1540030F8240081B27A
:103A700005F1340050F82400FDF7D0FB0749287009
:103A8000002851F8240002D0002802D002E008B13A
:103A9000002070BD012070BD98000020ACAD00205A
:103AA0000A21B0FBF1F201FB1202B0FBF1F002EBD4
:103AB0000010C0B2704700003EB5040041D007209E
:103AC000009001AB0022D121204800F0AFF801287E
:103AD00036D19DF80400FFF737FF20609DF8050000
:103AE000FFF732FF60609DF8060041062BD500F01D
:103AF0001F00FFF729FF401EA0609DF806108906F1
:103B000001D50C30A0609DF80700FFF71DFF401E97
:103B1000A0619DF80800FFF717FFE0609DF809001D
:103B200000F01F00FFF710FF401E20619DF80A0003
:103B3000FFF70AFF00F5FA606061002020620120B3
:103B40003EBD00203EBDFFF7FFFEDBE7FC0100208D
:103B500010B50349034800F0DFF8012010BD000054
:103B600054020020FC0100200EB5030032D018786A
:103B7000FFF796FF8DF804001879FFF791FF8DF895
:103B80000500187AFFF78CFF8DF80600187E401CA0
:103B9000C0B2FFF785FF8DF80700187BFFF780FFA5
:103BA0008DF80800187C401CC0B2FFF779FF8DF833
:103BB0000900187DA0F5FA60C0B2FFF771FF8DF81B
:103BC0000A000720009001AB0022D021024800F03B
:103BD00069F80EBD00200EBDFC010020014902481D
:103BE00000F09AB8540200200402002008B50E2309
:103BF0000092CAB203EAD111034641F0A101024882
:103C000000F014F808BD00000402002008B50E23DF
:103C10000092CAB203EAD111034641F0A001024862
:103C200000F040F808BD0000040200202DE9FE4F1E
:103C30001A4D81461A4EFF20DDF830A08B46002435
:103C400028701F469046611E306800F0BBFC10B122
:103C50000120287004460220287032210097CDE907
:103C600001A108F0FF0201235946D9F80000FDF731
:103C70009FFB10B103202870641C0420287030685A
:103C800000F032FD10B105202870641C0620287059
:103C900014B10020BDE8FE8F0120FBE700020020E8
:103CA000040000202DE9FE4F194E8B46814600246A
:103CB0001F469046611EDDF830A0306800F082FC9F
:103CC000144D10B101206870044602206870322142
:103CD0000097CDE901A108F0FF0201235946D9F868
:103CE0000000FDF775FC10B103206870641C04200F
:103CF0006870306800F0F8FC10B105206870641C32
:103D00000620687014B10020BDE8FE8F0120FBE79B
:103D1000040000200002002011B101600120704762
:103D20000020704770B50024FCF72EFE0646FCF715
:103D3000BFFE054601210948FDF770FA40B9FCF7BE
:103D4000C4FE80B2410700D50424C00700D005247A
:103D5000AE4200D00224204670BD00000018014091
:103D60001CB50024FCF73AFE0090FCF793FE01908E
:103D7000022201A96846FCF777FA00B10124204627
:103D80001CBD1CB5FCF70EFE0090FCF783FE0190F5
:103D9000022201A96846FCF767FA002800D0032038
:103DA0001CBD000010B501F0EDF910480068804717
:103DB0000F48006880474FF47A7418B1204600F02D
:103DC000ABFBFBE70B480068804718B1204600F0CA
:103DD000A3FBFBE708480068804708480068804765
:103DE00007480068BDE81040004700008C780008D4
:103DF00070780008807800082C780008587800084F
:103E0000647800082DE9F0410446082802D9002012
:103E1000BDE8F081002502F00FFD06462046FFF7C1
:103E20001BFE124B124903F108021F5D874204D0AA
:103E300041F824600027175501E0175D9FB951F83C
:103E40002410711A1E290ED90849012610310F5D60
:103E500020B1012F06D001250E5503E0022F01D01D
:103E600002250D55165518552846D1E7B1000020FA
:103E7000ECAD00202DE9F0410446082802D90020CD
:103E8000BDE8F08102F0D8FC05462046FFF7E4FDCE
:103E90000F4B104E03F108011F5D01F1080287422C
:103EA00004D046F8245000270F5501E00F5D5FB99C
:103EB00056F82460AD1B1E2D06D908B1032500E07D
:103EC0000425155501250D551855105DD8E700003E
:103ED00099000020CCAD00203EB50D4600218DF8A4
:103EE00000108DF80410082814D2DFE800F0040652
:103EF000080A0C0E101207200CE006200AE005202C
:103F000008E0042006E0002004E0012002E0022096
:103F100000E00320441CE0B2694601F085FA90B944
:103F20009DF8000028B1E0B201A901F0DFFA50B914
:103F300001E002203EBD9DF8040030B1E0B202A9CC
:103F400001F038FA18B104203EBD03203EBD0298AE
:103F500001F01EFC286000203EBD3EB50D4600214C
:103F60008DF800108DF80410082814D2DFE800F056
:103F70000406080A0C0E101207200CE006200AE0C6
:103F8000052008E0042006E0002004E0012002E013
:103F9000022000E00320441CE0B2694601F044FA2C
:103FA000A0B99DF8000028B1E0B201A901F09EFA85
:103FB00060B901E002203EBD9DF8040008B1032075
:103FC0003EBDE0B202A901F0F5F908B104203EBD02
:103FD000029801F0DDFB286000203EBD10B501F025
:103FE0000DFB002800D0012010BD7CB50D4600213E
:103FF0008DF800108DF80410082814D2DFE800F0C6
:104000000406080A0C0E101207200CE006200AE035
:10401000052008E0042006E0002004E0012002E082
:10402000022000E00320441CE0B2294601F092FA8D
:1040300068B9E0B2694601F059FA78B99DF8000014
:10404000854212D1E0B2012101F01CFA08B105202D
:104050007CBDE0B201A901F0E7F908B104207CBD04
:104060009DF8040008B100207CBD03207CBD000049
:10407000FDF77EFBFFF794F9FEF7ACFFFEF78AFF32
:1040800030482F49002401602F49C0E901144FF442
:104090008041C0E9034144618461C4610462FDF769
:1040A000CDF82B4829494FF4E1350160C0E90154AE
:1040B0000C26C460C0E904468461C461FEF786FC36
:1040C0002348244940300160C0E90154C460C0E97C
:1040D00004468461C461FEF779FC1D481E498030A6
:1040E0000160C0E90154C460C0E904468461C46150
:1040F000FEF76CFC16481949C0300160C0E9015454
:10410000C460C0E904468461C461FEF75FFCFFF748
:104110005BF8FFF721F8FFF73BF800F017FA0121F1
:104120000F4A084600F088FA0E4C0D4A00216060E4
:10413000243A0D4800F010FB206000F023FAFEE75F
:104140000058004054020020A0860100004C0040AE
:10415000980300200038014000440040004800401F
:10416000586C000800000020393300082DE9F041A8
:1041700008680D4602EB8001154C08894F89A1693A
:10418000164611B101291DD01EE00021FE2810D0D5
:10419000FF2815D0FFF70AFC306845F6C051784378
:1041A000B1FBF0F0401EA0612868401C2860BDE80B
:1041B000F0812960206908B12161F8E76161F6E7C3
:1041C0002960F4E7FFF7E8FBA069401EA061EEE775
:1041D0001C01002010B50C461AB1012A03D006209C
:1041E00010BD104B00E0104B032815D003DC50B17C
:1041F000012806D109E093280ED0A0F5807123395B
:104200000CD0072010BD012200E00222014620460A
:10421000984728B1002010BD9022F7E74822F5E723
:10422000032010BD0D3C0008ED3B000838B55520BB
:104230008DF800006946002000F0DCF8F0BB2D4D41
:104240004FF47A7000226880A91C0120FFF7C2FF9A
:10425000A0BB00214FF6FF7401EBC102002005EB6B
:10426000C20300BF00EB400203EB4202401C14817A
:104270009480D4800C28F5D3491C0229ECD3002269
:10428000291D0320FFF7A6FFC0B900EBC0020021E3
:1042900005EBC20301EB410203EB4202491CA2F809
:1042A000984022F8944F0C295480F3D3401C0228E4
:1042B000EBD3104900229431932000E017E0FFF780
:1042C00089FFA0B900EB400105EB4101401CA1F8BA
:1042D0002441A1F82641A1F828410C28F2D300225C
:1042E000054940F22310FFF775FF002800D0022097
:1042F00038BD00004CAE002070AF002008B5FFF7BD
:104300006DFC1149002000F021F8C8B90E48007872
:10431000552817D055208DF80000FFF787FF78B992
:104320006946002000F066F850B9012000F054FF03
:104330004FF4FA7000F0F0F800F010F8002800D008
:10434000012008BD0520F1E74CAE002010B5012288
:10435000FFF740FF002800D0042010BD10B50F4C1F
:104360000122A11C1046FFF735FFA8B90122211D2B
:104370000320FFF72FFF78B9012204F19401932065
:10438000FFF728FF40B9012204F5927140F2231093
:10439000FFF720FF002800D0042010BD4CAE002005
:1043A00038B555208DF800006946002000F022F84D
:1043B000E0B90F4C0022A11C0120FFF70BFFA8B9A8
:1043C0000022211D0320FFF705FF78B9002204F128
:1043D00094019320FFF7FEFE40B9002204F592718C
:1043E00040F22310FFF7F6FE002800D0022038BD6F
:1043F0004CAE002010B50022FFF7ECFE002800D0E4
:10440000022010BDFFF7C8BA70B51B4D002405F19E
:10441000200600BF55F8240010B956F8240028B330
:10442000082C14D2DFE804F00406080A0C0E10125F
:1044300000200CE001200AE0022008E0032006E052
:10444000042004E0052002E0062000E00720FFF73A
:10445000D9FC58B1012802D0022807D102E055F852
:10446000240001E056F8240000B18047641CE4B247
:10447000082CCFD370BD00000CAE002010B5002476
:10448000082814D2DFE800F00406080A0C0E101207
:1044900000200CE001200AE0022008E0032006E0F2
:1044A000042004E0052002E0062000E00720FFF7DA
:1044B000E1FC38B1032802D0042803D101E0032431
:1044C00000E00424204610BD10B5044A0021044831
:1044D00000F042F903490860002010BD347800085C
:1044E0000945000808020020012903D0022903D051
:1044F00002207047034901E00249203141F82020A1
:10450000002070470CAE00200020FFF77DFF0A203E
:1045100000F002F8F8E7000010B5EFF3058149B9A3
:10452000EFF3108131B908490968022905D1EFF389
:10453000118111B16FF0050403E0002408B101F00E
:104540009BFA204610BD00006C000020EFF30580B0
:1045500058B9EFF3108040B909490868022801D022
:1045600030B109E0EFF3118030B16FF00500704712
:1045700001200860002070474FF0FF3070470000B6
:104580006C00002010B5EFF3058060B9EFF31080E8
:1045900048B90B490868022802D0012806D00BE070
:1045A000EFF3118040B16FF0050010BD02200860EC
:1045B00001F012FB002010BD4FF0FF3010BD0000D5
:1045C0006C000020F8B50D460024211F4E1C002869
:1045D0000ED000BFEFF305824AB9EFF3108232B973
:1045E000134A1268022A17D1EFF31182A2B10DB15A
:1045F0000C461BE000216A46009101F073FF012880
:1046000013D1009890B10B494FF080500860BFF370
:104610004F8FBFF36F8F09E0294601F0B1FF0128EA
:1046200004D015B16FF0010400E034462046F8BD17
:104630006C00002004ED00E0F8B5144603460E4679
:104640004FF00005EFF30580E8BBEFF31080D0BB1F
:1046500024480068022802D1EFF3118098BB93B37D
:104660009E423DD84CB1A0680028E06803D0502895
:1046700036D3012002E008B132E00020012B05D042
:1046800010B31846A26801F07AFC20E040B1032084
:104690000090002211460120A36801F0B4FC04E060
:1046A00003220021012001F08AFC050018D086B108
:1046B00000231A46194601F01DFD012809D028469D
:1046C00001F08CF900250BE0184601F03BFC0500D9
:1046D00006D00CB1216800E00021284601F06AF9FB
:1046E0002846F8BD6C00002038B50024E51E0028DF
:1046F00004D000BFEFF3058169B902E06FF0030455
:1047000023E0EFF3108131B911490968022914D16E
:10471000EFF3118189B100210091694601F0F8FDA4
:10472000012811D1009880B10A494FF080500860EB
:10473000BFF34F8FBFF36F8F07E000231A46194670
:1047400001F0D8FC012800D02C46204638BD0000DE
:104750006C00002004ED00E0F0B585B04FEA0103E5
:104760004FF00004EFF305810394A1BBEFF3108138
:1047700089BB21490968022902D1EFF3118151BB9C
:1047800048B3802618218DF8104004AD42B3176855
:1047900007B13D4697691FB139467F1E382F02D2B7
:1047A0001779FF0702D0002005B0F0BD576907B1A7
:1047B000BE08D2F808C0BCF1000F0DD0D4685C2C44
:1047C00018D312693AB137B18DE80610324629463E
:1047D00001F0F9FF03900DE0D7685FB912694AB99B
:1047E00003AACDE90012B2B2294601F0BFFF0128A9
:1047F00000D003940398D7E76C00002010B5054C57
:104800002078002805D100210348FEF729F801206F
:10481000207010BDF8010020580300201E21FEF773
:1048200015BE000070B505460B480068FBF763FF36
:1048300006460C462846FBF75EFF0022074BFBF7B7
:10484000CFFE32462346FBF759FEFBF761FF0449D2
:104850000968486370BD00002C0400400000594006
:1048600058030020704700002DE9F041134C0F461B
:10487000054666692068001D00F0A2FF681C07D18C
:1048800037B12168BDE8F0410D48091D00F0E8BFCF
:1048900020683544B5424560216805D2A068BDE86E
:1048A000F041091D00F0C4BF6068091D00F0C0FFA1
:1048B000206B854200D22563BDE8F0811C000020FA
:1048C000C80900202DE9F041054600F0D5FF2D4C28
:1048D0002069401C206120682B4F10B1E06930B383
:1048E0002BE025602069012827D1002606EB8600F1
:1048F00007EB800000F08EFF761C382EF6D323489D
:1049000000F088FF2148143000F084FF1F48283051
:1049100000F080FF1D483C3000F07CFF1B48503009
:1049200000F078FF194860601430A06005E020684E
:10493000E96AC06A884200D82560E06A401CE062EB
:104940006864E86AA169884200D9A06100EB800030
:1049500007EB8000291D00F083FF00F0ADFFE06948
:1049600000280CD02068E96AC06A884207D208494A
:104970004FF080500860BFF34F8FBFF36F8FBDE8DB
:10498000F08100001C00002018050020780900209C
:1049900004ED00E038B500F06FFF104CA068C8B916
:1049A0000F4800F037FF0E48143000F033FF0C487A
:1049B0002060143060600A4B00202833009003F11F
:1049C000500210210A2001F01EFBA06010B105A1C9
:1049D00000F0F0FFBDE8384000F06EBF5800002046
:1049E000DC090020546D72510000000030B4026CEC
:1049F0000B46002A0BD0C1681144C1604468A14233
:104A000001D30168C16030BC1846FBF709BC30BC5B
:104A100070472DE9F041856B174604460026026C6D
:104A200082B1C7B1E068FBF7FBFBE168206C091AB3
:104A3000E1602268914202D26168081AE060022FA8
:104A400016D017E02068A8B9606801F05FFF06463D
:104A5000002060600EE0A068FBF7E2FB216CA0681C
:104A60000844A0606168884204D32068A06001E027
:104A700005B16D1E6D1CA5633046BDE8F08110B513
:104A8000044690F8590058B101280CD002280FD0E4
:104A9000502080F31188BFF34F8FBFF36F8FFEE775
:104AA000206B00F01DFF2046BDE8104000F018BF4D
:104AB00010BD000010484FF4F041420706D0C01D61
:104AC0000D4920F00700411AC1F5F0410B4A0023BF
:104AD0000144C2E900030839103A21F007011160CE
:104AE0004B600B600B1AC0E9001393604FF000405D
:104AF0005360D06070470000AC350020800000207B
:104B0000144E154CA6F29C474FF08058DFF84C909D
:104B100012E000BF00F0B0FEF068C568281D00F08C
:104B20004FFE2069401E2061E068401EE06000F0FA
:104B3000C3FE2846FFF7A3FFE0680028EAD13868E3
:104B40000128F9D9C9F80080BFF34F8FBFF36F8FE9
:104B5000F2E70000B40900201C00002004ED00E092
:104B600070B51D46049C51B1C4F80020C4E90F0182
:104B70000121204601F07AFA84F84C5070BD24607F
:104B8000F4E72DE9F0470E46DDE909841746824631
:104B900091009946089DA522206BFBF753FB6FF00F
:104BA0000301206B01EB8701084420F00707780719
:104BB00007D0502080F31188BFF34F8FBFF36F8F62
:104BC000FEE72218315C82F83410315C11B1401CD0
:104BD0001028F6D3002684F84360382D00D33725FB
:104BE000E562C4E91356201D00F01FFE04F1180011
:104BF00000F01BFE2461C5F138006462A0616665A7
:104C000084F858604A465146384600F069FA2060F8
:104C1000B8F1000F01D0C8F80040BDE8F0872DE9D9
:104C2000F0471E46DDE9089417460D0080460ED079
:104C3000002C14D0FFF7AEFEC4F80080C4E906577C
:104C4000C4E90869201DBDE8F04700F0EEBD502022
:104C500080F31188BFF34F8FBFF36F8FFEE7BDE87E
:104C6000F087000030B5114900E011460A68824221
:104C7000FBD34B685C18844203D1406818444860F9
:104C8000084643681C18944209D1084C103C24681B
:104C9000A24209D052681A4442600A68126802604F
:104CA000814200D0086030BD0460F9E78000002038
:104CB00070B5002441600B4D0061914206D8D11AB5
:104CC0008269914206D2011D686807E09A4203D2C8
:104CD000994201D3012403E0011D286800F0A8FDDA
:104CE000204670BD5800002010B5044600F0C4FDF9
:104CF000A06B28B15FF0000400F0DEFD204610BD7F
:104D00000124F9E730B589B0304D55E0049800280A
:104D100006DADDE90601059A9047049800284BDB86
:104D2000069C606910B1201D00F04AFD02A800F049
:104D3000B9F8024604980A283ED2DFE800F00505DB
:104D4000053D263705053D260598A1690346014422
:104D50002046FFF7ADFF00B3616A20468847E0694F
:104D6000012829D1002000900598A169002342184C
:104D70001946204601F02AFF78B9502080F31188A7
:104D8000BFF34F8FBFF36F8FFEE70598A06128B187
:104D9000811813462046FFF78BFF0DE0502080F36B
:104DA0001188BFF34F8FBFF36F8FFEE794F82C008D
:104DB00010B9204600F094FD002204A9A86801F073
:104DC000F5FA0028A2D109B030BD0000580000203B
:104DD0002DE9FC410F46054600F042FF01A800F016
:104DE00061F80446019818B101F044FEBDE8FC8169
:104DF000224EAFB170680068A8B30027291B3A465D
:104E0000B06800F017FE01F035FE0028EED11C4915
:104E10004FF080500860BFF34F8FBFF36F8FE5E70F
:104E2000A542EBD801F026FE30682746C068C4686A
:104E3000201D00F0C5FCE069012810D1A0692B46B7
:104E400041193A462046FFF733FF40B100200346A0
:104E5000014600902A46204601F0B8FE20B1616A62
:104E600020468847C2E707E0502080F31188BFF34F
:104E70004F8FBFF36F8FFEE70127BFE75800002079
:104E800004ED00E006484168096829B14168C96835
:104E9000C9684968016370474FF0FF31FAE70000C5
:104EA0001C00002070B5054601F0C6FC064E044605
:104EB0003069844203D200F009F8012000E00020AC
:104EC00028602046346170BD58000020F8B5194DA7
:104ED0001FE0C068C4680668201D00F071FC616AAC
:104EE00020468847E069012813D1A0693044B042C8
:104EF00006D924616060211D286800F099FC08E053
:104F000000200346014600903246204601F05EFE36
:104F100038B1286801680029DBD16968C5E900104B
:104F2000F8BD502080F31188BFF34F8FBFF36F8F10
:104F3000FEE700005800002008484068401C4FF081
:104F4000500080F3118804D0BFF34F8FBFF36F8FF1
:104F5000FEE7BFF34F8FBFF36F8FFEE7880000209F
:104F6000074C2068016841B1C0680021D0F80000FA
:104F7000FFF72EFFFFF7C6FEF3E701210020F7E75A
:104F8000580000202DE9F041044600F075FC94F92A
:104F9000455004F1240609E0606A48B1304601F04A
:104FA00031FD08B100F096FD6D1E6DB2002DF3DCF1
:104FB0004FF0FF3684F8456000F07EFC00F05CFCAA
:104FC00094F9445004F1100709E0206948B13846CB
:104FD00001F018FD08B100F07DFD6D1E6DB2002DD1
:104FE000F3DC84F84460BDE8F04100F065BC0000EB
:104FF0002DE9F0410546002700F032FE314E3068C1
:1050000008B9FFF757FDF06805424BD1C5B3083525
:1050100068070ED005F00700C0F1080005446807D6
:1050200007D0502080F31188BFF34F8FBFF36F8FED
:10503000FEE72DB37068854234D82248103001460F
:105040000C6801E020460C466168A94202D2216842
:105050000029F7D131688C4224D0076821680160AB
:1050600060680837411B10290FD96019420708D022
:10507000502080F31188BFF34F8FBFF36F8FFEE78F
:1050800010E041606560FFF7EDFD61687068401AEF
:105090007060B268904200D2B060F06801430020B6
:1050A000C4E9000101F0E6FC780707D0502080F346
:1050B0001188BFF34F8FBFF36F8FFEE73846BDE80F
:1050C000F0810000700000200449086818B10868E9
:1050D000026D521C02650868704700001C00002029
:1050E00010B5031F4FF080741C601B1F21F00101DD
:1050F0001960191F024B0B60143940380A6010BD4B
:10510000394F000810B5082818D2DFE800F004066F
:10511000080A0C0E101201200CE002200AE0042004
:1051200008E0082006E0102004E0202002E04020F3
:1051300000E0802000F0A8F8002010BD012010BD84
:1051400010B50021FF2000F09FF8002010BD0000E6
:105150000B48C288B0F90A100A4492B2C28003898F
:105160009A4202D949424181C380C28881888A42D9
:1051700003D2428952424281C180C088FEF716BCE8
:105180001C01002038B50F4C2078002818D1FEF7FC
:10519000E5FB0D20E0600C480090002301220A216D
:1051A0000AA001F0C9FCE06201F046FB024664205F
:1051B000009000230121E06A01F008FD0120207029
:1051C00038BD00001C010020E5510008536F756ECA
:1051D0006454696D65720000014908617047000000
:1051E0001C0100200D4930B4CB695B1CCB61086900
:1051F00000B9486900EB40010848303050F82140C0
:10520000002C09D000EB810103EB83008A68A446DF
:10521000400030BC091D604730BC70471C010020B5
:1052200010B5094A00210948FFF796FA08490860B5
:1052300000F032FEFFF716FB00F02DFE00F04AFDF5
:1052400000F028FE10BD0000686C000869330008FB
:10525000080000200B49002048627F208862086A0D
:105260000028024600DA5242052A01DC486A07E0BB
:105270006FF01802504340F6B83202EB400048622B
:10528000FEF794BB1C0100202DE9F041464C22881A
:10529000E1B302431004454E2280000C39D00122B4
:1052A00020213046FBF7BFFF002000BF00BF00BF3A
:1052B00000BF00BF00BF00BF401C1E28F5DB3C4FF5
:1052C0002588002201213846FBF7ADFF002000BFF2
:1052D00000BF00BF00BF00BF00BF00BF401C1E28B2
:1052E000F5DB0024002202213846FBF79CFF00205A
:1052F00000BF00BF00BF00BF00BF00BF00BF401C19
:105300001E28F5DB280615D5012214E0FFE78243AD
:10531000C0E7002220213046FBF785FF002000BFB8
:1053200000BF00BF00BF00BF00BF00BF401C1E2861
:10533000F5DBC4E7002210213046FBF774FF4FF67F
:10534000FF7000EA4505002000BF00BF00BF00BF9E
:1053500000BF00BF00BF401C1E28F5DB0122022158
:105360003846FBF760FF002000BF00BF00BF00BF52
:1053700000BF00BF00BF401C1E28F5DB641CE4B268
:10538000082CAFD3012211463846FBF74CFF002012
:1053900000BF00BF00BF00BF00BF00BF00BF401C78
:1053A0001E28F5DBBDE8F0819400002000100140CC
:1053B000000C0140FEB50D0004464FF0FF3724D02D
:1053C000082C22D800F0FCF8F8B904267CB1641E41
:1053D00044F080008DF8080001AB012202A91148B9
:1053E000009600F043F910F0FF0F16D00DE044F0E6
:1053F00080008DF8080001AB012202A9094800963F
:1054000000F034F910F0FF0F01D03846FEBD0198CE
:10541000641C01C5082CEADB01E00198286000202B
:10542000FEBD00000C010020FEB504464FF0000058
:105430000D008DF804004FF0FF3604D0082C02D880
:1054400000F0BEF808B13046FEBD88208DF8080097
:1054500001200246009001AB02A9094800F006F9BC
:1054600010F0FF0001D040B2FEBD9DF804001CB159
:10547000641EE04000F0010028700020FEBD000026
:105480000C010020FEB50D4604468DF804104FF0C7
:10549000FF37082816D801268CB101A90020FFF794
:1054A000C3FF10F0FF001CD1641E06FA04F19DF842
:1054B0000400A540884328438DF8040004E000F070
:1054C0007FF808B13846FEBD08208DF8080001AB12
:1054D000012202A90448009600F004F910F0FF0030
:1054E000F1D040B2FEBD00000C010020FEB5044624
:1054F0004FF000000D008DF804004FF0FF3604D08F
:10550000082C02D800F05CF808B13046FEBD8920B6
:105510008DF8080001200246009001AB02A90C485A
:1055200000F0A4F810F0FF0001D040B2FEBD5CB165
:10553000641E04EBD47041109DF80400C84000F0D4
:10554000010028700020FEBD9DF80400F9E700006E
:105550000C010020FEB50D4604468DF804104FF0F6
:10556000FF37082819D80126A4B101A90020FFF7A8
:10557000BDFF10F0FF001FD1641E04EBD47041107A
:1055800006FA01F29DF804008D40904328438DF8FF
:10559000040004E000F014F808B13846FEBD09200C
:1055A0008DF8080001AB012202A90448009600F022
:1055B00099F810F0FF00F1D040B2FEBD0C010020C0
:1055C0000EB58C208DF804000420009002AB01225F
:1055D00001A9084800F04AF810F0FF0001D040B2DD
:1055E0000EBD05490298884202D04FF0FF300EBD33
:1055F00000200EBD0C0100205450533838B5002057
:1056000011498DF800000F484FF47A75086028465C
:10561000FEF782FF00F0A2F804462846FEF77CFF62
:1056200000210846FFF72EFF044469460020FFF7DB
:10563000FBFE9DF80010204440B2002901D04FF03D
:10564000FF3038BDA80200200C01002008B5002260
:105650004FF47A7305E000920099491C0091994239
:10566000FAD3401E80B2F6D208BD00002DE9F05FEB
:10567000DFF86CA016468846054600244FF4004922
:105680009B462246494650460A9FFBF7CCFD0A201E
:10569000FFF7DCFFB2B2322341462868FCF772FD07
:1056A00000B101240A20FFF7D1FFBAB232235946D4
:1056B0002868FCF7BFFC00B1641C0A20FFF7C6FF96
:1056C000012249465046FBF7AEFD0A20FFF7BEFF18
:1056D0001CB14FF0FF30BDE8F09F0020FBE7000059
:1056E000000801402DE9F05FDFF86CA016468846FF
:1056F000054600244FF400499B4622464946504641
:105700000A9FFBF790FD0A20FFF7A0FFB2B23223F9
:1057100041462868FCF736FD00B101240A20FFF756
:1057200095FFBAB2322359462868FCF72BFD00B129
:10573000641C0A20FFF78AFF012249465046FBF706
:1057400072FD0A20FFF782FF1CB14FF0FF30BDE869
:10575000F09F0020FBE70000000801400EB50A485A
:105760000190FFF72DFF10B14FF0FF300EBD0B2061
:105770008DF808000420009001AB012202A9034823
:10578000FFF7B0FF40B20EBDAF50FA050C0100208C
:1057900010B520F07F40B0F5000F09D3C0F1807044
:1057A000FAF7A4FFBDE810404FF03741FAF7C1BD4A
:1057B000FAF79CFFBDE810406FF01001FAF7EBBD5F
:1057C000D0E9013201699A60D0E901235A604A6840
:1057D000824201D182684A60002202610868401E4C
:1057E0000860086870470000034B036003F15C0029
:1057F0000860802010607047F40A0020044B0360AA
:1058000003F15C0008604FF42060106070470000F6
:10581000500D002000F108014FF0FF32C0E90112E5
:10582000C160016100210160704700210161704782
:1058300030B50B685A1C02D000F1080202E0026980
:1058400004E02246546825689D42FAD953684B60AB
:1058500099608A60516008610168491C016030BD2F
:1058600042684A6093688B609368596091600861F0
:105870000168491C01607047502080F31188BFF314
:105880004F8FBFF36F8F0A494868401C486001285A
:105890000CD10848006810F0FF0F07D0502080F3AB
:1058A0001188BFF34F8FBFF36F8FFEE77047000083
:1058B0008800002004ED00E00849486828B1401E37
:1058C000486001D180F311887047502080F311881F
:1058D000BFF34F8FBFF36F8FFEE7000088000020FB
:1058E00070B5002827D0144DA0F108046168E8685D
:1058F000014207D1502080F31188BFF34F8FBFF3CF
:105900006F8FFEE722683AB1502080F31188BFF311
:105910004F8FBFF36F8FFEE78143616000F0A0F906
:1059200060686968084468602046FFF79BF9BDE835
:10593000704001F09FB870BD700000204FF0E02073
:1059400000210161816105494FF47A720968B1FB58
:10595000F2F1491E416107210161704718000020E2
:1059600010B5FAF737FC114910280ED300F1E020EA
:1059700090F8F0030A78904207D2502080F3118803
:10598000BFF34F8FBFF36F8FFEE709480068896848
:1059900000F4E060884207D9502080F31188BFF3FB
:1059A0004F8FBFF36F8FFEE710BD0000880000200F
:1059B0000CED00E010B5084B002200BF53F8324058
:1059C0001CB1521C082AF9D310BD43F8321003EB66
:1059D000C201486010BD0000D804002010B50400CA
:1059E0000AD000F013F894F8460000280CD12046A5
:1059F000BDE81040FFF774BF502080F31188BFF35B
:105A00004F8FBFF36F8FFEE710BD0000084A0021E3
:105A100002EBC1035B68834206D1002042F83100EB
:105A200002EBC10148607047491C0829F0D3704758
:105A3000D804002070B515460E460446FFF71CFF3B
:105A400094F944100020491C01D184F8440094F9D1
:105A50004510491C01D184F84500FFF72DFFA06BCC
:105A600028B92A46314604F1240000F051F82046B6
:105A7000BDE87040FFF786BA10B5020014D00F4899
:105A8000806B38B1502080F31188BFF34F8FBFF384
:105A90006F8FFEE700F0E4F800211046FEF7E4FE09
:105AA00000F0E8FF002807D105494FF0805008605A
:105AB000BFF34F8FBFF36F8F10BD00001C0000209D
:105AC00004ED00E002498A6A02604969416070475A
:105AD0001C00002001490120486270471C00002082
