:020000040800F2
:1000000060CA0020DD010008BB3200081D2B00087B
:10001000B93200080D0A0008813A0008000000000B
:100020000000000000000000000000004501000882
:10003000830A00080000000089010008F932000866
:10004000F7010008F7010008F7010008F7010008B0
:10005000F7010008F7010008F7010008F7010008A0
:10006000F7010008F7010008F7010008F701000890
:10007000110A00081D0A0008290A0008350A0008AC
:10008000F7010008F7010008F7010008F701000870
:10009000F7010008F7010008F7010008F701000860
:1000A000F7010008F7010008F7010008F701000850
:1000B000F7010008F7010008F7010008F701000840
:1000C000F7010008F7010008F7010008F701000830
:1000D000F7010008453A00085D3A0008693A00084F
:1000E000F7010008F7010008F7010008F701000810
:1000F000F7010008F7010008F7010008F701000800
:10010000F7010008F7010008F7010008F7010008EF
:10011000ED350008F7010008F7010008D1330008A9
:10012000F7010008F7010008410A00084D0A00081D
:10013000DFF80CD000F084FB00480047E94C0008D1
:1001400060CA0020224B19680868B0E8F00F80F3FD
:100150000988BFF36F8F4FF0000080F311884EF0D5
:100160000D0E70470000000006480068006880F32C
:10017000088862B661B6BFF34F8FBFF36F8F00DFA1
:1001800000BF00BF08ED00E0EFF30980BFF36F8F01
:100190000F4B1A6820E9F00F106008B54FF05000BF
:1001A00080F31188BFF34F8FBFF36F8F06F012FA01
:1001B0004FF0000080F31188BDE808401968086816
:1001C000B0E8F00F80F30988BFF36F8F704700BF6E
:1001D00020000020EFF305807047000006488047AC
:1001E00006480047FEE7FEE7FEE7FEE7FEE7FEE71C
:1001F000FEE7FEE7FEE7FEE789330008310100086D
:1002000030B50B46014600202022012409E021FAE6
:1002100002F59D4205D303FA02F5491B04FA02F5E3
:100220002844151EA2F10102F1DC30BD202A04DBB6
:10023000203A21FA02F00021704721FA02F3D0405F
:10024000C2F12002914008431946704710B5431A85
:10025000934209D28318881803E010F8011D03F8AF
:10026000011D521EF9D210BD40EA01039B0703D0C5
:1002700009E008C9121F08C0042AFAD203E011F8E5
:10028000013B00F8013B521EF9D210BDD2B201E091
:1002900000F8012B491EFBD270470022F6E710B58B
:1002A00013460A4604461946FFF7F0FF204610BDE4
:1002B00030B505462A460B4612F8010B13F8014BE0
:1002C00008B1A042F8D01CB1002802D06D1CF1E7A3
:1002D000284630BD421C10F8011B0029FBD1801AB2
:1002E0007047000070B50F4D00B92868002412E077
:1002F0000A4602E09E4203D0521C1378002BF9D12B
:10030000DAB2224305D02BB124B1002100F8011B41
:1003100004E00446401C0678002EE9D128602046FF
:1003200070BD00009801002070B5064603F0CEFBBA
:10033000046805460A220021304600F014F92C60BA
:1003400070BD2DE9FE4F81EA030404F0004421F062
:10035000004100944FF0000B23F0004350EA0104E9
:100360005ED052EA03045BD0C3F30A54C1F30A55CA
:100370002C44A4F2F3340194A0FB0254C1F3130102
:1003800041F48011C3F3130343F4801301FB0244CF
:1003900000FB034E840A970A44EA815447EA8357D4
:1003A000A4FB076802958D0A05FB07854FEA932C8D
:1003B00004FB0C542705029D4FEA065847EA1637FE
:1003C000B5EB08056EEB070C870E920E47EA811716
:1003D00042EA8312A7FB0201B6EB0B0164EB0004B7
:1003E0002B0D43EA0C335E1844EB1C50DA465146A1
:1003F000E7FB0201C5F313044FEA0B3343EA14533E
:100400004FEA0432019C43EA0603A4F10C0402946F
:10041000009CCDE900B400F0EDF803B0BDE8F08F2A
:1004200000200146F9E72DE9F04D81EA030404F0CC
:10043000004B21F0004514464FF0000A23F0004124
:1004400050EA050220D054EA01021DD0C5F30A5734
:100450000246C5F31303C1F31300C1F30A5640F477
:10046000801543F48013A7EB0608101BD64608F24C
:10047000FD3873EB050002D308F1010801E0921882
:100480005B41B8F1000F03DA00200146BDE8F08DB2
:1004900000204FF48011064684460EE0171B73EBD4
:1004A000050705D3121B63EB050306434CEA010C59
:1004B00049084FEA300092185B4150EA0107EDD13C
:1004C00052EA030012D082EA040083EA05010843DD
:1004D00005D0101BAB4106D20122002306E000220A
:1004E0004FF0004302E06FF0010253101AEB0600D8
:1004F0004CEB085110EB0A0041EB0B01BDE8F04D4D
:1005000000F069B82DE9F05F0546002092469B4651
:1005100088460646814640241BE028464146474619
:100520002246FFF783FE53465A46C01A914110D324
:1005300011461846224600F095F92D1A67EB01087E
:100540004F4622460120002100F08CF917EB0009EC
:100550004E41201EA4F10104DFDC484631462A4604
:100560004346BDE8F09F2DE9F04791460F4680468F
:100570000446002614F8015B2DB100F095F90068DF
:10058000405DC007F6D12B2D02D02D2D18D0641E52
:100590004A463946204600F08BF927B13968A14216
:1005A00001D1C7F8008071054FF002040BD540421D
:1005B000002803DD03F08AFA0460A007BDE8F08795
:1005C00046F48066E4E70028F8DA03F07FFA046076
:1005D0006FF00040F2E710B5141E73F1000408DA62
:1005E000401C41F1000192185B411A4301D120F0F7
:1005F000010010BD2DE9F04D92469B4611B1B1FAB4
:1006000081F202E0B0FA80F22032904600F02AF93E
:1006100004460F4640EA0A0041EA0B0153465A4697
:10062000084313D0114653EA010019D0C8F1400223
:100630005046FFF7FBFD05460E46504659464246DA
:1006400000F010F9084305D0012004E020463946A7
:10065000BDE8F08D0020054346EAE0762C433743A1
:100660000A986305E40AA0EB08000022FD0A44EAA8
:1006700047540A3002D500200146E9E70105101968
:100680006941DDE9084500196941BDE8F04DA2E77F
:100690002DE9FE4F804681EA0300C00F0C46009012
:1006A00021F0004123F00045B8EB0200A94105D23A
:1006B0004046214690461C460B46024623F0004029
:1006C000104347D0270DC7F30A00C3F30A51029025
:1006D000401A019040286BDAC3F3130040F4801BEA
:1006E0000098924620B10023D2EB030A63EB0B0B78
:1006F00001985946C0F14002504600F0B3F8064652
:100700000D4650465946019A00F0BBF810EB080020
:100710006141002487EA115284EAE7731A4340D00A
:10072000009A62B3019A012A4FEA075215DC001BB6
:1007300061EB02014FF0004202EA0752CDE90042AC
:10074000001C41F5801132462B46FFF753FF03B0E2
:10075000BDE8F08F40462146F9E7001B61EB02013E
:10076000001C41F5801300185B412018A2F500170A
:1007700047EB030140EAD570B6196D4111E06D08F1
:100780004FEA360645EAC0754FEA0752001B61EB97
:100790000201001C41F5801149084FEA30000019A0
:1007A000514132462B4603B0BDE8F04FFFF713BF6F
:1007B0000098012240000023D0EB020263EBE073BB
:1007C000009821464FEAE074B8EB000061EB0401A9
:1007D000E9E783F000435BE781F0004158E7C1F3AC
:1007E0000A52C1F3130140F2FF3341F480119A42DF
:1007F00002DA00200146704740F233439A42A2F2E7
:10080000334202DC5242FFF711BD00F02BB800006A
:1008100030B5041E71F1000404DB4FF00044404287
:1008200064EB0101141E73F1000405DB1C464FF05C
:100830000043524263EB0403994208BF904230BD2B
:10084000064C074D06E0E06840F0010394E807001D
:1008500098471034AC42F6D3FFF76EFC7482000860
:1008600094820008202A04DB203A00FA02F10020DA
:1008700070479140C2F1200320FA03F319439040DE
:100880007047202A06DBCB17203A41FA02F043EAF0
:10089000E07306E041FA02F3D040C2F12002914039
:1008A000084319467047000000487047BC800008A4
:1008B0002DE9F05F82460078002715468B460AF145
:1008C0000104B946302801D09DB113E014F8010BA2
:1008D0000127782803D0582801D045B10AE00DB18E
:1008E000102D07D10027102514F8010B02E0082570
:1008F00000E00A250026B0460EE005FB080005FBD7
:1009000006F1012701EB10461FFA80F8B6F5803F8B
:1009100000D3B94614F8010B294600F018F8002856
:10092000EBDABBF1000F05D00FB1641E00E05446B6
:10093000CBF80040B9F1000F06D003F0C7F8022150
:100940000160C81EBDE8F09F48EA0640FAE73A2871
:1009500000D2303820F02002412A01D3A2F1370022
:10096000884201D34FF0FF30704770B58C1810F8F3
:10097000015B15F0070301D110F8013B2A1106D1E4
:1009800010F8012B03E010F8016B01F8016B5B1EFE
:10099000F9D12B0705D40023521E0DD401F8013BD9
:1009A000FAE710F8013BCB1A921C03E013F8015B45
:1009B00001F8015B521EF9D5A142D8D3002070BDC9
:1009C00070B5044600688168C943C9071CD18168B5
:1009D00021F00101816000F0EBFC05460FE000BF53
:1009E00000F0E6FC401B022809D9A06A40F0100084
:1009F000A062E06A40F00100E062012070BD206862
:100A00008068C043C007EBD0002070BDFEE7000047
:100A1000014800F031BA00007CB80020014800F025
:100A20002BBA0000B0B70020014800F025BA000042
:100A300038B80020014800F01FBA00006CB7002051
:100A4000014800F019BA000028B70020014800F062
:100A500013BA0000F4B7002030B590F840500124DC
:100A6000AC40C56B6C60046863604368102B03681E
:100A700003D099600068C26030BD9A600068C160B0
:100A800030BD704770470000F8B50024009490F81E
:100A900024202546012A12D0012280F824204A6809
:100AA0001F23072A0DD20668776B521E02EB8202C3
:100AB00093409F430B6893401F43776319E00220E4
:100AC000F8BD06680D2A0AD2376BD21F02EB8202EC
:100AD00093409F430B6893401F43376309E0F76AD5
:100AE0000D3A02EB820293409F430B6893401F43F1
:100AF000F7620A68072306680A2A0AD3F7680A3ADF
:100B000002EB420293409F438B6893401F43F76080
:100B100008E0376902EB420293409F438B689340A1
:100B20001F4337610A68102A01D0112A20D1124BC5
:100B300002689A4217D193681B0219D4936843F450
:100B4000000393600968102912D10C490C4A096806
:100B5000B1FBF2F101EB8101490000E0491E009177
:100B60000029FBD104E0816A41F020018162012467
:100B700080F824502046F8BD002401401C000020CD
:100B800040420F002DE9F04104004FF0000514D061
:100B9000A06A002628B9E66284F82460204600F0A6
:100BA00083F82046FFF70CFFA16A01F01001014312
:100BB00004D0A06A40F01000A0626BE0A16A21F4AA
:100BC000885141F00201A162334923688B42E169F7
:100BD00004D1B1F5402F01D14FF40021277B4FF410
:100BE000807C41EA470261680A43A168614509D0F7
:100BF000012907D05FF0000194F814E0BEF1010F65
:100C000002D00AE06146F7E7C7B1A76A47F02007BC
:100C1000A762E76A47F00107E7625F6827F4694760
:100C20000F435F60236899681C4F394011439960F6
:100C3000A16861450BD0012909D00CE0DFF860E024
:100C4000A7690EEB47370F4347F40061E5E7218AB8
:100C50000D05A5F580152168CB6A23F470032B439D
:100C6000CB62216889680F4B1940914208D1E66236
:100C7000A16A21F0020141F00101A162BDE8F08109
:100C8000A06A20F0020040F01000A062E06A40F08C
:100C90000100E0620120F1E7003C0140FDF7E1FFC7
:100CA00000E0FFFFFE0E1FFF00B585B000210091A0
:100CB00001910291039100680E49884218D10E48B3
:100CC000816941F400718161816901F400710491CD
:100CD000816941F0040181618069694600F0040086
:100CE00004900120009003200190044800F05EFA77
:100CF00005B000BD00240140001002400008014082
:100D000010B590F821100022022905D0042181633A
:100D100080F82020012010BD01680B6823F00E032D
:100D20000B6001680B6823F001030B6090F8403002
:100D3000C46B012101FA03F3636080F8211080F88D
:100D40002020104610BD00002DE9F05F90F8211022
:100D50000024022903D004218163012485E0016875
:100D60000A6822F00E020A6001680A6822F0010295
:100D70000A603F4E3E4FB215DFF8F4C0DFF8F09046
:100D8000DFF8ECA0DFF8E8B0DFF8E4E00168783FD6
:100D900013011502ACF1640CA9F15009AAF13C0A47
:100DA000ABF1280BAEF1140E4FF48018B14227D9E5
:100DB000B9420ED0614512D049451DD0514518D0D9
:100DC000594518D0714501D1424615E0294EB1422E
:100DD00001D1012210E0274E1436B14201D1102278
:100DE0000AE0244E2836B14206D0224A3C329142D3
:100DF00001D11A4600E02A461E49091F0A602BE06D
:100E0000B94213D0614517D0494522D051451DD074
:100E100059451DD0714501D142461AE0B14202D177
:100E20004FF0807215E0134EB14201D1012210E063
:100E3000104E1436B14201D110220AE00D4E283670
:100E4000B14206D00B4A3C32914201D11A4600E031
:100E50002A46074980394A60012180F82110002183
:100E600080F82010416B01B188472046BDE8F09F13
:100E700080000240080402402DE9F05FC16B0A685F
:100E800001680B68046C4FF0040808FA04F8844DFC
:100E9000844E854FDFF814C2DFF81492DFF814A2F5
:100EA000DFF814B2DFF814E218EA020F65D05FEA47
:100EB000437862D50A68920603D40A6822F00402D5
:100EC0000A60DFF8F0814FF48062016808F11408CD
:100ED00013011402414524D9A9420DD0B1420FD0CB
:100EE000B9421AD0614515D0494515D0514501D1B7
:100EF000120312E0594501D104220EE0714501D1DF
:100F000040220AE06D4D1435A94206D06B4A2832C2
:100F1000914201D11A4600E022466749091F0A6042
:100F200029E0A94213D0B14215D0B94220D0614581
:100F30001BD049451BD0514502D14FF4800217E028
:100F4000414502D14FF0806212E0594501D104229F
:100F50000EE0714501D140220AE0584D1435A942F6
:100F600006D0564A2832914201D11A4600E0224664
:100F70004B4908394A60C16A71E04FF0020808FA2B
:100F800004F818EA020F70D05FEA83786DD50A681A
:100F9000920606D40A6822F00A020A60012180F84B
:100FA0002110DFF810814FF40072016808F1140875
:100FB00013011402414524D9A9420DD0B1420FD0EA
:100FC000B9421AD0614515D0494515D0514501D1D6
:100FD000120312E0594501D102220EE0714501D100
:100FE00020220AE0354D1435A94206D0334A283272
:100FF000914201D11A4600E022462F49091F0A609A
:1010000029E0A94213D0B14215D0B94220D06145A0
:101010001BD049451BD0514502D14FF4001217E0B7
:10102000414502D14FF0007212E0594501D1022230
:101030000EE0714501D120220AE0204D1435A9426D
:1010400006D01E4A2832914201D11A4600E02246BB
:10105000134908394A60002180F82010816A00296C
:101060001CD0BDE8F05F0847FFE70825A540154202
:1010700014D01A0712D50A6822F00E020A6090F8FE
:101080004020C36B012101FA02F25A60816380F8AB
:101090002110002180F82010016BE0E7BDE8F09FEF
:1010A000080002401C0002403000024044000240A0
:1010B000580002406C000240080402401C04024038
:1010C00030B560B11A4B026814219A4209D2194B0B
:1010D0001344B3FBF1F18900016417490AE00120D0
:1010E00030BD134B5B421344B3FBF1F18900016443
:1010F0000F490839C163022180F82110136843F6B3
:10110000F0718B43F0E901142143D0E902452C43EF
:1011100021430469214344692143846921431943DC
:10112000116000214163012242770177084630BDFA
:1011300008040240F8FFFDBF0000024070B50446FD
:1011400090F82000002501280CD0012084F8200010
:1011500094F821600020012E06D084F8200002259A
:10116000284670BD022070BD022684F82160A0636D
:101170002068066826F0010606602046FFF76CFC32
:10118000E06A00282068016802D041F00E0106E004
:1011900021F0040101602068016841F00A0101604A
:1011A0002068016841F001010160D9E72DE9F84F9D
:1011B000DFF8C891002409F1040A0AF1040B234660
:1011C0000F270BF1040ED1E00125A54006EA050228
:1011D000AA4276D1DFF8A8C14E68A6EB0C08664596
:1011E0002BD00DDC032E34D005DC36B3012E19D004
:1011F000022E2FD11BE0112E16D0122E2AD119E06B
:10120000B8F5881F19D006DCB8F5803F15D0B8F5C1
:10121000801F1FD111E0B8F5001F0ED0B8F5041FD4
:1012200018D10AE0CB6815E0CB681B1D12E0CB6833
:1012300008330FE0CB680C330CE08B682BB1012B2B
:101240004FF0080303D0456104E0042302E0056188
:1012500000E00023FF2A01D8064601E000F1040661
:101260004FEA840501D9A5F12005D6F8008007FAD8
:1012700005FC28EA0C0803FA05F548EA0508C6F853
:1012800000804D68ED0070D53E4DAE6946F0010618
:10129000AE61AD6924F0030605F0010500953A4DF5
:1012A00006EB050CDCF80850A607360F07FA06F81F
:1012B00025EA0805DFF8D480404503D14FF0000847
:1012C00025E052E0DFF8C880404502D14FF0010828
:1012D0001DE0DFF8C080404502D14FF0020816E063
:1012E000DFF8B480404502D14FF003080FE0DFF88B
:1012F000AC80404502D14FF0040808E0DFF8A08040
:10130000404502D14FF0050801E04FF0060808FA09
:1013100006F848EA0508CCF808804D68D9F800605E
:10132000ED034D4601D5164300E096432E604D680F
:10133000DAF80060AD03554601D5164300E0964348
:101340002E604D68DBF80060ED025D4601D5164366
:1013500000E096432E604D68DEF80060AD027546F1
:1013600001D5164300E096432E60641C0A681646B9
:10137000E2407FF429AFBDE8F88F0000000401408F
:101380000000111000100240000001400008014060
:10139000000C014000100140001401400018014001
:1013A000001C01400AB1016170470904FBE700001D
:1013B00001488068704700001000002070B50400EC
:1013C0001BD094F83D00002520B984F83C502046FD
:1013D00000F056FA242084F83D002068016821F0CE
:1013E0000101016000F05AFC4D4A6168914201D848
:1013F0004C4900E04C49884201D2012070BD4B4964
:101400002368B0FBF1F15E6826F03F060E435E6094
:101410006368934206D94FF4967359434FF47A7335
:10142000B1FBF3F12368491C1E6A26F03F063143E5
:1014300019626168914210D84900401EB0FBF1F278
:10144000521CC2F30B02042A01D2042022E0B0FB9A
:10145000F1F0401CC0F30B001CE0A368F3B301EBF8
:10146000C10202EB0116421EB2FBF6F2521C42F41C
:101470008042120549D093B301EBC10202EB011186
:10148000401EB0FBF1F0401CC0F30B0040F4804064
:1014900040F400402168CA694CF6FF739A43104338
:1014A000C861D4E90701084321680A6822F0C00234
:1014B00010430860D4E9030101432068826848F2C0
:1014C000FF339A4311438160D4E905010843216841
:1014D000CA6822F0FF021043C86001E00EE016E087
:1014E0002068016841F0010101602564202084F832
:1014F0003D00256384F83E50002070BD01EB41069D
:10150000421EB2FBF6F2521CB3E70120C2E701EB28
:101510004101401EB0FBF1F0401CC0F30B00B7E7E7
:10152000A086010080841E0000093D0040420F009B
:101530002DE9FF4F83B09A46DDE9119793460446A3
:10154000DDF84080FFF734FF054694F83D00202881
:101550006FD1192301227B492046009501F0DAFB67
:101560000028F5D194F83C00012862D0012084F8CD
:101570003C0020680168C90703D1016841F00101FE
:1015800001602168086820F400600860222084F867
:101590003D00402084F83E0000262664C4F82480E4
:1015A000A4F82A90608D20856748E062CDE9007537
:1015B00053465A462046049901F0C8FA00287DD1C6
:1015C000208DDFF8888168B1012814D0022820D04E
:1015D0002068016841F48061016020684169806988
:1015E0000090A0E02068416981690091016841F4A0
:1015F0000071016097E02068016821F4806101605A
:1016000072B62068416981690091016841F40071F6
:101610000CE02168086840F40060086072B6206839
:10162000416981690091016821F48061016062B6BD
:1016300079E084E003284FD801280BD002283B46EC
:101640004FF000024146204600950ED001F062FBAB
:10165000A0BB0FE02A463946204601F0DAFB68BB02
:1016600020680069616A087054E001F053FB28BBF0
:1016700072B61AE02068016821F48061016072B6D8
:1016800020680069616A0870606A401C6062208D91
:10169000401E2085608D401E60853B4600224146ED
:1016A0002046009501F036FB40B92068016841F4FE
:1016B0000071016020680069616A00E012E0087052
:1016C000606A401C6062218D491E2185618D491E22
:1016D000618562B621681BE02A463946204601F042
:1016E00098FB18B1012007B0BDE8F08F20680069B1
:1016F000616A0870606A401C6062218D491E218504
:10170000618D491E618521684A69D24352070AD416
:1017100009690170606A401C6062208D401E20854E
:10172000608D401E6085208D002883D1202084F8A4
:101730003D0084F83E6084F83C600020D3E702203E
:10174000D1E70000020010000000FFFF04000100CC
:101750002DE9FF4F83B09A46DDE911979346044681
:10176000DDF84080FFF724FE054694F83D00202870
:101770007FD11923012240492046009501F0CAFA81
:10178000002876D194F83C00012872D0012084F81A
:101790003C0020680168C90703D1016841F00101DC
:1017A00001602068016821F400610160212084F853
:1017B0003D00402084F83E0000262664C4F82480C2
:1017C000A4F82A90608D20852C48E062CDE9007550
:1017D00053465A462046049901F02CFA70B930E07D
:1017E0002A463946204601F047FB58B1206C0428B0
:1017F00004D12068016841F400710160012007B044
:10180000BDE8F08F606A216800780861606A401C5A
:101810006062218D491E89B22185628D521E6285CA
:1018200022685369DB435B070BD469B10078106110
:10183000606A401C6062208D401E2085608D401EC5
:101840006085208D0028CBD12A463946204601F0FC
:101850003BFA0028CAD154F83D0B016841F40071ED
:101860000160202004F81E09E67766770020C6E7AD
:10187000FFE70220C3E70000020010000000FFFFA6
:1018800010B586B00021009101910291039100688A
:10189000104988421BD1104CA06940F00800A0619B
:1018A000A069694600F0080004904FF44060009081
:1018B00012200190032003900848FFF777FCE069AD
:1018C00040F48000E061E06900F48000049006B01C
:1018D00010BD00000058004000100240000C014004
:1018E000024881680278114481607047100000202E
:1018F000074810B5016841F010010160032000F0B5
:101900008FF8002000F006F800F03EF8002010BD2F
:101910000020024000B5014687B00022372000F0C9
:101920005FF8372000F04EF81348C16941F02001FC
:10193000C161C06905A900F020000690684600F06A
:101940008DF900F0ABF90D494000B0FBF1F10D4805
:101950000B4A491E0260416040F2E7320021C0E9B3
:101960000321816000F049FC10B1012007B000BDE7
:10197000044800F05EFCF9E70010024040420F000E
:10198000001400405C0300200C4808B5816941F058
:1019900001018161816901F001010091C16941F09A
:1019A0008051C161C06900F08050009004484168D6
:1019B00021F0E06141F00071416008BD001002407B
:1019C00000000140002809DB00F01F0201219140C6
:1019D0004009800000F1E020C0F8001170470000CD
:1019E000F0B40E4B1B680C46C3F30223C3F107058A
:1019F000042D00D90425191D072901D2002300E078
:101A0000DB1E012606FA05F1491E214099409E4041
:101A1000761E16403143F0BC02F048B80CED00E0F1
:101A2000064900F0070208684FF6FF03184040EA35
:101A30000220034A10430860704700000CED00E0EC
:101A40000000FA052DE9F84305460078354CC0073B
:101A500054D0E0690026C00008D4E06940F080500E
:101A6000E061E069012600F0805000902E48016896
:101A7000C90512D40168804641F480710160FFF706
:101A800097FC074605E000BFFFF792FCC01B6428E7
:101A900023D8D8F80000C005F6D5206A10F44070AD
:101AA00021D0A98801F4407181421CD0206A1F49CD
:101AB000012220F440700A6000220A602062C00700
:101AC00011D0FFF775FC074641F2883808E000BFE7
:101AD000FFF76EFCC11B414502D90320BDE8F88326
:101AE000206A8007F4D5206A696820F440700843B2
:101AF00020621EB1E06920F08050E0612878800704
:101B000005D56068A96820F44040084360602878E3
:101B1000C00605D56068696920F4800008436060EC
:101B20000020DBE700100240007000404004424209
:101B30002DE9F0470F46050061D0434E306800F0B4
:101B40000700B84209D2306820F0070038433060FF
:101B5000306800F00700B84251D128683B4C81073B
:101B600012D5400703D5606840F4E06060602878D3
:101B7000000703D5606840F4605060606068A96841
:101B800020F0F000084360602878C00728D068681B
:101B9000012810D02168022810D0890700292EDAE8
:101BA000616821F0030101436160FFF701FC804699
:101BB00041F288390DE021688903EFE78901EDE7FB
:101BC000FFF7F6FBA0EB0801494502D90320BDE869
:101BD000F0876068696800F00C00B0EB810FEFD10E
:101BE000306800F00700B8420BD9306820F00700D9
:101BF00038433060306800F00700B84201D001205F
:101C0000E5E72878400705D56068E96820F4E060DA
:101C1000084360602878000706D56068296920F4C9
:101C2000605040EAC100606000F058F86168084AFE
:101C3000C1F30311515CC8400649086006480068BA
:101C4000FFF768FE0020C2E70020024000100240BB
:101C5000547400081C000020140000200F220260B1
:101C60000C4A536803F003034360536803F0F00326
:101C70008360536803F4E063C36052684FF4E06329
:101C800003EAD20202610448006800F0070008601D
:101C9000704700000010024000200240044805493F
:101CA00000684968044AC1F30221515CC84070478A
:101CB0001C0000200010024064740008044805491C
:101CC00000684968044AC1F3C221515CC8407047AA
:101CD0001C000020001002406474000812A185B0AE
:101CE0000FC98DE80F0014A0144A006804905168D1
:101CF000134801F00C03042B10D0082B0ED1C1F3B4
:101D00008343C9031DF803000AD5516804AAC1F32F
:101D10004041515C0A4A5043B0FBF1F005B07047B6
:101D200008494843FAE700000203040506070809CA
:101D30000A0B0C0D0E0F10100102000000100240E3
:101D400000127A0000093D002DE9F84F040070D020
:101D50002078C04DC00749D06868C0F381000128D1
:101D600007D06868C0F38100022809D16868C00301
:101D700006D52868800339D560680028E7D035E0AB
:101D80006068B0F5803F0BD010B1B0F5A02F11D036
:101D9000286820F480302860286820F4802002E041
:101DA000286840F480302860606890B1FFF700FB3D
:101DB00006460AE0286840F480202860F0E700BF6B
:101DC000FFF7F6FA801B642873D828688003F7D5DC
:101DD0000CE0FFF7EDFA064605E000BFFFF7E8FA72
:101DE000801B6428F0D828688003F7D420789A4EA6
:101DF00080074FF001094FF0000839D5686810F0EE
:101E00000C0F07D06868C0F38100022809D1686808
:101E1000C00306D42868800714D52069012808D19A
:101E200010E02069B0B1C6F80090FFF7C1FA07468C
:101E300005E00AE1FFF7BCFAC01B0228C4D82868F5
:101E40008007F7D52868616920F0F80040EAC100F2
:101E500028600DE0C6F80080FFF7AAFA074604E004
:101E6000FFF7A6FAC01B022823D828688007F7D4FA
:101E7000207800072CD57948A169D9B1C0F8009025
:101E8000FFF796FA074604E0FFF792FAC01B022814
:101E90000FD8686A8007F7D571484FF4FA51006887
:101EA000B0FBF1F0009000BF0098411E0091FAD203
:101EB0000EE080E0C0F80080FFF77AFA074604E001
:101EC000FFF776FAC01B022875D8686A8007F7D436
:101ED0002078400760D5E8690027C00008D4E86989
:101EE00040F08050E861E869012700F080500090E0
:101EF0005C480168C90513D40168834641F48071C8
:101F00000160FFF755FA824606E000BFFFF750FA7E
:101F1000A0EB0A0064284ED8DBF80000C005F5D518
:101F2000E06801280AD008B1052813D0286A20F0FB
:101F300001002862286A20F0040002E0286A40F0CC
:101F400001002862E06841F2883B98B1FFF730FA5F
:101F500082460BE0286A40F004002862EEE700BFEA
:101F6000FFF726FAA0EB0A0159455AD8286A8007DC
:101F7000F6D50CE0FFF71CFA824605E0FFF718FAE9
:101F8000A0EB0A0159454CD8286A8007F6D41FB146
:101F9000E86920F08050E861E06988B36968C1F3BE
:101FA0008101022944D00228C6F8608004D0FFF7DE
:101FB000FFF9044638E034E0FFF7FAF9074604E099
:101FC000FFF7F6F9C01B02282BD828688001F7D448
:101FD000206AB0F5803F05D16868A16820F4003020
:101FE00008436860D4E908010843696821F4741162
:101FF00008436860C6F86090FFF7DAF9044606E027
:1020000025E000BFFFF7D4F9001B022809D8286893
:102010008001F7D51BE000BFFFF7CAF9001B0228BB
:1020200002D90320BDE8F88F28688001F4D40EE0BF
:102030000128F7D06868226A00F48031914204D107
:10204000616A00F47010884201D00120EAE70020A4
:10205000E8E70000001002400000424280044242D3
:102060001C0000200070004070B5040005D0002561
:10207000A56294F8510010B106E0012070BD84F80B
:102080005050204600F02EF8022084F851002068BD
:10209000016821F040010160D4E901010843D4E95D
:1020A00003121143084361690843218B01F4007155
:1020B0000843E1690843216A0843A16A084321688B
:1020C0000860A069042101EA104021684860206886
:1020D000C16921F40061C1616565012084F8510086
:1020E000002070BD70B586B0002400940194029465
:1020F00003942B4E03682B49022003222A4DB3423E
:1021000028D18B6943F480538B618B6903F480532E
:1021100004938B6943F008038B618969039201F092
:10212000080104912821CDE9001069462846FFF7EF
:102130003DF81020CDE90004694628460294FFF7D7
:1021400035F81A48416841F0E06141F00101416011
:1021500006B070BD164EB342FAD1CB6943F480434A
:10216000CB61CB6903F4804304938B6943F008038C
:102170008B618969039201F0080104914FF42041B9
:10218000CDE9001069462846FFF710F83014CDE974
:102190000004694628460294FFF708F8D8E70000D3
:1021A0000030014000100240000C014000000140DE
:1021B000003800407047704770B590F83C20012A05
:1021C00019D0012400F83C4F0222427050F83C3CE8
:1021D0005A689D6822F070060A684968324325F003
:1021E000800529435A6050F83C2C916044700021CE
:1021F0000170084670BD022070BD10B5040003D008
:1022000094F83D0010B107E0012010BD002084F8D3
:102210003C00204600F00CF8022084F83D00211D0F
:10222000206801F0DBF8012084F83D00002010BD9B
:1022300070470168CA6842F00102CA60006881689C
:1022400001F00701062903D0016841F00101016096
:1022500000207047704770B50446006801694FF070
:102260000005C943890715D4C168C943890711D43A
:10227000E91E0161012020772068806980072046DF
:1022800002D0FFF7E7FF04E000F0C8F8204600F0B6
:102290005DF9257720680169C943490717D4C168EA
:1022A000C943490713D46FF004010161022020776C
:1022B0002068806910F4407F204602D0FFF7CAFFF3
:1022C00004E000F0ABF8204600F040F925772068E4
:1022D0000169C943090716D4C168C943090712D463
:1022E0006FF008010161042020772068C069800731
:1022F000204602D0FFF7AEFF04E000F08FF8204642
:1023000000F024F9257720680169C943C90617D46C
:10231000C168C943C90613D46FF0100101610820D8
:1023200020772068C06910F4407F204602D0FFF774
:1023300091FF04E000F072F8204600F007F92577DD
:1023400020680169C943C90708D1C168C943C907E1
:1023500004D1891E0161204600F0FAF82068016965
:10236000C943090609D4C168C943090605D46FF0F9
:10237000800101612046FFF71DFF20680169C94304
:10238000490609D4C168C943490605D46FF0400124
:102390000161204600F0E6F820680169C94389061A
:1023A0000BD4C168C943890607D46FF020010161CD
:1023B0002046BDE87040FFF7FEBE70BD00B585B099
:1023C0000021009101910291039100680F49884218
:1023D0001AD10F48816941F0100181618069694615
:1023E00000F0100004904020009002200190039023
:1023F0000848FEF7DBFE0848416821F4406141F0DF
:10240000E06141F44061416005B000BD000400405E
:10241000001002400010014000000140704770B5FC
:10242000044690F83C000D4601280DD0012684F8A2
:102430003C60022084F83D0042B1042A18D0082AEA
:102440002AD00C2A4DD139E0022070BD206801F05D
:102450000BF82068816941F0080181612068816979
:1024600021F004018161206881692A69114311E02A
:10247000206801F029F82068816941F400618161D8
:102480002068816921F480618161206881692A69FD
:1024900041EA0221816124E0206801F04BF82068C4
:1024A000C16941F00801C1612068C16921F00401DE
:1024B000C1612068C1692A69114311E0206801F0F7
:1024C0006DF82068C16941F40061C1612068C1698B
:1024D00021F48061C1612068C1692A6941EA022151
:1024E000C16184F83D60002084F83C0070BD10B5E7
:1024F000040003D094F83D0010B107E0012010BDA6
:10250000002084F83C00204600F00CF8022084F8FB
:102510003D00211D206800F061FF012084F83D008E
:10252000002010BD08B500680649884208D1064859
:10253000C16941F00201C161C06900F00200009070
:1025400008BD000000040040001002407047000079
:1025500000680349884201D1FFF7C2B97047000003
:1025600000140040704710B504460068416994F8B3
:102570003920C1F3C011212A0BD151B1416921F099
:1025800080014161206B08B1FEF7BAFB204601F0E3
:10259000B3F82068416994F83A20C1F38011222AE7
:1025A0000BD151B1416921F040014161606B08B12B
:1025B000FEF7A6FB204601F091F8002010BD704701
:1025C00070B5026804461068D168536910F00F0FA7
:1025D00051D003F0010501F4907635435DD0C20778
:1025E00005D0CA0503D5E26B42F00102E26342075F
:1025F00005D5DA0703D0E26B42F00202E2638207FC
:1026000005D5DA0703D0E26B42F00402E263020769
:1026100005D5DA0703D0E26B42F00802E263E26B11
:10262000002A34D0800604D5880602D5204601F061
:102630002FF920684069E16BC0F3801001F00801B8
:102640000143204624D001F049F820684169490639
:102650001AD5416921F040014161606BA0B11B496D
:102660004163606BFEF770FB002810D0606B416B1C
:10267000BDE87040084783060FD58B060DD5204670
:10268000BDE8704001F004B92046FFF798FF70BD27
:10269000FFF795FF0020E06370BD030606D50B062B
:1026A00004D52046BDE8704001F09AB94006F3D544
:1026B0004806F1D5D168204621F04001D1602021A3
:1026C00084F8391000F028FA70BD000005360008C3
:1026D00070B5040004D094F83900002510B106E06C
:1026E000012070BD84F83850204600F023F82420E3
:1026F00084F839002068C16821F40051C160204687
:1027000001F012F92068016921F49041016120680B
:10271000416921F02A0141612068C16841F40051FA
:10272000C160E563202084F8390084F83A00002075
:1027300070BD00002DE9F04F85B000250095019592
:10274000029503950446DFF870C203689B48022196
:102750000322012780264FF4806A4FF01009634559
:102760004BD1C36943F40023C361C36903F400235D
:102770000493836943F0100383618069CDE900A16C
:1027800000F01000CDE90320DFF8348269464046AE
:10279000FEF70CFD30018DE8A10069464046FEF7CA
:1027A00005FD894F8748C7E90005C7E902563D6125
:1027B0007D61BD613846FD61FEF782FC08B1FEF720
:1027C00061F967637C62814F7E48C7E902563D61CB
:1027D0007D61BD612830FD61C7E900093846FEF71B
:1027E0006FFC08B1FEF74EF9276300221146342032
:1027F0007C62FFF7F5F8342051E0DFF8D4C1DFF850
:10280000D4814FF4007B63454ED1836943F4804308
:102810008361836903F480430493836943F0040371
:1028200083618069CDE900B100F00400CDE90320A7
:1028300069464046FEF7BAFCCDF800A0CDE9015745
:1028400069464046FEF7B2FC644F6348C7E900059D
:10285000C7E902563D617D61BD613846FD61FEF705
:102860002FFC08B1FEF70EF967637C625C4F5A4893
:10287000C7E902563D617D61BD611438FD61C7E95C
:1028800000093846FEF71CFC08B1FEF7FBF8276389
:102890000022114625207C62FFF7A2F82520FFF7D1
:1028A00091F805B0BDE8F08FDFF838C1634525D158
:1028B000C36943F40033C361C36903F40033049371
:1028C000836943F0040383618069039200F004008C
:1028D00004900420CDE9000169464046FEF766FCFD
:1028E00008208DE8A10069464046FEF75FFC002203
:1028F00011462620FFF774F82620D0E7DFF8E8C05D
:102900006345CED1C36943F48023C361C36903F433
:1029100080230493836943F0200383618069DFF897
:10292000CC8000F0200004904FF48070CDE90001CD
:10293000039269464046FEF739FCCDF800B0CDE978
:10294000015769464046FEF731FC2948416821F0AD
:10295000300141F0E06141F0300141601E48254FF7
:102960002838C7E90005C7E902563D617D61BD61B0
:102970003846FD61FEF7A4FB08B1FEF783F86763F4
:102980007C621D4F1448C7E902563D617D61BD61FF
:102990003C38FD61C7E900093846FEF791FB08B1F4
:1029A000FEF770F827630022114627207C62FFF7AC
:1029B00017F8272073E70000004C00400010024089
:1029C000001001403004024028B70020F4B7002076
:1029D0000038014000080140580002406CB7002058
:1029E00038B8002000440040004800400014014076
:1029F00000000140B0B700207CB80020F8B50446C4
:102A000090F83A0020283CD1C1B3BAB394F838000A
:102A1000012836D0012084F83800A162A285002563
:102A2000E563222084F83A00636B17489862636B71
:102A30001648D862636B16481863606B134645638B
:102A40000846666B216802463046091DFEF776FB94
:102A5000206801684168009184F83850C16841F4E9
:102A60008071C1602068416941F0010141612068C5
:102A7000416941F0400141610020F8BDFFE70120BC
:102A8000FBE70220F9E700005F3600089B360008EC
:102A9000153600087047704770B5044690F8390045
:102AA000202830D169B362B394F8380001282AD0C5
:102AB000012084F838002162A284E2840025E563C5
:102AC000212084F83900236B10489862236B10484A
:102AD000D862236B0F481863206B13464563266842
:102AE000206B321DFEF72AFB21686FF04000086062
:102AF00084F838502068416941F08001416100202C
:102B000070BD012070BD022070BD0000A536000818
:102B1000D33600081536000870477047FEE7016895
:102B20004A69D24352050FD46FF480624A61002192
:102B300040F8301F202242738173026942F0040280
:102B40000261017301207047002070472DE9F84FA2
:102B50000446006889460B9D01689846174641F473
:102B6000806101602068016841F480710160009516
:102B70004FF0011A0022514620460A9B00F0CAF885
:102B8000002853D1216809F0FE0008610AF1010B09
:102B90002B46594620460A9A00F0F0F8F0BB206810
:102BA0004169806900902A4620460A9900F064F93C
:102BB00040B1206C042839D12068016841F40071CB
:102BC000016033E0FEB2B8F1010F09D02168380A84
:102BD00008612A4620460A9900F04EF90028E8D1FB
:102BE000206806612A4620460A9900F045F9002827
:102BF000DFD12068016841F48071016000950022F6
:102C0000514620460A9B00F085F838B9216809F042
:102C1000FF0040F0010008612B4600E006E0594645
:102C200020460A9A00F0AAF8002800D00120BDE84A
:102C3000F88F00002DE9F843044600680D46DDE9F1
:102C4000089701689846164641F4807101604B462A
:102C500000224FF001112046009700F05BF8E0B928
:102C6000216805F0FE0008613B464A4615492046AA
:102C700000F084F888B920684169806900903A467C
:102C80004946204600F0F8F850B1206C042804D1E1
:102C90002068016841F4007101600120BDE8F883FB
:102CA000F5B2B8F1010F09D02168300A08613A463F
:102CB0004946204600F0E0F80028E6D1206805618A
:102CC0000020EBE70200010070B516460D460446F1
:102CD0000DE02046FFF723FF08B1012070BD681CFE
:102CE00005D0FEF765FB801BA84207D835B12068E8
:102CF0004069C0434007ECD4002070BD002044F878
:102D0000300F20216173A073216941F020012161FE
:102D10002073E2E72DE9F0471E4690460D46044633
:102D2000C1F30747DDF8209008E0701C06D0FEF7DD
:102D30003FFBA0EB0900B0420FD876B12068012F0D
:102D400018D0806925EA00000004000C14D000218E
:102D50004145EAD00020BDE8F087002044F8300F5C
:102D600020216173A073216941F02001216120734A
:102D70000120F0E74069E5E70121E9E72DE9F047A7
:102D80009A4691460E46044600254FF02008C1F3AE
:102D9000074725E020684069C043400514D42068F7
:102DA000016841F40071016021686FF4806048613E
:102DB000256384F83D8084F83E50206C40F0040088
:102DC000206484F83C501FE0B9F1FF3F08D0FEF7C3
:102DD000EFFAA0EB0A0149450CD8B9F1000F09D070
:102DE0002068012F13D0806926EA00000004000C3F
:102DF0000BD0CFE744F8305F84F80D80A5732069CD
:102E000040F02000206125730120BDE8F087406973
:102E1000EAE72DE9F041002590460E4604462027BA
:102E200017E04069C043C0060CD454F8301B6FF063
:102E30001000486144F810596777A577206A20622E
:102E4000257717E0FEF7B4FAA0EB0800B04208D8E7
:102E50003EB120684169C9434906E2D40020BDE87B
:102E6000F08144F8305F6773A573206940F020005B
:102E7000206125730120F2E770B516460D46044621
:102E80000DE02046FFF74BFE08B1012070BD681C25
:102E900005D0FEF78DFA801BA84207D835B120680F
:102EA0004069C0430006ECD4002070BD002044F807
:102EB000300F20216173A073216941F0200121614D
:102EC0002073E2E73EB500240D480094019402947B
:102ED0000A498460016004730475012505614FF49B
:102EE00060214460C161FDF74DFECDE900456946B2
:102EF00003480294FDF7C8FD3EBD000000240140D8
:102F0000A8010020214808B5416941F00101416153
:102F1000416901F001010091416941F00201416103
:102F20004069002200F00200009011460C20FEF7DC
:102F300057FD0C20FEF746FD002211460D20FEF73E
:102F40004FFD0D20FEF73EFD002211460E20FEF73C
:102F500047FD0E20FEF736FD002211460F20FEF73A
:102F60003FFD0F20FEF72EFD002211463A20FEF70E
:102F700037FD3A20FEF726FD002211463B20FEF7E2
:102F80002FFDBDE808403B20FEF71CBD00100240AD
:102F90002DE9F04F85B00025584800950195029520
:102FA0000395816941F040018161816901F040012F
:102FB0000491816941F010018161816901F0100182
:102FC0000491816941F004018161816901F004018A
:102FD0000491816941F008018161816901F0080172
:102FE0000491816941F0200181618069DFF810B1AD
:102FF00000F02000049001224FF4D8715846FEF7EB
:10300000D1F9DFF8009140F20336012231464846FB
:10301000FEF7C8F90122D70339463B48FEF7C2F94B
:10302000DFF8E8A04CF22008012241465046FEF7A6
:10303000B9F901224FF401413548FEF7B3F944F2E2
:103040007D00CDE900050124694602942E48FEF773
:10305000ADF84EF20720CDE90005694602945846C6
:10306000FEF7A4F83020CDE90004029469465846E2
:103070000394FEF79BF8CDE9006402946946484644
:103080000394FEF793F811260097CDE90164694691
:103090001D480394FEF78AF84FF47050CDE90005FF
:1030A000694602945046FEF781F8CDF80080CDE9DC
:1030B0000164694650460394FEF778F84FF4C070F7
:1030C0000090CDE90164694658460394FEF76EF816
:1030D00020020090CDE9016469460D480394FEF793
:1030E00065F80320CDE90240CDE90074694608483F
:1030F000FEF75CF805B0BDE8F08F0000001002405C
:1031000000100140000C0140001801400014014073
:10311000000801400C480B49012201604FF4827104
:10312000416000218160C160C0E9041252028261E5
:103130003822C0E90721416281620A21C162FEF79B
:1031400093BF0000003001402C0200200C480B49C6
:103150004FF4007201604FF4827141600021816080
:10316000C1600161C0E905123822C0E9072141624E
:1031700081620A21C162FEF777BF0000003800407B
:103180008402002010B58AB0002407941C216846F0
:103190000894FDF782F811480F49C0E900144FF672
:1031A000FF71C0E9024104618461FFF7A0F907944F
:1031B00007A90A480894FEF7FFFF6020CDE9000444
:1031C00002940022694605480494FFF728F9034851
:1031D000FFF7F4F80AB010BD00040040DC02002044
:1031E00010B50F4C0D480C2120604FF4E1306060A9
:1031F0000020A060E060C4E90401A061E061204615
:10320000FFF766FA2068C16841F01001C1602046EE
:10321000BDE81040FF220349FFF7F0BB004C00401F
:1032200068B600206BB1002010B50F4C0D480C2182
:1032300020604FF4165060600020A060E060C4E998
:103240000401A061E0612046FFF742FA2068C168EE
:1032500041F01001C1602046BDE81040FF22034943
:10326000FFF7CCBB00380140A8B600206FAD0020AE
:1032700010B50F4C0D480C2120604FF416506060C3
:103280000020A060E060C4E90401A061E061204684
:10329000FFF71EFA2068C16841F01001C1602046A6
:1032A000BDE81040FF220349FFF7A8BB00480040DB
:1032B000E8B600206DAF0020FEE7704702F04CFE3C
:1032C000094C40F2DE35002220212046FEF76AF844
:1032D0000A2001F035FF012220212046FEF762F886
:1032E000284601F02DFFEEE7001401404FF47A74F8
:1032F000204601F025FFFBE710B5502080F3118830
:10330000BFF34F8FBFF36F8F03F092FE18B10449E4
:103310004FF080500860002080F3118810BD00003D
:1033200004ED00E030B595B028216846FCF7B5FF04
:1033300014210AA8FCF7B1FF18210FA8FCF7ADFF74
:1033400002240120049000941020059000254FF4E1
:103350006010CDE9085007946846FEF7F5FC0AA90D
:103360000F2081E831006002CDE90D0502210AA895
:10337000FEF7DEFB4FF4404011900F940FA8FEF7CC
:1033800061FB15B030BD00000D48016841F001013E
:10339000016041680B4A1140416001680A4A1140CE
:1033A0000160016821F480210160416821F4FE017F
:1033B00041604FF41F0181600449C00308607047F9
:1033C000001002400000FFF8FFFFF6FE08ED00E0ED
:1033D0000148FEF740BF00005C030020F0B5026822
:1033E0001C4B1D4D1D4E1E4F1E4C4FF0804C9842E5
:1033F00009D0A04207D0604505D0A84203D0B04212
:1034000001D0B84204D122F0700E4A6842EA0E029E
:10341000984209D0A04207D0604505D0A84203D009
:10342000B04201D0B84203D122F44075CA682A43A1
:103430004D6922F080022A4302608A68C2620A68EB
:103440008262984201D0A04201D109690163012141
:103450004161F0BD002C0140000400400008004024
:10346000000C004000340140F0B5026A22F0010275
:103470000262036A42688469124E24F073050C6884
:103480002C4323F002058B682B430D4DA84201D03D
:10349000B04205D123F00807CB683B4323F0040377
:1034A000A84201D0B04205D14D6922F440721543C3
:1034B0008A692A4342608461496841630362F0BDBE
:1034C000002C014000340140F0B5026A22F01002E5
:1034D0000262026A436884690D6824F4E64444EA9F
:1034E00005248D6822F0200242EA05120F4D104E8D
:1034F000A84201D0B04206D1CF6822F0800242EA51
:10350000071222F04002A84201D0B04207D14D6913
:1035100023F4406343EA85038D6943EA85034360EE
:103520008461496881630262F0BD0000002C0140A3
:1035300000340140F0B5026A22F480720262026A2D
:103540004368C46922F4007224F073050C68124EBB
:103550002C438D6842EA05220E4DA84201D0B042AC
:1035600006D1CF6822F4006242EA072222F4806288
:10357000A84201D0B04207D14D6923F4405343EA39
:1035800005138D6943EA05134360C4614968C1634B
:103590000262F0BD002C01400034014030B5026AE7
:1035A00022F480520262046A4268C3690D6823F4FF
:1035B000E64343EA05238D6824F4005444EA0534C5
:1035C000084DA84202D0084DA84204D14D6922F40A
:1035D000804242EA85124260C36149680164046224
:1035E00030BD0000002C01400034014010B50448FB
:1035F000FEF7E6FFBDE81040014800F087B8000084
:1036000068B6002010B5406A0021C185C184FEF76C
:10361000D6FF10BD70B5446A2068406994F839102F
:10362000C0F3C0100025212904D118B1E58420463B
:1036300000F062F82068406994F83A10C0F38010F6
:10364000222904D118B1E585204600F047F8E06B47
:1036500040F01000E0632046FEF7B1FF70BD10B5EA
:103660000146406A09680968890613D40021C185AA
:103670000168CA6822F48072CA6001684A6922F04F
:1036800001024A6101684A6922F040024A61202130
:1036900080F83A10FFF7FEF910BD10B5406AFFF749
:1036A000FAF910BD10B50146406A09680968890633
:1036B0000CD40021C18401684A6922F080024A6169
:1036C0000068C16841F04001C16010BDFFF724FAF5
:1036D00010BD10B5406AFFF720FA10BD0168CA6836
:1036E00022F49072CA6001684A6922F001024A61BC
:1036F000202180F83A1070470168CA6822F0C002A1
:10370000CA60202180F839107047000038B5016880
:1037100004460868C043C0067ED408684868009024
:10372000086848682046FEF71EFF50492068504C44
:1037300088422FD14F4800684068C0F1FF002070D8
:10374000207801280DD9607858B94B48A1782278A3
:1037500008444949FF39FCF779FDA07821780844ED
:10376000A0704549FF22FF3901F63910FFF746F9ED
:10377000FF214248FCF791FDA2783F493F48FF39BD
:10378000FCF764FDA1783D4800F0F2FF3A48FF21C4
:10379000FF3830E03A49884231D136484430006839
:1037A0004068C0F1FF00E070E07801280DD9207971
:1037B00058B934486179E27808442F49FF31FCF761
:1037C00045FD6079E178084460712B49FF22FF31A3
:1037D00001F27B70FFF712F92848FF21FF30FCF758
:1037E0005CFDE2782449FF3101F2FB40FCF72EFD3D
:1037F0002148FF21FF30BDE83840FCF74EBD22498B
:10380000884231D11B48443800684068C0F1FF004D
:10381000A071A079012800E026E00ED9E07960B916
:103820001648217AFF38A27908441649FF31FCF77F
:103830000DFD207AA179084420721249FF22FF3140
:1038400001F2FD40FFF7DAF8FF211048FCF725FDF3
:10385000A2790C490D48FF31FCF7F8FCA179BDE8CD
:1038600038400A4800F09ABF38BD000000380140D7
:103870007A0100206CB700206EAE002069B30020F2
:10388000004800406CB00020004C004067B50020AC
:1038900010B590F83A10222901D0022010BD81689D
:1038A000B1F5805F11D00169002901681FD0496816
:1038B00001F07F03816A4A1C82620B70C18D491E30
:1038C0000904090CC18518D02BE00269816A002A1D
:1038D0000268526805D0D2B20A80816A491C8162AE
:1038E000ECE7C2F308020A80816A891CF7E74A689C
:1038F000816A4B1C83620A70E0E70168CA6822F0A3
:103900002002CA600168CA6822F48072CA60016835
:103910004A6922F001024A61202180F83A10FFF73B
:10392000B9F8002010BD00002DE9F0410446006800
:103930000169E26821F44051114301612169A068E5
:103940000843616908432168CA6841F20C639A43DD
:103950000243CA6020684169A26921F440711143A1
:1039600041611E49206864253226884202D1FEF753
:10397000A5F901E0FEF792F900EBC00101EB00119F
:1039800060686FF018078000B1FBF0F2B2FBF5F24F
:10399000B1FBF0F37A4303EB8202B1FBF0F306EBE9
:1039A0000212B2FBF5F2B3FBF5F302F0F00202EB08
:1039B0000312B1FBF0F3B1FBF0F0B0FBF5F078438C
:1039C00003EB800006EB0010B0FBF5F0216800F07F
:1039D0000F0010448860BDE8F0810000003801400D
:1039E00090F83910212901D0022070478168B1F583
:1039F000805F016A0BD04A1C02620268097851603C
:103A0000C18C491E0904090CC1840ED017E0098835
:103A10000268C1F30801516001690029016A02D0FE
:103A2000491C0162ECE7891CFBE70168CA6822F0C7
:103A30008002CA600068C16841F04001C160002096
:103A40007047000010B50448FEF7BAFDBDE810400D
:103A50000148FFF75BBE0000A8B600200148FEF752
:103A6000AFBD00001C03002010B50448FEF7A8FD00
:103A7000BDE810400148FFF749BE0000E8B600204D
:103A8000FEE700000FB41CB50A46521ECDE9000245
:103A900007A9054B6A46069800F0DEF8009A002157
:103AA00011701CBC5DF814FB874300080907090E60
:103AB000002804DB00F1E02080F80014704700F0DB
:103AC0000F0000F1E02080F8141D70470048704797
:103AD0009C01002002E008C8121F08C1002AFAD188
:103AE00070477047002001E001C1121F002AFBD17E
:103AF000704700002DE9FF5FDDE90220010DDDF8D0
:103B000038B0024318D044F61050A1F2FF314143BF
:103B10000D140F98012820D0A5EB0B00401C5FEA84
:103B2000000A4FF00004474EDFF81C91A0465046B3
:103B300016D5CAF1000728E00F98012443A20128F6
:103B400008D0002100980F9BC0E90021C0E9024382
:103B5000BDE8FF9F6FEA0B01F4E7CBF10000DEE761
:103B6000074612E0F80707D022463346404649464A
:103B7000FCF7E7FB80468946224633461046194645
:103B8000FCF7DFFB04460E467F10002FEAD1DDE98B
:103B90000201BAF1000F42464B4602DAFCF7D1FBB4
:103BA00001E0FCF740FC04460E460022284BFCF7DF
:103BB0002FFE03D84FF0FF30014607E00022254BCF
:103BC00020463146FCF764FDFCF709FE102409E0AD
:103BD000002C0ADB0A220023FCF794FC019B303204
:103BE0001A55641E50EA0102F2D1641C019AC4F114
:103BF000110314440F9A012A03D0012208430DD166
:103C00000AE0084304D000204FF0110B0F9080E72A
:103C1000A3EB0B056D1E0DE05B4504DD4FF00002CC
:103C200005F1010504E003DA4FF00002A5F10105FA
:103C3000002AECD000980F99C0E90231C0E9004594
:103C400086E70000000024400000F03F3000000044
:103C50000000F0430000E03F2DE9FF4F95B09B4688
:103C60008946064600250FE2252877D100242746FD
:103C7000F84A0121059400E0044316F8013F203B77
:103C800001FA03F01042F7D130782A2811D06FF0F2
:103C90002F033078A0F13002092A16D8059A44F093
:103CA000020402EB820203EB42021044761C0590F0
:103CB000EFE759F8042B0592002A03DA504244F446
:103CC0000054059044F00204761C30782E2816D15A
:103CD00016F8010F44F004042A280DD06FF02F02CB
:103CE0003078A0F13003092B09D807EB870302EBEA
:103CF0004303C718761CF3E759F8047B761C307829
:103D00006C280FD006DC4C2817D068280DD06A2804
:103D100014D104E0742810D07A280FD10DE044F4B7
:103D200000140AE044F4801401E044F44014727872
:103D3000824202D104F58014761C761C3078662805
:103D40000BD013DC582877D009DC002875D0452823
:103D5000F6D04628F4D047281AD19DE118E0632810
:103D600035D0642879D0652812D195E1702873D0B8
:103D700008DC6728F1D069286FD06E280DD06F2835
:103D800006D1B5E073282CD0752875D0782874D06A
:103D90005A46179990476D1C75E1C4F302500228EA
:103DA00009D003280DD0D9F8001004280DD00D60DB
:103DB00009F1040967E1D9F80010EA17C1E90052D6
:103DC000F6E7D9F800100D80F2E70D70F0E719F86A
:103DD000041B8DF8001000208DF80100EA46012038
:103DE00003E059F804AB4FF0FF3061074FF00001DA
:103DF00002D40DE008F101018846B9420FDA80458E
:103E0000F8DB1AF808100029F4D108E008F10101E4
:103E100088468142FADB1AF808100029F6D1059885
:103E20005B46A0EB080721463846179A00F094FA43
:103E3000284400EB080507E04DE029E10DE01AF801
:103E4000010B5A4617999047B8F10108F7D25B4623
:103E500021463846179A13E142E00A220092C4F341
:103E600002524FF0000A022A08D059F804CB032A64
:103E70004FEAEC710AD00DE029E02AE009F10701D0
:103E800021F00702F2E802C1914609E00FFA8CFC2A
:103E90004FEAEC71042A03D14FFA8CFC4FEAEC7123
:103EA000002907DA0A460021DCF1000C61EB02016F
:103EB0002D2202E0220504D52B228DF804200122B8
:103EC00003E0E20701D02022F7E7904659E00A21FB
:103ED00002E010220DE010214FF0000A00910BE0EB
:103EE00010224FF0000A44F004040827009203E077
:103EF00008224FF0000A0092C4F30252022A05D0B1
:103F000059F804CB0021032A08D009E009F1070180
:103F100021F00702F2E802C1914605E01FFA8CFC8D
:103F2000042A01D10CF0FF0C4FF00008220728D51D
:103F3000702806D0009B83F0100353EA0A0305D0D3
:103F40000EE040228DF80420012208E05CEA010224
:103F500006D030228DF804208DF80500022290460C
:103F6000009B83F0080353EA0A030AD15CEA0102CA
:103F700001D1620705D530228DF804204FF00108E9
:103F80007F1E582804D034A003900EA802900DE0A4
:103F900036A0F9E753466046009AFCF7B3FA844628
:103FA0000398825C0298401E029002705CEA010055
:103FB000F0D1029806A9081A00F1200A600702D57C
:103FC00024F4803400E00127574502DDA7EB0A0006
:103FD00000E0002000EB0A01009005984144401ADF
:103FE0000590E00306D45B462146179A059800F039
:103FF000B3F90544002706E001A85A46C05D1799A9
:1040000090476D1C7F1C4745F6DBE0030CD55B46F3
:104010002146179A059800F09FF9054404E03020E6
:104020005A46179990476D1C0099481E0090002928
:10403000F5DC08E0029802995A460078491C029182
:10404000179990476D1CBAF10001AAF1010AF1DC41
:1040500065E100000928010030313233343536374C
:1040600038396162636465660000000030313233C4
:104070003435363738394142434445460000000064
:1040800000F058F90544761C307800287FF4ECAD38
:1040900019B02846BDE8F08F620700D4062709F161
:1040A000070222F0070CFCE80223E14603F0004877
:1040B0005FEA080C02D00FF2702C0DE05FEA045C9E
:1040C00002D50FF2682C07E05FEAC47C02D00FF241
:1040D000602C01E0AFF2700C4FF0FF3823F000438A
:1040E000CDF850C065280CD006DC452809D04628FC
:1040F0001DD047283DD13DE0662818D067287ED1E5
:1041000038E00021112F01DB112000E0781CCDE9FF
:10411000000106A90EA8FFF7EDFCDDE90F010E9ADC
:1041200003910021009207F1010A04914DE04FF044
:1041300000400097CDE9011006A90EA8FFF7DAFCB0
:10414000DDE90F0203920E9B11990022DDF80CA00D
:104150000093049211B9791C00EB010AB7EB0A0035
:1041600004D4C0F1FF3007F1010A0490AAEB070064
:10417000019044E0012F00DA01270021112F01DD19
:10418000112000E03846CDE9000106A90EA8FFF78E
:10419000B1FCDDE90F010E9A039100210491009218
:1041A000BA4621070CD40399514500DA8A46BAF180
:1041B000010F05DD009AAAF10101515C302908D0F8
:1041C000B84202DA10F1040F06DA0121CDE901103C
:1041D00015E0AAF10101E9E7002805DC0499014492
:1041E0000491AAEB000102E0411C514500DD8A4622
:1041F0000499401A401C01904FF0004002902007A3
:1042000004D40198504501DBCDF8048000208DF8DE
:104210004F0002980DF14F07B0F1004F25D02B2031
:104220000E9002984FF0020800280CDA40420290EB
:104230002D200E9007E00A210298FBF7E1FF3031B4
:10424000029007F8011DB8F10001A8F10108F2DCA5
:1042500002980028EFD1791E0E980870307800F08F
:10426000200040F0450007F8020D12A8C01B00F125
:1042700007081498007800B1012000EB0A010198AA
:1042800001EBE07105984144401A401E0590E0039F
:1042900006D45B462146179A059800F05DF8054460
:1042A0001498007818B15A46179990476D1CE0038E
:1042B00024D55B462146179A059800F04DF8054431
:1042C0001CE00498002807DBDDE90301884203DDD8
:1042D0000098405C179901E0179930205A469047A2
:1042E000049805F10105401C04900198401E0190BE
:1042F00004D12E205A46179990476D1CBAF100013F
:10430000AAF1010ADDDC05E017F8010B5A461799FE
:1043100090476D1CB8F10001A8F10108F4DC5B4680
:104320002146179A0598ABE62D0000002B000000EF
:10433000200000002DE9F041044600251E461746E6
:10434000880404D405E039462020B0476D1C641E63
:10435000F9D52846BDE8F0812DE9F0410446002555
:104360001E469046C80301D5302700E02027880468
:1043700004D505E041463846B0476D1C641EF9D5AA
:104380002846BDE8F0814A68002A06D00A68531C16
:104390000B6010704868401E4860704770B5002878
:1043A00030D0017801290FD002292BD18178012446
:1043B000264D0E2926D2DFE801F0251F2226292DC1
:1043C0003135393D25254044017906291AD2DFE8E7
:1043D00001F01903070B0F0FBDE8704000F09EBEFF
:1043E000BDE8704000F04EB8BDE8704000F057B82E
:1043F000BDE8704000F00EBD01F02EFD01E001F0BF
:10440000ADFC2C7070BD01F0DDFCFAE7BDE870403A
:1044100001F0A3BCBDE8704001F09EBCBDE8704057
:1044200000F088BEBDE8704000F02DB8BDE87040D7
:1044300000F010BA02F000F9E3E7BDE8704000F0C8
:104440002FB8BDE8704001F0BBBD0000880100201E
:1044500003480068002801D000680047704700004A
:104460007401002003490968002901D04968084700
:10447000704700007401002001484088FFF7F2BF38
:104480009C00002070470079012804D0FF2805D146
:10449000012000F0DBBC4FF0FF30FAE770477047B7
:1044A00000B50079C1B04FF4807101280CD002280A
:1044B0000FD0032806D16846FBF7EFFE03216846BC
:1044C00000F00CF841B000BD6846FBF7E6FE0121A4
:1044D000F5E76846FBF7E1FE0221F0E72DE9F34F2F
:1044E000C1B00E4600252C464FF480716846FBF79C
:1044F000D4FE02208DF800009A4B8DF801004FF693
:10450000FF72EB46012E04D0022E66D0032E7DD121
:10451000B8E006208DF8020000214FF0040A994609
:1045200001EBC10ED9F814600AEBCE00002306445B
:104530004FEA030000EB400536F81570974242D071
:1045400006EB4507B7F802C094453CD0BF889742B8
:1045500039D004EBC3073F1D07F0FF0C471C0BF8D5
:104560000C70DC444F1C8CF80170D9F8148008EBF7
:10457000CE070AEB450837F80880CDF800814FEAEE
:1045800018288CF80280DDF800818CF803804FF049
:10459000060808EB450837F80880CDF800814FEA97
:1045A00018288CF80480DDF800818CF805804FF025
:1045B000080808EB45057D5B2F0A8CF806705B1C2C
:1045C0008CF80750DBB2401C0C28B3D304EBC300BB
:1045D000491CC4B20229A3DBBBE008208DF802000D
:1045E00000204FF4AE794FF4B07A00BF5E6909EB5A
:1045F000C001765A964222D05F690AEBC001795811
:104600004F1C1CD0C5EBC5073F1D00E034E0FFB2D6
:1046100000F1010C0BF807C05F444FEA116C87F8FA
:1046200001C04FEA114C87F802C04FEA112C87F8FD
:1046300003C03971310A79716D1CBE71EDB2401C35
:104640000628D3D3C5EBC5002044C0B28DF80300C3
:104650005844FF210171417180F806109DF8032034
:104660005946D21D4198FBF7F1FD9DF803203E48C5
:10467000D21D4199FEF710FA3C490120C87043B0A1
:10468000BDE8F08F07208DF8020000214FF0980957
:1046900001EB410A5F69002509EB4A103E182846E4
:1046A00036F83070974249D006EBC007B7F802C021
:1046B000944543D07F687F1C40D005EB850704EB11
:1046C00047073F1D07F0FF0800F1010C0BF808C079
:1046D0000BEB080701F1010C87F801C0D3F8148037
:1046E0006D1C08EB4A1E09EBC0083EF808C0EDB28D
:1046F0004FEA1C2887F802804FF09A0887F803C019
:1047000008EBC0083EF808C04FEA1C2887F8048070
:104710004FF09C0808EBC00887F805C05EF808C099
:104720004FEA1C6887F806804FEA1C4887F8078024
:104730004FEA1C2887F8088087F809C0401C0C281D
:10474000AED305EB850004EB4000491CC4B202293E
:104750009EDB0BEB04018DF80340FF2008714871CC
:1047600088717BE7FC7F0008A8B600208801002044
:1047700010B5084CA27812B1012A08D105E006A1B3
:10478000FBF796FD002804D001E0FFF707FE0120AB
:10479000607010BD880100206F6B000070B5164E70
:1047A00016A13046FBF784FD154C012500B125709C
:1047B00014A13046FBF77CFD48B114A13046FBF74D
:1047C00091FD15A1FBF78EFDFBF7AEFD607013A107
:1047D0003046FBF76DFD00B1A57012A13046FBF726
:1047E00067FD00B1E57016A13046FBF761FD0028BA
:1047F00000D0257170BD000067B500204F4B000050
:104800008D0100204353513A200000000D0A2B4334
:1048100053513A20000000002C0000004552524F36
:10482000520000002B4D515454444953434F4E4EB7
:1048300045443A204C696E6B20436C6F736564008D
:104840002B434C4F55444844415554483A204F4B14
:104850000000000000790649012805D0FF2806D194
:104860004A680021022010474A680121FAE7704790
:10487000F47F00080149024800F0C2B8D8010020C6
:104880008401002008B50E230092CAB203EAD111B8
:10489000034641F0A101024800F03CF808BD0000C9
:1048A0008401002008B50E230092CAB203EAD11198
:1048B000034641F0A001024800F068F808BD00007E
:1048C0008401002010B5002821D0114B0022001FC8
:1048D000196803E0814203D80A4649680029F9D1E2
:1048E00052B11368841A9C4204D1006818441060C5
:1048F000104602E0506000E0186039B102680B1AFF
:10490000934203D10B681A4402604968416010BDAC
:10491000A00100202DE9FE4F1A4D81461A4EFF20BE
:10492000DDF830A08B46002428701F469046611E9B
:10493000306800F05BFC10B10120287004460220B2
:10494000287032210097CDE901A108F0FF02012370
:104950005946D9F80000FCF7EBFD10B10320287090
:10496000641C04202870306800F0D2FC10B10520CF
:104970002870641C0620287014B10020BDE8FE8F4A
:104980000120FBE778010020040000202DE9FE4F04
:10499000194E8B46814600241F469046611EDDF865
:1049A00030A0306800F022FC144D10B10120687076
:1049B00004460220687032210097CDE901A108F079
:1049C000FF0201235946D9F80000FCF7C1FE10B1DF
:1049D00003206870641C04206870306800F098FC44
:1049E00010B105206870641C0620687014B10020A6
:1049F000BDE8FE8F0120FBE70400002078010020C5
:104A000011B1016001207047002070472DE9F0418D
:104A1000ADF5027D04464FF48076314601A8FBF7E0
:104A20003CFC314641A8FBF738FCFF2000F0BCF904
:104A30000646DFF8B4814FF4FA671FE00F2C1AD254
:104A4000DFE804F036424D58636E79848F9AA5B042
:104A5000BB29080098F8001031B10D2D26D06C1C30
:104A6000002188F8001006E098F80200012801D122
:104A7000082D0DD02C46384600F062FB0E2CDDD9F7
:104A80003046FFF71FFF0DF5027D0020BDE8F081E5
:104A9000384600F055FB55A63046FBF71BFC82B2AA
:104AA00031465648FDF7F8FF0D250BE00724D7E700
:104AB00053A63046FBF70EFC82B231464F48FDF755
:104AC000EBFF00250E248AE04EA63046FBF702FCE1
:104AD00082B231464948FDF7DFFF0125F2E74BA6D8
:104AE0003046FBF7F7FB82B231464448FDF7D4FF6E
:104AF0000225E7E748A63046FBF7ECFB82B23146D9
:104B00003E48FDF7C9FF0325DCE745A63046FBF725
:104B1000E1FB82B231463948FDF7BEFF0425D1E7FB
:104B200046A63046FBF7D6FB82B231463348FDF746
:104B3000B3FF0525C6E744A63046FBF7CBFB82B2A0
:104B400031462E48FDF7A8FF0625BBE7414E30460B
:104B5000FBF7C0FB82B231462848FDF79DFF0725D1
:104B6000B0E73D4E3046FBF7B5FB82B231462348F5
:104B7000FDF792FF0825A5E7384E3046FBF7AAFB64
:104B800082B231461D48FDF787FF09259AE734A612
:104B90003046FBF79FFB82B231461848FDF77CFF99
:104BA0000A258FE734A63046FBF794FB82B23146E4
:104BB0001248FDF771FF0B2584E741F2883000F0C1
:104BC000BFFA3C4E3CA00090334645A2FF2101A80D
:104BD000FEF758FFC2B201A90848FDF75DFF38464D
:104BE00000F0AEFA2AE700008D01002041542B4D61
:104BF000515454444953434F4E4E0D0068B6002063
:104C000041540D00415445300D00000061742B6388
:104C100070696E3F0D00000061742B6373710D00AD
:104C200041542B4E455441504E3D22434D4E455428
:104C3000222C22222C22220D0000000041542B584D
:104C40004949433D310D000041542B584949433FE8
:104C50000D000000FC8000087C810008C88100086D
:104C600041542B434C4F5544434F4E4E3D36302C10
:104C7000302C340D0000000041542B434C4F554460
:104C80005355423D222F61317730316C50356C6D78
:104C9000422F76616C76655F6D616E61676572311A
:104CA0002F757365722F736574706172616D7322F5
:104CB0002C310D00148200087B706172616D733AB3
:104CC0007B50726573735F496E3A3235362C507281
:104CD0006573735F4F75743A33347D7D0000000057
:104CE0002573222573220D00FCF702FEFEF71AFB46
:104CF000FEF74EF9FEF706F9FEF7E4F823482249DD
:104D0000002401602249C0E901144FF48041C0E948
:104D1000034144618461C4610462FCF74FFBFEF708
:104D20005FFAFEF781FA1C481A4901604FF4E1313D
:104D3000C0E901140C21C460C0E904418461C4616C
:104D4000FDF7C6FCFEF794FAFEF71CFAFEF7E2F94F
:104D5000FEF7FCF900F00EFA0121104A084600F0B7
:104D60007FFA0F4C0D4A012160601032084600F0B6
:104D700077FA0A4AA060243A00210A4800F0FEFAB5
:104D8000206000F013FAFEE700580040D801002030
:104D9000A0860100004400401C030020107400089D
:104DA00000000020BD320008F0B50B30154D20F09A
:104DB00007010024144A0FE003688B420BD38B4297
:104DC00005D95E1A43184768C3E9006700E04368E5
:104DD000136002C004E0021D10680028ECD12046D8
:104DE000002802D1286808B10020F0BD064A074813
:104DF0001060074A121A22F00702C0E900240120BD
:104E00002860D7E7A4010020A001002064BA002098
:104E100060C6002010B580790B4C01280BD0FF280C
:104E200010D1012162680020904762680021BDE82E
:104E30001040012010470021626808469047012178
:104E40006268F4E710BD0000F47F0008B0F1FF3F96
:104E500007D050B101280DD1002211464FF07E50ED
:104E600006E000221146044802E0002211461046E6
:104E700000F040BF70470000000080BF2DE9F04106
:104E800008680D4602EB8001154C08894F89A1691D
:104E9000164611B101291DD01EE00021FE2810D0B8
:104EA000FF2815D0FFF7DEFA306845F6C051784389
:104EB000B1FBF0F0401EA0612868401C2860BDE8EE
:104EC000F0812960206908B12161F8E76161F6E7A6
:104ED0002960F4E7FFF7BCFAA069401EA061EEE785
:104EE0009C00002010B50C461AB1012A03D0062000
:104EF00010BD114B00E0114B032815D003DC50B15D
:104F0000012806D109E0952810D0A0F58071593903
:104F10000ED0072010BD012200E0022201462046EB
:104F2000984738B1002010BD9222F7E7C422F5E778
:104F30003422F3E7032010BDA54800088548000887
:104F4000F8B53448694600788DF80000002000F07C
:104F5000DBF800285CD1304C4FF47A70002260807E
:104F6000A11C0120FFF7BEFFF0BB00214FF6FF752B
:104F700001EBC102002004EBC20300BF00EB4002C2
:104F800003EB4202401C15819580D5800C28F5D397
:104F9000491C0229ECD30227A4F894700022211D99
:104FA0000320FFF79FFFF8B90020461E00EB4002E8
:104FB000002104EB421300BF03EBC102491CC2F8FD
:104FC0009C6022F8985F0C295580F5D3401C02287C
:104FD000ECD30A201049A4F85801002298319520FA
:104FE000FFF780FF00B900E012E004EBC001401CB5
:104FF000A1F85C51C1F860610628F4D3A4F88C7163
:105000000022064940F25910FFF76CFF002800D03B
:105010000220F8BD92010020CCB8002028BA002060
:1050200010B5FFF727FC0C49002000F019F880B9F3
:105030000948017809480078814202D1052000F032
:1050400085FF4FF4FA7000F07BF800F011F80028AB
:1050500000D0012010BD0000CCB80020920100203B
:1050600010B50122FFF73EFF002800D0042010BD3C
:1050700010B50F4C0122A11C1046FFF733FFA8B951
:105080000122211D0320FFF72DFF78B9012204F131
:1050900098019520FFF726FF40B9012204F5AE7173
:1050A00040F25910FFF71EFF002800D0042010BD69
:1050B000CCB8002038B555208DF800006946002096
:1050C00000F022F8E0B90F4C0022A11C0120FFF7EC
:1050D00009FFA8B90022211D0320FFF703FF78B9BB
:1050E000002204F198019520FFF7FCFE40B9002250
:1050F00004F5AE7140F25910FFF7F4FE002800D01D
:10510000022038BDCCB8002010B50022FFF7EAFE1F
:10511000002800D0022010BDFFF79AB9C17980792C
:1051200001EB002002494A695080086900470000ED
:10513000FC7F00088079012801D1FFF787BE704706
:1051400010B5EFF3058149B9EFF3108131B9084982
:105150000968022905D1EFF3118111B16FF005043F
:1051600003E0002408B101F039F9204610BD000029
:1051700070000020EFF3058058B9EFF3108040B9BC
:1051800009490868022801D030B109E0EFF3118025
:1051900030B16FF0050070470120086000207047B3
:1051A0004FF0FF30704700007000002010B5EFF3A3
:1051B000058060B9EFF3108048B90B4908680228F0
:1051C00002D0012806D00BE0EFF3118040B16FF060
:1051D000050010BD0220086001F0B0F9002010BDEC
:1051E0004FF0FF3010BD000070000020F8B50D46F4
:1051F0000024211F4E1C00280DD0EFF305824AB970
:10520000EFF3108232B9144A1268022A17D1EFF371
:105210001182A2B10DB10C461BE000216A4600913B
:1052200001F056FD012813D1009890B10B494FF0C1
:1052300080500860BFF34F8FBFF36F8F09E029469E
:1052400001F094FD012804D015B16FF0010400E0D5
:1052500034462046F8BD00007000002004ED00E058
:10526000F8B5144603460E464FF00005EFF30580EF
:10527000E8BBEFF31080D0BB24480068022802D1BD
:10528000EFF3118098BB93B39E423DD84CB1A06818
:105290000028E06803D0502836D3012002E008B18E
:1052A00032E00020012B05D010B31846A26801F0AF
:1052B0005CFA20E040B1032000900022114601205A
:1052C000A36801F096FA04E003220021012001F016
:1052D0006CFA050018D086B100231A46194601F071
:1052E000FFFA012809D0284601F02AF800250BE032
:1052F000184601F01DFA050006D00CB1216800E047
:105300000021284601F008F82846F8BD700000206A
:1053100038B50024E51E002803D0EFF3058169B9F4
:1053200002E06FF0030423E0EFF3108131B911497B
:105330000968022914D1EFF3118189B1002100918C
:10534000694601F0DBFB012811D1009880B10A49C0
:105350004FF080500860BFF34F8FBFF36F8F07E0AF
:1053600000231A46194601F0BBFA012800D02C464A
:10537000204638BD7000002004ED00E0F0B585B097
:105380000B464FF00004EFF305810394A1BBEFF34C
:10539000108189BB21490968022902D1EFF31181EB
:1053A00051BB48B3802618218DF8104004AD42B39C
:1053B000176807B13D4697691FB139467F1E382FE0
:1053C00002D21779FF0702D0002005B0F0BD57695F
:1053D00007B1BE08D2F808C0BCF1000F0DD0D468E8
:1053E0005C2C18D312693AB137B18DE806103246F9
:1053F000294601F0DEFD03900DE0D7685FB9126920
:105400004AB903AACDE90012B2B2294601F0A4FDBF
:10541000012800D003940398D7E700007000002013
:10542000704700002DE9F041134C0F4605466669B0
:105430002068001D00F076FE681C07D137B1216896
:10544000BDE8F0410D48091D00F0BCBE20683544A0
:10545000B5424560216805D2A068BDE8F041091D4C
:1054600000F098BE6068091D00F094FE206B854234
:1054700000D22563BDE8F081200000208C080020C8
:105480002DE9F041054600F0A9FE2D4C2069401C95
:10549000206120682B4F10B1E06930B32BE025600C
:1054A0002069012827D1002606EB860007EB800043
:1054B00000F062FE761C382EF6D3234800F05CFE26
:1054C0002148143000F058FE1F48283000F054FEE8
:1054D0001D483C3000F050FE1B48503000F04CFEA0
:1054E000194860601430A06005E02068E96AC06A6D
:1054F000884200D82560E06A401CE0626864E86A7F
:10550000A169884200D9A06100EB800007EB800010
:10551000291D00F057FE00F081FEE06900280CD044
:105520002068E96AC06A884207D208494FF0805073
:105530000860BFF34F8FBFF36F8FBDE8F0810000AD
:1055400020000020DC0300203C08002004ED00E0E7
:1055500038B500F043FE104CA068C8B90F4800F001
:105560000BFE0E48143000F007FE0C48206014308B
:1055700060600A4B00202833009003F15002102194
:105580000A2001F036F9A06010B105A100F0C4FEB8
:10559000BDE8384000F042BE5C000020A0080020BA
:1055A000546D72510000000030B4026C0B46002AAA
:1055B0000BD0C1681144C1604468A14201D30168A5
:1055C000C16030BC1846FAF741BE30BC70472DE9C7
:1055D000F041856B174604460026026C82B1C7B1C4
:1055E000E068FAF733FEE168206C091AE16022688E
:1055F000914202D26168081AE060022F16D017E0CB
:105600002068A8B9606801F077FD06460020606058
:105610000EE0A068FAF71AFE216CA0680844A060AA
:105620006168884204D32068A06001E005B16D1E66
:105630006D1CA5633046BDE8F08110B5044690F8B6
:10564000590058B101280CD002280FD0502080F307
:105650001188BFF34F8FBFF36F8FFEE7206B00F011
:10566000F1FD2046BDE8104000F0ECBD10BD00008B
:1056700010484FF4F041420706D0C01D0D4920F0FC
:105680000700411AC1F5F0410B4A00230144C2E969
:1056900000030839103A21F0070111604B600B60DC
:1056A0000B1AC0E9001393604FF000405360D060C4
:1056B000704700007034002084000020144E154C08
:1056C000A6F29C474FF08058DFF84C9012E000BFE4
:1056D00000F084FDF068C568281D00F023FD2069F6
:1056E000401E2061E068401EE06000F097FD284603
:1056F000FFF7A3FFE0680028EAD138680128F9D94C
:10570000C9F80080BFF34F8FBFF36F8FF2E700003F
:10571000780800202000002004ED00E070B51D4650
:10572000049C51B1C4F80020C4E90F0101212046B6
:1057300001F092F884F84C5070BD2460F4E72DE934
:10574000F0470E46DDE909841746824691009946E6
:10575000089DA522206BFAF799FD6FF00301206BDD
:1057600001EB8701084420F00707780707D0502095
:1057700080F31188BFF34F8FBFF36F8FFEE72218BE
:10578000315C82F83410315C11B1401C1028F6D322
:10579000002684F84360382D00D33725E562C4E93C
:1057A0001356201D00F0F3FC04F1180000F0EFFC8C
:1057B0002461C5F138006462A061666584F85860B0
:1057C0004A465146384600F047FA2060B8F1000FCB
:1057D00001D0C8F80040BDE8F087000030B511499D
:1057E00000E011460A688242FBD34B685C18844291
:1057F00003D1406818444860084643681C18944226
:1058000009D1084C103C2468A24209D052681A44BD
:1058100042600A6812680260814200D0086030BDB0
:105820000460F9E78400002070B5002441600B4D4E
:105830000061914206D8D11A8269914206D2011DB7
:10584000686807E09A4203D2994201D3012403E039
:10585000011D286800F09EFC204670BD5C00002001
:1058600010B5044600F0BAFCA06B28B15FF000044C
:1058700000F0D4FC204610BD0124F9E730B589B012
:10588000304D55E00498002806DADDE90601059A56
:105890009047049800284BDB069C606910B1201DDE
:1058A00000F040FC02A800F0B9F8024604980A286B
:1058B0003ED2DFE800F00505053D263705053D260B
:1058C0000598A169034601442046FFF7ADFF00B3E8
:1058D000616A20468847E069012829D100200090AC
:1058E0000598A169002342181946204601F04AFD97
:1058F00078B9502080F31188BFF34F8FBFF36F8FBB
:10590000FEE70598A06128B1811813462046FFF7ED
:105910008BFF0DE0502080F31188BFF34F8FBFF352
:105920006F8FFEE794F82C0010B9204600F08AFC37
:10593000002204A9A86801F02FF90028A2D109B01B
:1059400030BD00005C0000202DE9FC410F460546FB
:1059500000F038FE01A800F061F80446019818B183
:1059600001F07EFCBDE8FC81224EAFB1706800689A
:10597000A8B30027291B3A46B06800F00DFD01F0DE
:105980006FFC0028EED11C494FF080500860BFF337
:105990004F8FBFF36F8FE5E7A542EBD801F060FCB6
:1059A00030682746C068C468201D00F0BBFBE06972
:1059B000012810D1A0692B4641193A462046FFF72D
:1059C00033FF40B100200346014600902A4620469E
:1059D00001F0D8FC20B1616A20468847C2E707E0A1
:1059E000502080F31188BFF34F8FBFF36F8FFEE716
:1059F0000127BFE75C00002004ED00E00648416895
:105A0000096829B14168C968C96849680163704774
:105A10004FF0FF31FAE700002000002070B5054686
:105A200001F000FB064E04463069844203D200F0C8
:105A300009F8012000E0002028602046346170BD94
:105A40005C000020F8B5194D1FE0C068C468066806
:105A5000201D00F067FB616A20468847E069012845
:105A600013D1A0693044B04206D924616060211D81
:105A7000286800F08FFB08E00020034601460090F4
:105A80003246204601F07EFC38B1286801680029C2
:105A9000DBD16968C5E90010F8BD502080F311889A
:105AA000BFF34F8FBFF36F8FFEE700005C00002055
:105AB00008484068401C4FF0500080F3118804D023
:105AC000BFF34F8FBFF36F8FFEE7BFF34F8FBFF36F
:105AD0006F8FFEE78C000020074C2068016841B101
