:020000040800F2
:1000000020B00020DD010008971C0008011A00083C
:10001000951C0008B9020008D92100080000000062
:100020000000000000000000000000004501000882
:10003000BB0200080000000089010008D51C000870
:10004000F7010008F7010008F7010008F7010008B0
:10005000F7010008F7010008F7010008F7010008A0
:10006000F7010008F7010008F7010008F701000890
:10007000F7010008F7010008F7010008F701000880
:10008000F7010008F7010008F7010008F701000870
:10009000F7010008F7010008F7010008F701000860
:1000A000F7010008F7010008F7010008F701000850
:1000B000F7010008F7010008F7010008F701000840
:1000C000F7010008F7010008F7010008F701000830
:1000D000F7010008B5210008C1210008CD21000862
:1000E000F7010008F7010008F7010008F701000810
:1000F000F7010008F7010008F7010008F701000800
:10010000F7010008F7010008F7010008F7010008EF
:10011000C91F0008F7010008F7010008AD1D00081D
:10012000F7010008F7010008F7010008F7010008CF
:10013000DFF80CD000F088F80048004719220008CA
:1001400020B00020224B19680868B0E8F00F80F357
:100150000988BFF36F8F4FF0000080F311884EF0D5
:100160000D0E70470000000006480068006880F32C
:10017000088862B661B6BFF34F8FBFF36F8F00DFA1
:1001800000BF00BF08ED00E0EFF30980BFF36F8F01
:100190000F4B1A6820E9F00F106008B54FF05000BF
:1001A00080F31188BFF34F8FBFF36F8F02F0FCFF16
:1001B0004FF0000080F31188BDE808401968086816
:1001C000B0E8F00F80F30988BFF36F8F704700BF6E
:1001D0001C000020EFF305807047000006488047B0
:1001E00006480047FEE7FEE7FEE7FEE7FEE7FEE71C
:1001F000FEE7FEE7FEE7FEE7651D000831010008A7
:1002000040EA01039B0703D009E008C9121F08C098
:10021000042AFAD203E011F8013B00F8013B521E18
:10022000F9D27047D2B201E000F8012B491EFBD28F
:1002300070470022F6E710B513460A4604461946F1
:10024000FFF7F0FF204610BD064C074D06E0E068C2
:1002500040F0010394E8070098471034AC42F6D30D
:10026000FFF76AFFE83C0008083D000870B5044647
:1002700000688168C943C9071CD1816821F0010168
:10028000816000F0F1FA05460FE000BF00F0ECFAE3
:10029000401B022809D9A06A40F01000A062E06A61
:1002A00040F00100E062012070BD20688068C0431A
:1002B000C007EBD0002070BDFEE77047F8B5002402
:1002C000009490F824202546012A12D0012280F8BB
:1002D00024204A681F23072A0DD20668776B521E16
:1002E00002EB820293409F430B6893401F43776366
:1002F00019E00220F8BD06680D2A0AD2376BD21F1A
:1003000002EB820293409F430B6893401F43376385
:1003100009E0F76A0D3A02EB820293409F430B68B3
:1003200093401F43F7620A68072306680A2A0AD324
:10033000F7680A3A02EB420293409F438B6893406E
:100340001F43F76008E0376902EB420293409F4386
:100350008B6893401F4337610A68102A01D0112A25
:1003600020D1124B02689A4217D193681B0219D40C
:10037000936843F4000393600968102912D10C4973
:100380000C4A0968B1FBF2F101EB8101490000E080
:10039000491E00910029FBD104E0816A41F020014F
:1003A0008162012480F824502046F8BD00240140D9
:1003B0001800002040420F002DE9F04104004FF0EA
:1003C000000514D0A06A002628B9E66284F82460EB
:1003D000204600F083F82046FFF748FFA16A01F0AD
:1003E0001001014304D0A06A40F01000A0626BE04D
:1003F000A16A21F4885141F00201A16233492368C6
:100400008B42E16904D1B1F5402F01D14FF40021B5
:10041000277B4FF4807C41EA470261680A43A16868
:10042000614509D0012907D05FF0000194F814E07C
:10043000BEF1010F02D00AE06146F7E7C7B1A76A33
:1004400047F02007A762E76A47F00107E7625F68A5
:1004500027F469470F435F60236899681C4F394050
:1004600011439960A16861450BD0012909D00CE0C6
:10047000DFF860E0A7690EEB47370F4347F40061F0
:10048000E5E7218A0D05A5F580152168CB6A23F4DF
:1004900070032B43CB62216889680F4B194091424E
:1004A00008D1E662A16A21F0020141F00101A162D6
:1004B000BDE8F081A06A20F0020040F01000A062C8
:1004C000E06A40F00100E0620120F1E7003C0140F9
:1004D000FDF7E1FF00E0FFFFFE0E1FFF00B585B056
:1004E0000021009101910291039100680E49884218
:1004F00018D10E48816941F400718161816901F46C
:1005000000710491816941F004018161806969464B
:1005100000F00400049001200090032001900448A2
:1005200000F0A0F805B000BD00240140001002401A
:10053000000801402DE9F05F90F821100024022905
:1005400003D004218163012485E001680A6822F058
:100550000E020A6001680A6822F001020A603F4E3A
:100560003E4FB215DFF8F4C0DFF8F090DFF8ECA0F2
:10057000DFF8E8B0DFF8E4E00168783F1301150226
:10058000ACF1640CA9F15009AAF13C0AABF1280BBB
:10059000AEF1140E4FF48018B14227D9B9420ED0F3
:1005A000614512D049451DD0514518D0594518D044
:1005B000714501D1424615E0294EB14201D10122D7
:1005C00010E0274E1436B14201D110220AE0244E29
:1005D0002836B14206D0224A3C32914201D11A4615
:1005E00000E02A461E49091F0A602BE0B94213D0D9
:1005F000614517D0494522D051451DD059451DD0E0
:10060000714501D142461AE0B14202D14FF08072E9
:1006100015E0134EB14201D1012210E0104E143604
:10062000B14201D110220AE00D4E2836B14206D067
:100630000B4A3C32914201D11A4600E02A46074952
:1006400080394A60012180F82110002180F82010B3
:10065000416B01B188472046BDE8F09F8000024011
:10066000080402402DE9F84FDFF8C891002409F191
:10067000040A0AF1040B23460F270BF1040ED1E004
:100680000125A54006EA0502AA4276D1DFF8A8C1F5
:100690004E68A6EB0C0866452BD00DDC032E34D03B
:1006A00005DC36B3012E19D0022E2FD11BE0112EFE
:1006B00016D0122E2AD119E0B8F5881F19D006DC01
:1006C000B8F5803F15D0B8F5801F1FD111E0B8F5FF
:1006D000001F0ED0B8F5041F18D10AE0CB6815E052
:1006E000CB681B1D12E0CB6808330FE0CB680C33DE
:1006F0000CE08B682BB1012B4FF0080303D0456150
:1007000004E0042302E0056100E00023FF2A01D891
:10071000064601E000F104064FEA840501D9A5F17F
:100720002005D6F8008007FA05FC28EA0C0803FA31
:1007300005F548EA0508C6F800804D68ED0070D55B
:100740003E4DAE6946F00106AE61AD6924F0030688
:1007500005F0010500953A4D06EB050CDCF8085054
:10076000A607360F07FA06F825EA0805DFF8D48051
:10077000404503D14FF0000825E052E0DFF8C88083
:10078000404502D14FF001081DE0DFF8C080404530
:1007900002D14FF0020816E0DFF8B480404502D1E4
:1007A0004FF003080FE0DFF8AC80404502D14FF076
:1007B000040808E0DFF8A080404502D14FF00508AA
:1007C00001E04FF0060808FA06F848EA0508CCF8F8
:1007D00008804D68D9F80060ED034D4601D51643F9
:1007E00000E096432E604D68DAF80060AD03554690
:1007F00001D5164300E096432E604D68DBF800609B
:10080000ED025D4601D5164300E096432E604D682B
:10081000DEF80060AD02754601D5164300E0964350
:100820002E60641C0A681646E2407FF429AFBDE8DA
:10083000F88F000000040140000011100010024079
:100840000000014000080140000C01400010014080
:100850000014014000180140001C01400AB1016170
:1008600070470904FBE700000148806870470000FA
:100870000C00002070B504001BD094F83D0000254A
:1008800020B984F83C50204600F0AEF8242084F8CB
:100890003D002068016821F00101016000F0B2FA1A
:1008A0004D4A6168914201D84C4900E04C49884268
:1008B00001D2012070BD4B492368B0FBF1F15E68A5
:1008C00026F03F060E435E606368934206D94FF4FC
:1008D000967359434FF47A73B1FBF3F12368491CC3
:1008E0001E6A26F03F06314319626168914210D8B2
:1008F0004900401EB0FBF1F2521CC2F30B02042A65
:1009000001D2042022E0B0FBF1F0401CC0F30B0048
:100910001CE0A368F3B301EBC10202EB0116421E17
:10092000B2FBF6F2521C42F48042120549D093B356
:1009300001EBC10202EB0111401EB0FBF1F0401CC3
:10094000C0F30B0040F4804040F400402168CA69C5
:100950004CF6FF739A431043C861D4E9070108437A
:1009600021680A6822F0C00210430860D4E903013C
:1009700001432068826848F2FF339A431143816043
:10098000D4E9050108432168CA6822F0FF02104338
:10099000C86001E00EE016E02068016841F0010146
:1009A00001602564202084F83D00256384F83E50D2
:1009B000002070BD01EB4106421EB2FBF6F2521C54
:1009C000B3E70120C2E701EB4101401EB0FBF1F0AB
:1009D000401CC0F30B00B7E7A086010080841E0016
:1009E00000093D0040420F0010B586B00021009183
:1009F0000191029103910068104988421BD1104C6B
:100A0000A06940F00800A061A069694600F00800F4
:100A100004904FF440600090122001900320039056
:100A20000848FFF71FFEE06940F48000E061E069DC
:100A300000F48000049006B010BD00000058004093
:100A400000100240000C0140024881680278114405
:100A5000816070470C000020074810B5016841F024
:100A600010010160032000F08FF8002000F006F86C
:100A700000F03EF8002010BD0020024000B5014605
:100A800087B00022372000F05FF8372000F04EF8E2
:100A90001348C16941F02001C161C06905A900F096
:100AA00020000690684600F08DF900F0ABF90D4982
:100AB0004000B0FBF1F10D480B4A491E0260416055
:100AC00040F2E7320021C0E90321816000F049FCD7
:100AD00010B1012007B000BD044800F05EFCF9E74A
:100AE0000010024040420F000014004008030020A4
:100AF0000C4808B5816941F001018161816901F00B
:100B000001010091C16941F08051C161C06900F0EB
:100B1000805000900448416821F0E06141F000718C
:100B2000416008BD0010024000000140002809DBC0
:100B300000F01F02012191404009800000F1E020F7
:100B4000C0F8001170470000F0B40E4B1B680C4653
:100B5000C3F30223C3F10705042D00D90425191D91
:100B6000072901D2002300E0DB1E012606FA05F169
:100B7000491E214099409E40761E16403143F0BCEC
:100B800001F02BBB0CED00E0064900F007020868FD
:100B90004FF6FF03184040EA0220034A1043086062
:100BA000704700000CED00E00000FA052DE9F84365
:100BB00005460078354CC00754D0E0690026C000D7
:100BC00008D4E06940F08050E061E069012600F05F
:100BD000805000902E480168C90512D401688046F3
:100BE00041F480710160FFF73FFE074605E000BF5A
:100BF000FFF73AFEC01B642823D8D8F80000C005D0
:100C0000F6D5206A10F4407021D0A98801F4407113
:100C100081421CD0206A1F49012220F440700A60E2
:100C200000220A602062C00711D0FFF71DFE0746B0
:100C300041F2883808E000BFFFF716FEC11B4145AE
:100C400002D90320BDE8F883206A8007F4D5206A22
:100C5000696820F44070084320621EB1E06920F00A
:100C60008050E0612878800705D56068A96820F485
:100C70004040084360602878C00605D5606869690F
:100C800020F48000084360600020DBE70010024091
:100C900000700040400442422DE9F0470F46050035
:100CA00061D0434E306800F00700B84209D2306886
:100CB00020F0070038433060306800F00700B84289
:100CC00051D128683B4C810712D5400703D5606895
:100CD00040F4E06060602878000703D5606840F465
:100CE000605060606068A96820F0F00008436060B0
:100CF0002878C00728D06868012810D02168022809
:100D000010D0890700292EDA616821F00301014320
:100D10006160FFF7A9FD804641F288390DE0216846
:100D20008903EFE78901EDE7FFF79EFDA0EB0801DE
:100D3000494502D90320BDE8F0876068696800F082
:100D40000C00B0EB810FEFD1306800F00700B84223
:100D50000BD9306820F0070038433060306800F06D
:100D60000700B84201D00120E5E72878400705D503
:100D70006068E96820F4E060084360602878000754
:100D800006D56068296920F4605040EAC1006060BF
:100D900000F058F86168084AC1F30311515CC8407B
:100DA0000649086006480068FFF768FE0020C2E7B1
:100DB0000020024000100240A83C0008180000205B
:100DC000100000200F2202600C4A536803F0030356
:100DD0004360536803F0F0038360536803F4E063F7
:100DE000C36052684FF4E06303EAD2020261044830
:100DF000006800F007000860704700000010024023
:100E0000002002400448054900684968044AC1F3CB
:100E10000221515CC84070471800002000100240B9
:100E2000B83C00080448054900684968044AC1F311
:100E3000C221515CC84070471800002000100240D9
:100E4000B83C000812A185B00FC98DE80F0014A0AE
:100E5000144A006804905168134801F00C03042BF5
:100E600010D0082B0ED1C1F38343C9031DF8030032
:100E70000AD5516804AAC1F34041515C0A4A504363
:100E8000B0FBF1F005B0704708494843FAE70000AD
:100E900002030405060708090A0B0C0D0E0F1010BB
:100EA000010200000010024000127A0000093D001B
:100EB0002DE9F84F040070D02078C04DC00749D00C
:100EC0006868C0F38100012807D06868C0F381001A
:100ED000022809D16868C00306D52868800339D57F
:100EE00060680028E7D035E06068B0F5803F0BD03F
:100EF00010B1B0F5A02F11D0286820F48030286000
:100F0000286820F4802002E0286840F480302860BF
:100F1000606890B1FFF7A8FC06460AE0286840F434
:100F200080202860F0E700BFFFF79EFC801B64284C
:100F300073D828688003F7D50CE0FFF795FC0646C8
:100F400005E000BFFFF790FC801B6428F0D82868FC
:100F50008003F7D420789A4E80074FF001094FF0B4
:100F6000000839D5686810F00C0F07D06868C0F326
:100F70008100022809D16868C00306D42868800768
:100F800014D52069012808D110E02069B0B1C6F855
:100F90000090FFF769FC074605E00AE1FFF764FCF3
:100FA000C01B0228C4D828688007F7D52868616963
:100FB00020F0F80040EAC10028600DE0C6F800808B
:100FC000FFF752FC074604E0FFF74EFCC01B022867
:100FD00023D828688007F7D4207800072CD57948D3
:100FE000A169D9B1C0F80090FFF73EFC074604E0C4
:100FF000FFF73AFCC01B02280FD8686A8007F7D5B4
:1010000071484FF4FA510068B0FBF1F0009000BF56
:101010000098411E0091FAD20EE080E0C0F80080F6
:10102000FFF722FC074604E0FFF71EFCC01B022866
:1010300075D8686A8007F7D42078400760D5E869DA
:101040000027C00008D4E86940F08050E861E869F2
:10105000012700F0805000905C480168C90513D456
:101060000168834641F480710160FFF7FDFB824611
:1010700006E000BFFFF7F8FBA0EB0A0064284ED89B
:10108000DBF80000C005F5D5E06801280AD008B1FA
:10109000052813D0286A20F001002862286A20F071
:1010A000040002E0286A40F001002862E06841F292
:1010B000883B98B1FFF7D8FB82460BE0286A40F0E6
:1010C00004002862EEE700BFFFF7CEFBA0EB0A01A9
:1010D00059455AD8286A8007F6D50CE0FFF7C4FBBB
:1010E000824605E0FFF7C0FBA0EB0A0159454CD84A
:1010F000286A8007F6D41FB1E86920F08050E861C3
:10110000E06988B36968C1F38101022944D00228EB
:10111000C6F8608004D0FFF7A7FB044638E034E04F
:10112000FFF7A2FB074604E0FFF79EFBC01B022867
:101130002BD828688001F7D4206AB0F5803F05D10C
:101140006868A16820F4003008436860D4E90801A9
:101150000843696821F4741108436860C6F8609018
:10116000FFF782FB044606E025E000BFFFF77CFBAB
:10117000001B022809D828688001F7D51BE000BFB2
:10118000FFF772FB001B022802D90320BDE8F88F8D
:1011900028688001F4D40EE00128F7D06868226A3C
:1011A00000F48031914204D1616A00F470108842E9
:1011B00001D00120EAE70020E8E70000001002402B
:1011C00000004242800442421800002000700040AB
:1011D00070B5040005D00025A56294F8510010B147
:1011E00006E0012070BD84F85050204600F02EF833
:1011F000022084F851002068016821F0400101605C
:10120000D4E901010843D4E9031211430843616999
:101210000843218B01F400710843E1690843216A06
:101220000843A16A084321680860A069042101EA13
:101230001040216848602068C16921F40061C161E3
:101240006565012084F85100002070BD70B586B03E
:10125000002400940194029403942B4E03682B49BC
:10126000022003222A4DB34228D18B6943F48053D4
:101270008B618B6903F4805304938B6943F00803FB
:101280008B618969039201F0080104912821CDE95D
:10129000001069462846FFF7E5F91020CDE9000463
:1012A000694628460294FFF7DDF91A48416841F083
:1012B000E06141F00101416006B070BD164EB342DD
:1012C000FAD1CB6943F48043CB61CB6903F480430B
:1012D00004938B6943F008038B618969039201F0E1
:1012E000080104914FF42041CDE9001069462846D9
:1012F000FFF7B8F93014CDE9000469462846029496
:10130000FFF7B0F9D8E700000030014000100240BC
:10131000000C014000000140003800407047704759
:1013200070B590F83C20012A19D0012400F83C4FF8
:101330000222427050F83C3C5A689D6822F07006C8
:101340000A684968324325F0800529435A6050F8FD
:101350003C2C9160447000210170084670BD022051
:1013600070BD10B5040003D094F83D0010B107E043
:10137000012010BD002084F83C00204600F00CF84D
:10138000022084F83D00211D206800F015FD012099
:1013900084F83D00002010BD70470168CA6842F023
:1013A0000102CA600068816801F00701062903D0C4
:1013B000016841F00101016000207047704770B57D
:1013C0000446006801694FF00005C943890715D438
:1013D000C168C943890711D4E91E01610120207742
:1013E000206880698007204602D0FFF7E7FF04E00D
:1013F00000F0C8F8204600F05DF925772068016903
:10140000C943490717D4C168C943490713D46FF0CA
:1014100004010161022020772068806910F4407F78
:10142000204602D0FFF7CAFF04E000F0ABF82046E8
:1014300000F040F9257720680169C943090716D4EF
:10144000C168C943090712D46FF008010161042083
:1014500020772068C0698007204602D0FFF7AEFFE2
:1014600004E000F08FF8204600F024F9257720688A
:101470000169C943C90617D4C168C943C90613D451
:101480006FF010010161082020772068C06910F416
:10149000407F204602D0FFF791FF04E000F072F891
:1014A000204600F007F9257720680169C943C9077C
:1014B00008D1C168C943C90704D1891E016120460A
:1014C00000F0FAF820680169C943090609D4C16827
:1014D000C943090605D46FF0800101612046FFF77A
:1014E0001DFF20680169C943490609D4C168C94381
:1014F000490605D46FF040010161204600F0E6F88E
:1015000020680169C94389060BD4C168C9438906AB
:1015100007D46FF0200101612046BDE87040FFF75D
:10152000FEBE70BD00B585B0002100910191029111
:10153000039100680F4988421AD10F48816941F030
:10154000100181618069694600F01000049040201C
:1015500000900220019003900848FFF783F80848A4
:10156000416821F4406141F0E06141F44061416033
:1015700005B000BD00040040001002400010014012
:1015800000000140704770B5044690F83C000D46DD
:1015900001280DD0012684F83C60022084F83D002B
:1015A00042B1042A18D0082A2AD00C2A4DD139E099
:1015B000022070BD206800F045FC2068816941F080
:1015C000080181612068816921F00401816120683E
:1015D00081692A69114311E0206800F063FC2068EA
:1015E000816941F4006181612068816921F4806131
:1015F0008161206881692A6941EA0221816124E0D0
:10160000206800F085FC2068C16941F00801C161D3
:101610002068C16921F00401C1612068C1692A699B
:10162000114311E0206800F0A7FC2068C16941F473
:101630000061C1612068C16921F48061C1612068D5
:10164000C1692A6941EA0221C16184F83D60002034
:1016500084F83C0070BD10B5040003D094F83D0040
:1016600010B107E0012010BD002084F83C002046A6
:1016700000F00CF8022084F83D00211D206800F0E5
:101680009BFB012084F83D00002010BD08B50068D8
:101690000649884208D10648C16941F00201C1618A
:1016A000C06900F00200009008BD00000004004086
:1016B000001002407047000000680349884201D1D1
:1016C000FFF7C2B970470000001400407047704730
:1016D00070B5026804461068D168536910F00F0FA6
:1016E00051D003F0010501F4907635435DD0C20777
:1016F00005D0CA0503D5E26B42F00102E26342075E
:1017000005D5DA0703D0E26B42F00202E2638207FA
:1017100005D5DA0703D0E26B42F00402E263020768
:1017200005D5DA0703D0E26B42F00802E263E26B10
:10173000002A34D0800604D5880602D5204600F061
:101740005FFC20684069E16BC0F3801001F0080184
:101750000143204624D000F045FC20684169490639
:101760001AD5416921F040014161606BA0B11B496C
:101770004163606BFEF7DEFE002810D0606B416BAA
:10178000BDE87040084783060FD58B060DD520466F
:10179000BDE8704000F034BC2046FFF798FF70BDF4
:1017A000FFF795FF0020E06370BD030606D50B062A
:1017B00004D52046BDE8704000F0CABC4006F3D511
:1017C0004806F1D5D168204621F04001D1602021A2
:1017D00084F8391000F013F970BD0000D51F00081F
:1017E00070B5040004D094F83900002510B106E06B
:1017F000012070BD84F83850204600F023F82420E2
:1018000084F839002068C16821F40051C160204685
:1018100000F042FC2068016921F4904101612068D8
:10182000416921F02A0141612068C16841F40051F9
:10183000C160E563202084F8390084F83A00002074
:1018400070BD0000F0B585B00024009401940294AE
:101850000394D0F800C060486049061502220323B3
:101860000125844525D1C86940F40020C861C869B4
:1018700000F400200490886940F0100088618869B5
:10188000CDE9006200F01000CDE90330544E694606
:101890003046FEF7E7FEE8028DE831006946304643
:1018A000FEF7E0FE002211463420FFF74DF9342008
:1018B00030E0DFF830E14C484FF40077F4452DD1AB
:1018C000D1F818C04CF4804CC1F818C0D1F818C039
:1018D0000CF4804CCDF810C0D1F818C04CF0040CBA
:1018E000C1F818C0896901F00401CDE90331CDE9DF
:1018F000007269460746FEF7B5FE0096694638460F
:10190000CDE90145FEF7AEFE002211462520FFF786
:101910001BF92520FFF70AF905B0F0BD334EB44599
:1019200025D1CE6946F40036CE61CE6906F4003684
:1019300004968E6946F004068E618969039301F06E
:10194000040104910421CDE9001269460646FEF720
:1019500089FE08208DE8310069463046FEF782FE98
:10196000002211462620FFF7EFF82620D2E7204874
:101970008445D1D1C86940F48020C861C86900F4A9
:1019800080200490886940F0200088618869194EA1
:1019900000F0200004904FF48070CDE90002694609
:1019A00003933046FEF75EFE009769463046CDE968
:1019B0000145FEF757FE1048416821F0300141F023
:1019C000E06141F030014160002211462720FFF71D
:1019D000BBF827209EE70000004C004000100240AA
:1019E0000010014000380140000801400044004060
:1019F000004800400014014000000140704770475B
:101A0000FEE700003EB500240D48009401940294C6
:101A10000A498460016004730475012505614FF46F
:101A200060214460C161FEF7C7FCCDE9004569460D
:101A300003480294FEF742FC3EBD00000024014032
:101A4000940000202DE9F04F85B0002558480095FE
:101A5000019502950395816941F040018161816999
:101A600001F040010491816941F0100181618169B7
:101A700001F010010491816941F0040181618169E3
:101A800001F004010491816941F0080181618169DB
:101A900001F008010491816941F0200181618069B0
:101AA000DFF810B100F02000049001224FF4D8714B
:101AB0005846FEF7D3FEDFF8009140F203360122CC
:101AC00031464846FEF7CAFE0122D70339463B4855
:101AD000FEF7C4FEDFF8E8A04CF2200801224146E0
:101AE0005046FEF7BBFE01224FF401413548FEF798
:101AF000B5FE44F27D00CDE900050124694602945B
:101B00002E48FEF7AFFD4EF20720CDE900056946ED
:101B100002945846FEF7A6FD3020CDE90004029459
:101B2000694658460394FEF79DFDCDE90064029492
:101B3000694648460394FEF795FD11260097CDE9C6
:101B4000016469461D480394FEF78CFD4FF4705004
:101B5000CDE90005694602945046FEF783FDCDF8B5
:101B60000080CDE90164694650460394FEF77AFD92
:101B70004FF4C0700090CDE9016469465846039463
:101B8000FEF770FD20020090CDE9016469460D4822
:101B90000394FEF767FD0320CDE90240CDE9007410
:101BA00069460848FEF75EFD05B0BDE8F08F00000D
:101BB0000010024000100140000C014000180140DC
:101BC00000140140000801400C480B49012201604B
:101BD0004FF48271416000218160C160C0E904124C
:101BE000520282613822C0E90721416281620A21E2
:101BF000C162FFF7EDBA000000300140180100207B
:101C00000C480B494FF4007201604FF4827141603F
:101C100000218160C1600161C0E905123822C0E97C
:101C20000721416281620A21C162FFF7D1BA000037
:101C3000003800407001002010B58AB000240794DD
:101C40001C2168460894FEF7F4FA11480F49C0E9D0
:101C500000144FF6FF71C0E9024104618461FFF78F
:101C6000FAFC079407A90A480894FFF759FB60207B
:101C7000CDE9000402940022694605480494FFF768
:101C800082FC0348FFF74EFC0AB010BD0004004080
:101C9000C8010020FEE7704701F05EF8094C40F2F1
:101CA000DE35002220212046FEF7D8FD0A2000F074
:101CB00031FB012220212046FEF7D0FD284600F00E
:101CC00029FBEEE7001401404FF47A74204600F03F
:101CD00021FBFBE710B5502080F31188BFF34F8F35
:101CE000BFF36F8F01F012FE18B104494FF080501E
:101CF0000860002080F3118810BD000004ED00E0B2
:101D000030B595B028216846FEF793FA14210AA849
:101D1000FEF78FFA18210FA8FEF78BFA0224012094
:101D2000049000941020059000254FF46010CDE938
:101D3000085007946846FFF7BBF80AA90F2081E80E
:101D400031006002CDE90D0502210AA8FEF7A4FFCB
:101D50004FF4404011900F940FA8FEF727FF15B0E5
:101D600030BD00000D48016841F00101016041688B
:101D70000B4A1140416001680A4A11400160016844
:101D800021F480210160416821F4FE0141604FF49B
:101D90001F0181600449C0030860704700100240C1
:101DA0000000FFF8FFFFF6FE08ED00E00148FFF736
:101DB00006BB000008030020F0B502681C4B1D4D57
:101DC0001D4E1E4F1E4C4FF0804C984209D0A04231
:101DD00007D0604505D0A84203D0B04201D0B84238
:101DE00004D122F0700E4A6842EA0E02984209D0ED
:101DF000A04207D0604505D0A84203D0B04201D030
:101E0000B84203D122F44075CA682A434D6922F0D2
:101E100080022A4302608A68C2620A68826298422B
:101E200001D0A04201D10969016301214161F0BDE6
:101E3000002C01400004004000080040000C00405D
:101E400000340140F0B5026A22F001020262036A26
:101E500042688469124E24F073050C682C4323F009
:101E600002058B682B430D4DA84201D0B04205D12D
:101E700023F00807CB683B4323F00403A84201D0BA
:101E8000B04205D14D6922F4407215438A692A4354
:101E900042608461496841630362F0BD002C0140E7
:101EA00000340140F0B5026A22F010020262026AB8
:101EB000436884690D6824F4E64444EA05248D6887
:101EC00022F0200242EA05120F4D104EA84201D026
:101ED000B04206D1CF6822F0800242EA071222F017
:101EE0004002A84201D0B04207D14D6923F44063BB
:101EF00043EA85038D6943EA850343608461496849
:101F000081630262F0BD0000002C014000340140FA
:101F1000F0B5026A22F480720262026A4368C46900
:101F200022F4007224F073050C68124E2C438D6865
:101F300042EA05220E4DA84201D0B04206D1CF6838
:101F400022F4006242EA072222F48062A84201D011
:101F5000B04207D14D6923F4405343EA05138D691C
:101F600043EA05134360C4614968C1630262F0BD7E
:101F7000002C01400034014030B5026A22F4805246
:101F80000262046A4268C3690D6823F4E64343EAC7
:101F900005238D6824F4005444EA0534084DA84212
:101FA00002D0084DA84204D14D6922F4804242EA91
:101FB00085124260C36149680164046230BD00005B
:101FC000002C0140003401400148FFF781BB0000B4
:101FD0000802002010B5406A0021C185C184FFF7C6
:101FE00076FB10BD0168CA6822F49072CA6001686D
:101FF0004A6922F001024A61202180F83A107047B4
:1020000010B590F83A10222901D0022010BD816845
:10201000B1F5805F11D00169002901681FD04968BE
:1020200001F07F03816A4A1C82620B70C18D491ED8
:102030000904090CC18518D02BE00269816A002AC5
:102040000268526805D0D2B20A80816A491C816256
:10205000ECE7C2F308020A80816A891CF7E74A6844
:10206000816A4B1C83620A70E0E70168CA6822F04B
:102070002002CA600168CA6822F48072CA600168DE
:102080004A6922F001024A61202180F83A10FFF7E4
:10209000B5FC002010BD00002DE9F04104460068A9
:1020A0000169E26821F44051114301612169A0688E
:1020B0000843616908432168CA6841F20C639A4386
:1020C0000243CA6020684169A26921F4407111434A
:1020D00041611E49206864253226884202D1FEF7FC
:1020E000A1FE01E0FEF78EFE00EBC00101EB001146
:1020F00060686FF018078000B1FBF0F2B2FBF5F2F8
:10210000B1FBF0F37A4303EB8202B1FBF0F306EB91
:102110000212B2FBF5F2B3FBF5F302F0F00202EBB0
:102120000312B1FBF0F3B1FBF0F0B0FBF5F0784334
:1021300003EB800006EB0010B0FBF5F0216800F027
:102140000F0010448860BDE8F081000000380140B5
:1021500090F83910212901D0022070478168B1F52B
:10216000805F016A0BD04A1C0262026809785160E4
:10217000C18C491E0904090CC1840ED017E00988DE
:102180000268C1F30801516001690029016A02D0A7
:10219000491C0162ECE7891CFBE70168CA6822F070
:1021A0008002CA600068C16841F04001C16000203F
:1021B000704700000148FFF78BBA0000480200207A
:1021C0000148FFF785BA0000880200200148FFF7A8
:1021D0007FBA0000C8020020FEE70907090E0028A8
:1021E00004DB00F1E02080F80014704700F00F00DD
:1021F00000F1E02080F8141D704702E008C8121FAB
:1022000008C1002AFAD170477047002001E001C1DF
:10221000121F002AFBD17047FEF71EFCFFF770FD6E
:10222000FFF710FCFFF7EEFB30482F490024016058
:102230002F49C0E901144FF48041C0E903414461D2
:102240008461C4610462FEF715FB2B4829494FF4F1
:10225000E1350160C0E901540C26C460C0E90446C0
:102260008461C461FFF7BCFA23482449403001600F
:10227000C0E90154C460C0E904468461C461FFF749
:10228000AFFA1D481E4980300160C0E90154C460A6
:10229000C0E904468461C461FFF7A2FA16481949EF
:1022A000C0300160C0E90154C460C0E904468461E3
:1022B000C461FFF795FAFFF7BFFCFFF785FCFFF756
:1022C0009FFC00F041F801210F4A084600F078F821
:1022D0000E4C0D4A00216060243A0D4800F0C8F809
:1022E000206000F04DF8FEE700580040C4000020D8
:1022F000A0860100004C0040080200200038014088
:102300000044004000480040743C000800000020E9
:10231000991C000810B5EFF3058149B9EFF310815E
:1023200031B908490968022905D1EFF3118111B1CA
:102330006FF0050403E0002408B100F081FE2046A0
:1023400010BD00006C000020EFF3058058B9EFF3DA
:10235000108040B909490868022801D030B109E06D
:10236000EFF3118030B16FF0050070470120086075
:10237000002070474FF0FF30704700006C000020D5
:1023800010B5EFF3058060B9EFF3108048B90B4941
:102390000868022802D0012806D00BE0EFF3118074
:1023A00040B16FF0050010BD0220086000F0B0FEE3
:1023B000002010BD4FF0FF3010BD00006C00002069
:1023C000F8B5144603460E464FF00005EFF30580BE
:1023D000E8BBEFF31080D0BB24480068022802D18C
:1023E000EFF3118098BB93B39E423DD84CB1A068E7
:1023F0000028E06803D0502836D3012002E008B15D
:1024000032E00020012B05D010B31846A26800F07E
:1024100072FF20E040B1032000900022114601200D
:10242000A36800F0ACFF04E003220021012000F0CB
:1024300082FF050018D086B100231A46194601F024
:1024400015F8012809D0284600F0ACFD00250BE066
:10245000184600F033FF050006D00CB1216800E0FB
:102460000021284600F08AFD2846F8BD6C000020B7
:10247000F0B585B00B464FF00004EFF305810394EF
:10248000A1BBEFF3108189BB21490968022902D160
:10249000EFF3118151BB48B3802618218DF810400D
:1024A00004AD42B3176807B13D4697691FB139467D
:1024B0007F1E382F02D21779FF0702D0002005B007
:1024C000F0BD576907B1BE08D2F808C0BCF1000FD3
:1024D0000DD0D4685C2C18D312693AB137B18DE8AD
:1024E00006103246294601F0D2F903900DE0D76874
:1024F0005FB912694AB903AACDE90012B2B22946FE
:1025000001F098F9012800D003940398D7E7000060
:102510006C000020704700002DE9F041134C0F467D
:10252000054666692068001D00F02EFC681C07D176
:1025300037B12168BDE8F0410D48091D00F074BCB9
:1025400020683544B5424560216805D2A068BDE8E1
:10255000F041091D00F050BC6068091D00F04CFC02
:10256000206B854200D22563BDE8F0811C0000206D
:10257000380800202DE9F041054600F061FC2D4CA3
:102580002069401C206120682B4F10B1E06930B3F6
:102590002BE025602069012827D1002606EB860064
:1025A00007EB800000F01AFC761C382EF6D3234887
:1025B00000F014FC2148143000F010FC1F482830B3
:1025C00000F00CFC1D483C3000F008FC1B4850306B
:1025D00000F004FC194860601430A06005E0206839
:1025E000E96AC06A884200D82560E06A401CE0625F
:1025F0006864E86AA169884200D9A06100EB8000A4
:1026000007EB8000291D00F00FFC00F039FCE069A9
:1026100000280CD02068E96AC06A884207D20849BD
:102620004FF080500860BFF34F8FBFF36F8FBDE84E
:10263000F08100001C00002088030020E807002033
:1026400004ED00E038B500F0FBFB104CA068C8B901
:102650000F4800F0C3FB0E48143000F0BFFB0C48DD
:102660002060143060600A4B00202833009003F192
:10267000500210210A2000F082FEA06010B105A1D6
:1026800000F07CFCBDE8384000F0FABB58000020A8
:102690004C080020546D72510000000030B4026CF0
:1026A0000B46002A0BD0C1681144C1604468A142A6
:1026B00001D30168C16030BC1846FDF7A1BD30BC34
:1026C00070472DE9F041856B174604460026026CE1
:1026D00082B1C7B1E068FDF793FDE168206C091A8B
:1026E000E1602268914202D26168081AE060022F1C
:1026F00016D017E02068A8B9606801F06BF90646AB
:10270000002060600EE0A068FDF77AFD216CA068F3
:102710000844A0606168884204D32068A06001E09A
:1027200005B16D1E6D1CA5633046BDE8F08110B586
:10273000044690F8590058B101280CD002280FD057
:10274000502080F31188BFF34F8FBFF36F8FFEE7E8
:10275000206B00F0A9FB2046BDE8104000F0A4BBB0
:1027600010BD000010484FF4F041420706D0C01DD4
:102770000D4920F00700411AC1F5F0410B4A002332
:102780000144C2E900030839103A21F00701116041
:102790004B600B600B1AC0E9001393604FF00040D0
:1027A0005360D060704700001C340020800000207F
:1027B000144E154CA6F29C474FF08058DFF84C9011
:1027C00012E000BF00F03CFBF068C568281D00F077
:1027D000DBFA2069401E2061E068401EE06000F0E6
:1027E0004FFB2846FFF7A3FFE0680028EAD13868CE
:1027F0000128F9D9C9F80080BFF34F8FBFF36F8F5D
:10280000F2E70000240800201C00002004ED00E096
:1028100070B51D46049C51B1C4F80020C4E90F01F5
:102820000121204600F0DEFD84F84C5070BD24608C
:10283000F4E72DE9F0470E46DDE9098417468246A4
:1028400091009946089DA522206BFDF7EBFC6FF0E7
:102850000301206B01EB8701084420F0070778078C
:1028600007D0502080F31188BFF34F8FBFF36F8FD5
:10287000FEE72218315C82F83410315C11B1401C43
:102880001028F6D3002684F84360382D00D337256E
:10289000E562C4E91356201D00F0ABFA04F11800FC
:1028A00000F0A7FA2461C5F138006462A061666592
:1028B00084F858604A465146384600F03BFA20609A
:1028C000B8F1000F01D0C8F80040BDE8F087000063
:1028D00030B5114900E011460A688242FBD34B68CB
:1028E0005C18844203D14068184448600846436835
:1028F0001C18944209D1084C103C2468A24209D00B
:1029000052681A4442600A6812680260814200D02C
:10291000086030BD0460F9E78000002070B5002435
:1029200041600B4D0061914206D8D11A82699142F3
:1029300006D2011D686807E09A4203D2994201D38A
:10294000012403E0011D286800F056FA204670BDFE
:102950005800002010B5044600F072FAA06B28B1B0
:102960005FF0000400F08CFA204610BD0124F9E766
:1029700030B589B0304D55E00498002806DADDE91D
:102980000601059A9047049800284BDB069C606975
:1029900010B1201D00F0F8F902A800F0B9F80246C5
:1029A00004980A283ED2DFE800F00505053D2637E9
:1029B00005053D260598A169034601442046FFF719
:1029C000ADFF00B3616A20468847E069012829D13C
:1029D000002000900598A16900234218194620465E
:1029E00001F002F978B9502080F31188BFF34F8FBE
:1029F000BFF36F8FFEE70598A06128B181181346D9
:102A00002046FFF78BFF0DE0502080F31188BFF3C5
:102A10004F8FBFF36F8FFEE794F82C0010B920465C
:102A200000F042FA002204A9A86800F02DFE002858
:102A3000A2D109B030BD0000580000202DE9FC41B2
:102A40000F46054600F0A8FB01A800F061F8044617
:102A5000019818B101F036F8BDE8FC81224EAFB103
:102A600070680068A8B30027291B3A46B06800F0D8
:102A7000C5FA01F027F80028EED11C494FF080502C
:102A80000860BFF34F8FBFF36F8FE5E7A542EBD828
:102A900001F018F830682746C068C468201D00F0AF
:102AA00073F9E069012810D1A0692B4641193A4613
:102AB0002046FFF733FF40B1002003460146009057
:102AC0002A46204601F090F820B1616A20468847E6
:102AD000C2E707E0502080F31188BFF34F8FBFF3A8
:102AE0006F8FFEE70127BFE75800002004ED00E0EC
:102AF00006484168096829B14168C968C9684968D8
:102B0000016370474FF0FF31FAE700001C0000201E
:102B100070B5054600F0F4FE064E04463069844266
:102B200003D200F009F8012000E0002028602046D0
:102B3000346170BD58000020F8B5194D1FE0C06821
:102B4000C4680668201D00F01FF9616A20468847A6
:102B5000E069012813D1A0693044B04206D924614C
:102B60006060211D286800F047F908E00020034656
:102B7000014600903246204601F036F838B1286808
:102B800001680029DBD16968C5E90010F8BD502053
:102B900080F31188BFF34F8FBFF36F8FFEE7000004
:102BA0005800002008484068401C4FF0500080F357
:102BB000118804D0BFF34F8FBFF36F8FFEE7BFF3D1
:102BC0004F8FBFF36F8FFEE788000020074C20680F
:102BD000016841B1C0680021D0F80000FFF72EFF66
:102BE000FFF7C6FEF3E701210020F7E758000020B9
:102BF0002DE9F041044600F023F994F9455004F121
:102C0000240609E0606A48B1304600F023FF08B1AD
:102C100000F044FA6D1E6DB2002DF3DC4FF0FF366C
:102C200084F8456000F02CF900F00AF994F944505A
:102C300004F1100709E0206948B1384600F00AFFA6
:102C400008B100F02BFA6D1E6DB2002DF3DC84F894
:102C50004460BDE8F04100F013B900002DE9F041F7
:102C60000546002700F098FA314E306808B9FFF7A2
:102C700079FDF06805424BD1C5B3083568070ED021
:102C800005F00700C0F108000544680707D0502090
:102C900080F31188BFF34F8FBFF36F8FFEE72DB323
:102CA0007068854234D82248103001460C6801E033
:102CB00020460C466168A94202D221680029F7D15A
:102CC00031688C4224D00768216801606068083749
:102CD000411B10290FD96019420708D0502080F3FA
:102CE0001188BFF34F8FBFF36F8FFEE710E0416095
:102CF0006560FFF7EDFD61687068401A7060B2684A
:102D0000904200D2B060F06801430020C4E90001A5
:102D100000F0D8FE780707D0502080F31188BFF369
:102D20004F8FBFF36F8FFEE73846BDE8F08100009C
:102D30007000002010B5031F4FF080741C601B1F33
:102D400021F001011960191F024B0B601439403842
:102D50000A6010BDA52B000810B5084A00210848DC
:102D6000FFF786FB0749086000F052FAFFF7D2FB35
:102D700000F04DFA00F04AFA10BD0000843C000853
:102D8000C91C000808000020D0E9013201699A60DE
:102D9000D0E901235A604A68824201D182684A60C0
:102DA000002202610868401E086008687047000041
:102DB000034B036003F15C000860802010607047E3
:102DC00064090020044B036003F15C0008604FF4C9
:102DD0002060106070470000C00B002000F1080167
:102DE0004FF0FF32C0E90112C160016100210160B2
:102DF000704700210161704730B50B685A1C02D042
:102E000000F1080202E0026904E0224654682568E5
:102E10009D42FAD953684B6099608A60516008619D
:102E20000168491C016030BD42684A6093688B604C
:102E300093685960916008610168491C016070479E
:102E4000502080F31188BFF34F8FBFF36F8F0A4973
:102E50004868401C486001280CD10848006810F000
:102E6000FF0F07D0502080F31188BFF34F8FBFF3BF
:102E70006F8FFEE7704700008800002004ED00E03F
:102E80000849486828B1401E486001D180F3118884
:102E90007047502080F31188BFF34F8FBFF36F8FBF
:102EA000FEE700008800002070B5002827D0144DF0
:102EB000A0F108046168E868014207D1502080F35E
:102EC0001188BFF34F8FBFF36F8FFEE722683AB1CF
:102ED000502080F31188BFF34F8FBFF36F8FFEE751
:102EE0008143616000F058F960686968084468606F
:102EF0002046FFF7EDFCBDE8704000F0E3BD70BD7B
:102F0000700000204FF0E02000210161816105493F
:102F10004FF47A720968B1FBF2F1491E4161072151
:102F2000016170471800002010B5FDF753F91149F1
:102F300010280ED300F1E02090F8F0030A789042B8
:102F400007D2502080F31188BFF34F8FBFF36F8FEC
:102F5000FEE709480068896800F4E060884207D904
:102F6000502080F31188BFF34F8FBFF36F8FFEE7C0
:102F700010BD0000880000200CED00E010B5084BEB
:102F8000002200BF53F832401CB1521C082AF9D36A
:102F900010BD43F8321003EBC201486010BD0000C1
:102FA0004803002010B504000AD000F013F894F88C
:102FB000460000280CD12046BDE81040FFF774BF42
:102FC000502080F31188BFF34F8FBFF36F8FFEE760
:102FD00010BD0000084A002102EBC1035B68834278
:102FE00006D1002042F8310002EBC1014860704771
:102FF000491C0829F0D370474803002070B51546D6
:103000000E460446FFF71CFF94F944100020491CAB
:1030100001D184F8440094F94510491C01D184F889
:103020004500FFF72DFFA06B28B92A46314604F171
:10303000240000F051F82046BDE87040FFF7D8BDED
:1030400010B5020014D00F48806B38B1502080F3C7
:103050001188BFF34F8FBFF36F8FFEE700F09CF82E
:1030600000211046FFF758FA00F02CFD002807D188
:1030700005494FF080500860BFF34F8FBFF36F8F4B
:1030800010BD00001C00002004ED00E002498A6A27
:1030900002604969416070471C000020014901201D
:1030A000486270471C00002010B50C4650B1094919
:1030B00009681831FFF7A0FE2046BDE81040012145
:1030C000FFF72ABA502080F31188BFF34F8FBFF368
:1030D0006F8FFEE71C00002070B514460D4668B1E6
:1030E0000A4909681831FFF79FFE0CB14FF0FF3510
:1030F00021462846BDE87040FFF70EBA502080F305
:103100001188BFF34F8FBFF36F8FFEE71C000020C5
:1031100030B587B00024039405AA04A903A8049439
:10312000FFF746FEDDE903010094CDE9011000231D
:1031300015A11748059A00F0AAFB164D00286863F0
:103140001FD000F021FD012809D0401C19D15020CA
:1031500080F31188BFF34F8FBFF36F8FFEE75020CE
:1031600080F31188BFF34F8FBFF36F8F4FF0FF30A5
:1031700028630120E8616C6107B0BDE8304000F0D1
:1031800049B807B030BD000049444C45000000007C
:10319000B12700081C0000200248816B491C816394
:1031A000704700001C000020164810B5816B11B15B
:1031B0000121416210BD002141628169124A01E092
:1031C000B9B1491E01EB810352F82330002BF7D02F
:1031D00001EB810302EB830202F1080453685B6890
:1031E0005360A34201D15B685360DA680260816179
:1031F00010BD502080F31188BFF34F8FBFF36F8F46
:10320000FEE700001C000020880300207047704784
:10321000704700001CB5264908780190FF2008700F
:1032200008788DF800009DF800009DF8002000F05F
:10323000F000904207D0502080F31188BFF34F8FE9
:10324000BFF36F8FFEE79DF800001A4B00F05000AF
:1032500018700720986005E09DF8002052008DF856
:103260000020401E9DF800201206F5D49860032827
:1032700007D0502080F31188BFF34F8FBFF36F8FBB
:10328000FEE74FF440709860019808700A480168A2
:1032900041F470010160016841F070410160FFF785
:1032A00031FE00205860FCF75FFF00201CBD0000CD
:1032B00000E400E08800002020ED00E010B50C469E
:1032C00048B184420FD9502080F31188BFF34F8F4B
:1032D000BFF36F8FFEE7502080F31188BFF34F8F4D
:1032E000BFF36F8FFEE70222002100F024F80028D0
:1032F00000D0846310BD38B50C4648B184420FD964
:10330000502080F31188BFF34F8FBFF36F8FFEE71C
:10331000502080F31188BFF34F8FBFF36F8FFEE70C
:103320000221134600220091114600F028F80028DF
:1033300000D0846338BDF8B517460E46050014D09A
:10334000DEB105FB06F05030FFF788FC04000AD020
:10335000002084F8460004F150023B4631462846DE
:103360000094FFF755FA2046F8BD502080F31188ED
:10337000BFF34F8FBFF36F8FFEE70020E3E738B551
:10338000049D18B153B1CAB181B120E0502080F33F
:103390001188BFF34F8FBFF36F8FFEE7502080F38C
:1033A0001188BFF34F8FBFF36F8FFEE7502080F37C
:1033B0001188BFF34F8FBFF36F8FFEE739B15020F5
:1033C00080F31188BFF34F8FBFF36F8FFEE7502458
:1033D0001C46012384F846302B460094FFF718FA68
:1033E000204638BD70B50D46040025D0FFF728FDF6
:1033F000D4E90F20216802FB001161600021A16364
:103400002168A1600A46D4E90F01401E00FB01219A
:10341000E16021464FF0FF3001F8440F487004F19D
:1034200010008DB1FFF7DAFC04F12400FFF7D6FCA1
:10343000FFF726FD012070BD502080F31188BFF3F7
:103440004F8FBFF36F8FFEE721690029F0D000F0A6
:1034500001FB0028ECD004494FF080500860BFF316
:103460004F8FBFF36F8FE3E704ED00E02DE9FF47D7
:1034700082B01D468A464FF00008040003D0BAF11E
:10348000000F08D011E0502080F31188BFF34F8F58
:10349000BFF36F8FFEE7206C38B1502080F31188A6
:1034A000BFF34F8FBFF36F8FFEE7022D0AD1E06BA2
:1034B000012807D0502080F31188BFF34F8FBFF34E
:1034C0006F8FFEE700F00EFA3F4F4FF000094FF00C
:1034D000805648B9049838B1502080F31188BFF362
:1034E0004F8FBFF36F8FFEE7FFF7AAFCA06BE16B76
:1034F000884207D3022D05D00498D0B1B8F1000F4F
:103500001AD01EE02A4651462046FFF7DAF8616AD3
:1035100019B104F1240000F09DFA20B13E60BFF320
:103520004F8FBFF36F8FFFF7ABFC012006B0BDE8F4
:10353000F087FFF7A5FC22E06846FFF7A7FD4FF0F4
:103540000108FFF79DFCFFF727FEFFF779FC94F9D0
:103550004400401C01D184F8449094F94500401C7B
:1035600001D184F84590FFF78BFC04A9684600F070
:1035700027F930B12046FFF73BFB00F0A3FA00200B
:10358000D4E7FFF75DFCA06BE16B884213D1FFF736
:1035900077FC04F110000499FFF786FD2046FFF741
:1035A00027FB00F08FFA00289ED13E60BFF34F8FBB
:1035B000BFF36F8F98E7FFF763FC2046FFF718FB18
:1035C00000F080FA90E7000004ED00E02DE9F047FC
:1035D0001F4690468946040003D0B9F1000F08D079
:1035E00011E0502080F31188BFF34F8FBFF36F8F2E
:1035F000FEE7206C38B1502080F31188BFF34F8F65
:10360000BFF36F8FFEE7022F0AD1E06B012807D0CE
:10361000502080F31188BFF34F8FBFF36F8FFEE709
:10362000FFF782FC5020EFF3118680F31188BFF37F
:103630004F8FBFF36F8FA06BE16B884206D3022FD1
:1036400004D0002086F31188BDE8F08794F9455036
:103650003A4649462046FFF734F8681C04D06D1CF2
:1036600084F845500120EDE7606A0028FAD004F1A3
:10367000240000F0EFF90028F4D0B8F1000FF1D0E9
:103680000121C8F80010EDE72DE9F747002683B0C7
:103690008A46040003D0BAF1000F08D011E0502090
:1036A00080F31188BFF34F8FBFF36F8FFEE7206C5D
:1036B00038B1502080F31188BFF34F8FBFF36F8F65
:1036C000FEE700F00FF9DFF8F4804FF000094FF04B
:1036D000805748B9059838B1502080F31188BFF35E
:1036E0004F8FBFF36F8FFEE7FFF7AAFBA56BC5B146
:1036F00051462046FEF7D2FF6D1EA563206950B1EA
:1037000004F1100000F0A6F928B1C8F80070BFF36A
:103710004F8FBFF36F8FFFF7B3FB012006B0BDE8FB
:10372000F087059808B11EB106E0FFF7A9FB27E076
:103730006846FFF7ABFC0126FFF7A2FBFFF72CFD65
:10374000FFF77EFB94F94400401C01D184F84490BB
:1037500094F94500401C01D184F84590FFF790FB97
:1037600005A9684600F02CF8002820460AD0FFF78B
:103770003FFA00F0A7F92046FFF7ECF80028B3D095
:103780000020CBE7FFF7E6F890B104F1240005999B
:10379000FFF78AFC2046FFF72BFA00F093F9002888
:1037A000A2D1C8F80070BFF34F8FBFF36F8F9BE7B4
:1037B0002046FFF71DFA00F085F995E704ED00E0DB
:1037C0002DE9F0410C46050011D0C4B1FFF738FBDC
:1037D000174B5A696E682068911B471C17D02F68D9
:1037E0009B6A9F4219D0964217D8012410E05020BE
:1037F00080F31188BFF34F8FBFF36F8FFEE7502028
:1038000080F31188BFF34F8FBFF36F8FFEE7002463
:10381000FFF736FB2046BDE8F081884205D9401A03
:1038200020602846FFF732FCF1E700202060DCE74B
:103830001C0000202DE9FF5F8346DDE90E879946D5
:1038400016468A469000FFF709FA05001CD05C2056
:10385000FFF704FA040014D00020256384F859000F
:10386000CDE90240CDE900874B46324651465846E5
:10387000FEF7DFFF2046FEF77DFE012004B0BDE825
:10388000F09F2846FFF710FB4FF0FF30F6E7F0B54A
:1038900085B0DDE90B640A9DA6B1DCB15C27009719
:1038A0002663022684F85960002604AFCDE902465B
:1038B000CDE90057FEF7BDFF2046FEF75BFE0498FA
:1038C00005B0F0BD502080F31188BFF34F8FBFF3D8
:1038D0006F8FFEE7502080F31188BFF34F8FBFF347
:1038E0006F8FFEE70548C16919B1806B18B10020E0
:1038F0007047012070470220704700001C00002024
:1039000001484069704700001C0000202DE9F0418B
:103910002E4C0027A06B40B1206A401C2062606AD8
:1039200000B101273846BDE8F0816669761C666102
:1039300013D16068006838B1502080F31188BFF35C
:103940004F8FBFF36F8FFEE76068A1686160A06072
:10395000A06A401CA062FFF7CBF8206BDFF87080F4
:10396000864209D36068006880B16068C068C56835
:10397000686886420DD220632068C06A00EB80012F
:1039800058F821000128CAD90127C8E74FF0FF30B5
:10399000F1E7281DFFF7F8F9A86A18B105F118003A
:1039A000FFF7F2F9E86AA169884200D9A06100EB4B
:1039B000800108EB8100291DFFF736FAE86A2168CB
:1039C000C96A8842CED30127CCE700001C00002042
:1039D0008803002070B504004FF0000133D01B4D68
:1039E0002868844207D0502080F31188BFF34F8F9E
:1039F000BFF36F8FFEE7206D38B1401E2065E36C8A
:103A0000E26A9A421FD040B11DE0502080F3118835
:103A1000BFF34F8FBFF36F8FFEE7201DFFF7B4F9A1
:103A2000E06CE062C0F13800A061E06AA9698842F8
:103A300000D9A861064900EB800001EB8000211D40
:103A4000FFF7F2F90121084670BD00001C000020BC
:103A50008803002070B5C068C46854B104F1180030
:103A60000646FFF791F9144DA86B50B13146134843
:103A700015E0502080F31188BFF34F8FBFF36F8F95
:103A8000FEE7201DFFF780F9E06AA969884200D9A6
:103A9000A8610B4900EB800001EB8000211DFFF7BE
:103AA000C3F9E06A2968C96A884202D901206862BC
:103AB00070BD002070BD00001C0000201008002018
:103AC000880300202DE9F0472C4D00242746A86BE1
:103AD00038B1FFF7B5F9A86B401EA863A86B40B1D9
:103AE00046E0502080F31188BFF34F8FBFF36F8FF4
:103AF000FEE72969224E0120D1B3A6F591698046DF
:103B00003068E0B1F068C46804F11800FFF73CF9D0
:103B1000201DFFF739F9E06AA969884200D9A86138
:103B200000EB800109EB8100211DFFF77DF9E06AC0
:103B30002968C96A8842E3D3C5F82480E0E70CB15C
:103B4000FEF7D6FF2C6A4CB14FEA0806FFF7DEFEFF
:103B500000B16E62641EF9D100202862686A38B133
:103B60000849012738070860BFF34F8FBFF36F8FF5
:103B7000FFF786F93846BDE8F08700001C000020FA
:103B80001008002004ED00E010B586B0FEF75AFDE5
:103B9000114CA068B8B100200390049005AA04A9B4
:103BA00003A8FFF70FF9DDE9032102208DE80700E4
:103BB00000230AA10B48059AFFF769FEE06010B1E7
:103BC00006B0012010BD502080F31188BFF34F8F45
:103BD000BFF36F8FFEE7000058000020546D722085
:103BE00053766300CD2B00082DE9FF411E46134696
:103BF00002000A9D4FF0000016D0144CA768002F59
:103C00000FD0CDE900130292062917DAFFF76AFEFA
:103C100002284FF000030FD000226946A068FFF78A
:103C200025FC04B0BDE8F081502080F31188BFF37B
:103C30004F8FBFF36F8FFEE72A46EEE70023324631
:103C400069463846FFF7C2FCEBE700005800002049
:103C5000C03C000800000000000000000000000060
:103C6000000000000002000018000000000000003A
:103C700000000000CC3C0008000000000000000034
:103C800000000000DC3C0008000000000000000014
:103C90000000000000000000000400000800000018
:103CA0000000000000000000000000000000000014
:103CB00001020304060708090000000001020304D2
:103CC00064656661756C745461736B006D7949321B
:103CD000433242696E61727953656D007465737425
:103CE0005461736B00000000083D000800000020D4
:103CF00094000000FA2100089C3D00089400002078
:103D00008CAF00000A220008000000000000000044
:103D10000000000001000000100000000000000092
:103D20000024F4000000000000000000000000007B
:103D30000000000000000000000000000000000083
:103D40000000000000000000000000000000000073
:103D50000000000000000000000000000000000063
:103D60000000000000000000000000000000000053
:103D70000000000000000000000000000000000043
:103D80000000000000000000000000000000000033
:0C3D900000000000AAAAAAAA000000007F
:0400000508000131BD
:00000001FF
