:020000040800F2
:10000000C0BF0020DD01000847370008A92F000805
:1000100045370008C1090008B5400008000000008D
:100020000000000000000000000000004501000882
:10003000370A000800000000890100089538000810
:10004000F7010008F7010008F7010008F7010008B0
:10005000F7010008F7010008F7010008F7010008A0
:10006000F7010008F7010008F7010008F701000890
:10007000C5090008D1090008DD090008E9090008E0
:10008000F7010008F7010008F7010008F701000870
:10009000F7010008F7010008F7010008F701000860
:1000A000F7010008F7010008F7010008F701000850
:1000B000F7010008F7010008F7010008F701000840
:1000C000F7010008F7010008F7010008F701000830
:1000D000F701000879400008914000089D400008A1
:1000E000F7010008F7010008F7010008F701000810
:1000F000F7010008F7010008F7010008F701000800
:10010000F7010008F7010008F7010008F7010008EF
:10011000193C0008F7010008F7010008E139000860
:10012000F7010008F7010008F5090008010A0008B6
:10013000DFF80CD000F070FB00480047354D000898
:10014000C0BF0020224B19680868B0E8F00F80F3A8
:100150000988BFF36F8F4FF0000080F311884EF0D5
:100160000D0E70470000000006480068006880F32C
:10017000088862B661B6BFF34F8FBFF36F8F00DFA1
:1001800000BF00BF08ED00E0EFF30980BFF36F8F01
:100190000F4B1A6820E9F00F106008B54FF05000BF
:1001A00080F31188BFF34F8FBFF36F8F06F04CFDC4
:1001B0004FF0000080F31188BDE808401968086816
:1001C000B0E8F00F80F30988BFF36F8F704700BF6E
:1001D00020000020EFF305807047000006488047AC
:1001E00006480047FEE7FEE7FEE7FEE7FEE7FEE71C
:1001F000FEE7FEE7FEE7FEE72539000831010008CB
:10020000202A04DB203A21FA02F00021704721FA6B
:1002100002F3D040C2F120029140084319467047D2
:1002200040EA01039B0703D009E008C9121F08C078
:10023000042AFAD203E011F8013B00F8013B521EF8
:10024000F9D27047D2B201E000F8012B491EFBD26F
:1002500070470022F6E710B513460A4604461946D1
:10026000FFF7F0FF204610BD30B505462A460B4685
:1002700012F8010B13F8014B08B1A042F8D01CB1E1
:10028000002802D06D1CF1E7284630BD70B50F4D37
:1002900000B92868002412E00A4602E09E4203D01A
:1002A000521C1378002BF9D1DAB2224305D02BB1BE
:1002B00024B1002100F8011B04E00446401C06782C
:1002C000002EE9D12860204670BD000034020020D5
:1002D00070B5064603F000FF046805460A220021B7
:1002E000304600F0CDF92C6070BDF0B480EA010218
:1002F000D40F4200B2EB410F02D20246084611462B
:100300004A0042D0C30DDDB2C1F3C752AD1A202D51
:1003100035DAC1F3160141F4000204B15242C5F1CD
:10032000200602FA06F12A411044B3EBD05F23D035
:10033000C4B1012DA0EBC35009DCF0BC4FF000426A
:1003400002EAC352DBB200F5000000F0DAB9400067
:1003500000F1807000EBC350A0F1807040EAD170D2
:10036000490009E0490841EAC071A0EBC35000F51B
:100370000000400800EBC350F0BC00F0B9B9614286
:10038000012202EB4101001BF6E7F0BC704781F04F
:100390000041AAE780F00040A7E780EA010210B51B
:1003A00002F00043400022D04A001FD0010E01EBB2
:1003B0001261C0F35600C2F3560240F4000042F44A
:1003C0000002A0FB022000047F39140400D0401C6E
:1003D00050EA124001D44000491EC2B20C0604EBA0
:1003E000D010401C4008802A02D003E0002010BD3D
:1003F00020F00100002900DA0020184310BD42005F
:1004000005D0C0F3C7525242914201DC0020704730
:1004100000EBC15070472DE9FE4F81EA030404F060
:10042000004421F0004100944FF0000B23F0004302
:1004300050EA01045ED052EA03045BD0C3F30A54CD
:10044000C1F30A552C44A4F2F3340194A0FB0254E6
:10045000C1F3130141F48011C3F3130343F4801378
:1004600001FB024400FB034E840A970A44EA8154CC
:1004700047EA8357A4FB076802958D0A05FB0785A9
:100480004FEA932C04FB0C542705029D4FEA0658B3
:1004900047EA1637B5EB08056EEB070C870E920E90
:1004A00047EA811742EA8312A7FB0201B6EB0B0170
:1004B00064EB00042B0D43EA0C335E1844EB1C5034
:1004C000DA465146E7FB0201C5F313044FEA0B334A
:1004D00043EA14534FEA0432019C43EA0603A4F1B1
:1004E0000C040294009CCDE900B400F047F903B07D
:1004F000BDE8F08F00200146F9E72DE9F04D81EAD3
:10050000030404F0004B21F0004514464FF0000AAC
:1005100023F0004150EA050220D054EA01021DD028
:10052000C5F30A570246C5F31303C1F31300C1F321
:100530000A5640F4801543F48013A7EB0608101BFD
:10054000D64608F2FD3873EB050002D308F1010826
:1005500001E092185B41B8F1000F03DA0020014678
:10056000BDE8F08D00204FF48011064684460EE071
:10057000171B73EB050705D3121B63EB050306433B
:100580004CEA010C49084FEA300092185B4150EAEE
:100590000107EDD152EA030012D082EA040083EA97
:1005A0000501084305D0101BAB4106D201220023F0
:1005B00006E000224FF0004302E06FF0010253100A
:1005C0001AEB06004CEB085110EB0A0041EB0B0153
:1005D000BDE8F04D00F0C3B896230022114600F0AC
:1005E00090B80EB540F2334102910021CDE90011DF
:1005F0000A460B4600F0C2F803B000BD20F00040F0
:10060000C10DC0F3160040F400007F2901DA00207C
:100610007047962903DCC1F19601C84070479639AE
:1006200088407047C1F30A5210B5C1F3130140F27C
:10063000FF3341F480119A4201DA002010BD40F2EC
:1006400033439A42A2F2334203DC5242FFF7D8FD11
:1006500010BD904010BD0000002801DBC0F100403B
:10066000002901DBC1F1004181427047002801DB14
:10067000C0F10040002901DBC1F100418842704710
:100680002DE9F04791460F4680460446002614F8AF
:10069000015B2DB100F0E2F80068405DC007F6D1C3
:1006A0002B2D02D02D2D18D0641E4A4639462046E7
:1006B00000F0D8F827B13968A14201D1C7F800800D
:1006C00071054FF002040BD54042002803DD03F012
:1006D00003FD0460A007BDE8F08746F48066E4E708
:1006E0000028F8DA03F0F8FC04606FF00040F2E74D
:1006F0000029A8BF7047401C490008BF20F0010036
:10070000704710B4B0FA80FC00FA0CF050EA010413
:1007100004BF10BC704749B1CCF1200421FA04F4A5
:1007200011FA0CF118BF012121430843A3EB0C017E
:10073000CB1D4FEA00614FEA102042BF002010BCE1
:10074000704700EBC35010440029A4BF10BC704791
:10075000401C490008BF20F0010010BC704710B5D4
:10076000141E73F1000408DA401C41F100019218D4
:100770005B411A4301D120F0010010BD2DE9F04D7D
:1007800092469B4611B1B1FA81F202E0B0FA80F2D2
:100790002032904600F052F804460F4640EA0A0024
:1007A00041EA0B0153465A46084313D0114653EA17
:1007B000010019D0C8F140025046FFF721FD05465F
:1007C0000E4650465946424600F038F8084305D0D8
:1007D000012004E020463946BDE8F08D00200543A5
:1007E00046EAE0762C4337430A986305E40AA0EB17
:1007F00008000022FD0A44EA47540A3002D50020CE
:100800000146E9E7010510196941DDE908450019CC
:100810006941BDE8F04DA2E7064C074D06E0E068EF
:1008200040F0010394E8070098471034AC42F6D337
:10083000FFF782FC408B0008608B0008202A04DB55
:10084000203A00FA02F1002070479140C2F12003E3
:1008500020FA03F3194390407047000000487047A6
:10086000E48A00082DE9F05F8246007800271546EB
:100870008B460AF10104B946302801D09DB113E03E
:1008800014F8010B0127782803D0582801D045B16E
:100890000AE00DB1102D07D10027102514F8010B27
:1008A00002E0082500E00A250026B0460EE005FB20
:1008B000080005FB06F1012701EB10461FFA80F83E
:1008C000B6F5803F00D3B94614F8010B294600F075
:1008D00018F80028EBDABBF1000F05D00FB1641E49
:1008E00000E05446CBF80040B9F1000F06D003F009
:1008F000F3FB02210160C81EBDE8F09F48EA0640F4
:10090000FAE73A2800D2303820F02002412A01D3F9
:10091000A2F13700884201D34FF0FF30704770B525
:100920008C1810F8015B15F0070301D110F8013B9A
:100930002A1106D110F8012B03E010F8016B01F821
:10094000016B5B1EF9D12B0705D40023521E0DD479
:1009500001F8013BFAE710F8013BCB1A921C03E0C7
:1009600013F8015B01F8015B521EF9D5A142D8D3FF
:10097000002070BD70B5044600688168C943C9078E
:100980001CD1816821F00101816000F0EDFC054679
:100990000FE000BF00F0E8FC401B022809D9A06A64
:1009A00040F01000A062E06A40F00100E062012027
:1009B00070BD20688068C043C007EBD0002070BDC8
:1009C000FEE70000014800F02FBA000070B90020D7
:1009D000014800F029BA0000A4B80020014800F046
:1009E00023BA00002CB90020014800F01DBA000015
:1009F00060B80020014800F017BA00001CB80020C1
:100A0000014800F011BA0000E8B8002030B590F8B5
:100A100040500124AC40C56B6C600468636043685F
:100A2000102B036803D099600068C26030BD9A60E3
:100A30000068C16030BD704770470000F8B5002401
:100A4000009490F824202546012A12D0012280F833
:100A500024204A681F23072A0DD20668776B521E8E
:100A600002EB820293409F430B6893401F437763DE
:100A700019E00220F8BD06680D2A0AD2376BD21F92
:100A800002EB820293409F430B6893401F433763FE
:100A900009E0F76A0D3A02EB820293409F430B682C
:100AA00093401F43F7620A68072306680A2A0AD39D
:100AB000F7680A3A02EB420293409F438B689340E7
:100AC0001F43F76008E0376902EB420293409F43FF
:100AD0008B6893401F4337610A68102A01D0112A9E
:100AE00020D1124B02689A4217D193681B0219D485
:100AF000936843F4000393600968102912D10C49EC
:100B00000C4A0968B1FBF2F101EB8101490000E0F8
:100B1000491E00910029FBD104E0816A41F02001C7
:100B20008162012480F824502046F8BD0024014051
:100B30001C00002040420F002DE9F04104004FF05E
:100B400000057FD0A06A002628B9E66284F82460F8
:100B5000204600F081F82046FFF70CFFA16AC90685
:100B600000D420B1A06A40F01000A0626AE0A16A3F
:100B700021F4885141F00201A162334923688B427C
:100B8000E16904D1B1F5402F01D14FF40021277B59
:100B90004FF4807C41EA470261680A43A1686145DD
:100BA00008D0012906D0002194F814E0BEF1010F0D
:100BB00002D00AE06146F7E7C7B1A76A47F020070D
:100BC000A762E76A47F00107E7625F6827F46947B1
:100BD0000F435F60236899681C4F39401143996047
:100BE000A16861450BD0012909D00CE0DFF860E075
:100BF000A7690EEB47370F4347F40061E5E7218A09
:100C00000D05A5F580152168CB6A23F470032B43ED
:100C1000CB62216889680F4B1940914208D1E66286
:100C2000A16A21F0020141F00101A162BDE8F08159
:100C3000A06A20F0020040F01000A062E06A40F0DC
:100C40000100E0620120F1E7003C0140FDF7E1FF17
:100C500000E0FFFFFE0E1FFF00B585B000210091F0
:100C600001910291039100680E49884218D10E4803
:100C7000816941F400718161816901F4007104911D
:100C8000816941F0040181618069694600F00400D6
:100C900004900120009003200190044800F05EFAC7
:100CA00005B000BD002401400010024000080140D2
:100CB00010B590F821100022022905D0042181638B
:100CC00080F82020012010BD01680B6823F00E037E
:100CD0000B6001680B6823F001030B6090F8403053
:100CE000C46B012101FA03F3636080F8211080F8DE
:100CF0002020104610BD00002DE9F05F90F8211073
:100D00000024022903D004218163012485E00168C5
:100D10000A6822F00E020A6001680A6822F00102E5
:100D20000A603F4E3E4FB215DFF8F4C0DFF8F09096
:100D3000DFF8ECA0DFF8E8B0DFF8E4E00168783F26
:100D400013011502ACF1640CA9F15009AAF13C0A97
:100D5000ABF1280BAEF1140E4FF48018B14227D935
:100D6000B9420ED0614512D049451DD0514518D029
:100D7000594518D0714501D1424615E0294EB1427E
:100D800001D1012210E0274E1436B14201D11022C8
:100D90000AE0244E2836B14206D0224A3C32914223
:100DA00001D11A4600E02A461E49091F0A602BE0BD
:100DB000B94213D0614517D0494522D051451DD0C5
:100DC00059451DD0714501D142461AE0B14202D1C8
:100DD0004FF0807215E0134EB14201D1012210E0B4
:100DE000104E1436B14201D110220AE00D4E2836C1
:100DF000B14206D00B4A3C32914201D11A4600E082
:100E00002A46074980394A60012180F821100021D3
:100E100080F82010416B01B188472046BDE8F09F63
:100E200080000240080402402DE9F05FC16B0A68AF
:100E300001680B68046C4FF0040808FA04F8844D4C
:100E4000844E854FDFF814C2DFF81492DFF814A245
:100E5000DFF814B2DFF814E218EA020F65D05FEA97
:100E6000437862D50A68920603D40A6822F0040225
:100E70000A60DFF8F0814FF48062016808F114081D
:100E800013011402414524D9A9420DD0B1420FD01B
:100E9000B9421AD0614515D0494515D0514501D107
:100EA000120312E0594501D104220EE0714501D12F
:100EB00040220AE06D4D1435A94206D06B4A283213
:100EC000914201D11A4600E022466749091F0A6093
:100ED00029E0A94213D0B14215D0B94220D06145D2
:100EE0001BD049451BD0514502D14FF4800217E079
:100EF000414502D14FF0806212E0594501D10422F0
:100F00000EE0714501D140220AE0584D1435A94246
:100F100006D0564A2832914201D11A4600E02246B4
:100F20004B4908394A60C16A71E04FF0020808FA7B
:100F300004F818EA020F70D05FEA83786DD50A686A
:100F4000920606D40A6822F00A020A60012180F89B
:100F50002110DFF810814FF40072016808F11408C5
:100F600013011402414524D9A9420DD0B1420FD03A
:100F7000B9421AD0614515D0494515D0514501D126
:100F8000120312E0594501D102220EE0714501D150
:100F900020220AE0354D1435A94206D0334A2832C2
:100FA000914201D11A4600E022462F49091F0A60EA
:100FB00029E0A94213D0B14215D0B94220D06145F1
:100FC0001BD049451BD0514502D14FF4001217E008
:100FD000414502D14FF0007212E0594501D1022281
:100FE0000EE0714501D120220AE0204D1435A942BE
:100FF00006D01E4A2832914201D11A4600E022460C
:10100000134908394A60002180F82010816A0029BC
:101010001CD0BDE8F05F0847FFE70825A540154252
:1010200014D01A0712D50A6822F00E020A6090F84E
:101030004020C36B012101FA02F25A60816380F8FB
:101040002110002180F82010016BE0E7BDE8F09F3F
:10105000080002401C0002403000024044000240F0
:10106000580002406C000240080402401C04024088
:1010700030B560B11A4B026814219A4209D2194B5B
:101080001344B3FBF1F18900016417490AE0012020
:1010900030BD134B5B421344B3FBF1F18900016493
:1010A0000F490839C163022180F82110136843F603
:1010B000F0718B43F0E901142143D0E902452C4340
:1010C000214304692143446921438469214319432D
:1010D000116000214163012242770177084630BD4B
:1010E00008040240F8FFFDBF0000024070B504464E
:1010F00090F82000002501280CD0012084F8200061
:1011000094F821600020012E06D084F820000225EA
:10111000284670BD022070BD022684F82160A063BD
:101120002068066826F0010606602046FFF76EFC80
:10113000E06A00282068016802D041F00E0106E054
:1011400021F0040101602068016841F00A0101609A
:101150002068016841F001010160D9E72DE9F84FED
:10116000DFF8C891002409F1040A0AF1040B2346B0
:101170000F270BF1040ED1E00125A54006EA050278
:10118000AA4276D1DFF8A8C14E68A6EB0C086645E6
:101190002BD00DDC032E34D005DC36B3012E19D054
:1011A000022E2FD11BE0112E16D0122E2AD119E0BB
:1011B000B8F5881F19D006DCB8F5803F15D0B8F512
:1011C000801F1FD111E0B8F5001F0ED0B8F5041F25
:1011D00018D10AE0CB6815E0CB681B1D12E0CB6884
:1011E00008330FE0CB680C330CE08B682BB1012B7C
:1011F0004FF0080303D0456104E0042302E00561D9
:1012000000E00023FF2A01D8064601E000F10406B1
:101210004FEA840501D9A5F12005D6F8008007FA28
:1012200005FC28EA0C0803FA05F548EA0508C6F8A3
:1012300000804D68ED0070D53E4DAE6946F0010668
:10124000AE61AD6924F0030605F0010500953A4D45
:1012500006EB050CDCF80850A607360F07FA06F86F
:1012600025EA0805DFF8D480404503D14FF0000897
:1012700025E052E0DFF8C880404502D14FF0010878
:101280001DE0DFF8C080404502D14FF0020816E0B3
:10129000DFF8B480404502D14FF003080FE0DFF8DB
:1012A000AC80404502D14FF0040808E0DFF8A08090
:1012B000404502D14FF0050801E04FF0060808FA5A
:1012C00006F848EA0508CCF808804D68D9F80060AF
:1012D000ED034D4601D5164300E096432E604D6860
:1012E000DAF80060AD03554601D5164300E0964399
:1012F0002E604D68DBF80060ED025D4601D51643B7
:1013000000E096432E604D68DEF80060AD02754641
:1013100001D5164300E096432E60641C0A68164609
:10132000E2407FF429AFBDE8F88F000000040140DF
:1013300000001110001002400000014000080140B0
:10134000000C014000100140001401400018014051
:10135000001C01408068084000D0012070470AB19D
:10136000016170470904FBE701488068704700008D
:101370001000002070B504001BD094F83D0000253B
:1013800020B984F83C50204600F056FA242084F816
:101390003D002068016821F00101016000F05AFC65
:1013A0004D4A6168914201D84C4900E04C4988425D
:1013B00001D2012070BD4B492368B0FBF1F15E689A
:1013C00026F03F060E435E606368934206D94FF4F1
:1013D000967359434FF47A73B1FBF3F12368491CB8
:1013E0001E6A26F03F06314319626168914210D8A7
:1013F0004900401EB0FBF1F2521CC2F30B02042A5A
:1014000001D2042022E0B0FBF1F0401CC0F30B003D
:101410001CE0A368F3B301EBC10202EB0116421E0C
:10142000B2FBF6F2521C42F48042120549D093B34B
:1014300001EBC10202EB0111401EB0FBF1F0401CB8
:10144000C0F30B0040F4804040F400402168CA69BA
:101450004CF6FF739A431043C861D4E9070108436F
:1014600021680A6822F0C00210430860D4E9030131
:1014700001432068826848F2FF339A431143816038
:10148000D4E9050108432168CA6822F0FF0210432D
:10149000C86001E00EE016E02068016841F001013B
:1014A00001602564202084F83D00256384F83E50C7
:1014B000002070BD01EB4106421EB2FBF6F2521C49
:1014C000B3E70120C2E701EB4101401EB0FBF1F0A0
:1014D000401CC0F30B00B7E7A086010080841E000B
:1014E00000093D0040420F002DE9FF4F83B09A46AE
:1014F000DDE9119793460446DDF84080FFF734FF9D
:10150000054694F83D0020286FD1192301227B491C
:101510002046009501F044FE0028F5D194F83C00E7
:10152000012862D0012084F83C0020680168C907C6
:1015300003D1016841F0010101602168086820F4CD
:1015400000600860222084F83D00402084F83E00BE
:1015500000262664C4F82480A4F82A90608D208593
:101560006748E062CDE9007553465A462046049923
:1015700001F032FD00287DD1208DDFF8888168B12F
:10158000012814D0022820D02068016841F480612D
:1015900001602068416980690090A0E0206841698D
:1015A00081690091016841F40071016097E0206851
:1015B000016821F48061016072B620684169816927
:1015C0000091016841F400710CE02168086840F462
:1015D0000060086072B62068416981690091016805
:1015E00021F48061016062B679E084E003284FD87D
:1015F00001280BD002283B464FF00002414620460E
:1016000000950ED001F0CCFDA0BB0FE02A46394674
:10161000204601F044FE68BB20680069616A0870DA
:1016200054E001F0BDFD28BB72B61AE020680168E5
:1016300021F48061016072B620680069616A0870F7
:10164000606A401C6062208D401E2085608D401EB7
:1016500060853B46002241462046009501F0A0FDF2
:1016600040B92068016841F4007101602068006998
:10167000616A00E012E00870606A401C6062218DBF
:10168000491E2185618D491E618562B621681BE076
:101690002A463946204601F002FE18B1012007B063
:1016A000BDE8F08F20680069616A0870606A401CBC
:1016B0006062218D491E2185618D491E61852168E9
:1016C0004A69D24352070AD409690170606A401C12
:1016D0006062208D401E2085608D401E6085208DBB
:1016E000002883D1202084F83D0084F83E6084F8EF
:1016F0003C600020D3E70220D1E700000200100088
:101700000000FFFF040001002DE9FF4F83B09A465F
:10171000DDE9119793460446DDF84080FFF724FE8B
:10172000054694F83D0020287FD119230122404925
:101730002046009501F034FD002876D194F83C0055
:10174000012872D0012084F83C0020680168C90794
:1017500003D1016841F0010101602068016821F4B2
:1017600000610160212084F83D00402084F83E00A3
:1017700000262664C4F82480A4F82A90608D208571
:101780002C48E062CDE9007553465A46204604993C
:1017900001F096FC70B930E02A463946204601F047
:1017A000B1FD58B1206C042804D12068016841F4CF
:1017B00000710160012007B0BDE8F08F606A216808
:1017C00000780861606A401C6062218D491E89B200
:1017D0002185628D521E628522685369DB435B0757
:1017E0000BD469B100781061606A401C6062208D82
:1017F000401E2085608D401E6085208D0028CBD145
:101800002A463946204601F0A5FC0028CAD154F8E2
:101810003D0B016841F400710160202004F81E09AD
:10182000E67766770020C6E7FFE70220C3E70000FF
:10183000020010000000FFFF10B586B000210091EB
:101840000191029103910068104988421BD1104C0C
:10185000A06940F00800A061A069694600F0080096
:1018600004904FF4406000901220019003200390F8
:101870000848FFF773FCE06940F48000E061E0692C
:1018800000F48000049006B010BD00000058004035
:1018900000100240000C01400248816802781144A7
:1018A0008160704710000020074810B5016841F0C2
:1018B00010010160032000F08FF8002000F006F80E
:1018C00000F03EF8002010BD0020024000B50146A7
:1018D00087B00022372000F05FF8372000F04EF884
:1018E0001348C16941F02001C161C06905A900F038
:1018F00020000690684600F08DF900F0ABF90D4924
:101900004000B0FBF1F10D480B4A491E02604160F6
:1019100040F2E7320021C0E90321816000F090FE2F
:1019200010B1012007B000BD044800F0A5FEF9E7A2
:101930000010024040420F0000140040F00300205D
:101940000C4808B5816941F001018161816901F0AC
:1019500001010091C16941F08051C161C06900F08D
:10196000805000900448416821F0E06141F000712E
:10197000416008BD0010024000000140002809DB62
:1019800000F01F02012191404009800000F1E02099
:10199000C0F8001170470000F0B40E4B1B680C46F5
:1019A000C3F30223C3F10705042D00D90425191D33
:1019B000072901D2002300E0DB1E012606FA05F10B
:1019C000491E214099409E40761E16403143F0BC8E
:1019D00002F071BB0CED00E0064900F00702086858
:1019E0004FF6FF03184040EA0220034A1043086004
:1019F000704700000CED00E00000FA052DE9F84307
:101A000005460078354CC00754D0E0690026C00078
:101A100008D4E06940F08050E061E069012600F000
:101A2000805000902E480168C90512D40168804694
:101A300041F480710160FFF797FC074605E000BFA5
:101A4000FFF792FCC01B642823D8D8F80000C0051B
:101A5000F6D5206A10F4407021D0A98801F44071B5
:101A600081421CD0206A1F49012220F440700A6084
:101A700000220A602062C00711D0FFF775FC0746FC
:101A800041F2883808E000BFFFF76EFCC11B4145FA
:101A900002D90320BDE8F883206A8007F4D5206AC4
:101AA000696820F44070084320621EB1E06920F0AC
:101AB0008050E0612878800705D56068A96820F427
:101AC0004040084360602878C00605D560686969B1
:101AD00020F48000084360600020DBE70010024033
:101AE00000700040400442422DE9F0470F460500D7
:101AF00061D0434E306800F00700B84209D2306828
:101B000020F0070038433060306800F00700B8422A
:101B100051D128683B4C810712D5400703D5606836
:101B200040F4E06060602878000703D5606840F406
:101B3000605060606068A96820F0F0000843606051
:101B40002878C00728D06868012810D021680228AA
:101B500010D0890700292EDA616821F003010143C2
:101B60006160FFF701FC804641F288390DE0216891
:101B70008903EFE78901EDE7FFF7F6FBA0EB08012A
:101B8000494502D90320BDE8F0876068696800F024
:101B90000C00B0EB810FEFD1306800F00700B842C5
:101BA0000BD9306820F0070038433060306800F00F
:101BB0000700B84201D00120E5E72878400705D5A5
:101BC0006068E96820F4E0600843606028780007F6
:101BD00006D56068296920F4605040EAC100606061
:101BE00000F058F86168084AC1F30311515CC8401D
:101BF0000649086006480068FFF768FE0020C2E753
:101C00000020024000100240307E00081C0000202E
:101C1000140000200F2202600C4A536803F00303F3
:101C20004360536803F0F0038360536803F4E06398
:101C3000C36052684FF4E06303EAD20202610448D1
:101C4000006800F0070008607047000000100240C4
:101C5000002002400448054900684968044AC1F36D
:101C60000221515CC84070471C0000200010024057
:101C7000407E00080448054900684968044AC1F3E9
:101C8000C221515CC84070471C0000200010024077
:101C9000407E000812A185B00FC98DE80F0014A086
:101CA000144A006804905168134801F00C03042B97
:101CB00010D0082B0ED1C1F38343C9031DF80300D4
:101CC0000AD5516804AAC1F34041515C0A4A504305
:101CD000B0FBF1F005B0704708494843FAE700004F
:101CE00002030405060708090A0B0C0D0E0F10105D
:101CF000010200000010024000127A0000093D00BD
:101D00002DE9F84F040070D02078C04DC00749D0AD
:101D10006868C0F38100012807D06868C0F38100BB
:101D2000022809D16868C00306D52868800339D520
:101D300060680028E7D035E06068B0F5803F0BD0E0
:101D400010B1B0F5A02F11D0286820F480302860A1
:101D5000286820F4802002E0286840F48030286061
:101D6000606890B1FFF700FB06460AE0286840F47F
:101D700080202860F0E700BFFFF7F6FA801B642898
:101D800073D828688003F7D50CE0FFF7EDFA064614
:101D900005E000BFFFF7E8FA801B6428F0D8286848
:101DA0008003F7D420789A4E80074FF001094FF056
:101DB000000839D5686810F00C0F07D06868C0F3C8
:101DC0008100022809D16868C00306D4286880070A
:101DD00014D52069012808D110E02069B0B1C6F8F7
:101DE0000090FFF7C1FA074605E00AE1FFF7BCFAE9
:101DF000C01B0228C4D828688007F7D52868616905
:101E000020F0F80040EAC10028600DE0C6F800802C
:101E1000FFF7AAFA074604E0FFF7A6FAC01B02285C
:101E200023D828688007F7D4207800072CD5794874
:101E3000A169D9B1C0F80090FFF796FA074604E00F
:101E4000FFF792FAC01B02280FD8686A8007F7D5FF
:101E500071484FF4FA510068B0FBF1F0009000BFF8
:101E60000098411E0091FAD20EE080E0C0F8008098
:101E7000FFF77AFA074604E0FFF776FAC01B02285C
:101E800075D8686A8007F7D42078400760D5E8697C
:101E90000027C00008D4E86940F08050E861E86994
:101EA000012700F0805000905C480168C90513D4F8
:101EB0000168834641F480710160FFF755FA82465C
:101EC00006E000BFFFF750FAA0EB0A0064284ED8E6
:101ED000DBF80000C005F5D5E06801280AD008B19C
:101EE000052813D0286A20F001002862286A20F013
:101EF000040002E0286A40F001002862E06841F234
:101F0000883B98B1FFF730FA82460BE0286A40F030
:101F100004002862EEE700BFFFF726FAA0EB0A01F3
:101F200059455AD8286A8007F6D50CE0FFF71CFA05
:101F3000824605E0FFF718FAA0EB0A0159454CD894
:101F4000286A8007F6D41FB1E86920F08050E86164
:101F5000E06988B36968C1F38101022944D002288D
:101F6000C6F8608004D0FFF7FFF9044638E034E09B
:101F7000FFF7FAF9074604E0FFF7F6F9C01B02285D
:101F80002BD828688001F7D4206AB0F5803F05D1AE
:101F90006868A16820F4003008436860D4E908014B
:101FA0000843696821F4741108436860C6F86090BA
:101FB000FFF7DAF9044606E025E000BFFFF7D4F9A1
:101FC000001B022809D828688001F7D51BE000BF54
:101FD000FFF7CAF9001B022802D90320BDE8F88FD9
:101FE00028688001F4D40EE00128F7D06868226ADE
:101FF00000F48031914204D1616A00F4701088428B
:1020000001D00120EAE70020E8E7000000100240CC
:1020100000004242800442421C0000200070004048
:1020200070B5040005D00025A56294F8510010B1E8
:1020300006E0012070BD84F85050204600F02EF8D4
:10204000022084F851002068016821F040010160FD
:10205000D4E901010843D4E903121143084361693B
:102060000843218B01F400710843E1690843216AA8
:102070000843A16A084321680860A069042101EAB5
:102080001040216848602068C16921F40061C16185
:102090006565012084F85100002070BD70B586B0E0
:1020A000002400940194029403942B4E03682B495E
:1020B000022003222A4DB34228D18B6943F4805376
:1020C0008B618B6903F4805304938B6943F008039D
:1020D0008B618969039201F0080104912821CDE9FF
:1020E000001069462846FFF739F81020CDE90004B2
:1020F000694628460294FFF731F81A48416841F0D2
:10210000E06141F00101416006B070BD164EB3427E
:10211000FAD1CB6943F48043CB61CB6903F48043AC
:1021200004938B6943F008038B618969039201F082
:10213000080104914FF42041CDE90010694628467A
:10214000FFF70CF83014CDE90004694628460294E4
:10215000FFF704F8D8E7000000300140001002400B
:10216000000C014000000140003800402DE9F84F0C
:10217000044640680025984616460F464FF0040B6B
:10218000B0F5827F01D1A06888B194F85000012891
:1021900018D0012084F85000FFF7E6F8814694F843
:1021A00051004FF0000A01280ED002257DE084F88E
:1021B00051B013460A462046CDF8008000F02CF9B5
:1021C000BDE8F88F0220FBE7002F6DD0002E6BD00A
:1021D00084F851B0C4F854A0A763A687E687C4F872
:1021E00030A0A4F834A0A4F836A0C4F840A0C4F8E5
:1021F00044A0A068B0F5004F04D12068016821F424
:102200008041016020680168490603D4016841F0FB
:1022100040010160E068D8B139E020688168C907F1
:1022200009D0007BA16B0870A06B401CA063E08FFD
:10223000401EE0870CE0FFF797F8A0EB090141454D
:1022400003D3B8F1FF3F03D036E0B8F1000F33D02D
:10225000E08F0028E1D11DE020688168C90709D01E
:10226000C068A16B0880A06B801CA063E08F401E3B
:10227000E0870CE0FFF778F8A0EB0901414503D3B4
:10228000B8F1FF3F03D017E0B8F1000F14D0E08F92
:102290000028E1D14A464146204601F055FA08B1EE
:1022A00020206065606D00B10125012084F8510097
:1022B00084F850A0284683E70325F6E72DE9F84F78
:1022C000044690F8500000271D461646894601280E
:1022D0000DD04FF0010B84F850B0FFF745F8804661
:1022E00094F85100BA46012804D002278EE002205B
:1022F000BDE8F88FB9F1000F7DD0002E7BD0032010
:1023000084F85100C4F854A0C4F83090A686E6863C
:10231000C4F838A0A4F83CA0A4F83EA0C4F844A097
:10232000C4F840A0A068B0F5004F04D1206801684F
:1023300041F48041016020680168490603D40168C6
:1023400041F040010160E068B0F5006F606803D0C3
:1023500030B3012E24D040E008B1012E1CD1206BF7
:1023600021680088C86006E020688168890709D56F
:10237000216B0988C160206B801C2063E08E401EA9
:10238000E08609E0FEF7F0FFA0EB0800A84202D3C8
:10239000681C01D031E07DB3E08E0028E4D11FE05D
:1023A000206B21680078087306E02068816889073F
:1023B00009D5216B09780173206B401C2063E08EE6
:1023C000401EE08609E0FEF7CFFFA0EB0800A84220
:1023D00002D3681C01D010E075B1E08E0028E4D172
:1023E00042462946204601F0DDF908B1202060650B
:1023F000A06820B107E008E0FFE7032706E02068B7
:10240000C16880680090606D00B1012784F851B008
:1024100084F850A038466BE72DE9F84F044690F851
:10242000500000270A9E1D4692468B464FF0010938
:1024300001280ED0012084F85000FEF795FF804659
:1024400094F85100616801280CD0B1F5827F07D162
:1024500002E00220BDE8F88FA16809B9042801D084
:102460000227C2E0BBF1000F27D0BAF1000F24D041
:102470001DB394F85100042802D0052084F85100BF
:1024800000206065C4F838A0E587A587C4F830B09F
:10249000E586A5862064606420680168490603D447
:1024A000016841F040010160E068B0F5006F6068CC
:1024B00005D0E8B3012D46D07FE0012795E008B1B3
:1024C000012D39D1206B21680088C860206B801CE9
:1024D0002063E08E401EE0862EE020688168890738
:1024E0000FD5E18E69B1B9F1010F0AD1216B0988CD
:1024F000C160206B801C2063E08E401EE0864FF0A0
:10250000000920688168C9070CD0E18F51B1C0680B
:10251000A16B0880A06B801CA063E08F401EE08749
:102520004FF00109FEF720FFA0EB0800B04200E0E9
:1025300009E001D3701C50D1E08E0028CDD1E08F8E
:102540000028CAD13FE0206B216800780873206B17
:10255000401C2063E08E401EE0862EE020688168EB
:1025600089070FD5E18E69B1B9F1010F0AD1216B4D
:1025700009780173206B401C2063E08E401EE086CA
:102580004FF0000920688168C9070CD0E18F51B174
:10259000C068A16B0870A06B401CA063E08F401E58
:1025A000E0874FF00109FEF7DFFEA0EB0800B04224
:1025B00002D3701C01D010E07EB1E08E0028CDD196
:1025C000E08F0028CAD142463146204601F0EAF8A1
:1025D00028B101272020606507E0032705E0A068F7
:1025E00018B92068C16880680090012084F8510003
:1025F000002084F8500038462CE77047704770B5CB
:1026000090F83C20012A19D0012400F83C4F022206
:10261000427050F83C3C5A689D6822F070060A6887
:102620004968324325F0800529435A6050F83C2C14
:102630009160447000210170084670BD022070BD99
:1026400010B5040003D094F83D0010B107E001205C
:1026500010BD002084F83C00204600F00CF8022059
:1026600084F83D00211D206801F0C0F9012084F8A4
:102670003D00002010BD70470168CA6842F00102A9
:10268000CA600068816801F00701062903D001686B
:1026900041F00101016000207047704770B50446A9
:1026A000006801694FF00005C943890715D4C16866
:1026B000C943890711D4E91E0161012020772068F0
:1026C00080698007204602D0FFF7E7FF04E000F0B2
:1026D000C9F8204600F05EF9257720680169C943F2
:1026E000490717D4C168C943490713D46FF00401DF
:1026F0000161022020772068806910F4407F204625
:1027000002D0FFF7CAFF04E000F0ACF8204600F06A
:1027100041F9257720680169C943090716D4C168C2
:10272000C943090712D46FF0080101610420207722
:102730002068C0698007204602D0FFF7AEFF04E0A2
:1027400000F090F8204600F025F92577206801690F
:10275000C943C90617D4C168C943C90613D46FF069
:1027600010010161082020772068C06910F4407FC3
:10277000204602D0FFF791FF04E000F073F82046F6
:1027800000F008F9257720680169C943C90708D115
:10279000C168C943C90704D1891E0161204600F000
:1027A0001DF920680169C943090609D4C168C943F4
:1027B000090605D46FF0800101612046FFF71DFF77
:1027C00020680169C943490609D4C168C94349065B
:1027D00005D46FF040010161204600F009F920683E
:1027E0000169C94389060BD4C168C943890607D466
:1027F0006FF0200101612046BDE87040FFF7FEBE8A
:1028000070BD000000B585B00021009101910291DA
:10281000039100680F4988421AD10F48816941F03D
:10282000100181618069694600F010000490402029
:1028300000900220019003900848FEF78FFC0848A2
:10284000416821F4406141F0E06141F44061416040
:1028500005B000BD0004004000100240001001401F
:1028600000000140704770B5044690F83C000D46EA
:1028700001280DD0012684F83C60022084F83D0038
:1028800042B1042A18D0082A2AD00C2A4DD139E0A6
:10289000022070BD206801F0FDF82068816941F0D8
:1028A000080181612068816921F00401816120684B
:1028B00081692A69114311E0206801F01BF9206841
:1028C000816941F4006181612068816921F480613E
:1028D0008161206881692A6941EA0221816124E0DD
:1028E000206801F03DF92068C16941F00801C1612B
:1028F0002068C16921F00401C1612068C1692A69A9
:10290000114311E0206801F05FF92068C16941F4CA
:102910000061C1612068C16921F48061C1612068E2
:10292000C1692A6941EA0221C16184F83D60002041
:1029300084F83C0070BD10B5040003D094F83D004D
:1029400010B107E0012010BD002084F83C002046B3
:1029500000F00CF8022084F83D00211D206801F0F1
:1029600045F8012084F83D00002010BD08B500683E
:102970000649884208D10648C16941F00201C16197
:10298000C06900F00200009008BD00000004004093
:10299000001002407047000010B504460068012294
:1029A00001F06AF80B492068884202D00A4988423F
:1029B00003D1416C41F4004141642068816801F019
:1029C0000701062903D0016841F0010101600020E0
:1029D00010BD0000002C0140003401400068034994
:1029E000884201D1FEF758BF704700000014004034
:1029F000704710B504460068416994F83920C1F366
:102A0000C011212A0BD151B1416921F080014161EE
:102A1000206B08B1FEF74CF9204601F083F92068DD
:102A2000416994F83A20C1F38011222A0BD151B1A7
:102A3000416921F040014161606B08B1FEF738F94E
:102A4000204601F061F9002010BD704770B50268A2
:102A500004461068D168536910F00F0F50D003F08E
:102A6000010501F4907635435DD0C20705D0CA0553
:102A700003D5E26B42F00102E263420705D5DA07B3
:102A800003D0E26B42F00202E263820705D5DA0767
:102A900003D0E26B42F00402E263020705D5DA07D5
:102AA00003D0E26B42F00802E263E26B002A33D00B
:102AB000800604D5880602D5204601F003FA206876
:102AC0004069E16BC0F38010090700D428B32046A9
:102AD00001F01AF92068416949061AD5416921F0C7
:102AE00040014161606BA0B11B494163606BFEF71F
:102AF00003F9002810D0606B416BBDE870400847B7
:102B0000830610D58B060ED52046BDE8704001F037
:102B1000D9B92046FFF799FF70BD2046FFF795FF12
:102B20000020E06370BD030606D50B0604D52046E1
:102B3000BDE8704001F06EBA4006F3D54806F1D505
:102B4000D168204621F04001D160202184F839105D
:102B500000F028FA70BD0000313C000870B5040098
:102B600004D094F83900002510B106E0012070BDB2
:102B700084F83850204600F023F8242084F83900E7
:102B80002068C16821F40051C160204601F0E6F9D7
:102B90002068016921F4904101612068416921F0B8
:102BA0002A0141612068C16841F40051C160E563B8
:102BB000202084F8390084F83A00002070BD00001D
:102BC0002DE9F04F85B000250095019502950395FC
:102BD0000446DFF870C203689B48022103220127E4
:102BE00080264FF4806A4FF0100963454BD1C369CA
:102BF00043F40023C361C36903F40023049383698E
:102C000043F0100383618069CDE900A100F010005A
:102C1000CDE90320DFF8348269464046FEF79EFA8C
:102C200030018DE8A10069464046FEF797FA894FCA
:102C30008748C7E90005C7E902563D617D61BD616E
:102C40003846FD61FEF714FA08B1FDF7F5FE67633B
:102C50007C62814F7E48C7E902563D617D61BD615E
:102C60002830FD61C7E900093846FEF701FA08B1CE
:102C7000FDF7E2FE27630022114634207C62FEF756
:102C80008BFE342051E0DFF8D4C1DFF8D4814FF45B
:102C9000007B63454ED1836943F48043836183693C
:102CA00003F480430493836943F0040383618069E0
:102CB000CDE900B100F00400CDE9032069464046AB
:102CC000FEF74CFACDF800A0CDE901576946404621
:102CD000FEF744FA644F6348C7E90005C7E90256A6
:102CE0003D617D61BD613846FD61FEF7C1F908B106
:102CF000FDF7A2FE67637C625C4F5A48C7E9025643
:102D00003D617D61BD611438FD61C7E90009384648
:102D1000FEF7AEF908B1FDF78FFE276300221146DA
:102D200025207C62FEF738FE2520FEF727FE05B041
:102D3000BDE8F08FDFF838C1634525D1C36943F49E
:102D40000033C361C36903F400330493836943F020
:102D5000040383618069039200F00400049004205E
:102D6000CDE9000169464046FEF7F8F908208DE8F4
:102D7000A10069464046FEF7F1F9002211462620DF
:102D8000FEF70AFE2620D0E7DFF8E8C06345CED183
:102D9000C36943F48023C361C36903F480230493AC
:102DA000836943F0200383618069DFF8CC8000F001
:102DB000200004904FF48070CDE900010392694631
:102DC0004046FEF7CBF9CDF800B0CDE90157694692
:102DD0004046FEF7C3F92948416821F0300141F02F
:102DE000E06141F0300141601E48254F2838C7E9B5
:102DF0000005C7E902563D617D61BD613846FD6150
:102E0000FEF736F908B1FDF717FE67637C621D4FC8
:102E10001448C7E902563D617D61BD613C38FD61E2
:102E2000C7E900093846FEF723F908B1FDF704FEAB
:102E300027630022114627207C62FEF7ADFD272084
:102E400073E70000004C00400010024000100140F9
:102E5000300402401CB80020E8B8002000380140CF
:102E6000000801405800024060B800202CB9002042
:102E700000440040004800400014014000000140B0
:102E8000A4B8002070B90020F8B5044690F83A00C4
:102E900020283CD1C1B3BAB394F83800012836D009
:102EA000012084F83800A162A2850025E563222074
:102EB00084F83A00636B17489862636B1648D862CF
:102EC000636B16481863606B134645630846666B70
:102ED000216802463046091DFEF708F9206801689E
:102EE0004168009184F83850C16841F48071C16034
:102EF0002068416941F0010141612068416941F068
:102F0000400141610020F8BDFFE70120FBE70220FE
:102F1000F9E700008B3C0008C73C0008413C000872
:102F20007047704770B5044690F83900202830D1BA
:102F300069B362B394F8380001282AD0012084F8DC
:102F400038002162A284E2840025E563212084F810
:102F50003900236B10489862236B1048D862236BAA
:102F60000F481863206B134645632668206B321D9B
:102F7000FEF7BCF821686FF04000086084F8385014
:102F80002068416941F080014161002070BD01204D
:102F900070BD022070BD0000D13C0008FF3C00085D
:102FA000413C000870477047FEE701684A69D24318
:102FB00052050FD46FF480624A61002140F8301F3F
:102FC000202242738173026942F00402026101739C
:102FD00001207047002070472DE9F84F0446006833
:102FE00089460B9D01689846174641F4806101604F
:102FF0002068016841F48071016000954FF0011A6A
:103000000022514620460A9B00F0CAF8002853D1FE
:10301000216809F0FE0008610AF1010B2B465946B0
:1030200020460A9A00F0F0F8F0BB206841698069F8
:1030300000902A4620460A9900F064F940B1206CBD
:10304000042839D12068016841F40071016033E03F
:10305000FEB2B8F1010F09D02168380A08612A468A
:1030600020460A9900F04EF90028E8D12068066150
:103070002A4620460A9900F045F90028DFD1206849
:10308000016841F48071016000950022514620469C
:103090000A9B00F085F838B9216809F0FF0040F07C
:1030A000010008612B4600E006E0594620460A9AD6
:1030B00000F0AAF8002800D00120BDE8F88F000039
:1030C0002DE9F843044600680D46DDE908970168DC
:1030D0009846164641F4807101604B4600224FF03D
:1030E00001112046009700F05BF8E0B9216805F077
:1030F000FE0008613B464A461549204600F084F828
:1031000088B920684169806900903A46494620465E
:1031100000F0F8F850B1206C042804D12068016850
:1031200041F4007101600120BDE8F883F5B2B8F107
:10313000010F09D02168300A08613A464946204605
:1031400000F0E0F80028E6D1206805610020EBE7F8
:103150000200010070B516460D4604460DE02046FB
:10316000FFF723FF08B1012070BD681C05D0FEF7F2
:10317000FBF8801BA84207D835B120684069C043DE
:103180004007ECD4002070BD002044F8300F20210F
:103190006173A073216941F0200121612073E2E78E
:1031A0002DE9F0471E4690460D460446C1F30747F9
:1031B000DDF8209008E0701C06D0FEF7D5F8A0EBF3
:1031C0000900B0420FD876B12068012F18D080696D
:1031D00025EA00000004000C14D000214145EAD08B
:1031E0000020BDE8F087002044F8300F20216173F3
:1031F000A073216941F02001216120730120F0E7D3
:103200004069E5E70121E9E72DE9F0479A46914653
:103210000E46044600254FF02008C1F3074725E07D
:1032200020684069C043400514D42068016841F417
:103230000071016021686FF480604861256384F843
:103240003D8084F83E50206C40F00400206484F8F7
:103250003C501FE0B9F1FF3F08D0FEF785F8A0EB26
:103260000A0149450CD8B9F1000F09D02068012F97
:1032700013D0806926EA00000004000C0BD0CFE7D1
:1032800044F8305F84F80D80A573206940F0200079
:10329000206125730120BDE8F0874069EAE72DE948
:1032A000F041002590460E460446202717E040696D
:1032B000C043C0060CD454F8301B6FF010004861B6
:1032C00044F810596777A577206A2062257717E0C0
:1032D000FEF74AF8A0EB0800B04208D83EB12068DB
:1032E0004169C9434906E2D40020BDE8F08144F8B1
:1032F000305F6773A573206940F02000206125735B
:103300000120F2E770B516460D4604460DE0204652
:10331000FFF74BFE08B1012070BD681C05D0FEF719
:1033200023F8801BA84207D835B120684069C04304
:103330000006ECD4002070BD002044F8300F20219E
:103340006173A073216941F0200121612073E2E7DC
:103350003EB500240D480094019402940A4984600B
:10336000016004730475012505614FF46021446018
:10337000C161FDF7E1FBCDE90045694603480294D0
:10338000FDF75CFB3EBD0000002401403C02002034
:10339000214808B5416941F001014161416901F0ED
:1033A00001010091416941F002014161406900223F
:1033B00000F00200009011460C20FEF7EDFA0C2000
:1033C000FEF7DCFA002211460D20FEF7E5FA0D208B
:1033D000FEF7D4FA002211460E20FEF7DDFA0E2089
:1033E000FEF7CCFA002211460F20FEF7D5FA0F2087
:1033F000FEF7C4FA002211463A20FEF7CDFA3A2031
:10340000FEF7BCFA002211463B20FEF7C5FABDE8E4
:1034100008403B20FEF7B2BA001002402DE9F04F01
:1034200085B000255848009501950295039581695E
:1034300041F040018161816901F04001049181699D
:1034400041F010018161816901F0100104918169ED
:1034500041F004018161816901F0040104918169F5
:1034600041F008018161816901F0080104918169DD
:1034700041F0200181618069DFF810B100F0200087
:10348000049001224FF4D8715846FDF768FFDFF829
:10349000009140F20336012231464846FDF75FFFB6
:1034A0000122D70339463B48FDF759FFDFF8E8A072
:1034B0004CF22008012241465046FDF750FF012200
:1034C0004FF401413548FDF74AFF44F27D00CDE954
:1034D00000050124694602942E48FDF73FFE4EF296
:1034E0000720CDE90005694602945846FDF736FEEF
:1034F0003020CDE900040294694658460394FDF754
:103500002DFECDE900640294694648460394FDF718
:1035100025FE11260097CDE9016469461D480394F4
:10352000FDF71CFE4FF47050CDE90005694602948A
:103530005046FDF713FECDF80080CDE901646946E1
:1035400050460394FDF70AFE4FF4C0700090CDE999
:103550000164694658460394FDF700FE200200907E
:10356000CDE9016469460D480394FDF7F7FD03209A
:10357000CDE90240CDE9007469460848FDF7EEFD4B
:1035800005B0BDE8F08F00000010024000100140BF
:10359000000C0140001801400014014000080140E7
:1035A0000C480B49012201604FF4827141600021F7
:1035B0008160C160C0E90412520282613822C0E910
:1035C0000721416281620A21C162FEF729BD000024
:1035D00000300140C00200200C480B494FF400723B
:1035E00001604FF48271416000218160C16001611E
:1035F000C0E905123822C0E90721416281620A212F
:10360000C162FEF70DBD0000003800401803002025
:1036100010B58AB0002407941C2168460894FCF772
:1036200018FE11480F49C0E900144FF6FF71C0E9B8
:10363000024104618461FFF77EF9079407A90A48F3
:103640000894FEF7DCFF6020CDE90004029400221C
:10365000694605480494FFF706F90348FFF7D2F8D6
:103660000AB010BD000400407003002010B50F4CDC
:103670000D480C2120604FF4E13060600020A06014
:10368000E060C4E90401A061E0612046FFF766FA4A
:103690002068C16841F01001C1602046BDE81040BB
:1036A000FF220349FFF7F0BB004C00405CB700204D
:1036B0005FB2002010B50F4C0D480C2120604FF474
:1036C000165060600020A060E060C4E90401A061C1
:1036D000E0612046FFF742FA2068C16841F010011E
:1036E000C1602046BDE81040FF220349FFF7CCBB74
:1036F000003801409CB7002063AE002010B50F4C8D
:103700000D480C2120604FF4165060600020A0602E
:10371000E060C4E90401A061E0612046FFF71EFA01
:103720002068C16841F01001C1602046BDE810402A
:10373000FF220349FFF7A8BB00480040DCB7002088
:1037400061B00020FEE77047F8B5044640684FF4CA
:103750008273984217D1A0684FF48065B0F5004F8E
:1037600001D0A8420FD12068066826F04006066006
:103770006068984207D1A068A84204D100920B4625
:103780000022012103E000920B4600228021204606
:1037900000F018F8002804D0606D40F0200060654B
:1037A0000320F8BD38B50B46009204460022802164
:1037B00000F008F8002804D0606D40F0200060653B
:1037C000032038BD2DE9F0411D4617460E4604463C
:1037D000DDF8188008E0681C06D0FDF7C5FDA0EBF9
:1037E0000800A8420BD255B12068806836EA000074
:1037F00030D00020B842EED10020BDE8F081206832
:10380000416821F0E00141606068B0F5827F0BD132
:10381000A068B0F5004F02D0B0F5806F04D12068E9
:10382000016821F040010160A06AB0F5005F09D194
:103830002068016821F4005101602068016841F4AA
:1038400000510160012084F85100002084F85000EC
:103850000320D2E70120CDE702F0A4FC094C40F29E
:10386000DE35002220212046FDF779FD0A2001F0F7
:10387000EDFC012220212046FDF771FD284601F0D4
:10388000E5FCEEE7001401404FF47A74204601F0A5
:10389000DDFCFBE710B5502080F31188BFF34F8F9C
:1038A000BFF36F8F04F098F818B104494FF08050BF
:1038B0000860002080F3118810BD000004ED00E0D6
:1038C00030B595B028216846FCF7C3FC14210AA83E
:1038D000FCF7BFFC18210FA8FCF7BBFC0224012059
:1038E000049000941020059000254FF46010CDE95D
:1038F000085007946846FEF703FA0AA90F2081E8EA
:1039000031006002CDE90D0502210AA8FEF7ECF8AE
:103910004FF4404011900F940FA8FEF76FF815B0C8
:1039200030BD00000D48016841F0010101604168AF
:103930000B4A1140416001680A4A11400160016868
:1039400021F480210160416821F4FE0141604FF4BF
:103950001F0181600449C0030860704700100240E5
:103960000000FFF8FFFFF6FE08ED00E02DE9F04152
:103970000E46184D1749083538B3174A1368B3FB7C
:10398000F0F2120C521C92B2B3FBF2F3B3FBF0F064
:1039900080B2401E0860081F521E02600868401C6A
:1039A000FCF71FFE07460C463046FCF71AFE0022C5
:1039B0000A4BFCF7A2FD3A462346FCF72CFDFCF728
:1039C00031FE80B22860BDE8F0814FF6FF700860DC
:1039D0000020F7E72C0400401C00002000005940A4
:1039E0000148FEF75BBE0000F0030020F0B502685E
:1039F0001C4B1D4D1D4E1E4F1E4C4FF0804C9842CF
:103A000009D0A04207D0604505D0A84203D0B042FB
:103A100001D0B84204D122F0700E4A6842EA0E0288
:103A2000984209D0A04207D0604505D0A84203D0F3
:103A3000B04201D0B84203D122F44075CA682A438B
:103A40004D6922F080022A4302608A68C2620A68D5
:103A50008262984201D0A04201D10969016301212B
:103A60004161F0BD002C014000040040000800400E
:103A7000000C00400034014010B501F01F0301218B
:103A8000046A99408C430462016A9A4011430162BE
:103A900010BD0000F0B5026A22F001020262036A62
:103AA00042688469124E24F073050C682C4323F09D
:103AB00002058B682B430D4DA84201D0B04205D1C1
:103AC00023F00807CB683B4323F00403A84201D04E
:103AD000B04205D14D6922F4407215438A692A43E8
:103AE00042608461496841630362F0BD002C01407B
:103AF00000340140F0B5026A22F010020262026A4C
:103B0000436884690D6824F4E64444EA05248D681A
:103B100022F0200242EA05120F4D104EA84201D0B9
:103B2000B04206D1CF6822F0800242EA071222F0AA
:103B30004002A84201D0B04207D14D6923F440634E
:103B400043EA85038D6943EA8503436084614968DC
:103B500081630262F0BD0000002C0140003401408E
:103B6000F0B5026A22F480720262026A4368C46994
:103B700022F4007224F073050C68124E2C438D68F9
:103B800042EA05220E4DA84201D0B04206D1CF68CC
:103B900022F4006242EA072222F48062A84201D0A5
:103BA000B04207D14D6923F4405343EA05138D69B0
:103BB00043EA05134360C4614968C1630262F0BD12
:103BC000002C01400034014030B5026A22F48052DA
:103BD0000262046A4268C3690D6823F4E64343EA5B
:103BE00005238D6824F4005444EA0534084DA842A6
:103BF00002D0084DA84204D14D6922F4804242EA25
:103C000085124260C36149680164046230BD0000EE
:103C1000002C01400034014010B50448FEF716FFA7
:103C2000BDE81040014800F087B800005CB70020F4
:103C300010B5406A0021C185C184FEF706FF10BDA2
:103C400070B5446A2068406994F83910C0F3C01018
:103C50000025212904D118B1E584204600F062F83E
:103C60002068406994F83A10C0F38010222904D1EA
:103C700018B1E585204600F047F8E06B40F01000F1
:103C8000E0632046FEF7E1FE70BD10B50146406AD4
:103C900009680968890613D40021C1850168CA68CA
:103CA00022F48072CA6001684A6922F001024A6106
:103CB00001684A6922F040024A61202180F83A10E6
:103CC000FFF72EF910BD10B5406AFFF72AF910BDB5
:103CD00010B50146406A0968096889060CD40021BC
:103CE000C18401684A6922F080024A610068C168A3
:103CF00041F04001C16010BDFFF754F910BD10B58F
:103D0000406AFFF750F910BD0168CA6822F490724A
:103D1000CA6001684A6922F001024A61202180F8E4
:103D20003A1070470168CA6822F0C002CA602021B8
:103D300080F839107047000038B5016804460868FB
:103D4000C043C00676D40868486800900868486890
:103D50002046FEF74EFE52492068524C884232D12E
:103D6000514800684068C0F1FF00207020780128A9
:103D70000DD9607858B94D48A178227808444B494C
:103D8000FF39FCF74DFAA07821780844A070474924
:103D9000FF22FF3901F63910FFF776F8FF2144487A
:103DA000FCF757FAA27841494148FF39FCF738FA45
:103DB000A1783F4800F09AFCBDE838403B48FF211D
:103DC000FF38FCF746BA3B49884234D13648443084
:103DD00000684068C0F1FF00E070E07801280DD96C
:103DE000207958B934486179E27808442F49FF3185
:103DF000FCF716FA6079E178084460712B49FF22DC
:103E0000FF3101F27B70FFF73FF82948FF21FF30B7
:103E1000FCF71FFAE2782549FF3101F2FB40FCF77D
:103E2000FFF92248FF21FF30FCF713FAE178204820
:103E3000FF302FE032E0214988422FD11A48443820
:103E400000684068C0F1FF00A071A07901280ED978
:103E5000E07960B91648217AFF38A27908441649FA
:103E6000FF31FCF7DDF9207AA1790844207212496C
:103E7000FF22FF3101F2FD40FFF706F8FF21104855
:103E8000FCF7E7F9A2790C490D48FF31FCF7C8F9B6
:103E9000A1790B48BDE8384000F03EBC38BD0000B9
:103EA000003801400602002060B8002062AF002008
:103EB0005DB400200048004060B10020004C00408C
:103EC0005BB6002010B590F83A10222901D00220EC
:103ED00010BD8168B1F5805F11D0016900290168CA
:103EE0001FD0496801F07F03816A4A1C82620B700F
:103EF000C18D491E0904090CC18518D02BE0026947
:103F0000816A002A0268526805D0D2B20A80816AAA
:103F1000491C8162ECE7C2F308020A80816A891CAD
:103F2000F7E74A68816A4B1C83620A70E0E7016820
:103F3000CA6822F02002CA600168CA6822F480724E
:103F4000CA6001684A6922F001024A61202180F8B2
:103F50003A10FEF7E5FF002010BD00002DE9F0410A
:103F6000044600680169E26821F44051114301618F
:103F70002169A0680843616908432168CA6841F261
:103F80000C639A430243CA6020684169A26921F424
:103F90004071114341611E492068642532268842E0
:103FA00002D1FDF767FE01E0FDF754FE00EBC00112
:103FB00001EB001160686FF018078000B1FBF0F2B0
:103FC000B2FBF5F2B1FBF0F37A4303EB8202B1FBF3
:103FD000F0F306EB0212B2FBF5F2B3FBF5F302F0DD
:103FE000F00202EB0312B1FBF0F3B1FBF0F0B0FB17
:103FF000F5F0784303EB800006EB0010B0FBF5F022
:10400000216800F00F0010448860BDE8F0810000D6
:104010000038014090F83910212901D00220704762
:104020008168B1F5805F016A0BD04A1C02620268A8
:1040300009785160C18C491E0904090CC1840ED055
:1040400017E009880268C1F308015160016900297D
:10405000016A02D0491C0162ECE7891CFBE7016898
:10406000CA6822F08002CA600068C16841F040015D
:10407000C16000207047000010B50448FEF7E6FC60
:10408000BDE810400148FFF757BE00009CB7002074
:104090000148FEF7DBBC0000B003002010B5044867
:1040A000FEF7D4FCBDE810400148FFF745BE000014
:1040B000DCB70020FEE70907090E002804DB00F149
:1040C000E02080F80014704700F00F0000F1E020BD
:1040D00080F8141D70470000004870473802002027
:1040E00002E008C8121F08C1002AFAD170477047C1
:1040F000002001E001C1121F002AFBD1704700F02F
:104100000F01000900EB800001EB4000C0B27047D6
:1041100070B590B00D460646144640216846FCF73F
:1041200098F802218DF800108DF80110200A8DF802
:104130000250E2B2032D22D08DF804008DF8031056
:104140008DF805209DF8032001A9FF2050549DF80B
:104150000320491C50549DF80320491C50549DF8DD
:10416000032069463046D21DFCF75AF89DF803201B
:1041700031460948D21DFEF7D5FE10B070BD0421AE
:104180008DF8031000218DF804108DF805108DF8BE
:1041900006008DF80720D5E79CB7002070B50028F1
:1041A00031D00178012910D002292CD18178012445
:1041B0002A4D102927D2DFE801F0262023272A2EB6
:1041C00032363A3E26264145494D017906291AD212
:1041D000DFE801F01903070B0F0FBDE8704000F096
:1041E0008DBFBDE8704000F0B8B8BDE8704000F089
:1041F000C1B8BDE8704000F0FDBD01F00BFF01E06B
:1042000001F08AFE2C7070BD01F0BAFEFAE7BDE83D
:10421000704001F080BEBDE8704001F07BBEBDE89B
:10422000704000F077BFBDE8704000F097B8BDE87F
:10423000704000F067BB02F039FDE3E7BDE8704075
:1042400000F0BEB8BDE8704001F0EEBFBDE87040C0
:1042500000F066BFBDE8704001F0BEBF1402002050
:1042600010B5064C2078002806D101F061F9201D18
:1042700000F028F80120207010BD0000140100207B
:10428000002001F069B910B50446322001F064F94C
:10429000A0B2BDE8104001F05BB90000034800681F
:1042A000002801D00068004770470000F801002096
:1042B00003490968002901D0496808477047000090
:1042C000F80100200149086070470000F801002053
:1042D00001484088FFF7ECBF2001002010B58CB0EA
:1042E0000446684600F07CFA90B10598A0800498D6
:1042F000401CA0710398E0710298207001986070D2
:104300000098A0700698401C207200200CB010BDD0
:104310000320FBE710B500F0AFFA08B1002010BD94
:10432000012010BD00B58BB0818805918179491EAF
:104330000491C179039101780291417801918178CA
:104340000091007A401E0690684600F0A1FA10B174
:1043500000200BB000BD0220FBE770470079012868
:1043600004D0FF2805D1012000F060BD4FF0FF30E0
:10437000FAE770477047000070B50446082817D860
:104380000D4D0120287005F1540030F8240081B251
:1043900005F1340050F82400FCF7DCFF07492870D1
:1043A000002851F8240002D0002802D002E008B111
:1043B000002070BD012070BD9C00002004AD0020D5
:1043C00000B50079C1B04FF4807101280CD00228EB
:1043D0000FD0032806D16846FBF73BFF0321684650
:1043E00000F00CF841B000BD6846FBF732FF012138
:1043F000F5E76846FBF72DFF0221F0E72DE9F34FC3
:10440000C1B00E4600252C464FF480716846FBF77C
:1044100020FF02208DF80000AB4A8DF801004FF616
:10442000FF73EB46012E04D0022E7AD0032E77D1F3
:10443000CEE006208DF8020000204FF0040A9146DD
:1044400000EBC00ED9F8146000250AEBCE017718F6
:104450004FEA050101EB410637F816209A424CD08D
:1044600007EB4602B2F802C09C4546D092889A42B9
:1044700043D004EBC502121D02F0FF0801F1010C4C
:104480000BF808C00BEB080200F1010C82F801C028
:10449000D9F814806D1C08EBCE0C0AEB4608CDF859
:1044A00000813CF80880EDB24FEA182882F80280BB
:1044B000DDF800811CF8088082F803804FF00608C0
:1044C00008EB4608CDF800813CF808804FEA182830
:1044D00082F80480DDF800811CF8088082F80580ED
:1044E0004FF0080808EB46063CF806804FEA18280B
:1044F00082F806801CF80660D671491C0C29A9D3E5
:1045000004EBC501401CCCB2022899DB0BEB040084
:104510008DF80340FF21017141718171CFE000E00E
:1045200050E008208DF8020000204FF4AE794FF4DF
:10453000B07A9846516909EBC003CE5A464525D05A
:1045400056690AEBC0017658761C1FD0C5EBC5062C
:10455000361DF6B2471C0BF8067057695E447F584B
:104560003F0E777057697F583F0CB77057697F5A75
:104570003F0AF7705769795C31715169C95A090A64
:10458000717151696D1CEDB2C95CB171401C062896
:10459000D0D3C5EBC5002044C0B28DF80300584409
:1045A000FF220271427182719DF803205946D21D8B
:1045B0004198FBF735FE9DF803204448D21D4199F0
:1045C000FEF7B0FC42490120C87043B0BDE8F08F4F
:1045D00007208DF8020000254FF0980905EB450AE9
:1045E000576909EB4A1000260744304637F8301067
:1045F000994251D007EBC001B1F802C09C454BD0A5
:104600004968491C48D006EB860104EB4101091DAD
:10461000C9B200F1010C0BF801C0594405F1010CBD
:1046200081F801C0D2F8148009EBC00E08EB4A1CD7
:10463000761C3CF80E80F6B24FEA182881F802800A
:104640001CF80E8081F803804FF09A0808EBC00E2A
:104650003CF80E804FEA182881F804801CF80E8080
:1046600081F805804FF09C0808EBC00E5CF80E80C6
:104670004FEA186881F806805CF80E804FEA184807
:1046800081F807803CF80E804FEA182881F80880EE
:104690001CF80EC081F809C0401C0C28A6D306EBFC
:1046A000860004EB40006D1CC4B2022D96DB0BEBC0
:1046B00004018DF80340FF200871487188719DF84E
:1046C0000320594673E70000248A00089CB70020A5
:1046D000140200200A21B0FBF1F201FB1202B0FB30
:1046E000F1F002EB0010C0B27047000010B5084CAA
:1046F000A27812B1012A08D105E006A1FBF7B4FDAA
:10470000002804D001E0FFF749FD0120607010BDD2
:10471000140200206F6B000070B5064616A1FBF76F
:10472000A3FD164C012500B1257015A13046FBF7FD
:104730009BFD48B114A13046FBF7A8FD15A1FBF77E
:10474000A5FDFBF7C5FD607013A13046FBF78CFD9E
:1047500000B1A57012A13046FBF786FD00B1E570EF
:1047600016A13046FBF780FD00B125713046BDE84B
:10477000704017A1FBF778BD4F4B00001E020020D0
:104780004353513A200000000D0A2B4353513A2065
:10479000000000002C0000004552524F5200000063
:1047A0002B4D515454444953434F4E4E45443A20A7
:1047B0004C696E6B20436C6F736564002B434C4FE8
:1047C00055444844415554483A204F4B000000009E
:1047D0002B434C4F55445055424C4953483A0000E6
:1047E0003EB5040041D00720009001AB0022D1214A
:1047F000204800F0C7F8012836D19DF80400FFF7E3
:104800007EFC20609DF80500FFF779FC60609DF854
:10481000060041062BD500F01F00FFF770FC401E7C
:10482000A0609DF80610890601D50C30A0609DF8A7
:104830000700FFF764FC401EA0619DF80800FFF729
:104840005EFCE0609DF8090000F01F00FFF757FCD8
:10485000401E20619DF80A00FFF751FC00F5FA6048
:1048600060610020206201203EBD00203EBDFFF7B8
:1048700046FCDBE70002002010B50349034800F0C6
:10488000F7F8012010BD00006C020020000200209B
:104890000EB5030032D01878FFF71CFF8DF8040026
:1048A0001879FFF717FF8DF80500187AFFF712FF48
:1048B0008DF80600187E401CC0B2FFF70BFF8DF884
:1048C0000700187BFFF706FF8DF80800187C401CD6
:1048D000C0B2FFF7FFFE8DF80900187DA0F5FA6061
:1048E000C0B2FFF7F7FE8DF80A000720009001AB79
:1048F0000022D021024800F081F80EBD00200EBD3C
:104900000002002000790649012805D0FF2806D1C1
:104910004A680021022010474A680121FAE77047DF
:10492000D08900080149024800F0A2B86C020020BA
:104930001002002008B50E230092CAB203EAD1117A
:10494000034641F0A101024800F01CF808BD000038
:104950001002002008B50E230092CAB203EAD1115A
:10496000034641F0A001024800F048F808BD0000ED
:104970001002002002484069B0F89400FBF72CBEFA
:10498000248A00082DE9FE4F1A4D81461A4EFF2059
:10499000DDF830A08B46002428701F469046611E2B
:1049A000306800F0A9FC10B10120287004460220F4
:1049B000287032210097CDE901A108F0FF02012300
:1049C0005946D9F80000FCF78FFD10B1032028707C
:1049D000641C04202870306800F020FD10B1052010
:1049E0002870641C0620287014B10020BDE8FE8FDA
:1049F0000120FBE704020020040000202DE9FE4F07
:104A0000194E8B46814600241F469046611EDDF8F4
:104A100030A0306800F070FC144D10B101206870B7
:104A200004460220687032210097CDE901A108F008
:104A3000FF0201235946D9F80000FCF765FE10B1CA
:104A400003206870641C04206870306800F0E6FC85
:104A500010B105206870641C0620687014B1002035
:104A6000BDE8FE8F0120FBE70400002004020020C7
:104A700011B10160012070470020704710B501F0AE
:104A800043FB0C48006880470B480068804728B10A
:104A90004FF47A74204600F0D9FBFBE70748006822
:104AA000804707480068804706480068BDE8104016
:104AB00000470000248A0008148A0008D0890008F2
:104AC000FC890008088A00082DE9F04104460828FE
:104AD00002D90020BDE8F081002502F077FF0646EC
:104AE0002046FFF749FC124B124903F108021F5DF3
:104AF000874204D041F824600027175501E0175D74
:104B00009FB951F82410711A1E290ED9084901269F
:104B100010310F5D20B1012F06D001250E5503E0A5
:104B2000022F01D002250D55165518552846D1E7FC
:104B3000B500002044AD00202DE9F04104460828CE
:104B400002D90020BDE8F08102F040FF0546204672
:104B5000FFF712FC0F4B104E03F108011F5D01F12E
:104B60000802874204D046F8245000270F5501E080
:104B70000F5D5FB956F82460AD1B1E2D06D908B134
:104B8000032500E00425155501250D551855105D28
:104B9000D8E700009D00002024AD00203EB50D4662
:104BA00000218DF800108DF80410082814D2DFE8D9
:104BB00000F00406080A0C0E101207200CE0062074
:104BC0000AE0052008E0042006E0002004E00120BF
:104BD00002E0022000E00320441CE0B2694601F03C
:104BE0000FFC90B99DF8000028B1E0B201A901F0D6
:104BF00069FC50B901E002203EBD9DF8040030B1CF
:104C0000E0B202A901F0C2FB18B104203EBD0320AE
:104C10003EBD029801F0A8FD286000203EBD3EB5D3
:104C20000D4600218DF800108DF80410082814D2CC
:104C3000DFE800F00406080A0C0E101207200CE052
:104C400006200AE0052008E0042006E0002004E039
:104C5000012002E0022000E00320441CE0B269468B
:104C600001F0CEFBA0B99DF8000028B1E0B201A987
:104C700001F028FC60B901E002203EBD9DF804006F
:104C800008B103203EBDE0B202A901F07FFB08B1EC
:104C900004203EBD029801F067FD286000203EBD63
:104CA00010B501F097FC002800D0012010BD7CB5A4
:104CB0000D4600218DF800108DF80410082814D23C
:104CC000DFE800F00406080A0C0E101207200CE0C2
:104CD00006200AE0052008E0042006E0002004E0A9
:104CE000012002E0022000E00320441CE0B229463B
:104CF00001F01CFC68B9E0B2694601F0E3FB78B949
:104D00009DF80000854212D1E0B2012101F0A6FB1E
:104D100008B105207CBDE0B201A901F071FB08B12A
:104D200004207CBD9DF8040008B100207CBD032058
:104D30007CBD0000FCF7B8FDFEF7C2FDFEF76EFB80
:104D4000FEF726FBFEF704FB2348224900240160FE
:104D50002249C0E901144FF48041C0E90341446194
:104D60008461C4610462FCF705FBFEF77FFCFEF77B
:104D7000A1FC1C481A4901604FF4E131C0E901145B
:104D80000C21C460C0E904418461C461FDF7E6FE02
:104D9000FEF7B4FCFEF73CFCFEF702FCFEF71CFC41
:104DA00000F06EFA0121104A084600F0DFFA0F4CBD
:104DB0000D4A012160601032084600F0D7FA0A4A15
:104DC000A060243A00210A4800F060FB206000F057
:104DD00073FAFEE7005800406C020020A086010034
:104DE00000440040B0030020EC7D000800000020DB
:104DF0005938000810B580790B4C01280BD0FF28DA
:104E000010D1012162680020904762680021BDE84E
:104E10001040012010470021626808469047012198
:104E20006268F4E710BD0000D0890008B0F1FF3FD0
:104E300007D050B101280DD1002211464FF07E500D
:104E400006E000221146044802E000221146104606
:104E500001F02EB870470000000080BF2DE9F0413E
:104E600008680D4602EB8001154C08894F89A1693D
:104E7000164611B101291DD01EE00021FE2810D0D8
:104E8000FF2815D0FFF714FA306845F6C051784373
:104E9000B1FBF0F0401EA0612868401C2860BDE80E
:104EA000F0812960206908B12161F8E76161F6E7C6
:104EB0002960F4E7FFF7F2F9A069401EA061EEE770
:104EC0002001002010B50C461AB1012A03D006209B
:104ED00010BD114B00E0114B032815D003DC50B17D
:104EE000012806D109E0952810D0A0F58071593924
:104EF0000ED0072010BD012200E00222014620460C
:104F0000984738B1002010BD9222F7E7C422F5E798
:104F10003422F3E7032010BD554900083549000845
:104F2000F8B53448694600788DF80000002000F09C
:104F3000DBF800285CD1304C4FF47A70002260809E
:104F4000A11C0120FFF7BEFFF0BB00214FF6FF754B
:104F500001EBC102002004EBC20300BF00EB4002E2
:104F600003EB4202401C15819580D5800C28F5D3B7
:104F7000491C0229ECD30227A4F894700022211DB9
:104F80000320FFF79FFFF8B90020461E00EB400208
:104F9000002104EB421300BF03EBC102491CC2F81D
:104FA0009C6022F8985F0C295580F5D3401C02289C
:104FB000ECD30A201049A4F858010022983195201A
:104FC000FFF780FF00B900E012E004EBC001401CD5
:104FD000A1F85C51C1F860610628F4D3A4F88C7183
:104FE0000022064940F25910FFF76CFF002800D05C
:104FF0000220F8BD2802002000BA00205CBB00207F
:1050000010B5FFF78FFC0C49002000F019F880B9AB
:105010000948017809480078814202D1052001F051
:105020009DF84FF4FA7000F011F900F011F8002823
:1050300000D0012010BD000000BA0020280200208E
:1050400010B50122FFF73EFF002800D0042010BD5C
:1050500010B50F4C0122A11C1046FFF733FFA8B971
:105060000122211D0320FFF72DFF78B9012204F151
:1050700098019520FFF726FF40B9012204F5AE7193
:1050800040F25910FFF71EFF002800D0042010BD89
:1050900000BA002038B555208DF800006946002080
:1050A00000F022F8E0B90F4C0022A11C0120FFF70C
:1050B00009FFA8B90022211D0320FFF703FF78B9DB
:1050C000002204F198019520FFF7FCFE40B9002270
:1050D00004F5AE7140F25910FFF7F4FE002800D03D
:1050E000022038BD00BA002010B50022FFF7EAFE0A
:1050F000002800D0022010BDFFF7D0B8C179807918
:1051000001EB002002494A6950800869004700000D
:10511000248A00088079012801D1FFF787BE7047F3
:10512000007900EB4001C1EBC0104FF6FF7101EABE
:10513000C0000149C88070471402002070B51B4DA3
:10514000002405F1200600BF55F8240010B956F8D8
:10515000240028B3082C14D2DFE804F00406080A5F
:105160000C0E101200200CE001200AE0022008E0E2
:10517000032006E0042004E0052002E0062000E011
:105180000720FFF7A1FC58B1012802D0022807D15F
:1051900002E055F8240001E056F8240000B18047F1
:1051A000641CE4B2082CCFD370BD0000C0B900204D
:1051B00010B50024082814D2DFE800F00406080A1D
:1051C0000C0E101200200CE001200AE0022008E082
:1051D000032006E0042004E0052002E0062000E0B1
:1051E0000720FFF7A9FC38B1032802D0042803D117
:1051F00001E0032400E00424204610BD10B5044A59
:105200000021044800F042F903490860002010BD65
:10521000D88900083D52000824020020012903D04B
:10522000022903D002207047034901E002492031DE
:1052300041F8202000207047C0B900200020FFF76F
:105240007DFF0A2000F002F8F8E7000010B5EFF348
:10525000058149B9EFF3108131B90849096802297C
:1052600005D1EFF3118111B16FF0050403E00024C3
:1052700008B101F0EDFB204610BD000070000020D9
:10528000EFF3058058B9EFF3108040B90949086879
:10529000022801D030B109E0EFF3118030B16FF096
:1052A0000500704701200860002070474FF0FF3074
:1052B000704700007000002010B5EFF3058060B962
:1052C000EFF3108048B90B490868022802D0012882
:1052D00006D00BE0EFF3118040B16FF0050010BD78
:1052E0000220086001F064FC002010BD4FF0FF3088
:1052F00010BD000070000020F8B50D460024211FED
:105300004E1C00280ED000BFEFF305824AB9EFF320
:10531000108232B9134A1268022A17D1EFF31182B0
:10532000A2B10DB10C461BE000216A46009102F0CB
:10533000A3F9012813D1009890B10B494FF0805088
:105340000860BFF34F8FBFF36F8F09E0294602F06B
:10535000E1F9012804D015B16FF0010400E03446F2
:105360002046F8BD7000002004ED00E0F8B51446BA
:1053700003460E464FF00005EFF30580E8BBEFF360
:105380001080D0BB24480068022802D1EFF31180BE
:1053900098BB93B39E423DD84CB1A0680028E0680A
:1053A00003D0502836D3012002E008B132E00020BB
:1053B000012B05D010B31846A26801F0AAFE20E028
:1053C00040B103200090002211460120A36801F0A3
:1053D000E4FE04E003220021012001F0BAFE0500F2
:1053E00018D086B100231A46194601F04DFF012856
:1053F00009D0284601F0DEFA00250BE0184601F03E
:105400006BFE050006D00CB1216800E000212846A3
:1054100001F0BCFA2846F8BD7000002038B5002421
:10542000E51E002804D000BFEFF3058169B902E052
:105430006FF0030423E0EFF3108131B911490968DB
:10544000022914D1EFF3118189B10021009169463D
:1054500002F028F8012811D1009880B10A494FF0D4
:1054600080500860BFF34F8FBFF36F8F07E00023BA
:105470001A46194601F008FF012800D02C462046A4
:1054800038BD00007000002004ED00E0F0B585B0EC
:105490004FEA01034FF00004EFF305810394A1BB31
:1054A000EFF3108189BB21490968022902D1EFF38A
:1054B000118151BB48B3802618218DF8104004ADEE
:1054C00042B3176807B13D4697691FB139467F1E41
:1054D000382F02D21779FF0702D0002005B0F0BDA7
:1054E000576907B1BE08D2F808C0BCF1000F0DD053
:1054F000D4685C2C18D312693AB137B18DE8061024
:105500003246294602F029FA03900DE0D7685FB9C8
:1055100012694AB903AACDE90012B2B2294602F0D3
:10552000EFF9012800D003940398D7E7700000201A
:1055300010B5054C2078002805D100210348FDF75F
:105540002BFA0120207010BDFC0100207003002008
:105550001E21FEF70BBA000070B505460B48006827
:10556000FBF73FF806460C462846FBF73AF80022C0
:10557000074BFAF7C2FF32462346FAF74CFFFBF718
:1055800051F804490968486370BD00002C040040CC
:105590000000594070030020704700002DE9F041E1
:1055A000134C0F46054666692068001D01F0F4F8AB
:1055B000681C07D137B12168BDE8F0410D48091DCD
:1055C00001F03AB920683544B5424560216805D2FA
:1055D000A068BDE8F041091D01F016B96068091D19
:1055E00001F012F9206B854200D22563BDE8F081FD
:1055F00020000020200900202DE9F041054601F09F
:1056000027F92D4C2069401C206120682B4F10B1D8
:10561000E06930B32BE025602069012827D10026FE
:1056200006EB860007EB800001F0E0F8761C382ED0
:10563000F6D3234801F0DAF82148143001F0D6F807
:105640001F48283001F0D2F81D483C3001F0CEF858
:105650001B48503001F0CAF8194860601430A0604F
:1056600005E02068E96AC06A884200D82560E06ADF
:10567000401CE0626864E86AA169884200D9A061C0
:1056800000EB800007EB8000291D01F0D5F801F048
:10569000FFF8E06900280CD02068E96AC06A8842F7
:1056A00007D208494FF080500860BFF34F8FBFF317
:1056B0006F8FBDE8F0810000200000207004002002
:1056C000D008002004ED00E038B501F0C1F8104C1E
:1056D000A068C8B90F4801F089F80E48143001F0ED
:1056E00085F80C482060143060600A4B0020283395
:1056F000009003F1500210210A2001F04EFDA0603D
:1057000010B105A101F042F9BDE8384001F0C0B880
:105710005C00002034090020546D7251000000002C
:1057200030B4026C0B46002A0BD0C1681144C16032
:105730004468A14201D30168C16030BC1846FAF741
:105740006FBD30BC70472DE9F041856B17460446AC
:105750000026026C82B1C7B1E068FAF761FDE1682A
:10576000206C091AE1602268914202D26168081A2D
:10577000E060022F16D017E02068A8B9606802F038
:105780008FF90646002060600EE0A068FAF748FD39
:10579000216CA0680844A0606168884204D3206836
:1057A000A06001E005B16D1E6D1CA5633046BDE82B
:1057B000F08110B5044690F8590058B101280CD07A
:1057C00002280FD0502080F31188BFF34F8FBFF312
:1057D0006F8FFEE7206B01F06FF82046BDE81040A8
:1057E00001F06AB810BD000010484FF4F0414207C4
:1057F00006D0C01D0D4920F00700411AC1F5F04147
:105800000B4A00230144C2E900030839103A21F091
:10581000070111604B600B600B1AC0E90013936025
:105820004FF000405360D060704700000435002006
:1058300084000020144E154CA6F29C474FF080586F
:10584000DFF84C9012E000BF01F002F8F068C56884
:10585000281D00F0A1FF2069401E2061E068401E65
:10586000E06001F015F82846FFF7A3FFE068002884
:10587000EAD138680128F9D9C9F80080BFF34F8F01
:10588000BFF36F8FF2E700000C090020200000201A
:1058900004ED00E070B51D46049C51B1C4F8002031
:1058A000C4E90F010121204601F0AAFC84F84C5004
:1058B00070BD2460F4E72DE9F0470E46DDE9098468
:1058C0001746824691009946089DA522206BFAF75B
:1058D000B9FC6FF00301206B01EB8701084420F055
:1058E0000707780707D0502080F31188BFF34F8F48
:1058F000BFF36F8FFEE72218315C82F83410315C01
:1059000011B1401C1028F6D3002684F84360382DCE
:1059100000D33725E562C4E91356201D00F071FF5E
:1059200004F1180000F06DFF2461C5F138006462D5
:10593000A061666584F858604A465146384600F0D2
:1059400069FA2060B8F1000F01D0C8F80040BDE846
:10595000F0872DE9F0471E46DDE9089417460D0053
:1059600080460ED0002C14D0FFF7AEFEC4F80080A5
:10597000C4E90657C4E90869201DBDE8F04700F0F6
:1059800040BF502080F31188BFF34F8FBFF36F8F5C
:10599000FEE7BDE8F087000030B5114900E0114690
:1059A0000A688242FBD34B685C18844203D140688A
:1059B00018444860084643681C18944209D1084CB2
:1059C000103C2468A24209D052681A4442600A6816
:1059D00012680260814200D0086030BD0460F9E7BF
:1059E0008400002070B5002441600B4D006191429D
:1059F00006D8D11A8269914206D2011D686807E073
:105A00009A4203D2994201D3012403E0011D286880
:105A100000F0FAFE204670BD5C00002010B5044680
:105A200000F016FFA06B28B15FF0000400F030FF1B
:105A3000204610BD0124F9E730B589B0304D55E05E
:105A40000498002806DADDE90601059A90470498D3
:105A500000284BDB069C606910B1201D00F09CFE05
:105A600002A800F0B9F8024604980A283ED2DFE8FE
:105A700000F00505053D263705053D260598A16979
:105A8000034601442046FFF7ADFF00B3616A20469C
:105A90008847E069012829D1002000900598A16974
:105AA000002342181946204602F05AF978B95020CE
:105AB00080F31188BFF34F8FBFF36F8FFEE7059818
:105AC000A06128B1811813462046FFF78BFF0DE037
:105AD000502080F31188BFF34F8FBFF36F8FFEE725
