:020000040800F2
:10000000C0BF0020DD010008EF39000851320008B0
:10001000ED390008B90B000841430008000000005A
:100020000000000000000000000000004501000882
:10003000DB0C000800000000890100083D3B0008BF
:10004000F7010008F7010008F7010008F7010008B0
:10005000F7010008F7010008F7010008F7010008A0
:10006000F7010008F7010008F7010008F701000890
:10007000690C0008750C0008810C00088D0C000844
:10008000F7010008F7010008F7010008F701000870
:10009000F7010008F7010008F7010008F701000860
:1000A000F7010008F7010008F7010008F701000850
:1000B000F7010008F7010008F7010008F701000840
:1000C000F7010008F7010008F7010008F701000830
:1000D000F7010008114300081D43000829430008E8
:1000E000F7010008F7010008F7010008F701000810
:1000F000F7010008F7010008F7010008F701000800
:10010000F7010008F7010008F7010008F7010008EF
:10011000C13E0008F7010008F7010008893C00080B
:10012000F7010008F7010008990C0008A50C000869
:10013000DFF80CD000F0E0FB004800475D4C000801
:10014000C0BF0020224B19680868B0E8F00F80F3A8
:100150000988BFF36F8F4FF0000080F311884EF0D5
:100160000D0E70470000000006480068006880F32C
:10017000088862B661B6BFF34F8FBFF36F8F00DFA1
:1001800000BF00BF08ED00E0EFF30980BFF36F8F01
:100190000F4B1A6820E9F00F106008B54FF05000BF
:1001A00080F31188BFF34F8FBFF36F8F06F0F2FB20
:1001B0004FF0000080F31188BDE808401968086816
:1001C000B0E8F00F80F30988BFF36F8F704700BF6E
:1001D0001C000020EFF305807047000006488047B0
:1001E00006480047FEE7FEE7FEE7FEE7FEE7FEE71C
:1001F000FEE7FEE7FEE7FEE7CD3B00083101000821
:10020000202A04DB203A21FA02F00021704721FA6B
:1002100002F3D040C2F120029140084319467047D2
:1002200040EA01039B0703D009E008C9121F08C078
:10023000042AFAD203E011F8013B00F8013B521EF8
:10024000F9D27047D2B201E000F8012B491EFBD26F
:1002500070470022F6E710B513460A4604461946D1
:10026000FFF7F0FF204610BD30B505462A460B4685
:1002700012F8010B13F8014B08B1A042F8D01CB1E1
:10028000002802D06D1CF1E7284630BD30B5044689
:100290000020034600E05B1C934203D2E05CCD5C8F
:1002A000401BF8D030BDF0B480EA0102D40F420008
:1002B000B2EB410F02D20246084611464A0042D034
:1002C000C30DDDB2C1F3C752AD1A202D35DAC1F32B
:1002D000160141F4000204B15242C5F1200602FAAF
:1002E00006F12A411044B3EBD05F23D0C4B1012DF5
:1002F000A0EBC35009DCF0BC4FF0004202EAC3524D
:10030000DBB200F5000000F06BBA400000F1807035
:1003100000EBC350A0F1807040EAD170490009E0C1
:10032000490841EAC071A0EBC35000F50000400845
:1003300000EBC350F0BC00F04ABA6142012202EB6C
:100340004101001BF6E7F0BC704781F00041AAE7CD
:1003500080F00040A7E780EA010210B502F00043F8
:10036000400022D04A001FD0010E01EB1261C0F301
:100370005600C2F3560240F4000042F40002A0FB13
:10038000022000047F39140400D0401C50EA1240BF
:1003900001D44000491EC2B20C0604EBD010401C30
:1003A0004008802A02D003E0002010BD20F00100A8
:1003B000002900DA0020184310BD420005D0C0F328
:1003C000C7525242914201DC0020704700EBC150FD
:1003D00070472DE9FE4F804681EA0300C00F0C46AE
:1003E000009021F0004123F00045B8EB0200A94144
:1003F00005D24046214690461C460B46024623F055
:100400000040104347D0270DC7F30A00C3F30A5139
:100410000290401A019040286BDAC3F3130040F4B5
:10042000801B0098924620B10023D2EB030A63EBB5
:100430000B0B01985946C0F14002504600F0A6F956
:1004400006460D4650465946019A00F0AEF910EBAB
:1004500008006141002487EA115284EAE7731A43D5
:1004600040D0009A62B3019A012A4FEA075215DC84
:10047000001B61EB02014FF0004202EA0752CDE996
:100480000042001C41F5801132462B4600F0E5F990
:1004900003B0BDE8F08F40462146F9E7001B61EB51
:1004A0000201001C41F5801300185B412018A2F5E1
:1004B000001747EB030140EAD570B6196D4111E012
:1004C0006D084FEA360645EAC0754FEA0752001B31
:1004D00061EB0201001C41F5801149084FEA300030
:1004E0000019514132462B4603B0BDE8F04F00F0F1
:1004F000A5B90098012240000023D0EB020263EB73
:10050000E073009821464FEAE074B8EB000061EB1D
:100510000401E9E783F000435BE781F0004158E71D
:100520002DE9FE4F81EA030404F0004421F000416C
:1005300000944FF0000B23F0004350EA01045ED01A
:1005400052EA03045BD0C3F30A54C1F30A552C44A6
:10055000A4F2F3340194A0FB0254C1F3130141F45B
:100560008011C3F3130343F4801301FB024400FB27
:10057000034E840A970A44EA815447EA8357A4FB4E
:10058000076802958D0A05FB07854FEA932C04FB4B
:100590000C542705029D4FEA065847EA1637B5EB7B
:1005A00008056EEB070C870E920E47EA811742EAA8
:1005B0008312A7FB0201B6EB0B0164EB00042B0DC9
:1005C00043EA0C335E1844EB1C50DA465146E7FB15
:1005D0000201C5F313044FEA0B3343EA14534FEA05
:1005E0000432019C43EA0603A4F10C040294009C2B
:1005F000CDE900B400F031F903B0BDE8F08F002080
:100600000146F9E72DE9F04D81EA030404F0004BBF
:1006100021F0004514464FF0000A23F0004150EA53
:10062000050220D054EA01021DD0C5F30A57024644
:10063000C5F31303C1F31300C1F30A5640F4801548
:1006400043F48013A7EB0608101BD64608F2FD38CA
:1006500073EB050002D308F1010801E092185B4139
:10066000B8F1000F03DA00200146BDE8F08D00204C
:100670004FF48011064684460EE0171B73EB050706
:1006800005D3121B63EB050306434CEA010C490832
:100690004FEA300092185B4150EA0107EDD152EA6F
:1006A000030012D082EA040083EA0501084305D062
:1006B000101BAB4106D20122002306E000224FF0BE
:1006C000004302E06FF0010253101AEB06004CEBFE
:1006D000085110EB0A0041EB0B01BDE8F04D00F0B2
:1006E000ADB870B521F0004303430CD0C1F30A55F7
:1006F0000024D5EB040564EB0403D617AD1AB3410F
:1007000002DB0020014670BD201841EB025170BD94
:1007100096230022114600F063B80EB540F2334133
:1007200002910021CDE900110A460B4600F095F830
:1007300003B000BDC1F30A5210B5C1F3130140F27A
:10074000FF3341F480119A4201DA002010BD40F2DB
:1007500033439A42A2F2334203DC5242FFF750FD88
:1007600010BD904010BD00F0004230F000400AD0B3
:10077000C10D01F56071C0F3160042EA0151C208D3
:10078000400711437047002001467047202A04DBD0
:10079000203A00FA02F1002070479140C2F1200394
:1007A00020FA03F3194390407047202A06DBCB1749
:1007B000203A41FA02F043EAE07306E041FA02F31C
:1007C000D040C2F1200291400843194670470029E9
:1007D000A8BF7047401C490008BF20F001007047C7
:1007E00010B4B0FA80FC00FA0CF050EA010404BF27
:1007F00010BC704749B1CCF1200421FA04F411FA7D
:100800000CF118BF012121430843A3EB0C01CB1DC0
:100810004FEA00614FEA102042BF002010BC704731
:1008200000EBC35010440029A4BF10BC7047401C0B
:10083000490008BF20F0010010BC704710B5141E1D
:1008400073F1000408DA401C41F1000192185B4189
:100850001A4301D120F0010010BD2DE9F04D924660
:100860009B4611B1B1FA81F202E0B0FA80F2203277
:100870009046FFF78BFF04460F4640EA0A0041EA24
:100880000B0153465A46084313D0114653EA010060
:1008900019D0C8F140025046FFF7B2FC05460E469B
:1008A000504659464246FFF771FF084305D00120E4
:1008B00004E020463946BDE8F08D0020054346EAB5
:1008C000E0762C4337430A986305E40AA0EB08005E
:1008D0000022FD0A44EA47540A3002D500200146AE
:1008E000E9E7010510196941DDE908450019694189
:1008F000BDE8F04DA2E70000064C074D06E0E068B9
:1009000040F0010394E8070098471034AC42F6D356
:10091000FFF712FC6C8600088C86000870B58C18F6
:1009200010F8015B15F0070301D110F8013B2A1103
:1009300006D110F8012B03E010F8016B01F8016BF0
:100940005B1EF9D12B0705D40023521E0DD401F8EC
:10095000013BFAE710F8013BCB1A921C03E013F8B5
:10096000015B01F8015B521EF9D5A142D8D30020EA
:1009700070BD0000054910B5097801F0070100F0CD
:100980001DF9044600F0E9F8204610BD0C020020D5
:1009900038B5084C218841F4805160F3020141F4DC
:1009A0000050208080B2ADF80000009800F0C6F83A
:1009B000208838BD0C0200204FF49671484300E0B7
:1009C000401E0028FCDC704738B5642004F0A6FB0C
:1009D0000122124D54022146284600F014FE6420E4
:1009E00004F09CFB00222146284600F00CFE642007
:1009F00004F094FB00F06EF8094C208820F480503D
:100A000020F00700801D20F40050208080B2ADF857
:100A10000000009800F092F8208838BD000C0140DA
:100A20000C020020F8B5144E4FF4807500222946C0
:100A3000304600F0E8FD0120FFF7BEFF322303221D
:100A400069460E4801F0E6FC9DF800009DF8011093
:100A500000049DF8024040EA012004430120FFF712
:100A6000ABFF01222946304600F0CDFD0120FFF703
:100A7000A3FF2046F8BD0000000C01401003002039
:100A8000022108B561F3174061F30F0000F02CF864
:100A9000FFF7C8FF0090BDF8000008BD022161F318
:100AA000174010B5012161F30F0000F01DF8FFF7AA
:100AB000B9FF80B210BD022161F3174008B50021D3
:100AC00061F30F0000F010F8FFF7ACFF0090BDF8E5
:100AD000000008BD0020562161F31740012161F399
:100AE0000F0000F001B8000038B5010C8DF80010BF
:100AF000010A8DF801100F4D8DF802004FF480743B
:100B000000222146284600F07EFD0120FFF754FF19
:100B1000322303226946084801F024FD0120FFF733
:100B20004BFF01222146284600F06DFD0120FFF712
:100B300043FF38BD000C01401003002001B481B018
:100B40000020009055208DF80200BDF80400ADF89B
:100B50000000009802B0FFF7C7BF0021012262F336
:100B6000174160F30F010846FFF7BEBF70B504469A
:100B700000688168C943C9071CD1816821F001015F
:100B8000816000F045FD05460FE000BF00F040FD2C
:100B9000401B022809D9A06A40F01000A062E06A58
:100BA00040F00100E062012070BD20688068C04311
:100BB000C007EBD0002070BDFEE7000070B50A460C
:100BC0000021234C234B052A05D0234D062A18D09B
:100BD000072A28D129E04FF08142904201DC1046DB
:100BE00002E0984200DD18461146FFF7AEFB2146B1
:100BF000FFF7B1FBFFF7B7FD6FF00302FFF771FDE1
:100C00000EE0A84201D3002002E0984200DD184621
:100C10002146FFF7A0FBFFF7A6FD00220F4B13E0D4
:100C2000FFF788FD81B2084670BD0D49A84201D387
:100C3000002002E0884200DD08462146FFF78BFBDA
:100C4000FFF791FD0022074BFFF7DCFCE8E700000F
:100C500000FF7F470000A04100008080000034407A
:100C60000000C04100003840014800F031BA0000E7
:100C700068B90020014800F02BBA00009CB80020A1
:100C8000014800F025BA000024B90020014800F016
:100C90001FBA000058B80020014800F019BA00003F
:100CA00014B80020014800F013BA0000E0B800209A
:100CB00030B590F840500124AC40C56B6C600468BE
:100CC00063604368102B036803D099600068C260BA
:100CD00030BD9A600068C16030BD70477047000049
:100CE000F8B50024009490F824202546012A12D05B
:100CF000012280F824204A681F23072A0DD20668A3
:100D0000776B521E02EB820293409F430B68934025
:100D10001F43776319E00220F8BD06680D2A0AD246
:100D2000376BD21F02EB820293409F430B689340C4
:100D30001F43376309E0F76A0D3A02EB82029340E2
:100D40009F430B6893401F43F7620A6807230668B6
:100D50000A2A0AD3F7680A3A02EB420293409F43F9
:100D60008B6893401F43F76008E0376902EB42024B
:100D700093409F438B6893401F4337610A68102A52
:100D800001D0112A20D1124B02689A4217D19368E0
:100D90001B0219D4936843F4000393600968102977
:100DA00012D10C490C4A0968B1FBF2F101EB810147
:100DB000490000E0491E00910029FBD104E0816A4E
:100DC00041F020018162012480F824502046F8BDC2
:100DD000002401401800002040420F002DE9F0419E
:100DE00004004FF0000514D0A06A002628B9E6627E
:100DF00084F82460204600F083F82046FFF7B6FE12
:100E0000A16A01F01001014304D0A06A40F0100073
:100E1000A0626BE0A16A21F4885141F00201A16255
:100E2000334923688B42E16904D1B1F5402F01D1E8
:100E30004FF40021277B4FF4807C41EA4702616830
:100E40000A43A168614509D0012907D05FF000017C
:100E500094F814E0BEF1010F02D00AE06146F7E712
:100E6000C7B1A76A47F02007A762E76A47F0010702
:100E7000E7625F6827F469470F435F6023689968FA
:100E80001C4F394011439960A16861450BD001297D
:100E900009D00CE0DFF860E0A7690EEB47370F439D
:100EA00047F40061E5E7218A0D05A5F58015216865
:100EB000CB6A23F470032B43CB62216889680F4B04
:100EC0001940914208D1E662A16A21F0020141F085
:100ED0000101A162BDE8F081A06A20F0020040F0AB
:100EE0001000A062E06A40F00100E0620120F1E73A
:100EF000003C0140FDF7E1FF00E0FFFFFE0E1FFF99
:100F000000B585B000210091019102910391006824
:100F10000E49884218D10E48816941F400718161FF
:100F2000816901F400710491816941F004018161DA
:100F30008069694600F004000490012000900320BD
:100F40000190044800F05EFA05B000BD00240140A5
:100F5000001002400008014010B590F82110002256
:100F6000022905D00421816380F82020012010BDD2
:100F700001680B6823F00E030B6001680B6823F017
:100F800001030B6090F84030C46B012101FA03F3B8
:100F9000636080F8211080F82020104610BD00000A
:100FA0002DE9F05F90F821100024022903D00421DC
:100FB0008163012485E001680A6822F00E020A605C
:100FC00001680A6822F001020A603F4E3E4FB215E6
:100FD000DFF8F4C0DFF8F090DFF8ECA0DFF8E8B05D
:100FE000DFF8E4E00168783F13011502ACF1640C0E
:100FF000A9F15009AAF13C0AABF1280BAEF1140E8D
:101000004FF48018B14227D9B9420ED0614512D0B1
:1010100049451DD0514518D0594518D0714501D1C9
:10102000424615E0294EB14201D1012210E0274E7F
:101030001436B14201D110220AE0244E2836B142C2
:1010400006D0224A3C32914201D11A4600E02A469B
:101050001E49091F0A602BE0B94213D0614517D021
:10106000494522D051451DD059451DD0714501D16A
:1010700042461AE0B14202D14FF0807215E0134EA1
:10108000B14201D1012210E0104E1436B14201D11B
:1010900010220AE00D4E2836B14206D00B4A3C32EF
:1010A000914201D11A4600E02A46074980394A6038
:1010B000012180F82110002180F82010416B01B13E
:1010C00088472046BDE8F09F8000024008040240A7
:1010D0002DE9F05FC16B0A6801680B68046C4FF082
:1010E000040808FA04F8844D844E854FDFF814C2D2
:1010F000DFF81492DFF814A2DFF814B2DFF814E27C
:1011000018EA020F65D05FEA437862D50A68920652
:1011100003D40A6822F004020A60DFF8F0814FF479
:101120008062016808F1140813011402414524D9B2
:10113000A9420DD0B1420FD0B9421AD0614515D0A5
:10114000494515D0514501D1120312E0594501D14D
:1011500004220EE0714501D140220AE06D4D1435A4
:10116000A94206D06B4A2832914201D11A4600E0CA
:1011700022466749091F0A6029E0A94213D0B142FB
:1011800015D0B94220D061451BD049451BD05145EF
:1011900002D14FF4800217E0414502D14FF0806246
:1011A00012E0594501D104220EE0714501D14022DF
:1011B0000AE0584D1435A94206D0564A28329142C9
:1011C00001D11A4600E022464B4908394A60C16AFB
:1011D00071E04FF0020808FA04F818EA020F70D024
:1011E0005FEA83786DD50A68920606D40A6822F011
:1011F0000A020A60012180F82110DFF810814FF403
:101200000072016808F1140813011402414524D941
:10121000A9420DD0B1420FD0B9421AD0614515D0C4
:10122000494515D0514501D1120312E0594501D16C
:1012300002220EE0714501D120220AE0354D14351D
:10124000A94206D0334A2832914201D11A4600E021
:1012500022462F49091F0A6029E0A94213D0B14252
:1012600015D0B94220D061451BD049451BD051450E
:1012700002D14FF4001217E0414502D14FF0007245
:1012800012E0594501D102220EE0714501D1202220
:101290000AE0204D1435A94206D01E4A2832914258
:1012A00001D11A4600E02246134908394A6000215C
:1012B00080F82010816A00291CD0BDE8F05F084743
:1012C000FFE70825A540154214D01A0712D50A6871
:1012D00022F00E020A6090F84020C36B012101FA4F
:1012E00002F25A60816380F82110002180F82010FA
:1012F000016BE0E7BDE8F09F080002401C000240DF
:101300003000024044000240580002406C0002409D
:10131000080402401C04024030B560B11A4B026858
:1013200014219A4209D2194B1344B3FBF1F18900FD
:10133000016417490AE0012030BD134B5B4213449E
:10134000B3FBF1F1890001640F490839C16302213F
:1013500080F82110136843F6F0718B43F0E9011413
:101360002143D0E902452C432143046921434469C8
:101370002143846921431943116000214163012203
:1013800042770177084630BD08040240F8FFFDBFF0
:101390000000024070B5044690F8200000250128A6
:1013A0000CD0012084F8200094F821600020012E48
:1013B00006D084F820000225284670BD022070BDAA
:1013C000022684F82160A0632068066826F00106E2
:1013D00006602046FFF76CFCE06A00282068016880
:1013E00002D041F00E0106E021F004010160206806
:1013F000016841F00A0101602068016841F00101C3
:101400000160D9E72DE9F84FDFF8C891002409F110
:10141000040A0AF1040B23460F270BF1040ED1E056
:101420000125A54006EA0502AA4276D1DFF8A8C147
:101430004E68A6EB0C0866452BD00DDC032E34D08D
:1014400005DC36B3012E19D0022E2FD11BE0112E50
:1014500016D0122E2AD119E0B8F5881F19D006DC53
:10146000B8F5803F15D0B8F5801F1FD111E0B8F551
:10147000001F0ED0B8F5041F18D10AE0CB6815E0A4
:10148000CB681B1D12E0CB6808330FE0CB680C3330
:101490000CE08B682BB1012B4FF0080303D04561A2
:1014A00004E0042302E0056100E00023FF2A01D8E4
:1014B000064601E000F104064FEA840501D9A5F1D2
:1014C0002005D6F8008007FA05FC28EA0C0803FA84
:1014D00005F548EA0508C6F800804D68ED0070D5AE
:1014E0003E4DAE6946F00106AE61AD6924F00306DB
:1014F00005F0010500953A4D06EB050CDCF80850A7
:10150000A607360F07FA06F825EA0805DFF8D480A3
:10151000404503D14FF0000825E052E0DFF8C880D5
:10152000404502D14FF001081DE0DFF8C080404582
:1015300002D14FF0020816E0DFF8B480404502D136
:101540004FF003080FE0DFF8AC80404502D14FF0C8
:10155000040808E0DFF8A080404502D14FF00508FC
:1015600001E04FF0060808FA06F848EA0508CCF84A
:1015700008804D68D9F80060ED034D4601D516434B
:1015800000E096432E604D68DAF80060AD035546E2
:1015900001D5164300E096432E604D68DBF80060ED
:1015A000ED025D4601D5164300E096432E604D687E
:1015B000DEF80060AD02754601D5164300E09643A3
:1015C0002E60641C0A681646E2407FF429AFBDE82D
:1015D000F88F0000000401400000111000100240CC
:1015E0000000014000080140000C014000100140D3
:1015F0000014014000180140001C014080680840B0
:1016000000D0012070470AB1016170470904FBE76F
:1016100001488068704700000C00002070B504008D
:101620001BD094F83D00002520B984F83C5020469A
:1016300000F056FA242084F83D002068016821F06B
:101640000101016000F05AFC4D4A6168914201D8E5
:101650004C4900E04C49884201D2012070BD4B4901
:101660002368B0FBF1F15E6826F03F060E435E6032
:101670006368934206D94FF4967359434FF47A73D3
:10168000B1FBF3F12368491C1E6A26F03F06314383
:1016900019626168914210D84900401EB0FBF1F216
:1016A000521CC2F30B02042A01D2042022E0B0FB38
:1016B000F1F0401CC0F30B001CE0A368F3B301EB96
:1016C000C10202EB0116421EB2FBF6F2521C42F4BA
:1016D0008042120549D093B301EBC10202EB011124
:1016E000401EB0FBF1F0401CC0F30B0040F4804002
:1016F00040F400402168CA694CF6FF739A431043D6
:10170000C861D4E90701084321680A6822F0C002D1
:1017100010430860D4E9030101432068826848F25D
:10172000FF339A4311438160D4E9050108432168DE
:10173000CA6822F0FF021043C86001E00EE016E024
:101740002068016841F0010101602564202084F8CF
:101750003D00256384F83E50002070BD01EB41063A
:10176000421EB2FBF6F2521CB3E70120C2E701EBC6
:101770004101401EB0FBF1F0401CC0F30B00B7E785
:10178000A086010080841E0000093D0040420F0039
:101790002DE9FF4F83B09A46DDE911979346044641
:1017A000DDF84080FFF734FF054694F83D0020281F
:1017B0006FD1192301227B492046009501F044FE98
:1017C0000028F5D194F83C00012862D0012084F86B
:1017D0003C0020680168C90703D1016841F001019C
:1017E00001602168086820F400600860222084F805
:1017F0003D00402084F83E0000262664C4F8248082
:10180000A4F82A90608D20856748E062CDE90075D4
:1018100053465A462046049901F032FD00287DD1F6
:10182000208DDFF8888168B1012814D0022820D0EB
:101830002068016841F48061016020684169806925
:101840000090A0E02068416981690091016841F43D
:101850000071016097E02068016821F480610160F7
:1018600072B62068416981690091016841F4007194
:101870000CE02168086840F40060086072B62068D7
:10188000416981690091016821F48061016062B65B
:1018900079E084E003284FD801280BD002283B468A
:1018A0004FF000024146204600950ED001F0CCFDDD
:1018B000A0BB0FE02A463946204601F044FE68BB33
:1018C00020680069616A087054E001F0BDFD28BB22
:1018D00072B61AE02068016821F48061016072B676
:1018E00020680069616A0870606A401C6062208D2F
:1018F000401E2085608D401E60853B46002241468B
:101900002046009501F0A0FD40B92068016841F42F
:101910000071016020680069616A00E012E00870EF
:10192000606A401C6062218D491E2185618D491EBF
:10193000618562B621681BE02A463946204601F0DF
:1019400002FE18B1012007B0BDE8F08F20680069E1
:10195000616A0870606A401C6062218D491E2185A1
:10196000618D491E618521684A69D24352070AD4B4
:1019700009690170606A401C6062208D401E2085EC
:10198000608D401E6085208D002883D1202084F842
:101990003D0084F83E6084F83C600020D3E70220DC
:1019A000D1E70000020010000000FFFF040001006A
:1019B0002DE9FF4F83B09A46DDE91197934604461F
:1019C000DDF84080FFF724FE054694F83D0020280E
:1019D0007FD11923012240492046009501F034FDB2
:1019E000002876D194F83C00012872D0012084F8B8
:1019F0003C0020680168C90703D1016841F001017A
:101A000001602068016821F400610160212084F8F0
:101A10003D00402084F83E0000262664C4F824805F
:101A2000A4F82A90608D20852C48E062CDE90075ED
:101A300053465A462046049901F096FC70B930E0AE
:101A40002A463946204601F0B1FD58B1206C0428E1
:101A500004D12068016841F400710160012007B0E1
:101A6000BDE8F08F606A216800780861606A401CF8
:101A70006062218D491E89B22185628D521E628568
:101A800022685369DB435B070BD469B100781061AE
:101A9000606A401C6062208D401E2085608D401E63
:101AA0006085208D0028CBD12A463946204601F09A
:101AB000A5FC0028CAD154F83D0B016841F400711F
:101AC0000160202004F81E09E67766770020C6E74B
:101AD000FFE70220C3E70000020010000000FFFF44
:101AE00010B586B000210091019102910391006828
:101AF000104988421BD1104CA06940F00800A06139
:101B0000A069694600F0080004904FF4406000901E
:101B100012200190032003900848FFF773FCE0694E
:101B200040F48000E061E06900F48000049006B0B9
:101B300010BD00000058004000100240000C0140A1
:101B40000248816802781144816070470C000020CF
:101B5000074810B5016841F010010160032000F052
:101B60008FF8002000F006F800F03EF8002010BDCD
:101B70000020024000B5014687B00022372000F067
:101B80005FF8372000F04EF81348C16941F020019A
:101B9000C161C06905A900F020000690684600F008
:101BA0008DF900F0ABF90D494000B0FBF1F10D48A3
:101BB0000B4A491E0260416040F2E7320021C0E951
:101BC0000321816000F090FE10B1012007B000BD3C
:101BD000044800F0A5FEF9E70010024040420F0063
:101BE00000140040E80300200C4808B5816941F06A
:101BF00001018161816901F001010091C16941F038
:101C00008051C161C06900F0805000900448416873
:101C100021F0E06141F00071416008BD0010024018
:101C200000000140002809DB00F01F020121914063
:101C30004009800000F1E020C0F80011704700006A
:101C4000F0B40E4B1B680C46C3F30223C3F1070527
:101C5000042D00D90425191D072901D2002300E015
:101C6000DB1E012606FA05F1491E214099409E40DF
:101C7000761E16403143F0BC02F063BB0CED00E071
:101C8000064900F0070208684FF6FF03184040EAD3
:101C90000220034A10430860704700000CED00E08A
:101CA0000000FA052DE9F84305460078354CC007D9
:101CB00054D0E0690026C00008D4E06940F08050AC
:101CC000E061E069012600F0805000902E48016834
:101CD000C90512D40168804641F480710160FFF7A4
:101CE00097FC074605E000BFFFF792FCC01B642885
:101CF00023D8D8F80000C005F6D5206A10F440704B
:101D000021D0A98801F4407181421CD0206A1F496A
:101D1000012220F440700A6000220A602062C0079D
:101D200011D0FFF775FC074641F2883808E000BF84
:101D3000FFF76EFCC11B414502D90320BDE8F883C3
:101D4000206A8007F4D5206A696820F4407008434F
:101D500020621EB1E06920F08050E06128788007A1
:101D600005D56068A96820F4404008436060287881
:101D7000C00605D56068696920F48000084360608A
:101D80000020DBE7001002400070004040044242A7
:101D90002DE9F0470F46050061D0434E306800F052
:101DA0000700B84209D2306820F00700384330609D
:101DB000306800F00700B84251D128683B4C8107D9
:101DC00012D5400703D5606840F4E0606060287871
:101DD000000703D5606840F4605060606068A968DF
:101DE00020F0F000084360602878C00728D06868B9
:101DF000012810D02168022810D0890700292EDA86
:101E0000616821F0030101436160FFF701FC804636
:101E100041F288390DE021688903EFE78901EDE798
:101E2000FFF7F6FBA0EB0801494502D90320BDE806
:101E3000F0876068696800F00C00B0EB810FEFD1AB
:101E4000306800F00700B8420BD9306820F0070076
:101E500038433060306800F00700B84201D00120FC
:101E6000E5E72878400705D56068E96820F4E06078
:101E7000084360602878000706D56068296920F467
:101E8000605040EAC100606000F058F86168084A9C
:101E9000C1F30311515CC840064908600648006858
:101EA000FFF768FE0020C2E7002002400010024059
:101EB000EC79000818000020100000200F220260BA
:101EC0000C4A536803F003034360536803F0F003C4
:101ED0008360536803F4E063C36052684FF4E063C7
:101EE00003EAD20202610448006800F007000860BB
:101EF00070470000001002400020024004480549DD
:101F000000684968044AC1F30221515CC840704727
:101F10001800002000100240FC7900080448054920
:101F200000684968044AC1F3C221515CC840704747
:101F30001800002000100240FC79000812A185B0B2
:101F40000FC98DE80F0014A0144A0068049051686E
:101F5000134801F00C03042B10D0082B0ED1C1F351
:101F60008343C9031DF803000AD5516804AAC1F3CD
:101F70004041515C0A4A5043B0FBF1F005B0704754
:101F800008494843FAE70000020304050607080968
:101F90000A0B0C0D0E0F1010010200000010024081
:101FA00000127A0000093D002DE9F84F040070D0BE
:101FB0002078C04DC00749D06868C0F3810001286F
:101FC00007D06868C0F38100022809D16868C0039F
:101FD00006D52868800339D560680028E7D035E049
:101FE0006068B0F5803F0BD010B1B0F5A02F11D0D4
:101FF000286820F480302860286820F4802002E0DF
:10200000286840F480302860606890B1FFF700FBDA
:1020100006460AE0286840F480202860F0E700BF08
:10202000FFF7F6FA801B642873D828688003F7D579
:102030000CE0FFF7EDFA064605E000BFFFF7E8FA0F
:10204000801B6428F0D828688003F7D420789A4E43
:1020500080074FF001094FF0000839D5686810F08B
:102060000C0F07D06868C0F38100022809D16868A6
:10207000C00306D42868800714D52069012808D138
:1020800010E02069B0B1C6F80090FFF7C1FA07462A
:1020900005E00AE1FFF7BCFAC01B0228C4D8286893
:1020A0008007F7D52868616920F0F80040EAC10090
:1020B00028600DE0C6F80080FFF7AAFA074604E0A2
:1020C000FFF7A6FAC01B022823D828688007F7D498
:1020D000207800072CD57948A169D9B1C0F80090C3
:1020E000FFF796FA074604E0FFF792FAC01B0228B2
:1020F0000FD8686A8007F7D571484FF4FA51006825
:10210000B0FBF1F0009000BF0098411E0091FAD2A0
:102110000EE080E0C0F80080FFF77AFA074604E09E
:10212000FFF776FAC01B022875D8686A8007F7D4D3
:102130002078400760D5E8690027C00008D4E86926
:1021400040F08050E861E869012700F0805000907D
:102150005C480168C90513D40168834641F4807165
:102160000160FFF755FA824606E000BFFFF750FA1C
:10217000A0EB0A0064284ED8DBF80000C005F5D5B6
:10218000E06801280AD008B1052813D0286A20F099
:1021900001002862286A20F0040002E0286A40F06A
:1021A00001002862E06841F2883B98B1FFF730FAFD
:1021B00082460BE0286A40F004002862EEE700BF88
:1021C000FFF726FAA0EB0A0159455AD8286A80077A
:1021D000F6D50CE0FFF71CFA824605E0FFF718FA87
:1021E000A0EB0A0159454CD8286A8007F6D41FB1E4
:1021F000E86920F08050E861E06988B36968C1F35C
:102200008101022944D00228C6F8608004D0FFF77B
:10221000FFF9044638E034E0FFF7FAF9074604E036
:10222000FFF7F6F9C01B02282BD828688001F7D4E5
:10223000206AB0F5803F05D16868A16820F40030BD
:1022400008436860D4E908010843696821F47411FF
:1022500008436860C6F86090FFF7DAF9044606E0C4
:1022600025E000BFFFF7D4F9001B022809D8286831
:102270008001F7D51BE000BFFFF7CAF9001B022859
:1022800002D90320BDE8F88F28688001F4D40EE05D
:102290000128F7D06868226A00F48031914204D1A5
:1022A000616A00F47010884201D00120EAE7002042
:1022B000E8E7000000100240000042428004424271
:1022C000180000200070004070B5040005D0002503
:1022D000A56294F8510010B106E0012070BD84F8A9
:1022E0005050204600F02EF8022084F8510020685B
:1022F000016821F040010160D4E901010843D4E9FB
:1023000003121143084361690843218B01F40071F2
:102310000843E1690843216A0843A16A0843216828
:102320000860A069042101EA104021684860206823
:10233000C16921F40061C1616565012084F8510023
:10234000002070BD70B586B0002400940194029402
:1023500003942B4E03682B49022003222A4DB342DB
:1023600028D18B6943F480538B618B6903F48053CC
:1023700004938B6943F008038B618969039201F030
:10238000080104912821CDE9001069462846FFF78D
:1023900039F81020CDE90004694628460294FFF779
:1023A00031F81A48416841F0E06141F001014160B3
:1023B00006B070BD164EB342FAD1CB6943F48043E8
:1023C000CB61CB6903F4804304938B6943F008032A
:1023D0008B618969039201F0080104914FF4204157
:1023E000CDE9001069462846FFF70CF83014CDE916
:1023F0000004694628460294FFF704F8D8E7000075
:102400000030014000100240000C0140000001407B
:10241000003800402DE9F84F0446406800259846F2
:1024200016460F464FF0040BB0F5827F01D1A0682D
:1024300088B194F85000012818D0012084F8500089
:10244000FFF7E6F8814694F851004FF0000A0128A2
:102450000ED002257DE084F851B013460A4620468E
:10246000CDF8008000F02CF9BDE8F88F0220FBE7E2
:10247000002F6DD0002E6BD084F851B0C4F854A05A
:10248000A763A687E687C4F830A0A4F834A0A4F810
:1024900036A0C4F840A0C4F844A0A068B0F5004F2E
:1024A00004D12068016821F480410160206801683E
:1024B000490603D4016841F040010160E068D8B1E9
:1024C00039E020688168C90709D0007BA16B0870DA
:1024D000A06B401CA063E08F401EE0870CE0FFF77C
:1024E00097F8A0EB0901414503D3B8F1FF3F03D0B2
:1024F00036E0B8F1000F33D0E08F0028E1D11DE0C5
:1025000020688168C90709D0C068A16B0880A06BEA
:10251000801CA063E08F401EE0870CE0FFF778F896
:10252000A0EB0901414503D3B8F1FF3F03D017E009
:10253000B8F1000F14D0E08F0028E1D14A4641469F
:10254000204601F055FA08B120206065606D00B1A9
:102550000125012084F8510084F850A0284683E723
:102560000325F6E72DE9F84F044690F850000027C0
:102570001D461646894601280DD04FF0010B84F800
:1025800050B0FFF745F8804694F85100BA4601284C
:1025900004D002278EE00220BDE8F88FB9F1000FC9
:1025A0007DD0002E7BD0032084F85100C4F854A0C5
:1025B000C4F83090A686E686C4F838A0A4F83CA0FB
:1025C000A4F83EA0C4F844A0C4F840A0A068B0F5A8
:1025D000004F04D12068016841F480410160206807
:1025E0000168490603D4016841F040010160E068D8
:1025F000B0F5006F606803D030B3012E24D040E006
:1026000008B1012E1CD1206B21680088C86006E04B
:1026100020688168890709D5216B0988C160206B12
:10262000801C2063E08E401EE08609E0FEF7F0FF8C
:10263000A0EB0800A84202D3681C01D031E07DB3B2
:10264000E08E0028E4D11FE0206B21680078087339
:1026500006E020688168890709D5216B0978017334
:10266000206B401C2063E08E401EE08609E0FEF7F0
:10267000CFFFA0EB0800A84202D3681C01D010E0F5
:1026800075B1E08E0028E4D142462946204601F08B
:10269000DDF908B120206065A06820B107E008E0FE
:1026A000FFE7032706E02068C16880680090606D3E
:1026B00000B1012784F851B084F850A038466BE788
:1026C0002DE9F84F044690F8500000270A9E1D4659
:1026D00092468B464FF0010901280ED0012084F864
:1026E0005000FEF795FF804694F85100616801287C
:1026F0000CD0B1F5827F07D102E00220BDE8F88F4F
:10270000A16809B9042801D00227C2E0BBF1000F7B
:1027100027D0BAF1000F24D01DB394F8510004283B
:1027200002D0052084F8510000206065C4F838A06C
:10273000E587A587C4F830B0E586A5862064606487
:1027400020680168490603D4016841F04001016036
:10275000E068B0F5006F606805D0E8B3012D46D0A1
:102760007FE0012795E008B1012D39D1206B216868
:102770000088C860206B801C2063E08E401EE086CD
:102780002EE02068816889070FD5E18E69B1B9F123
:10279000010F0AD1216B0988C160206B801C206366
:1027A000E08E401EE0864FF0000920688168C9076E
:1027B0000CD0E18F51B1C068A16B0880A06B801C68
:1027C000A063E08F401EE0874FF00109FEF720FF75
:1027D000A0EB0800B04200E009E001D3701C50D12A
:1027E000E08E0028CDD1E08F0028CAD13FE0206BD9
:1027F000216800780873206B401C2063E08E401E27
:10280000E0862EE02068816889070FD5E18E69B1E6
:10281000B9F1010F0AD1216B09780173206B401CBB
:102820002063E08E401EE0864FF00009206881683A
:10283000C9070CD0E18F51B1C068A16B0870A06BC3
:10284000401CA063E08F401EE0874FF00109FEF7B7
:10285000DFFEA0EB0800B04202D3701C01D010E0F4
:102860007EB1E08E0028CDD1E08F0028CAD142464B
:102870003146204601F0EAF828B1012720206065A2
:1028800007E0032705E0A06818B92068C1688068E0
:102890000090012084F85100002084F85000384650
:1028A0002CE77047704770B590F83C20012A19D08A
:1028B000012400F83C4F0222427050F83C3C5A6818
:1028C0009D6822F070060A684968324325F0800549
:1028D00029435A6050F83C2C9160447000210170EB
:1028E000084670BD022070BD10B5040003D094F8F6
:1028F0003D0010B107E0012010BD002084F83C002D
:10290000204600F00CF8022084F83D00211D2068CC
:1029100001F0C0F9012084F83D00002010BD70478F
:102920000168CA6842F00102CA600068816801F06B
:102930000701062903D0016841F001010160002070
:102940007047704770B50446006801694FF0000594
:10295000C943890715D4C168C943890711D4E91E41
:10296000016101202077206880698007204602D01D
:10297000FFF7E7FF04E000F0C9F8204600F05EF939
:10298000257720680169C943490717D4C168C9433D
:10299000490713D46FF004010161022020772068F9
:1029A000806910F4407F204602D0FFF7CAFF04E0A0
:1029B00000F0ACF8204600F041F925772068016965
:1029C000C943090716D4C168C943090712D46FF077
:1029D00008010161042020772068C0698007204633
:1029E00002D0FFF7AEFF04E000F090F8204600F0C0
:1029F00025F9257720680169C943C90617D4C1683C
:102A0000C943C90613D46FF0100101610820207773
:102A10002068C06910F4407F204602D0FFF791FF84
:102A200004E000F073F8204600F008F925772068EC
:102A30000169C943C90708D1C168C943C90704D19D
:102A4000891E0161204600F01DF920680169C94313
:102A5000090609D4C168C943090605D46FF080018D
:102A600001612046FFF71DFF20680169C94349063F
:102A700009D4C168C943490605D46FF0400101611A
:102A8000204600F009F920680169C94389060BD482
:102A9000C168C943890607D46FF02001016120464F
:102AA000BDE87040FFF7FEBE70BD000000B585B008
:102AB0000021009101910291039100680F49884221
:102AC0001AD10F48816941F010018161806969461E
:102AD00000F010000490402000900220019003902C
:102AE0000848FEF78FFC0848416821F4406141F036
:102AF000E06141F44061416005B000BD0004004068
:102B0000001002400010014000000140704770B505
:102B1000044690F83C000D4601280DD0012684F8AB
:102B20003C60022084F83D0042B1042A18D0082AF3
:102B30002AD00C2A4DD139E0022070BD206801F066
:102B4000FDF82068816941F0080181612068816990
:102B500021F004018161206881692A69114311E033
:102B6000206801F01BF92068816941F400618161EE
:102B70002068816921F480618161206881692A6906
:102B800041EA0221816124E0206801F03DF92068DA
:102B9000C16941F00801C1612068C16921F00401E7
:102BA000C1612068C1692A69114311E0206801F000
:102BB0005FF92068C16941F40061C1612068C169A1
:102BC00021F48061C1612068C1692A6941EA02215A
:102BD000C16184F83D60002084F83C0070BD10B5F0
:102BE000040003D094F83D0010B107E0012010BDAF
:102BF000002084F83C00204600F00CF8022084F805
:102C00003D00211D206801F045F8012084F83D00B9
:102C1000002010BD08B500680649884208D1064862
:102C2000C16941F00201C161C06900F00200009079
:102C300008BD000000040040001002407047000082
:102C400010B504460068012201F06AF80B492068BB
:102C5000884202D00A49884203D1416C41F40041C4
:102C600041642068816801F00701062903D00168EA
:102C700041F001010160002010BD0000002C014066
:102C80000034014000680349884201D1FEF758BF73
:102C90007047000000140040704710B504460068FB
:102CA000416994F83920C1F3C011212A0BD151B1E7
:102CB000416921F080014161206B08B1FEF74CF9B8
:102CC000204601F083F92068416994F83A20C1F365
:102CD0008011222A0BD151B1416921F0400141619B
:102CE000606B08B1FEF738F9204601F061F9002069
:102CF00010BD704770B5026804461068D16853690A
:102D000010F00F0F51D003F0010501F49076354318
:102D10005DD0C20705D0CA0503D5E26B42F00102BF
:102D2000E263420705D5DA0703D0E26B42F0020204
:102D3000E263820705D5DA0703D0E26B42F00402B2
:102D4000E263020705D5DA0703D0E26B42F008021E
:102D5000E263E26B002A34D0800604D5880602D5EF
:102D6000204601F0FBF920684069E16BC0F3801058
:102D700001F008010143204624D001F019F9206830
:102D8000416949061AD5416921F040014161606BF2
:102D9000A0B11B494163606BFEF702F9002810D017
:102DA000606B416BBDE87040084783060FD58B060A
:102DB0000DD52046BDE8704001F0D0B92046FFF7A0
:102DC00098FF70BDFFF795FF0020E06370BD03061C
:102DD00006D50B0604D52046BDE8704001F066BA62
:102DE0004006F3D54806F1D5D168204621F04001D0
:102DF000D160202184F8391000F028FA70BD00005D
:102E0000D93E000870B5040004D094F839000025BC
:102E100010B106E0012070BD84F83850204600F063
:102E200023F8242084F839002068C16821F4005177
:102E3000C160204601F0DEF92068016921F490416B
:102E400001612068416921F02A0141612068C1685F
:102E500041F40051C160E563202084F8390084F812
:102E60003A00002070BD00002DE9F04F85B000252C
:102E700000950195029503950446DFF870C203683A
:102E80009B4802210322012780264FF4806A4FF0DD
:102E9000100963454BD1C36943F40023C361C3697F
:102EA00003F400230493836943F010038361806972
:102EB000CDE900A100F01000CDE90320DFF8348255
:102EC00069464046FEF79EFA30018DE8A10069464A
:102ED0004046FEF797FA894F8748C7E90005C7E9DA
:102EE00002563D617D61BD613846FD61FEF714FA11
:102EF00008B1FDF7F3FE67637C62814F7E48C7E946
:102F000002563D617D61BD612830FD61C7E9000960
:102F10003846FEF701FA08B1FDF7E0FE276300220C
:102F2000114634207C62FEF78BFE342051E0DFF83E
:102F3000D4C1DFF8D4814FF4007B63454ED183695F
:102F400043F480438361836903F48043049383697A
:102F500043F0040383618069CDE900B100F004000F
:102F6000CDE9032069464046FEF74CFACDF800A0B3
:102F7000CDE9015769464046FEF744FA644F63487D
:102F8000C7E902563D617D61BD61FD61C7E9000988
:102F90003846FEF7C1F908B1FDF7A0FE27637C6251
:102FA0005A485C4F1430C7E90005C7E902563D6135
:102FB0007D61BD613846FD61FEF7AEF908B1FDF7F0
:102FC0008DFE67630022114625207C62FEF738FEE5
:102FD0002520FEF727FE05B0BDE8F08FDFF838C1E9
:102FE000634525D1C36943F40033C361C36903F466
:102FF00000330493836943F004038361806903927F
:1030000000F0040004900420CDE900016946404628
:10301000FEF7F8F908208DE8A10069464046FEF762
:10302000F1F9002211462620FEF70AFE2620D0E7FD
:10303000DFF8E8C06345CED1C36943F48023C361A0
:10304000C36903F480230493836943F020038361FD
:103050008069DFF8CC8000F0200004904FF480708D
:10306000CDE90001039269464046FEF7CBF9CDF861
:1030700000B0CDE9015769464046FEF7C3F929483B
:10308000416821F0300141F0E06141F030014160E0
:103090001E48254F1438C7E90005C7E902563D61AF
:1030A0007D61BD613846FD61FEF736F908B1FDF777
:1030B00015FE67637C621D4F1448C7E902563D61E7
:1030C0007D61BD612838FD61C7E900093846FEF71A
:1030D00023F908B1FDF702FE2763002211462720DD
:1030E0007C62FEF7ADFD272073E70000004C004036
:1030F00000100240001001403004024014B80020CB
:10310000E0B80020003801400008014044000240BF
:1031100024B9002058B80020004400400048004076
:1031200000140140000001409CB8002068B9002054
:10313000F8B5044690F83A0020283CD1C1B3BAB3A0
:1031400094F83800012836D0012084F83800A162B4
:10315000A2850025E563222084F83A00636B1748B6
:103160009862636B1648D862636B16481863606B8D
:10317000134645630846666B216802463046091DC2
:10318000FEF708F9206801684168009184F838501A
:10319000C16841F48071C1602068416941F001015A
:1031A00041612068416941F0400141610020F8BD62
:1031B000FFE70120FBE70220F9E70000333F0008AA
:1031C0006F3F0008E93E00087047704770B504463D
:1031D00090F83900202830D169B362B394F83800F0
:1031E00001282AD0012084F838002162A284E284D8
:1031F0000025E563212084F83900236B104898628C
:10320000236B1048D862236B0F481863206B13465A
:1032100045632668206B321DFEF7BCF821686FF00D
:103220004000086084F838502068416941F080010E
:103230004161002070BD012070BD022070BD000002
:10324000793F0008A73F0008E93E00087047704733
:10325000FEE701684A69D24352050FD46FF48062D9
:103260004A61002140F8301F2022427381730269B5
:1032700042F0040202610173012070470020704790
:103280002DE9F84F0446006889460B9D0168984671
:10329000174641F4806101602068016841F4807143
:1032A000016000954FF0011A0022514620460A9B0A
:1032B00000F0CAF8002853D1216809F0FE00086127
:1032C0000AF1010B2B46594620460A9A00F0F0F805
:1032D000F0BB20684169806900902A4620460A991F
:1032E00000F064F940B1206C042839D120680168ED
:1032F00041F40071016033E0FEB2B8F1010F09D072
:103300002168380A08612A4620460A9900F04EF9D9
:103310000028E8D1206806612A4620460A9900F074
:1033200045F90028DFD12068016841F4807101600F
:1033300000950022514620460A9B00F085F838B9D6
:10334000216809F0FF0040F0010008612B4600E011
:1033500006E0594620460A9A00F0AAF8002800D054
:103360000120BDE8F88F00002DE9F843044600680D
:103370000D46DDE9089701689846164641F48071CC
:1033800001604B4600224FF001112046009700F0EB
:103390005BF8E0B9216805F0FE0008613B464A464B
:1033A0001549204600F084F888B920684169806991
:1033B00000903A464946204600F0F8F850B1206C9B
:1033C000042804D12068016841F4007101600120E3
:1033D000BDE8F883F5B2B8F1010F09D02168300AD1
:1033E00008613A464946204600F0E0F80028E6D158
:1033F000206805610020EBE70200010070B5164669
:103400000D4604460DE02046FFF723FF08B10120DA
:1034100070BD681C05D0FEF7FBF8801BA84207D8DA
:1034200035B120684069C0434007ECD4002070BD2E
:10343000002044F8300F20216173A073216941F00E
:10344000200121612073E2E72DE9F0471E469046F6
:103450000D460446C1F30747DDF8209008E0701CD4
:1034600006D0FEF7D5F8A0EB0900B0420FD876B130
:103470002068012F18D0806925EA00000004000CA4
:1034800014D000214145EAD00020BDE8F08700209B
:1034900044F8300F20216173A073216941F02001AD
:1034A000216120730120F0E74069E5E70121E9E7A8
:1034B0002DE9F0479A4691460E46044600254FF006
:1034C0002008C1F3074725E020684069C043400554
:1034D00014D42068016841F40071016021686FF420
:1034E00080604861256384F83D8084F83E50206CFC
:1034F00040F00400206484F83C501FE0B9F1FF3F25
:1035000008D0FEF785F8A0EB0A0149450CD8B9F1BF
:10351000000F09D02068012F13D0806926EA00002F
:103520000004000C0BD0CFE744F8305F84F80D8026
:10353000A573206940F02000206125730120BDE8BB
:10354000F0874069EAE72DE9F041002590460E46F4
:103550000446202717E04069C043C0060CD454F845
:10356000301B6FF01000486144F810596777A57759
:10357000206A2062257717E0FEF74AF8A0EB0800E2
:10358000B04208D83EB120684169C9434906E2D437
:103590000020BDE8F08144F8305F6773A5732069AF
:1035A00040F02000206125730120F2E770B5164637
:1035B0000D4604460DE02046FFF74BFE08B1012002
:1035C00070BD681C05D0FEF723F8801BA84207D801
:1035D00035B120684069C0430006ECD4002070BDBE
:1035E000002044F8300F20216173A073216941F05D
:1035F000200121612073E2E73EB500240D480094CC
:10360000019402940A4984600160047304750125E1
:1036100005614FF460214460C161FDF7DFFBCDE936
:103620000045694603480294FDF75AFB3EBD000081
:103630000024014034020020214808B5416941F0CE
:1036400001014161416901F001010091416941F0CD
:10365000020141614069002200F002000090114621
:103660000C20FEF7EDFA0C20FEF7DCFA00221146E2
:103670000D20FEF7E5FA0D20FEF7D4FA00221146E0
:103680000E20FEF7DDFA0E20FEF7CCFA00221146DE
:103690000F20FEF7D5FA0F20FEF7C4FA00221146DC
:1036A0003A20FEF7CDFA3A20FEF7BCFA0022114686
:1036B0003B20FEF7C5FABDE808403B20FEF7B2BA52
:1036C000001002402DE9F04F85B0002558480095C4
:1036D000019502950395816941F0400181618169FD
:1036E00001F040010491816941F01001816181691B
:1036F00001F010010491816941F004018161816947
:1037000001F004010491816941F00801816181693E
:1037100001F008010491816941F020018161806913
:10372000DFF810B100F02000049001224FF4D871AE
:103730005846FDF768FFDFF8009140F2033601229A
:1037400031464846FDF75FFF0122D70339463B4823
:10375000FDF759FFDFF8E8A04CF2200801224146AE
:103760005046FDF750FF01224FF401413548FDF767
:103770004AFF44F27D00CDE9000501246946029428
:103780002E48FDF73FFE4EF20720CDE900056946C1
:1037900002945846FDF736FE3020CDE9000402942D
:1037A000694658460394FDF72DFECDE90064029466
:1037B000694648460394FDF725FE11260097CDE99A
:1037C000016469461D480394FDF71CFE4FF47050D8
:1037D000CDE90005694602945046FDF713FECDF889
:1037E0000080CDE90164694650460394FDF70AFE66
:1037F0004FF4C0700090CDE90164694658460394C7
:10380000FDF700FE20020090CDE9016469460D48F5
:103810000394FDF7F7FD0320CDE90240CDE90074E4
:1038200069460848FDF7EEFD05B0BDE8F08F0000E1
:103830000010024000100140000C0140001801403F
:1038400000140140000801400C480B4901220160AE
:103850004FF48271416000218160C160C0E90412AF
:10386000520282613822C0E90721416281620A2145
:10387000C162FEF729BD000000300140B8020020FF
:103880000C480B494FF4007201604FF482714160A3
:1038900000218160C1600161C0E905123822C0E9E0
:1038A0000721416281620A21C162FEF70DBD00005D
:1038B000003800401003002010B58AB0002407949F
:1038C0001C2168460894FCF7C4FC11480F49C0E964
:1038D00000144FF6FF71C0E9024104618461FFF7F3
:1038E0007EF9079407A90A480894FEF7DCFF6020D8
:1038F000CDE9000402940022694605480494FFF7CC
:1039000006F90348FFF7D2F80AB010BD00040040E2
:103910006803002010B50F4C0D480C2120604FF4B7
:10392000165060600020A060E060C4E90401A0615E
:10393000E0612046FFF766FA2068C16841F0100197
:10394000C1602046BDE81040FF220349FFF7F0BBED
:10395000004C004054B7002057B2002010B50F4C67
:103960000D480C2120604FF4165060600020A060CC
:10397000E060C4E90401A061E0612046FFF742FA7B
:103980002068C16841F01001C1602046BDE81040C8
:10399000FF220349FFF7CCBB0038014094B7002059
:1039A0005BAE002010B50F4C0D480C2120604FF489
:1039B000165060600020A060E060C4E90401A061CE
:1039C000E0612046FFF71EFA2068C16841F010014F
:1039D000C1602046BDE81040FF220349FFF7A8BBA5
:1039E00000480040D4B7002059B00020FEE77047DF
:1039F000F8B5044640684FF48273984217D1A06826
:103A00004FF48065B0F5004F01D0A8420FD1206877
:103A1000066826F0400606606068984207D1A068F4
:103A2000A84204D100920B460022012103E000923B
:103A30000B4600228021204600F018F8002804D010
:103A4000606D40F0200060650320F8BD38B50B467E
:103A5000009204460022802100F008F8002804D0DB
:103A6000606D40F020006065032038BD2DE9F04115
:103A70001D4617460E460446DDF8188008E0681C0F
:103A800006D0FDF7C5FDA0EB0800A8420BD255B14A
:103A90002068806836EA000030D00020B842EED1BD
:103AA0000020BDE8F0812068416821F0E00141601C
:103AB0006068B0F5827F0BD1A068B0F5004F02D0EE
:103AC000B0F5806F04D12068016821F040010160E9
:103AD000A06AB0F5005F09D12068016821F40051A7
:103AE00001602068016841F400510160012084F800
:103AF0005100002084F850000320D2E70120CDE7D8
:103B000002F020FA094C40F2DE3500222021204646
:103B1000FDF779FD0A2001F001FB0122202120465A
:103B2000FDF771FD284601F0F9FAEEE700140140B7
:103B30004FF47A74204601F0F1FAFBE710B55020FB
:103B400080F31188BFF34F8FBFF36F8F03F02AFD0F
:103B500018B104494FF080500860002080F31188AC
:103B600010BD000004ED00E030B595B02821684696
:103B7000FCF76FFB14210AA8FCF76BFB18210FA8B8
:103B8000FCF767FB022401200490009410200590AC
:103B900000254FF46010CDE9085007946846FEF701
:103BA00003FA0AA90F2081E831006002CDE90D0572
:103BB00002210AA8FEF7ECF84FF4404011900F9450
:103BC0000FA8FEF76FF815B030BD00000D48016872
:103BD00041F00101016041680B4A114041600168F8
:103BE0000A4A11400160016821F4802101604168A6
:103BF00021F4FE0141604FF41F0181600449C003BC
:103C000008607047001002400000FFF8FFFFF6FE5A
:103C100008ED00E02DE9F0410E46184D1749083532
:103C200038B3174A1368B3FBF0F2120C521C92B26D
:103C3000B3FBF2F3B3FBF0F080B2401E0860081F44
:103C4000521E02600868401CFCF767FD07460C46E0
:103C50003046FCF762FD00220A4BFCF7D3FC3A46E3
:103C60002346FCF75DFCFCF765FD80B22860BDE8EB
:103C7000F0814FF6FF7008600020F7E72C04004049
:103C800018000020000059400148FEF75BBE00000C
:103C9000E8030020F0B502681C4B1D4D1D4E1E4F61
:103CA0001E4C4FF0804C984209D0A04207D060458E
:103CB00005D0A84203D0B04201D0B84204D122F0CE
:103CC000700E4A6842EA0E02984209D0A04207D01C
:103CD000604505D0A84203D0B04201D0B84203D11C
:103CE00022F44075CA682A434D6922F080022A43B3
:103CF00002608A68C2620A688262984201D0A04269
:103D000001D10969016301214161F0BD002C01402D
:103D10000004004000080040000C00400034014056
:103D200010B501F01F030121046A99408C4304621D
:103D3000016A9A401143016210BD0000F0B5026AA9
:103D400022F001020262036A42688469124E24F082
:103D500073050C682C4323F002058B682B430D4D33
:103D6000A84201D0B04205D123F00807CB683B43FD
:103D700023F00403A84201D0B04205D14D6922F4DA
:103D8000407215438A692A434260846149684163ED
:103D90000362F0BD002C014000340140F0B5026A1E
:103DA00022F010020262026A436884690D6824F4FA
:103DB000E64444EA05248D6822F0200242EA051216
:103DC0000F4D104EA84201D0B04206D1CF6822F06C
:103DD000800242EA071222F04002A84201D0B0421B
:103DE00007D14D6923F4406343EA85038D6943EAB3
:103DF000850343608461496881630262F0BD00000D
:103E0000002C014000340140F0B5026A22F48072B7
:103E10000262026A4368C46922F4007224F07305E6
:103E20000C68124E2C438D6842EA05220E4DA842C2
:103E300001D0B04206D1CF6822F4006242EA0722E4
:103E400022F48062A84201D0B04207D14D6923F428
:103E5000405343EA05138D6943EA05134360C46187
:103E60004968C1630262F0BD002C0140003401408A
:103E700030B5026A22F480520262046A4268C36961
:103E80000D6823F4E64343EA05238D6824F40054C7
:103E900044EA0534084DA84202D0084DA84204D196
:103EA0004D6922F4804242EA85124260C36149684A
:103EB0000164046230BD0000002C01400034014068
:103EC00010B50448FEF716FFBDE81040014800F0A9
:103ED00087B8000054B7002010B5406A0021C185A2
:103EE000C184FEF706FF10BD70B5446A20684069C2
:103EF00094F83910C0F3C0100025212904D118B15D
:103F0000E584204600F062F82068406994F83A1091
:103F1000C0F38010222904D118B1E585204600F0B5
:103F200047F8E06B40F01000E0632046FEF7E1FE4A
:103F300070BD10B50146406A09680968890613D446
:103F40000021C1850168CA6822F48072CA600168D4
:103F50004A6922F001024A6101684A6922F040027E
:103F60004A61202180F83A10FFF72EF910BD10B5F4
:103F7000406AFFF72AF910BD10B50146406A09688A
:103F8000096889060CD40021C18401684A6922F0BD
:103F900080024A610068C16841F04001C16010BD03
:103FA000FFF754F910BD10B5406AFFF750F910BD86
:103FB0000168CA6822F49072CA6001684A6922F0F6
:103FC00001024A61202180F83A1070470168CA68EE
:103FD00022F0C002CA60202180F83910704700002A
:103FE00038B5016804460868C043C0067ED4086836
:103FF00048680090086848682046FEF74EFE4E4923
:1040000020684E4C88422AD14D4800684068C0F173
:10401000FF002070207801280DD9607858B94948F0
:10402000A178227808444749FF39FCF7F9F8A078CD
:1040300021780844A0704349FF22FF3901F6391066
:10404000FFF776F8FF214048FCF703F9A2783D49D5
:104050003D48FF39FCF7E4F821783B4835E03B491F
:10406000884236D13648443000684068C0F1FF00CD
:10407000E070E07801280DD9207958B93448617989
:10408000E27808442F49FF31FCF7CAF86079E178FB
:10409000084460712B49FF22FF3101F27B70FFF76A
:1040A00047F82948FF21FF30FCF7D3F8E27825498B
:1040B000FF3101F2FB40FCF7B3F82248FF21FF304B
:1040C000FCF7C7F8E1782048FF30BDE8384000F041
:1040D00087BA204988422DD1194844380068406881
:1040E000C0F1FF00A071A079012800E022E00ED904
:1040F000E07960B91448217AFF38A279084414495C
:10410000FF31FCF78DF8207AA1790844207210491C
:10411000FF22FF3101F2FD40FFF70AF8FF210E48B0
:10412000FCF797F8A279BDE8384009490A48FF3101
:10413000FCF776B838BD00000038014002020020CC
:1041400058B800205AAF002055B400200048004065
:1041500058B10020004C004053B6002010B590F834
:104160003A10222901D0022010BD8168B1F5805F8C
:1041700011D00169002901681FD0496801F07F034F
:10418000816A4A1C82620B70C18D491E0904090CA8
:10419000C18518D02BE00269816A002A0268526842
:1041A00005D0D2B20A80816A491C8162ECE7C2F371
:1041B00008020A80816A891CF7E74A68816A4B1CF9
:1041C00083620A70E0E70168CA6822F02002CA60D0
:1041D0000168CA6822F48072CA6001684A6922F0E4
:1041E00001024A61202180F83A10FEF7EDFF00201D
:1041F00010BD00002DE9F041044600680169E26845
:1042000021F44051114301612169A06808436169AB
:1042100008432168CA6841F20C639A430243CA60AA
:1042200020684169A26921F44071114341611E492E
:10423000206864253226884202D1FDF76FFE01E036
:10424000FDF75CFE00EBC00101EB001160686FF050
:1042500018078000B1FBF0F2B2FBF5F2B1FBF0F30E
:104260007A4303EB8202B1FBF0F306EB0212B2FBDE
:10427000F5F2B3FBF5F302F0F00202EB0312B1FB2F
:10428000F0F3B1FBF0F0B0FBF5F0784303EB800006
:1042900006EB0010B0FBF5F0216800F00F001044B1
:1042A0008860BDE8F08100000038014090F83910C6
:1042B000212901D0022070478168B1F5805F016A31
:1042C0000BD04A1C0262026809785160C18C491EF9
:1042D0000904090CC1840ED017E009880268C1F3F3
:1042E0000801516001690029016A02D0491C01627C
:1042F000ECE7891CFBE70168CA6822F08002CA600B
:104300000068C16841F04001C160002070470000B2
:104310000148FEF7EFBC000094B700200148FEF70B
:10432000E9BC0000A803002010B50448FEF7E2FC39
:10433000BDE810400148FFF753BE0000D4B700208D
:10434000FEE70907090E002804DB00F1E02080F8F1
:104350000014704700F00F0000F1E02080F8141DF9
:10436000704702E008C8121F08C1002AFAD170473E
:104370007047002001E001C1121F002AFBD17047E5
:1043800000F00F01000900EB800001EB4000C0B21B
:104390007047000070B590B00E46044615464021A7
:1043A0006846FBF756FF280A02238DF804008DF8B3
:1043B000003000208DF801308DF805008DF8026086
:1043C00001A88DF80330FF211954072269462046C1
:1043D000FBF726FF9DF8032021460348521DFEF7F8
:1043E000F5FE10B070BD000094B70020002836D054
:1043F000014411F8011CFF2931D1017801290BD0AA
:1044000002292CD181780A2929D2DFE801F0281568
:1044100017191B1D1F212325017906291FD2DFE84B
:1044200001F01E030507090900F0DCBD00F097B894
:1044300000F0A4B800F06CBC01F0DABC01F08ABC5A
:1044400001F094BC01F085BC01F082BC00F0D6BD47
:1044500000F086B800F070B90149007988707047A3
:104460001402002010B5064C2078002806D100F078
:10447000C5FF201D00F028F80120207010BD0000AD
:1044800010010020002000F0CDBF10B504463220FE
:1044900000F0C8FFA0B2BDE8104000F0BFBF0000B0
:1044A00003480068002801D00068004770470000FA
:1044B000F401002003490968002901D04968084730
:1044C00070470000F40100200149086070470000B7
:1044D000F401002001484088FFF7ECBF1C010020D8
:1044E00010B58CB00446684600F094F890B1059879
:1044F000A0800498401CA0710398E071029820707D
:10450000019860700098A0700698401C20720020EE
:104510000CB010BD0320FBE710B500F0C7F808B1E0
:10452000002010BD012010BD00B58BB08188059121
:104530008179491E0491C1790391017802914178F2
:10454000019181780091007A401E0690684600F043
:10455000B9F810B100200BB000BD0220FBE7704796
:104560000079012804D0FF2804D1002001F0EFBB1E
:104570000148FBE7704700000000C8427047000098
:1045800070B50446082817D80D4D0120287005F194
:10459000540030F8240081B205F1340050F82400B2
:1045A000FDF72CF807492870002851F8240002D0A4
:1045B000002802D002E008B1002070BD012070BDCB
:1045C00098000020FCAC00200A21B0FBF1F201FBB6
:1045D0001202B0FBF1F002EB0010C0B27047000015
:1045E00010B50A4C0848627812B1012A08D105E0DA
:1045F00007A1FBF739FE002804D001E0FFF7F6FE23
:104600000120207010BD000055B4002014020020CD
:104610006F6B00003EB5040041D00720009001AB55
:104620000022D121204800F0F7F8012836D19DF86A
:104630000400FFF7A5FE20609DF80500FFF7A0FE2F
:1046400060609DF8060041062BD500F01F00FFF7C3
:1046500097FE401EA0609DF80610890601D50C301B
:10466000A0609DF80700FFF78BFE401EA0619DF83B
:104670000800FFF785FEE0609DF8090000F01F00CC
:10468000FFF77EFE401E20619DF80A00FFF778FECE
:1046900000F5FA6060610020206201203EBD00202C
:1046A0003EBDFFF76DFEDBE7FC01002010B50349BE
:1046B000034800F027F9012010BD0000640200202B
:1046C000FC0100200EB5030032D01878FFF77CFF04
:1046D0008DF804001879FFF777FF8DF80500187A38
:1046E000FFF772FF8DF80600187E401CC0B2FFF77E
:1046F0006BFF8DF80700187BFFF766FF8DF8080049
:10470000187C401CC0B2FFF75FFF8DF80900187DD0
:10471000A0F5FA60C0B2FFF757FF8DF80A00072036
:10472000009001AB0022D021024800F0B1F80EBD8C
:1047300000200EBDFC01002000790649012805D0AB
:10474000FF2806D14A680021022010474A6801214B
:10475000FAE770478C8500080149024800F0D2B89A
:10476000640200201002002008B50E230092CAB295
:1047700003EAD111034641F0A101024800F04CF8D0
:1047800008BD00001002002008B50E230092CAB236
:1047900003EAD111034641F0A001024800F078F885
:1047A00008BD00001002002038B50546002000902A
:1047B0001448694682680020904708B1002038BD3F
:1047C00000980446B0F1814F01DA002014E0FBF7B5
:1047D000CAFF0D4A0D4BFBF7A3FE4FF033320C4BD3
:1047E000FBF798FEFBF7A6FF00EBC00101EB001002
:1047F0004FF6FF7101EA80002880064844600120DE
:1048000038BD0000D085000814AE47E17AD43240AC
:1048100033D35240A4BB00202DE9FE4F1A4D8146F0
:104820001A4EFF20DDF830A08B46002428701F466A
:104830009046611E306800F0C7FC10B1012028705E
:1048400004460220287032210097CDE901A108F02A
:10485000FF0201235946D9F80000FCF799FF10B177
:1048600003202870641C04202870306800F03EFD8E
:1048700010B105202870641C0620287014B1002097
:10488000BDE8FE8F0120FBE70002002004000020AD
:104890002DE9FE4F194E8B46814600241F46904657
:1048A000611EDDF830A0306800F08EFC144D10B1B0
:1048B0000120687004460220687032210097CDE91B
:1048C00001A108F0FF0201235946D9F80000FDF7C5
:1048D0006FF810B103206870641C042068703068A1
:1048E00000F004FD10B105206870641C062068709B
:1048F00014B10020BDE8FE8F0120FBE7040000207A
:104900000002002011B101600120704700207047B3
:1049100070B50024FCF72EF80646FCF7BFF80546F4
:1049200001210948FCF76AFE40B9FCF7C4F880B2DF
:10493000410700D50424C00700D00524AE4200D0B2
:104940000224204670BD0000001801401CB5002460
:10495000FCF73AF80090FCF793F80190022201A9C5
:104960006846FBF793FC00B1012420461CBD1CB532
:10497000FCF70EF80090FCF783F80190022201A9E1
:104980006846FBF783FC002800D003201CBD000014
:1049900010B501F089FA1048006880470F48006898
:1049A00080474FF47A7418B1204600F0B7FBFBE75C
:1049B0000B480068804718B1204600F0AFFBFBE7CA
:1049C0000848006880470848006880470748006832
:1049D000BDE8104000470000EC850008D0850008C5
:1049E000E08500088C850008B8850008C4850008AB
:1049F0002DE9F0410446082802D90020BDE8F081E5
:104A0000002502F0C9FD06462046FFF7B9FD124B0E
:104A1000124903F108021F5D874204D041F8246067
:104A20000027175501E0175D9FB951F82410711A3E
:104A30001E290ED90849012610310F5D20B1012F22
:104A400006D001250E5503E0022F01D002250D5599
:104A5000165518552846D1E7B10000203CAD00207E
:104A60002DE9F0410446082802D90020BDE8F08174
:104A700002F092FD05462046FFF782FD0F4B104ED7
:104A800003F108011F5D01F10802874204D046F8D6
:104A9000245000270F5501E00F5D5FB956F82460E0
:104AA000AD1B1E2D06D908B1032500E004251555C0
:104AB00001250D551855105DD8E70000990000201C
:104AC0001CAD00203EB50D4600218DF800108DF87C
:104AD0000410082814D2DFE800F00406080A0C0EBF
:104AE000101207200CE006200AE0052008E0042050
:104AF00006E0002004E0012002E0022000E00320A4
:104B0000441CE0B2694601F021FB90B99DF8000019
:104B100028B1E0B201A901F07BFB50B901E002200D
:104B20003EBD9DF8040030B1E0B202A901F0D4FA14
:104B300018B104203EBD03203EBD029801F0BAFC2E
:104B4000286000203EBD3EB50D4600218DF80010C6
:104B50008DF80410082814D2DFE800F00406080AD3
:104B60000C0E101207200CE006200AE0052008E0D9
:104B7000042006E0002004E0012002E0022000E022
:104B80000320441CE0B2694601F0E0FAA0B99DF8A8
:104B9000000028B1E0B201A901F03AFB60B901E0E0
:104BA00002203EBD9DF8040008B103203EBDE0B2E6
:104BB00002A901F091FA08B104203EBD029801F06B
:104BC00079FC286000203EBD10B501F0A9FB00284B
:104BD00000D0012010BD7CB50D4600218DF80010DD
:104BE0008DF80410082814D2DFE800F00406080A43
:104BF0000C0E101207200CE006200AE0052008E049
:104C0000042006E0002004E0012002E0022000E091
:104C10000320441CE0B2294601F02EFB68B9E0B243
:104C2000694601F0F5FA78B99DF80000854212D185
:104C3000E0B2012101F0B8FA08B105207CBDE0B274
:104C400001A901F083FA08B104207CBD9DF804009D
:104C500008B100207CBD03207CBD0000FCF778FF7C
:104C6000FEF782FFFEF72EFDFEF7E6FCFEF7C4FC22
:104C700020481F49002401601F49C0E901144FF476
:104C80008041C0E9034144618461C4610462FCF76E
:104C9000C5FCFEF73FFEFEF761FE194817490160AB
:104CA0004FF4E131C0E901140C21C460C0E90441B2
:104CB0008461C461FEF7A6F8FEF774FEFEF7FCFD02
:104CC000FEF7C2FDFEF7DCFD00F042FA01210D4ABD
:104CD000084600F0B3FA0C4C0A4A00216060243AFE
:104CE0000A4800F039FB206000F04EFAFEE70000B1
:104CF0000058004064020020A086010000440040EB
:104D0000A8030020B879000800000020013B00083B
:104D100010B580790B4C01280BD0FF2810D1012150
:104D200062680020904762680021BDE810400120C1
:104D30001047002162680846904701216268F4E745
:104D400010BD00008C8500082DE9F04108680D4673
:104D500002EB8001154C08894F89A169164611B1F3
:104D600001291DD01EE00021FE2810D0FF2815D0FB
:104D7000FFF7A0FB306845F6C0517843B1FBF0F077
:104D8000401EA0612868401C2860BDE8F0812960B1
:104D9000206908B12161F8E76161F6E72960F4E76D
:104DA000FFF77EFBA069401EA061EEE71C0100201A
:104DB00010B50C461AB1012A03D0062010BD104BC5
:104DC00000E0104B032815D003DC50B1012806D1B8
:104DD00009E093280ED0A0F5807123390CD007206C
:104DE00010BD012200E0022201462046984728B16A
:104DF000002010BD9022F7E74822F5E7032010BD00
:104E0000894700086947000838B555208DF800002B
:104E10006946002000F0DCF8F0BB2D4D4FF47A70AD
:104E200000226880A91C0120FFF7C2FFA0BB00215F
:104E30004FF6FF7401EBC102002005EBC20300BF77
:104E400000EB400203EB4202401C14819480D480AA
:104E50000C28F5D3491C0229ECD30022291D03207C
:104E6000FFF7A6FFC0B900EBC002002105EBC203AB
:104E700001EB410203EB4202491CA2F8984022F8E0
:104E8000944F0C295480F3D3401C0228EBD31049D3
:104E900000229431932000E017E0FFF789FFA0B9CA
:104EA00000EB400105EB4101401CA1F82441A1F8B1
:104EB0002641A1F828410C28F2D30022054940F2EE
:104EC0002310FFF775FF002800D0022038BD000036
:104ED000F8B900201CBB002008B5FFF73DFC1149C4
:104EE000002000F021F8C8B90E480078552817D0E6
:104EF00055208DF80000FFF787FF78B9694600203C
:104F000000F066F850B9012000F0F8FF4FF4FA7095
:104F100000F004F900F010F8002800D0012008BDCE
:104F20000520F1E7F8B9002010B50122FFF740FF96
:104F3000002800D0042010BD10B50F4C0122A11C88
:104F40001046FFF735FFA8B90122211D0320FFF706
:104F50002FFF78B9012204F194019320FFF728FF75
:104F600040B9012204F5927140F22310FFF720FFAF
:104F7000002800D0042010BDF8B9002038B5552015
:104F80008DF800006946002000F022F8E0B90F4CCF
:104F90000022A11C0120FFF70BFFA8B90022211D50
:104FA0000320FFF705FF78B9002204F19401932054
:104FB000FFF7FEFE40B9002204F5927140F2231083
:104FC000FFF7F6FE002800D0022038BDF8B9002017
:104FD00010B50022FFF7ECFE002800D0022010BD23
:104FE000FFF75EBAC179807901EB002002494A6976
:104FF0005080086900470000EC850008807901288E
:1050000002D1002000F0A3BE7047000070B51B4D18
:10501000002405F1200600BF55F8240010B956F809
:10502000240028B3082C14D2DFE804F00406080A90
:105030000C0E101200200CE001200AE0022008E013
:10504000032006E0042004E0052002E0062000E042
:105050000720FFF7CDFC58B1012802D0022807D164
:1050600002E055F8240001E056F8240000B1804722
:10507000641CE4B2082CCFD370BD0000B8B9002086
:1050800010B50024082814D2DFE800F00406080A4E
:105090000C0E101200200CE001200AE0022008E0B3
:1050A000032006E0042004E0052002E0062000E0E2
:1050B0000720FFF7D5FC38B1032802D0042803D11C
:1050C00001E0032400E00424204610BD10B5044A8A
:1050D0000021044800F040F903490860002010BD99
:1050E000948500080D51000818020020012903D002
:1050F000022903D002207047034901E00249203110
:1051000041F8202000207047B8B900200020FFF7A8
:105110007DFF0A2000F002F8F8E7000010B5EFF379
:10512000058149B9EFF3108131B9084909680229AD
:1051300005D1EFF3118111B16FF0050403E00024F4
:1051400008B101F02BFB204610BD00006C000020D0
:10515000EFF3058058B9EFF3108040B909490868AA
:10516000022801D030B109E0EFF3118030B16FF0C7
:105170000500704701200860002070474FF0FF30A5
:10518000704700006C00002010B5EFF3058060B997
:10519000EFF3108048B90B490868022802D00128B3
:1051A00006D00BE0EFF3118040B16FF0050010BDA9
:1051B0000220086001F0A2FB002010BD4FF0FF307C
:1051C00010BD00006C000020F8B50D460024211F22
:1051D0004E1C00280DD0EFF305824AB9EFF3108280
:1051E00032B9144A1268022A17D1EFF31182A2B120
:1051F0000DB10C461BE000216A46009102F022F836
:10520000012813D1009890B10B494FF080500860ED
:10521000BFF34F8FBFF36F8F09E0294602F060F8AC
:10522000012804D015B16FF0010400E03446204697
:10523000F8BD00006C00002004ED00E0F8B5144655
:1052400003460E464FF00005EFF30580E8BBEFF391
:105250001080D0BB24480068022802D1EFF31180EF
:1052600098BB93B39E423DD84CB1A0680028E0683B
:1052700003D0502836D3012002E008B132E00020EC
:10528000012B05D010B31846A26801F028FD20E0DC
:1052900040B103200090002211460120A36801F0D4
:1052A00062FD04E003220021012001F038FD050029
:1052B00018D086B100231A46194601F0CBFD01280B
:1052C00009D0284601F01CFA00250BE0184601F031
:1052D000E9FC050006D00CB1216800E00021284659
:1052E00001F0FAF92846F8BD6C00002038B500241A
:1052F000E51E002803D0EFF3058169B902E06FF0E5
:10530000030423E0EFF3108131B911490968022940
:1053100014D1EFF3118189B100210091694601F0A8
:10532000A7FE012811D1009880B10A494FF08050A2
:105330000860BFF34F8FBFF36F8F07E000231A465B
:10534000194601F087FD012800D02C46204638BDC3
:105350006C00002004ED00E0F0B585B00B464FF086
:105360000004EFF305810394A1BBEFF3108189BB27
:1053700021490968022902D1EFF3118151BB48B3D9
:10538000802618218DF8104004AD42B3176807B18C
:105390003D4697691FB139467F1E382F02D21779D3
:1053A000FF0702D0002005B0F0BD576907B1BE0865
:1053B000D2F808C0BCF1000F0DD0D4685C2C18D313
:1053C00012693AB137B18DE806103246294602F02B
:1053D000AAF803900DE0D7685FB912694AB903AA29
:1053E000CDE90012B2B2294602F070F8012800D0CF
:1053F00003940398D7E700006C00002010B5054C1B
:105400002078002805D100210348FDF719FC012070
:10541000207010BDF8010020680300201E21FEF757
:10542000F9BB000070B505460B480068FBF775F93D
:1054300006460C462846FBF770F90022074BFBF79F
:10544000E1F832462346FBF76BF8FBF773F90449A2
:105450000968486370BD00002C04004000005940FA
:1054600068030020704700002DE9F041134C0F46FF
:10547000054666692068001D01F034F8681C07D1F4
:1054800037B12168BDE8F0410D48091D01F07AB837
:1054900020683544B5424560216805D2A068BDE862
:1054A000F041091D01F056B86068091D01F052F87D
:1054B000206B854200D22563BDE8F0811C000020EE
:1054C000180900202DE9F041054601F067F82D4C40
:1054D0002069401C206120682B4F10B1E06930B377
:1054E0002BE025602069012827D1002606EB8600E5
:1054F00007EB800001F020F8761C382EF6D3234805
:1055000001F01AF82148143001F016F81F4828302D
:1055100001F012F81D483C3001F00EF81B485030E5
:1055200001F00AF8194860601430A06005E02068B6
:10553000E96AC06A884200D82560E06A401CE062DF
:105540006864E86AA169884200D9A06100EB800024
:1055500007EB8000291D01F015F801F03FF8E06924
:1055600000280CD02068E96AC06A884207D208493E
:105570004FF080500860BFF34F8FBFF36F8FBDE8CF
:10558000F08100001C00002068040020C8080020F2
:1055900004ED00E038B501F001F8104CA068C8B97E
:1055A0000F4800F0C9FF0E48143000F0C5FF0C484A
:1055B0002060143060600A4B00202833009003F113
:1055C000500210210A2001F0CEFBA06010B105A10D
:1055D00001F082F8BDE8384001F000B85800002022
:1055E0002C090020546D72510000000030B4026C90
:1055F0000B46002A0BD0C1681144C1604468A14227
:1056000001D30168C16030BC1846FAF709BE30BC4E
:1056100070472DE9F041856B174604460026026C61
:1056200082B1C7B1E068FAF7FBFDE168206C091AA6
:10563000E1602268914202D26168081AE060022F9C
:1056400016D017E02068A8B9606802F00FF8064687
:10565000002060600EE0A068FAF7E2FD216CA0680F
:105660000844A0606168884204D32068A06001E01B
:1056700005B16D1E6D1CA5633046BDE8F08110B507
:10568000044690F8590058B101280CD002280FD0D8
:10569000502080F31188BFF34F8FBFF36F8FFEE769
:1056A000206B00F0AFFF2046BDE8104000F0AABF1D
:1056B00010BD000010484FF4F041420706D0C01D55
:1056C0000D4920F00700411AC1F5F0410B4A0023B3
:1056D0000144C2E900030839103A21F007011160C2
:1056E0004B600B600B1AC0E9001393604FF0004051
:1056F0005360D06070470000FC3400208000002020
:10570000144E154CA6F29C474FF08058DFF84C9091
:1057100012E000BF00F042FFF068C568281D00F0ED
:10572000E1FE2069401E2061E068401EE06000F05C
:1057300055FF2846FFF7A3FFE0680028EAD1386844
:105740000128F9D9C9F80080BFF34F8FBFF36F8FDD
:10575000F2E70000040900201C00002004ED00E036
:1057600070B51D46049C51B1C4F80020C4E90F0176
:105770000121204601F02AFB84F84C5070BD2460C2
:10578000F4E72DE9F0470E46DDE909841746824625
:1057900091009946089DA522206BFAF753FD6FF002
:1057A0000301206B01EB8701084420F0070778070D
:1057B00007D0502080F31188BFF34F8FBFF36F8F56
:1057C000FEE72218315C82F83410315C11B1401CC4
:1057D0001028F6D3002684F84360382D00D33725EF
:1057E000E562C4E91356201D00F0B1FE04F1180073
:1057F00000F0ADFE2461C5F138006462A061666509
:1058000084F858604A465146384600F069FA2060EC
:10581000B8F1000F01D0C8F80040BDE8F0872DE9CD
:10582000F0471E46DDE9089417460D0080460ED06D
:10583000002C14D0FFF7AEFEC4F80080C4E9065770
:10584000C4E90869201DBDE8F04700F080BE502083
:1058500080F31188BFF34F8FBFF36F8FFEE7BDE872
:10586000F087000030B5114900E011460A68824215
:10587000FBD34B685C18844203D1406818444860ED
:10588000084643681C18944209D1084C103C24680F
:10589000A24209D052681A4442600A681268026043
:1058A000814200D0086030BD0460F9E7800000202C
:1058B00070B5002441600B4D0061914206D8D11AA9
:1058C0008269914206D2011D686807E09A4203D2BC
:1058D000994201D3012403E0011D286800F03AFE3B
:1058E000204670BD5800002010B5044600F056FE5A
:1058F000A06B28B15FF0000400F070FE204610BDE0
:105900000124F9E730B589B0304D55E004980028FE
:1059100006DADDE90601059A9047049800284BDB7A
:10592000069C606910B1201D00F0DCFD02A800F0AB
:10593000B9F8024604980A283ED2DFE800F00505CF
:10594000053D263705053D260598A1690346014416
:105950002046FFF7ADFF00B3616A20468847E06943
:10596000012829D1002000900598A1690023421840
:105970001946204601F0DAFF78B9502080F31188EB
:10598000BFF34F8FBFF36F8FFEE70598A06128B17B
:10599000811813462046FFF78BFF0DE0502080F35F
:1059A0001188BFF34F8FBFF36F8FFEE794F82C0081
:1059B00010B9204600F026FE002204A9A86801F0D4
:1059C000A5FB0028A2D109B030BD0000580000207E
:1059D0002DE9FC410F46054600F0D4FF01A800F078
:1059E00061F80446019818B101F0F4FEBDE8FC81AD
:1059F000224EAFB170680068A8B30027291B3A4651
:105A0000B06800F0A9FE01F0E5FE0028EED11C49C7
:105A10004FF080500860BFF34F8FBFF36F8FE5E703
:105A2000A542EBD801F0D6FE30682746C068C468AE
:105A3000201D00F057FDE069012810D1A0692B4618
:105A400041193A462046FFF733FF40B10020034694
:105A5000014600902A46204601F068FF20B1616AA5
:105A600020468847C2E707E0502080F31188BFF343
:105A70004F8FBFF36F8FFEE70127BFE7580000206D
:105A800004ED00E006484168096829B14168C96829
:105A9000C9684968016370474FF0FF31FAE70000B9
:105AA0001C00002070B5054601F076FD064E044648
:105AB0003069844203D200F009F8012000E00020A0
:105AC00028602046346170BD58000020F8B5194D9B
:105AD0001FE0C068C4680668201D00F003FD616A0D
