:020000040800F2
:1000000098C10020DD010008014500089F3A000862
:10001000FD440008090A0008D5500008000000004F
:100020000000000000000000000000004501000882
:10003000990A00080000000089010008B146000884
:10004000F7010008F7010008F7010008F7010008B0
:10005000F7010008F7010008F7010008F7010008A0
:10006000F7010008F7010008F7010008F701000890
:100070000D0A00081D0A00082D0A00083D0A0008A4
:10008000F7010008F7010008F7010008F701000870
:10009000F7010008F7010008F7010008F701000860
:1000A000F7010008F7010008F7010008F701000850
:1000B000F7010008F7010008F7010008F701000840
:1000C000F7010008F7010008F7010008F701000830
:1000D000F70100089D500008B1500008C150000809
:1000E000F7010008F7010008F7010008F701000810
:1000F000F7010008F7010008F7010008F701000800
:10010000F7010008F7010008F7010008F7010008EF
:10011000E54A0008F7010008F70100085D480008FB
:10012000F7010008F70100084D0A00085D0A000801
:10013000DFF80CD000F002FC00480047F15A00083C
:1001400098C10020224B19680868B0E8F00F80F3CE
:100150000988BFF36F8F4FF0000080F311884EF0D5
:100160000D0E70470000000006480068006880F32C
:10017000088862B661B6BFF34F8FBFF36F8F00DFA1
:1001800000BF00BF08ED00E0EFF30980BFF36F8F01
:100190000F4B1A6820E9F00F106008B54FF05000BF
:1001A00080F31188BFF34F8FBFF36F8F08F054F8BF
:1001B0004FF0000080F31188BDE808401968086816
:1001C000B0E8F00F80F30988BFF36F8F704700BF6E
:1001D00020000020EFF305807047000006488047AC
:1001E00006480047FEE7FEE7FEE7FEE7FEE7FEE71C
:1001F000FEE7FEE7FEE7FEE765470008310100087D
:10020000202A04DB203A21FA02F00021704721FA6B
:1002100002F3D040C2F120029140084319467047D2
:1002200040EA01039B0703D009E008C9121F08C078
:10023000042AFAD203E011F8013B00F8013B521EF8
:10024000F9D27047D2B201E000F8012B491EFBD26F
:1002500070470022F6E710B513460A4604461946D1
:10026000FFF7F0FF204610BD30B505462A460B4685
:1002700012F8010B13F8014B08B1A042F8D01CB1E1
:10028000002802D06D1CF1E7284630BDF0B480EAAA
:100290000102D40F4200B2EB410F02D202460846DF
:1002A00011464A0042D0C30DDDB2C1F3C752AD1AA8
:1002B000202D35DAC1F3160141F4000204B1524297
:1002C000C5F1200602FA06F12A411044B3EBD05FD3
:1002D00023D0C4B1012DA0EBC35009DCF0BC4FF01A
:1002E000004202EAC352DBB200F5000000F09ABA05
:1002F000400000F1807000EBC350A0F1807040EA34
:10030000D170490009E0490841EAC071A0EBC3502F
:1003100000F50000400800EBC350F0BC00F079BAD3
:100320006142012202EB4101001BF6E7F0BC70477D
:1003300081F00041AAE780F00040A7E780EA0102CF
:1003400010B502F00043400022D04A001FD0010E39
:1003500001EB1261C0F35600C2F3560240F40000F4
:1003600042F40002A0FB022000047F39140400D0F4
:10037000401C50EA124001D44000491EC2B20C0693
:1003800004EBD010401C4008802A02D003E000207B
:1003900010BD20F00100002900DA0020184310BD34
:1003A00030B480EA010202F0004530F0004221F052
:1003B000004013D090B1C30DD40DC2F31601C0F3A9
:1003C0001600E41A41F4000140F400027D34914229
:1003D00001D3641C00E04900002C02DA30BC00208C
:1003E00070474FF400000023914201D3891A034360
:1003F00040084FEA4101F7D151B1914202D14FF08B
:10040000004105E002D24FF0010101E06FF001016F
:1004100003EBC450284430BC00F0FBB92DE9FE4F7B
:10042000804681EA0300C00F0C46009021F0004195
:1004300023F00045B8EB0200A94105D24046214611
:1004400090461C460B46024623F00040104347D01E
:10045000270DC7F30A00C3F30A510290401A019016
:1004600040286BDAC3F3130040F4801B00989246D7
:1004700020B10023D2EB030A63EB0B0B0198594622
:10048000C0F14002504600F0A3F906460D46504622
:100490005946019A00F0ABF910EB080061410024C5
:1004A00087EA115284EAE7731A4340D0009A62B394
:1004B000019A012A4FEA075215DC001B61EB020189
:1004C0004FF0004202EA0752CDE90042001C41F51C
:1004D000801132462B4600F0E2F903B0BDE8F08F00
:1004E00040462146F9E7001B61EB0201001C41F583
:1004F000801300185B412018A2F5001747EB030199
:1005000040EAD570B6196D4111E06D084FEA360624
:1005100045EAC0754FEA0752001B61EB0201001C5F
:1005200041F5801149084FEA300000195141324627
:100530002B4603B0BDE8F04F00F0A2B900980122AD
:1005400040000023D0EB020263EBE07300982146E9
:100550004FEAE074B8EB000061EB0401E9E783F0D7
:1005600000435BE781F0004158E72DE9FE4F81EA47
:10057000030404F0004421F0004100944FF0000B0C
:1005800023F0004350EA01045ED052EA03045BD03A
:10059000C3F30A54C1F30A552C44A4F2F334019472
:1005A000A0FB0254C1F3130141F48011C3F3130300
:1005B00043F4801301FB024400FB034E840A970AB4
:1005C00044EA815447EA8357A4FB076802958D0AE1
:1005D00005FB07854FEA932C04FB0C542705029D6D
:1005E0004FEA065847EA1637B5EB08056EEB070CDD
:1005F000870E920E47EA811742EA8312A7FB020197
:10060000B6EB0B0164EB00042B0D43EA0C335E18D0
:1006100044EB1C50DA465146E7FB0201C5F31304D4
:100620004FEA0B3343EA14534FEA0432019C43EA86
:100630000603A4F10C040294009CCDE900B400F080
:100640002EF903B0BDE8F08F00200146F9E72DE94F
:10065000F04D81EA030404F0004B21F000451446FC
:100660004FF0000A23F0004150EA050220D054EA7E
:1006700001021DD0C5F30A570246C5F31303C1F3A7
:100680001300C1F30A5640F4801543F48013A7EB1E
:100690000608101BD64608F2FD3873EB050002D39E
:1006A00008F1010801E092185B41B8F1000F03DA8C
:1006B00000200146BDE8F08D00204FF48011064671
:1006C00084460EE0171B73EB050705D3121B63EB83
:1006D000050306434CEA010C49084FEA3000921822
:1006E0005B4150EA0107EDD152EA030012D082EAE1
:1006F000040083EA0501084305D0101BAB4106D274
:100700000122002306E000224FF0004302E06FF0D8
:10071000010253101AEB06004CEB085110EB0A00D3
:1007200041EB0B01BDE8F04D00F0AAB89623002282
:10073000114600F077B80EB540F233410291002126
:10074000CDE900110A460B4600F0A9F803B000BD40
:10075000C1F30A5210B5C1F3130140F2FF3341F463
:1007600080119A4201DA002010BD40F233439A42D0
:10077000A2F2334203DC5242FFF742FD10BD90402B
:1007800010BD00F0004230F000400AD0C10D01F56C
:100790006071C0F3160042EA0151C20840071143DC
:1007A0007047002001467047002801DBC0F100407F
:1007B000002901DBC1F1004181427047002801DBC3
:1007C000C0F10040002901DBC1F1004188427047BF
:1007D000202A04DB203A00FA02F100207047914001
:1007E000C2F1200320FA03F3194390407047202AF6
:1007F00006DBCB17203A41FA02F043EAE07306E049
:1008000041FA02F3D040C2F1200291400843194658
:1008100070470029A8BF7047401C490008BF20F05E
:100820000100704710B4B0FA80FC00FA0CF050EAF6
:10083000010404BF10BC704749B1CCF1200421FA77
:1008400004F411FA0CF118BF012121430843A3EB72
:100850000C01CB1D4FEA00614FEA102042BF00207F
:1008600010BC704700EBC35010440029A4BF10BC5B
:100870007047401C490008BF20F0010010BC7047C1
:1008800010B5141E73F1000408DA401C41F1000198
:1008900092185B411A4301D120F0010010BD2DE9EF
:1008A000F04D92469B4611B1B1FA81F202E0B0FAE6
:1008B00080F220329046FFF78BFF04460F4640EA55
:1008C0000A0041EA0B0153465A46084313D0114629
:1008D00053EA010019D0C8F140025046FFF790FCDE
:1008E00005460E46504659464246FFF771FF0843FB
:1008F00005D0012004E020463946BDE8F08D0020F7
:10090000054346EAE0762C4337430A986305E40A38
:10091000A0EB08000022FD0A44EA47540A3002D541
:1009200000200146E9E7010510196941DDE90845A4
:1009300000196941BDE8F04DA2E70000064C074DE3
:1009400006E0E06840F0010394E80700984710349F
:10095000AC42F6D3FFF7F0FB4CA400086CA40008EF
:1009600070B58C1810F8015B15F0070301D110F871
:10097000013B2A1106D110F8012B03E010F8016B9E
:1009800001F8016B5B1EF9D12B0705D40023521E21
:100990000DD401F8013BFAE710F8013BCB1A921C89
:1009A00003E013F8015B01F8015B521EF9D5A14287
:1009B000D8D3002070BD70B504460025206880683B
:1009C00000F00100F0B12068806820F0010021688B
:1009D000886000F009FF05460EE000F005FF401BAF
:1009E000022809D9A06A40F01000A062E06A40F035
:1009F0000100E062012070BD2068806800F0010005
:100A00000028EAD10020F6E700BFFEE710B5024853
:100A100000F0DCFA10BD000080BA002010B50248DA
:100A200000F0D4FA10BD00003CBA002010B5024816
:100A300000F0CCFA10BD0000F8B9002010B5024853
:100A400000F0C4FA10BD0000B4B9002010B502488F
:100A500000F0BCFA10BD000070B9002010B50248CB
:100A600000F0B4FA10BD00002CB9002030B590F8A9
:100A700040500124AC40C56B6C60046863604468FE
:100A8000102C04D10468A2600468E16003E00468EB
:100A9000A1600468E26030BD7047704738B5024617
:100AA00000230020009000BF92F82400012801D10B
:100AB000022038BD012082F8240000BF48680728C2
:100AC00012D21068406B0C79641E04EB84051F245D
:100AD000AC40A0430D796D1E05EB85050C68AC405C
:100AE00020431468606327E048680D2812D210681C
:100AF000006B0C79E41F04EB84051F24AC40A04379
:100B00000D79ED1F05EB85050C68AC40204314689A
:100B1000206311E01068C06A0C790D3C04EB840579
:100B20001F24AC40A0430D790D3D05EB85050C68F5
:100B3000AC4020431468E06208680A2812D31068A9
:100B4000C0680C780A3C04EB44050724AC40A04381
:100B50000D780A3D05EB45058C68AC4020431468D0
:100B6000E0600FE0106800690C7804EB440507248E
:100B7000AC40A0430D7805EB45058C68AC402043A4
:100B8000146820610868102802D00868112827D14D
:100B9000174C1068A0421ED11068806800F4000055
:100BA000F0B91068806840F400001468A06008681C
:100BB000102815D10F4800680F4CB0FBF4F000EB83
:100BC00080004000009002E00098401E00900098D5
:100BD0000028F9D104E0906A40F0200090620123DF
:100BE00000BF002082F8240000BF184661E7000023
:100BF000002401401C00002040420F002DE9F0417C
:100C00000446002700250026A84614B90120BDE8A7
:100C1000F081A06810B1207D00B100BFA06A30B99A
:100C20000020E06284F82400204600F097F8204677
:100C3000FFF7C1FE0746A06A00F01000002873D13C
:100C4000002F7ED1A06A20F4885040F00200A062FC
:100C50003F4AD4E90001904208D1E069B0F5402F45
:100C600002D14FF4002002E0E06900E0E0690143B6
:100C7000207B41EA40000643A068B0F5807F02D0A7
:100C8000A068012802D14FF4807000E000200543E5
:100C9000207D012811D1207B38B9A069401E4FF476
:100CA000006141EA4030054307E0A06A40F02000BF
:100CB000A062E06A40F00100E0622068406820F431
:100CC00069402843216848602068806821490840BD
:100CD000304321688860A068B0F5807F02D0A068AA
:100CE000012802D14FF4807000E00020B0F5807F31
:100CF00003D1208A401E4FEA00582068C06A20F4C1
:100D0000700040EA08002168C862206880681249C3
:100D10000840B04209D10020E062A06A20F0020041
:100D200040F00100A06211E00BE0A06A20F0020098
:100D300040F01000A062E06A40F00100E06201278C
:100D400004E0A06A40F01000A062012738465EE788
:100D5000003C0140FDF7E1FFFE0E1FFF10B586B01D
:100D600004460020029003900490059014492068E6
:100D7000884222D100BF1348806940F400701149B5
:100D800088610846806900F40070019000BF00BFD0
:100D900000BF0846806940F0040088610846806909
:100DA00000F00400019000BF00BF0120029003206A
:100DB000039002A9044800F069FB06B010BD0000D2
:100DC00000240140001002400008014001460022BA
:100DD00091F82100022808D00420886300BF002079
:100DE00081F8200000BF012070470868006820F0EB
:100DF0000E000B6818600868006820F001000B689E
:100E0000186091F8403001209840CB6B5860012069
:100E100081F8210000BF002081F8200000BF1046AB
:100E2000E2E7000070B50446002594F8210002288E
:100E300003D00420A0630125C1E02068006820F0F1
:100E40000E00216808602068006820F00100216819
:100E500008605C492068884252D95A49783920682C
:100E6000884201D1012047E0564964392068884210
:100E700001D1102040E0534950392068884201D107
:100E8000801539E04F493C392068884201D18014EF
:100E900032E04C4928392068884202D14FF4803032
:100EA0002AE0484914392068884202D14FF4801062
:100EB00022E044492068884201D140041CE04249B4
:100EC0002068884201D1012016E03F491431206892
:100ED000884201D110200FE03B4928312068884228
:100EE00001D1801508E038493C312068884201D1A1
:100EF000801401E04FF480303349091F086051E04D
:100F0000304978392068884201D1012047E02D49D5
:100F100064392068884201D1102040E029495039C5
:100F20002068884201D1801539E026493C39206883
:100F3000884201D1801432E0224928392068884251
:100F400002D14FF480302AE01E49143920688842CB
:100F500002D14FF4801022E01A492068884201D162
:100F600040041CE018492068884201D1012016E0A5
:100F7000154914312068884201D110200FE0124930
:100F800028312068884201D1801508E00E493C31A3
:100F90002068884201D1801401E04FF48030094973
:100FA00080394860012084F8210000BF002084F8C7
:100FB000200000BF606B10B12046616B8847284657
:100FC00070BD0000800002400804024070B5044675
:100FD000E06B05682068066894F84010042088409B
:100FE0002840002875D006F004000028FAD02068B8
:100FF000006800F0200028B92068006820F0040094
:1010000021680860D5492068884254D9D349783985
:101010002068884201D1042049E0D0496439206821
:10102000884201D1402042E0CC49503920688842B2
:1010300001D100153BE0C9493C392068884202D102
:101040004FF4804033E0C54928392068884202D1F6
:101050004FF480202BE0C14914392068884202D126
:101060004FF4800023E0BD492068884201D1C004CC
:101070001DE0BB492068884201D1042017E0B8492F
:1010800014312068884201D1402010E0B449283151
:101090002068884201D1001509E0B1493C3120683F
:1010A000884202D14FF4804001E04FF48020AC49E7
:1010B000091F086054E0A94978392068884201D1A5
:1010C00004204AE0A54964392068884202D14020C2
:1010D00043E04CE0A14950392068884201D1001515
:1010E0003BE09E493C392068884202D14FF4804061
:1010F00033E09A4928392068884202D14FF4802091
:101100002BE0964914392068884202D14FF48000C0
:1011100023E092492068884201D1C0041DE0904933
:101120002068884201D1042017E08D4914312068DD
:10113000884201D1402010E0894928312068884246
:1011400001D1001509E086493C312068884202D16E
:101150004FF4804001E04FF480208049803948609E
:10116000E06A002802D02046E16A8847F4E094F85B
:101170004010022088402840002871D006F002006C
:101180000028FAD02068006800F0200040B92068EC
:10119000006820F00A0021680860012084F821001E
:1011A0006E492068884254D96C4978392068884251
:1011B00001D1022049E0694964392068884201D19F
:1011C000202042E0654950392068884201D140150D
:1011D0003BE062493C392068884202D14FF400501C
:1011E00033E05E4928392068884202D14FF400304C
:1011F0002BE05A4914392068884202D14FF400107C
:1012000023E056492068884201D180041DE05449FA
:101210002068884201D1022017E05149143120682A
:10122000884201D1202010E04D49283120688842B1
:1012300001D1401509E04A493C312068884202D179
:101240004FF4005001E04FF400304549091F086099
:1012500054E0424978392068884202D102204AE0AD
:1012600057E03E4964392068884201D1202042E09D
:101270003A4950392068884201D140153BE037494E
:101280003C392068884202D14FF4005033E03349A2
:1012900028392068884202D14FF400302BE02F49D2
:1012A00014392068884202D14FF4001023E02B4902
:1012B0002068884201D180041DE0294920688842C5
:1012C00001D1022017E0264914312068884201D15B
:1012D000202010E0224928312068884201D14015A1
:1012E00009E01F493C312068884202D14FF4005088
:1012F00001E04FF4003019498039486000BF0020F8
:1013000084F8200000BFA06A30B32046A16A884755
:1013100022E094F84010082088402840E0B106F010
:101320000800C8B12068006820F00E00216808603D
:1013300094F8401001208840E16B48600120A063D0
:1013400084F8210000BF002084F8200000BF206B3B
:1013500010B12046216B884770BD0000800002401C
:10136000080402400146002209B9012070471E4BC3
:10137000086898420BD21D4B0868C01A1423B0FBB2
:10138000F3F08000086419480838C8630AE0164B77
:101390000868C01A1423B0FBF3F0800008641248F8
:1013A0000838C863022081F821000868026843F603
:1013B000F0708243D1E901031843CB6818430B69ED
:1013C00018434B6918438B691843CB691843024390
:1013D0000868026000208863012081F82100002055
:1013E00081F8200000BFC1E7080402400800024065
:1013F0002DE9F04104460D4616461F464FF0000801
:1014000000BF94F82000012802D10220BDE8F0813D
:10141000012084F8200000BF94F8210001282CD17D
:10142000022084F821000020A0632068006820F0DA
:101430000100216808603B46324629462046FFF7F6
:1014400015FBE06A30B12068006840F00E002168AA
:1014500008600BE02068006820F004002168086044
:101460002068006840F00A00216808602068006871
:1014700040F001002168086006E000BF002084F809
:10148000200000BF4FF002084046BFE72DE9F847B3
:10149000024600239C467BE14FF0010808FA03F462
:1014A000D1F8008008EA0400A0427DD1DFF8F4A260
:1014B000D1F80480A8EB0A09D0453AD014DCB8F181
:1014C000030F50D009DCB8F1000F31D0B8F1010F93
:1014D0001CD0B8F1020F49D120E0B8F1110F18D09B
:1014E000B8F1120F42D11EE0B9F5881F25D006DCF5
:1014F000B9F5803F20D0B9F5801F37D11AE0B9F592
:10150000001F18D0B9F5041F30D117E0D1F80CC076
:101510002DE0D1F80C8008F1040C28E0D1F80C8003
:1015200008F1080C23E0D1F80C8008F10C0C1EE047
:1015300000BF00BF00BF00BF00BF00BFD1F80880E0
:10154000B8F1000F02D14FF0040C0BE0D1F8088085
:10155000B8F1010F03D14FF0080C146102E04FF015
:10156000080C546103E04FF0000C00E000BF00BF26
:10157000FF2801D8904601E002F104084646FF2802
:1015800002D84FEA830803E0A3F108084FEA88086D
:101590004746D6F800804FF00F0909FA07F928EA04
:1015A00009080CFA07F900E07AE048EA0908C6F8E9
:1015B0000080D1F8048008F08058B8F1805F6FD1C6
:1015C00000BFDFF8E481D8F8188048F00108DFF8A0
:1015D000D891C9F81880C846D8F8188008F00108D2
:1015E000CDF8008000BF00BF4FEAB9384FEA930939
:1015F00058F829504FEA83784FEA18794FF00F08CE
:1016000008FA09F825EA0805DFF8A081424502D169
:101610004FF0000824E0DFF89881424502D14FF0F6
:1016200001081DE0DFF88C81424502D14FF002082D
:1016300016E0DFF88481424502D14FF003080FE045
:10164000DFF87881424502D14FF0040808E0DFF866
:101650007081424502D14FF0050801E04FF00608C5
:101660004FEA83794FEA197908FA09F848EA05053B
:10167000DFF850814FEA930948F82950D1F80480E7
:1016800008F48038B8F5803F0BD1DFF83C81D8F8FA
:10169000008048EA0008DFF83091C9F800800AE0CD
:1016A00075E0DFF82481D8F8008028EA0008DFF828
:1016B0001891C9F80080D1F8048008F40038B8F512
:1016C000003F0ED1DFF8008108F10408D8F800804F
:1016D00048EA0008DFF8F09009F10409C9F8008031
:1016E0000DE0DFF8E48008F10408D8F8008028EA6B
:1016F0000008DFF8D49009F10409C9F80080D1F896
:10170000048008F48018B8F5801F0ED1DFF8B88087
:1017100008F10808D8F8008048EA0008DFF8A89027
:1017200009F10809C9F800800DE0DFF89C8008F194
:101730000808D8F8008028EA0008DFF88C9009F142
:101740000809C9F80080D1F8048008F40018B8F539
:10175000001F0ED1DFF8708008F10C08D8F8008067
:1017600048EA0008DFF8609009F10C09C9F8008028
:101770000DE0DFF8548008F10C08D8F8008028EA62
:101780000008DFF8449009F10C09C9F800805B1CDF
:10179000D1F8008028FA03F8B8F1000F7FF47CAE8E
:1017A000BDE8F88700001110001002400008014059
:1017B000000C0140001001400014014000180140DD
:1017C000001C0140080001400004014002469368EB
:1017D0000B400BB1012000E0002070470AB101610D
:1017E00001E00B0403617047014800687047000086
:1017F0001000002070B504460CB9012070BD94F8AB
:101800003D0028B9002084F83C00204600F008FB89
:10181000242084F83D002068006820F00100216841
:10182000086000F0AFFD05465C496068884206D854
:101830005B48854201D2012007E0002005E05948BD
:10184000854201D2012000E00020012800D1D5E727
:101850005548B5FBF0F62068406820F03F00304363
:10186000216848604D496068884201D8701C07E0D3
:101870004FF4967070434FF47A71B0FBF1F0401C56
:101880002168096A21F03F01084321680862434941
:101890006068884214D8681E61684900B0FBF1F0A6
:1018A000401CC0F30B00042801D204203DE0681E58
:1018B00061684900B0FBF1F0401CC0F30B0034E05C
:1018C000A06838B9681E616801EB4101B0FBF1F016
:1018D000401C0AE0681E616801EBC10202EB0111C5
:1018E000B0FBF1F0401C40F48040C0F30B0008B99D
:1018F00001201AE0A06848B9681E616801EB410147
:10190000B0FBF1F0401CC0F30B000CE0681E6168F6
:1019100001EBC10202EB0111B0FBF1F0401CC0F37E
:101920000B0040F4804040F400402168C9694CF647
:10193000FF72914308432168C861D4E90701084355
:101940002168096821F0C001084321680860D4E9D2
:10195000031008432168896848F2FF329143084325
:1019600021688860D4E9050108432168C96821F02D
:10197000FF0108432168C8602068006840F001004A
:101980002168086000202064202084F83D000020A9
:10199000206384F83E0000BF30E70000A08601000D
:1019A00080841E0000093D0040420F002DE9FC5FCD
:1019B00004460F4690469946DDE90CAB0E9EFFF7B4
:1019C00013FF054694F83D00202872D11923012207
:1019D000B7492046009502F0B3F910B10220BDE8E6
:1019E000FC9F00BF94F83C00012801D10220F6E7DB
:1019F000012084F83C0000BF2068006800F001006E
:101A000028B92068006840F001002168086020685B
:101A1000006820F4006021680860222084F83D00FE
:101A2000402084F83E0000202064C4F824A0A4F8DC
:101A30002AB0608D20859F48E0624B464246394679
:101A40002046CDE9006502F04BF808B10120C6E759
:101A5000208D88B900BF0020019020684069019066
:101A600020688069019000BF00BF2068006840F4D2
:101A70000070216808604BE0208D01281AD1206891
:101A8000006820F480602168086072B600BF002002
:101A9000019020684069019020688069019000BF32
:101AA00000BF2068006840F400702168086062B6DA
:101AB0002EE0FBE0208D022819D12068006840F458
:101AC00000602168086072B600BF002001902068A5
:101AD0004069019020688069019000BF00BF2068C4
:101AE000006820F480602168086062B610E0206819
:101AF000006840F480602168086000BF0020019009
:101B000020684069019020688069019000BF00BF93
:101B1000BDE0208D032870D8208D012815D12A46DC
:101B20003146204602F0B1F908B1012057E720689C
:101B30000069616A0870606A401C6062208D401E06
:101B40002085608D401E6085A1E0208D02282CD16B
:101B50003346002258492046009502F0F1F808B1BA
:101B600001203CE772B62068006840F400702168EC
:101B7000086020680069616A0870606A401C6062E1
:101B8000208D401E2085608D401E608562B62068D5
:101B90000069616A0870606A401C6062208D401EA6
:101BA0002085608D401E608571E0334600224249E9
:101BB0002046009502F0C4F808B101200FE7206824
:101BC000006820F480602168086072B620680069AF
:101BD000616A0870606A401C6062208D401E20852A
:101BE000608D401E608533460022334920460095B3
:101BF00002F0A6F810B10120F1E621E020680068AB
:101C000040F400702168086020680069616A08700B
:101C1000606A401C6062208D401E2085608D401EE1
:101C2000608562B620680069616A0870606A401C5D
:101C30006062208D401E2085608D401E608526E0FC
:101C40002A463146204602F020F908B10120C6E6B6
:101C500020680069616A0870606A401C6062208DBB
:101C6000401E2085608D401E608520684069C0F35D
:101C7000800060B120680069616A0870606A401C79
:101C80006062208D401E2085608D401E6085208D05
:101C900000287FF43EAF202084F83D00002084F827
:101CA0003E0000BF84F83C0000BF98E6022096E6A4
:101CB000020010000000FFFF040001002DE9FC5F9E
:101CC00004460F4690469946DDE90CAB0E9EFFF7A1
:101CD0008BFD054694F83D0020287DD11923012273
:101CE0004D492046009502F02BF810B10220BDE8C6
:101CF000FC9F00BF94F83C00012801D10220F6E7C8
:101D0000012084F83C0000BF2068006800F001005A
:101D100028B92068006840F0010021680860206848
:101D2000006820F4006021680860212084F83D00EC
:101D3000402084F83E0000202064C4F824A0A4F8C9
:101D40002AB0608D20853548E0624B4642463946D0
:101D50002046CDE9006501F05FFF08B10120C6E72C
:101D600031E02A463146204602F0CFF850B1206CCF
:101D7000042805D12068006840F4007021680860DC
:101D80000120B4E7606A007821680861606A401C3D
:101D90006062208D401E2085608D401E6085206819
:101DA0004069C0F3800070B1208D60B1606A007836
:101DB00021680861606A401C6062208D401E208599
:101DC000608D401E6085208D0028CAD12A4631468C
:101DD000204601F087FF00E01CE050B1206C042891
:101DE00005D12068006840F4007021680860012077
:101DF0007DE72068006840F40070216808602020BA
:101E000084F83D00002084F83E0000BF84F83C00C8
:101E100000BF6CE702206AE7020010000000FFFF2D
:101E200010B586B0044600200290039004900590FF
:101E300016492068884226D100BF1548806940F0C5
:101E40000800134988610846806900F00800019085
:101E500000BF00BF4FF440600290122003900320A7
:101E6000059002A90B48FFF711FB00BF0848C069A5
:101E700040F480000649C8610846C06900F480004B
:101E8000019000BF00BF06B010BD00000058004028
:101E900000100240000C0140034800680349097823
:101EA0000844014908607047100000201800002015
:101EB00010B50848006840F010000649086003208B
:101EC00000F0C6F8002000F007F800F049F8002004
:101ED00010BD00000020024070B588B00446002507
:101EE000002600222146372000F074F8372000F049
:101EF00061F800BF1648C06940F020001449C8616D
:101F00000846C06900F02000019000BF00BF02A990
:101F100003A800F00FFA00F035FA45000D48B5FBB4
:101F2000F0F0461E0C480D49086040F2E7310B48BE
:101F3000C160466000210161816001F04BF820B969
:101F4000064801F062F808B070BD0120FBE7000010
:101F50000010024040420F00001400400004002026
:101F600008B500BF1148806940F001000F49886141
:101F70000846806900F00100009000BF00BF00BF6C
:101F80000846C06940F08050C8610846C06900F04A
:101F90008050009000BF00BF00BF0549486820F096
:101FA000E06040F00070486000BF08BD00100240D3
:101FB0000000014001460846002809DB00F01F032D
:101FC00001229A4043099B0003F1E023C3F800215A
:101FD00000BF70472DE9F05F80460D46164600278A
:101FE00003F07AF8074639462A46334601F00700DF
:101FF000C0F1070ABAF1040F02D94FF0040A01E058
:10200000C0F1070AD14600F1040ABAF1070F02D263
:102010004FF0000A01E0A0F1030AD4464FF0010A94
:102020000AFA09FAAAF1010A0AEA020A0AFA0CFAF9
:102030004FF0010B0BFA0CFBABF1010B0BEA030B9E
:102040004AEA0B042146404603F04EF8BDE8F09FF3
:1020500000BF00F00702064B19684FF6FF03194056
:10206000044B0B4343EA0221014B196000BF704748
:102070000CED00E00000FA05F8B504460026002546
:10208000207800F0010000286BD000274348C06989
:1020900000F0805070B900BF4048C06940F08050E7
:1020A0003E49C8610846C06900F08050009000BFFA
:1020B00000BF01273A48006800F48070B0B9384882
:1020C000006840F4807036490860FFF78DFB0646D3
:1020D00006E0FFF789FB801B642801D90320F8BDC7
:1020E0002F48006800F480700028F2D02B48006A66
:1020F00000F440752DB3A08800F44070A84220D0B1
:102100002648006A20F44075012026490860002016
:1021100008602248056205F0010090B1FFF764FBFA
:10212000064608E0FFF760FB801B41F288318842D9
:1021300001D90320D3E71948006A00F00200002803
:10214000F0D01648006A20F44070616808431349D3
:102150000862012F04D10846C06920F08050C86190
:1021600000BF207800F00200022807D10B48406829
:1021700020F44040A168084308494860207800F0F6
:102180001000102807D10548406820F480006169DC
:102190000843024948600020A1E700000010024007
:1021A000007000404004424270B504460D460CB930
:1021B000012070BD5A48006800F00700A8420ED206
:1021C0005748006820F00700284355490860084632
:1021D000006800F00700A84201D00120E9E720785C
:1021E00000F0020002281DD1207800F0040004282D
:1021F00005D14C48406840F4E0604A494860207886
:1022000000F00800082805D14648406840F46050B6
:10221000444948604348406820F0F000A168084302
:1022200040494860207800F0010078B360680128D8
:1022300006D13C48006800F4003090B90120B8E7AE
:102240006068022806D13748006800F0007040B985
:102250000120AEE73348006800F0020008B9012011
:10226000A7E73048406820F00300616808432D4923
:102270004860FFF7B9FA064609E0FFF7B5FA801B98
:1022800041F28831884202D9032092E707E02548CD
:10229000406800F00C006168B0EB810FEDD1204880
:1022A000006800F00700A8420ED91D48006820F021
:1022B000070028431A4908600846006800F0070034
:1022C000A84201D0012074E7207800F0040004281F
:1022D00007D11448406820F4E060E16808431149E0
:1022E0004860207800F00800082808D10D484068B0
:1022F00020F46050216940EAC1000A49486000F0BA
:1023000061F808494968C1F30311074A515CC840A4
:102310000649086006480068FFF7DEFD002048E730
:102320000020024000100240C49700081C0000205A
:10233000140000200F2202600D4A526802F00302CE
:1023400042600B4A526802F0F0028260084A52680A
:1023500002F4E062C260064A526802F46052D20897
:102360000261044A126802F007020A607047000026
:102370000010024000200240014800687047000041
:102380001C00002000B5FFF7F7FF04494968C1F3BE
:102390000221034A515CC84000BD00000010024009
:1023A000D497000800B5FFF7E7FF04494968C1F377
:1023B000C221034A515CC84000BD00000010024029
:1023C000D4970008F0B585B00FF26C0C9CE8E010D3
:1023D00001A8A0E8E0101CA52D68009500210022AE
:1023E000002300240020194D696801F00C05F5B1A7
:1023F000042D02D0082D19D101E0154819E001ADD6
:10240000C1F38346AC5D01F4803555B10F4D6D6865
:10241000C5F340451DF805200D4D6543B5FBF2F3AE
:1024200002E00C4D04FB05F3184602E000BF08482B
:1024300000BF00BF05B0F0BD020304050607080990
:102440000A0B0C0D0E0F10100102000000100240CC
:1024500000127A0000093D00F8B504460CB90120CD
:10246000F8BD207800F00100002878D0F8484068D6
:1024700000F00C0004280CD0F548406800F00C0077
:10248000082811D1F248406800F48030B0F5803F50
:102490000AD1EF48006800F4003000285FD060687F
:1024A00000285CD10120DBE700BF6068B0F5803F09
:1024B00006D1E748006840F48030E549086028E02C
:1024C000606858B9E248006820F48030E04908604C
:1024D0000846006820F4802008601AE06068B0F5C3
:1024E000A02F0BD1DA48006840F48020D84908605A
:1024F0000846006840F4803008600AE0D44800686C
:1025000020F48030D24908600846006820F480201A
:10251000086000BF606888B1FFF766F9054606E00D
:10252000FFF762F9401B642801D9032098E7C848E7
:10253000006800F400300028F2D010E0FFF754F9F2
:10254000054606E0FFF750F9401B642801D9032037
:1025500086E7BF48006800F400300028F2D12078F8
:1025600000F00200022857D1B948406800F00C0082
:1025700050B1B748406800F00C00082818D1B448A2
:10258000406800F4803098B9B148006800F002005B
:1025900020B12069012801D0012061E7AC48006822
:1025A00020F0F800616940EAC100A949086033E001
:1025B0002069E8B10120A7490860FFF715F9054631
:1025C00006E0FFF711F9401B022801D9032047E775
:1025D0009F48006800F002000028F2D09C48006884
:1025E00020F0F800616940EAC1009949086013E0F1
:1025F000002098490860FFF7F7F8054606E0FFF766
:10260000F3F8401B022801D9032029E7904800680D
:1026100000F002000028F2D1207800F0080008281D
:102620002DD1A069B8B101208B490860FFF7DCF813
:10263000054606E0FFF7D8F8401B022801D9032021
:102640000EE78348406A00F002000028F2D0012023
:1026500001F058FF13E000207F490860FFF7C4F83D
:10266000054606E0FFF7C0F8401B022801D9032009
:10267000F6E67748406A00F002000028F2D12078A0
:1026800000F00400042873D100277148C06900F0ED
:10269000805070B900BF6E48C06940F080506C49EE
:1026A000C8610846C06900F08050009000BF00BFBC
:1026B00001276A48006800F48070B0B96748006874
:1026C00040F4807065490860FFF78EF8054606E023
:1026D000FFF78AF8401B642801D90320C0E65F4851
:1026E000006800F480700028F2D000BFE068012884
:1026F00006D15748006A40F001005549086227E0BA
:10270000E06858B95248006A20F001005049086258
:102710000846006A20F00400086219E0E068052815
:102720000BD14B48006A40F0040049490862084652
:10273000006A40F0010008620AE04548006A20F0A3
:102740000100434908620846006A20F0040008625C
:1027500000BFE068A0B1FFF747F8054609E0FFF7C2
:1027600043F8401B41F28831884202D9032077E6C2
:1027700022E03748006A00F002000028EFD012E0A3
:10278000FFF732F8054608E0FFF72EF8401B41F24C
:102790008831884201D9032062E62D48006A00F0A2
:1027A00002000028F0D1012F05D12948C06920F08E
:1027B00080502749C86100BFE069C8B32448406819
:1027C00000F00C00082860D0E069022848D1002001
:1027D00020490866FFF708F8054606E0FFF704F809
:1027E000401B022801D903203AE61948006800F08E
:1027F00000700028F2D1206AB0F5803F07D114485C
:10280000406820F40030A168084311494860D4E9C9
:10281000080108430E49496821F4741108430C4922
:10282000486001200B490866FEF7DEFF054607E019
:102830003DE0FEF7D9FF401B022801D903200FE637
:102840000348006800F000700028F2D02FE000007C
:1028500000100240000042428004424200700040EA
:10286000002014490866FEF7BFFF054606E0FEF7A4
:10287000BBFF401B022801D90320F1E50E48006888
:1028800000F000700028F2D111E0E069012800D1C9
:10289000E6E50948466806F48031206A814204D1A1
:1028A00006F47011606A814201D00120D8E5002051
:1028B000D6E50000000042420010024010B5044678
:1028C0000CB9012010BD606A00B900BF0021A162EF
:1028D00094F8510028B9002084F85000204600F0F8
:1028E00031F8022084F851002068006820F0400090
:1028F00021680860D4E901010843E16808432169BF
:10290000084361690843218B01F400710843E169C0
:102910000843216A0843A16A08432168086004212A
:10292000A06901EA1040216848602068C06920F46D
:1029300000602168C86100206065012084F85100B2
:102940000020BFE710B586B0044600200290039037
:102950000490059038492068884236D100BF374836
:10296000806940F48050354988610846806900F4E8
:102970008050019000BF00BF00BF0846806940F052
:10298000080088610846806900F00800019000BFD7
:1029900000BF28200290022003900320059002A986
:1029A0002748FEF773FD102002900020039004904A
:1029B00002A92348FEF76AFD00BF2249486840F09B
:1029C000E06040F00100486033E01F492068884221
:1029D0002FD100BF1948C06940F480401749C86131
:1029E0000846C06900F48040019000BF00BF00BFEE
:1029F0000846806940F0080088610846806900F058
:102A00000800019000BF00BF4FF420400290022058
:102A100003900320059002A90948FEF737FD4FF403
:102A20008040029000200390049002A90448FEF721
:102A30002DFD06B010BD0000003001400010024026
:102A4000000C014000000140003800402DE9F8432F
:102A50000446884616461D464FF000096068B0F5EA
:102A6000827F0DD1A06858B9042084F85100334604
:102A7000424641462046009500F06BF9BDE8F883D8
:102A800000BF94F85000012801D10220F6E7012090
:102A900084F8500000BFFEF7A7FE074694F85100E7
:102AA000012802D04FF0020978E0B8F1000F00D001
:102AB00016B94FF0010971E0042084F8510000209C
:102AC0006065C4F83880A687E6872063A086E08624
:102AD00020646064A068B0F5004F05D120680068EC
:102AE00020F48040216808602068006800F0400001
:102AF000402805D02068006840F040002168086048
:102B0000E068F8B91AE02068806800F0010050B170
:102B10002068007BA16B0870A06B401CA063E08F55
:102B2000401EE0870AE0FEF75FFEC01BA84201D30B
:102B3000681C00B915B94FF003092FE0E08F002899
:102B4000E1D11EE01AE02068806800F0010050B179
:102B50002068C068A16B0880A06B801CA063E08F18
:102B6000401EE0870AE0FEF73FFEC01BA84201D3EB
:102B7000681C00B915B94FF003090FE0E08F002879
:102B8000E1D13A462946204601F0D0FC08B1202088
:102B90006065606D08B14FF0010900BF012084F845
:102BA000510000BF002084F8500000BF484665E790
:102BB0002DE9F84F0446884616461D464FF0000A98
:102BC00000BF94F85000012802D10220BDE8F88F20
:102BD000012084F8500000BFFEF706FE0746B1460C
:102BE00094F85100012802D04FF0020AA7E0B8F192
:102BF000000F00D016B94FF0010AA0E0032084F8BE
:102C0000510000206065C4F83080A686E686A06387
:102C1000A087E08760642064A068B0F5004F05D10C
:102C20002068006840F480402168086020680068DF
:102C300000F04000402805D02068006840F04000C7
:102C400021680860E068B0F5006F2FD1606810B1AE
:102C5000B9F1010F09D1206B00882168C860206B91
:102C6000801C2063E08E401EE0861BE020688068A8
:102C700000F0020002280AD1206B00882168C86099
:102C8000206B801C2063E08E401EE0860AE0FEF789
:102C9000ABFDC01BA84201D3681C00B915B94FF0A9
:102CA000030A4CE0E08E0028E0D12EE0606810B10D
:102CB000B9F1010F09D1206B007821680873206BEE
:102CC000401C2063E08E401EE0861BE02068806888
:102CD00000F0020002280AD1206B007821680873F6
:102CE000206B401C2063E08E401EE0860AE0FEF769
:102CF0007BFDC01BA84201D3681C00B915B94FF079
:102D0000030A1CE0E08E0028E0D13A46294620461E
:102D100001F048FC08B120206065A06850B900BFF0
:102D2000002000902068C0680090206880680090B3
:102D300000BF00BF606D08B14FF0010A00BF012065
:102D400084F8510000BF002084F8500000BF5046B6
:102D50003CE72DE9FF5F0446884691461D460E9EDE
:102D6000012002900020019000BF94F8500001283B
:102D700003D1022004B0BDE8F09F012084F8500088
:102D800000BFFEF731FD074694F851B0606803902C
:102D9000AA46BBF1010F0BD00398B0F5827F04D196
:102DA000A06810B9BBF1040F02D002200190DBE053
:102DB000B8F1000F03D0B9F1000F00D015B9012010
:102DC0000190D1E094F85100042802D0052084F845
:102DD000510000206065C4F83890E587A587C4F8E5
:102DE0003080E586A586206460642068006800F075
:102DF0004000402805D02068006840F0400021686D
:102E00000860E068B0F5006F4AD1606810B1BAF1AF
:102E1000010F09D1206B00882168C860206B801CDD
:102E20002063E08E401EE08633E02068806800F07A
:102E30000200022810D1E08E70B1029801280BD157
:102E4000206B00882168C860206B801C2063E08EA6
:102E5000401EE086002002902068806800F001009B
:102E600068B1E08F58B12068C068A16B0880A06B82
:102E7000801CA063E08F401EE08701200290FEF7D7
:102E8000B3FCC01BB04204D3701C10B103200190EE
:102E90006AE0E08E0028C8D1E08F0028C5D14AE062
:102EA000606810B1BAF1010F09D1206B0078216878
:102EB0000873206B401C2063E08E401EE08634E0E7
:102EC0002068806800F00200022810D1E08E70B106
:102ED000029801280BD1206B007821680873206BC1
:102EE000401C2063E08E401EE08600200290206897
:102EF000806800F0010068B1E08F58B12068C068B8
:102F0000A16B0870A06B401CA063E08F401EE0879F
:102F100001200290FEF768FCC01BB04201D3701C78
:102F200000B916B9032001901EE0E08E0028C7D139
:102F3000E08F0028C4D13A463146204601F032FBEA
:102F400020B101200190202060650DE0A06850B9FB
:102F500000BF002000902068C06800902068806852
:102F6000009000BF00BF00BF012084F8510000BFE7
:102F7000002084F8500000BF0198FBE670477047BE
:102F800010B5024600BF92F83C00012801D1022092
:102F900010BD012082F83C0000BF022082F83D00F5
:102FA000106843681068846823F07003086803435E
:102FB00024F080044868044310684360106884600B
:102FC000012082F83D0000BF002082F83C0000BFD5
:102FD00000BFDDE710B504460CB9012010BD94F820
:102FE0003D0028B9002084F83C00204600F00CF891
:102FF000022084F83D00211D206801F037FC0120EB
:1030000084F83D000020E9E7704701460868C06881
:1030100040F001000B68D8600868806800F0070283
:10302000062A05D00868006840F001000B681860A7
:1030300000207047704710B5044620680069C0F34F
:103040004000D8B12068C068C0F34000B0B16FF054
:10305000020021680861012020772068806900F063
:10306000030018B12046FFF7E5FF05E0204600F019
:10307000E5F8204600F09AF90020207720680069E2
:10308000C0F38000D8B12068C068C0F38000B0B140
:103090006FF00400216808610220207720688069B1
:1030A00000F4407018B12046FFF7C4FF05E0204649
:1030B00000F0C4F8204600F079F90020207720685D
:1030C0000069C0F3C000D8B12068C068C0F3C00078
:1030D000B0B16FF0080021680861042020772068F3
:1030E000C06900F0030018B12046FFF7A3FF05E018
:1030F000204600F0A3F8204600F058F90020207781
:1031000020680069C0F30010D8B12068C068C0F31F
:103110000010B0B16FF0100021680861082020771E
:103120002068C06900F4407018B12046FFF782FFA4
:1031300005E0204600F082F8204600F037F9002034
:1031400020772068006900F0010058B12068C0684D
:1031500000F0010030B16FF00100216808612046E5
:1031600000F052F920680069C0F3C01058B120681F
:10317000C068C0F3C01030B16FF0800021680861F2
:103180002046FFF7FBFE20680069C0F3801058B1AD
:103190002068C068C0F3801030B16FF04000216833
:1031A0000861204600F03CF920680069C0F3401037
:1031B00058B12068C068C0F3401030B16FF02000F3
:1031C000216808612046FFF7DAFE10BD10B586B011
:1031D0000446002002900390049005901349206853
:1031E000884221D100BF1248806940F01000104988
:1031F00088610846806900F01000019000BF00BFA0
:103200004020029002200390059002A90948FEF791
:103210003DF900BF0849486820F4406040F0E06094
:1032200040F44060486000BF06B010BD000400409C
:10323000001002400010014000000140704770B5CE
:1032400004460D46164600BF94F83C00012801D103
:10325000022070BD012084F83C0000BF022084F8E9
:103260003D0036B1042E1BD0082E31D00C2E5ED17D
:1032700045E02946206801F059FB2068806940F04C
:103280000800216888612068806920F004002168B6
:10329000886120688069296908432168886147E05E
:1032A0002946206801F07AFB2068806940F40060BC
:1032B000216888612068806920F4806021688861C5
:1032C00020688069296940EA0120216888612FE02F
:1032D0002946206801F0A0FB2068C06940F0080082
:1032E0002168C8612068C06920F004002168C861B5
:1032F0002068C069296908432168C86118E0294627
:10330000206801F0C5FB2068C06940F400602168B6
:10331000C8612068C06920F480602168C8612068A5
:10332000C069296940EA01202168C86100E000BF46
:1033300000BF012084F83D0000BF002084F83C005D
:1033400000BF00BF85E710B504460CB9012010BDD1
:1033500094F83D0028B9002084F83C00204600F095
:103360000DF8022084F83D00211D206801F07EFA4E
:10337000012084F83D000020E9E7000008B5094A73
:10338000016891420DD100BF0749C96941F00201AE
:10339000054AD1611146C96901F00201009100BFDF
:1033A00000BF08BD0004004000100240704700004C
:1033B00070B504460E4601223146206801F0A4FA99
:1033C0000F492068884203D00E492068884201D105
:1033D000012000E0002028B12068406C40F400404B
:1033E000216848642068806800F00705062D05D034
:1033F0002068006840F0010021680860002070BD6E
:10340000002C01400034014010B5044603492068F7
:10341000884201D1FEF740FD10BD000000140040BD
:10342000704770B50446002520684069C0F3C01598
:1034300094F8390021280ED16DB12068406920F040
:10344000800021684861206B10B1206BFDF7BEFC45
:10345000204601F0CDFB20684069C0F3801594F848
:103460003A0022280ED16DB12068406920F040005A
:1034700021684861606B10B1606BFDF7A7FC2046C6
:1034800001F096FB002070BD704700002DE9F04769
:103490000446206805682068C668206847694FF0C0
:1034A0000008C14605F00F08B8F1000F0AD105F079
:1034B000200038B106F0200020B1204601F096FC33
:1034C000BDE8F087B8F1000F6DD007F0010018B922
:1034D00006F49070002866D005F0010030B106F4C3
:1034E000807018B1E06B40F00100E06305F004006B
:1034F00030B107F0010018B1E06B40F00200E0636A
:1035000005F0020030B107F0010018B1E06B40F0A7
:103510000400E06305F0080030B107F0010018B1C5
:10352000E06B40F00800E063E06B68B305F020005A
:1035300028B106F0200010B1204601F057FC2068A9
:103540004069C0F38019E06B00F0080010B9B9F1D0
:10355000000F22D0204601F02BFB2068406900F0CC
:103560004000B0B12068406920F040002168486107
:10357000606B50B11748616B4863606BFDF752FC9C
:1035800010B1606B416B88470CE02046FFF77CFF71
:1035900008E02046FFF778FF04E02046FFF774FFBD
:1035A0000020E0638CE705F0800030B106F0800079
:1035B00018B1204601F03EFD82E705F0400030B131
:1035C00006F0400018B1204601F002FB78E700BF8A
:1035D00076E70000F94A000810B504460CB901204E
:1035E00010BDA06900B100E000BF94F8390028B90F
:1035F000002084F83800204600F028F8242084F8C1
:1036000039002068C06820F400502168C860204656
:1036100001F040FC2068006920F4904021680861B6
:103620002068406920F02A00216848612068C0684D
:1036300040F400502168C8600020E063202084F836
:10364000390084F83A000020CAE7000010B586B0BF
:10365000044600200290039004900590CC49206815
:1036600088426BD100BFCB48C06940F40020C949F3
:10367000C8610846C06900F40020019000BF00BF87
:1036800000BF0846806940F01000886108468069E4
:1036900000F01000019000BF00BF0815029002204A
:1036A00003900320059002A9BB48FDF7EFFE4FF4FD
:1036B00000600290002003900120049002A9B64807
:1036C000FDF7E4FEB548B6490860002048600021D7
:1036D000B34881608021C160002101614161816145
:1036E000C161FDF73FFE08B1FDF7D7F900BFAC4857
:1036F0006063446200BFA9482830AA4908601020CE
:1037000048600021A74881608021C16000210161DB
:1037100041618161C161FDF725FE08B1FDF7BDF989
:1037200000BFA0482063446200BF0022114634203D
:10373000FEF750FC3420FEF73DFC26E19A49206854
:1037400088426BD100BF9348806940F48040914922
:1037500088610846806900F48040019000BF00BF86
:1037600000BF0846806940F004008861084680690F
:1037700000F00400019000BF00BF48150290022035
:1037800003900320059002A98848FDF77FFE4FF4BF
:1037900080600290002003900120049002A98348D9
:1037A000FDF774FE824883490860002048600021CC
:1037B000804881608021C160002101614161816197
:1037C000C161FDF7CFFD08B1FDF767F900BF79488A
:1037D0006063446200BF764814387749086010205F
:1037E00048600021744881608021C160002101612E
:1037F00041618161C161FDF7B5FD08B1FDF74DF98A
:1038000000BF6D482063446200BF0022114625209E
:10381000FEF7E0FB2520FEF7CDFBB6E06749206808
:10382000884237D100BF5B48C06940F40030594935
:10383000C8610846C06900F40030019000BF00BFB5
:1038400000BF0846806940F004008861084680692E
:1038500000F00400019000BF00BF0420029002208D
:1038600003900320059002A95048FDF70FFE0820A1
:103870000290002003900120049002A94B48FDF71C
:1038800005FE002211462620FEF7A4FB2620FEF7A7
:1038900091FB7AE04A492068884276D100BF3D48D2
:1038A000C06940F480203B49C8610846C06900F403
:1038B0008020019000BF00BF00BF0846806940F033
:1038C000200088610846806900F02000019000BF58
:1038D00000BF88150290022003900320059002A9E2
:1038E0003848FDF7D3FD4FF400700290002003909C
:1038F0000120049002A93348FDF7C8FD00BF3249FA
:10390000486820F0300040F0E06040F0300048604F
:1039100000BF274828382D49086000204860002152
:103920002A4881608021C16000210161416181617B
:10393000C161FDF717FD08B1FDF7AFF800BF2348DF
:103940006063446200BF1A483C3821490860102077
:10395000486000211E4881608021C1600021016112
:1039600041618161C161FDF7FDFC08B1FDF795F88A
:1039700000BF17482063446200BF00221146272081
:10398000FEF728FB2720FEF715FB06B010BD000050
:10399000004C004000100240001001403004024082
:1039A00070B900202CB90020003801400008014007
:1039B00058000240B4B90020F8B90020004400408B
:1039C0000048004000140140000001403CBA0020C3
:1039D00080BA002077B581B00446154694F83A00C5
:1039E000202850D1029800B115B9012004B070BD53
:1039F00000BF94F83800012801D10220F6E7012029
:103A000084F8380000BF0298A062A5850020E0631A
:103A1000222084F83A001D48616B88621C48616B63
:103A2000C8621C48616B08630020616B486302AE8A
:103A300032682368191D2B46606BFDF7D9FC00BF67
:103A40000020009020680068009020684068009086
:103A500000BF00BF00BF002084F8380000BF20680E
:103A6000C06840F480702168C8602068406940F0F8
:103A70000100216848612068406940F040002168E9
:103A800048610020B2E70220B0E700005D4B00086B
:103A9000A34B00080D4B000870477047704700BFEC
:103AA000FEE7014608684069C0F38020B0B16FF4BA
:103AB00080600A68506100200863202081F83D0082
:103AC000002081F83E00086C40F00400086400BF4C
:103AD000002081F83C0000BF012070470020FCE777
:103AE0002DE9F84304460F4615469946DDE9088658
:103AF0002068006840F480602168086020680068E1
:103B000040F4807021680860434600224FF00111A4
:103B10002046009600F014F910B10120BDE8F883AA
:103B200007F0FE00216808613346424639492046C5
:103B300000F049F908B10120F0E700BF0020009033
:103B400020684069009020688069009000BF00BF35
:103B500032464146204600F0D8F950B1206C042886
:103B600005D12068006840F40070216808600120D9
:103B7000D4E7B9F1010F03D1E8B22168086117E079
:103B8000C5F307202168086132464146204600F00F
:103B9000BCF950B1206C042805D12068006840F4BD
:103BA0000070216808600120B8E7E8B22168086168
:103BB00032464146204600F0A8F950B1206C042856
:103BC00005D12068006840F4007021680860012079
:103BD000A4E72068006840F48070216808604346CC
:103BE00000224FF001112046009600F0A9F808B11C
:103BF000012093E7F8B240F00100216808613346E4
:103C000042460449204600F0DEF808B1012085E76D
:103C1000002083E7020001002DE9F84304468846AE
:103C200015469946DDE908672068006840F4807011
:103C300021680860334600224FF0011120460097AA
:103C400000F07EF810B10120BDE8F88308F0FE0016
:103C5000216808613B4632462149204600F0B3F80E
:103C600008B10120F0E700BF002000902068406903
:103C7000009020688069009000BF00BF3A4631463E
:103C8000204600F042F950B1206C042805D120688C
:103C9000006840F40070216808600120D4E7B9F1A1
:103CA000010F03D1E8B22168086117E0C5F30720CE
:103CB000216808613A463146204600F026F950B1A5
:103CC000206C042805D12068006840F40070216849
:103CD00008600120B8E7E8B2216808610020B3E776
:103CE0000200010070B504460D46164620E020464D
:103CF000FFF7D7FE08B1012070BD681CC0B1FDF709
:103D000073FD801BA84200D895B9002020632020B5
:103D100084F83D00002084F83E00206C40F0200034
:103D2000206400BF002084F83C0000BF0120E3E7CE
:103D300020684069C0F380000028D8D00020DBE76D
:103D40002DE9F04104460D4617461E46DDF8188061
:103D50001CE0701CD0B1FDF747FDA0EB0800B0429D
:103D600000D89EB900202063202084F83D00002068
:103D700084F83E00206C40F02000206400BF00204A
:103D800084F83C0000BF0120BDE8F081C5F3074086
:103D900001280AD120684069A9B20840A9B2884226
:103DA00001D101200BE0002009E020688069A9B260
:103DB0000840A9B2884201D1012000E00020B842A9
:103DC000C7D00020E0E72DE9F04104460D46164635
:103DD0001F463DE020684069C0F38020E8B12068BC
:103DE000006840F40070216808606FF4806021680A
:103DF000486100202063202084F83D00002084F8E2
:103E00003E00206C40F00400206400BF002084F8D5
:103E10003C0000BF0120BDE8F081701CC0B1FDF77F
:103E2000E3FCC01BB04200D896B9002020632020DC
:103E300084F83D00002084F83E00206C40F0200013
:103E4000206400BF002084F83C0000BF0120E2E7AE
:103E5000C5F3074001280AD120684069A9B208408B
:103E6000A9B2884201D101200BE0002009E02068BE
:103E70008069A9B20840A9B2884201D1012000E0BE
:103E800000200028A6D00020C5E770B504460D46E6
:103E9000164632E020684069C0F30010A0B16FF010
:103EA00010002168486100202063202084F83D0034
:103EB000002084F83E00206C206400BF002084F8BD
:103EC0003C0000BF012070BDFDF78EFC801BA842A6
:103ED00000D895B900202063202084F83D00002000
:103EE00084F83E00206C40F02000206400BF0020D9
:103EF00084F83C0000BF0120E5E720684069C0F37A
:103F000080100028C6D00020DDE770B504460D46BD
:103F1000164620E02046FFF7C4FD08B1012070BD21
:103F2000681CC0B1FDF760FC801BA84200D895B9A1
:103F300000202063202084F83D00002084F83E000B
:103F4000206C40F02000206400BF002084F83C007A
:103F500000BF0120E3E720684069C0F3C0100028DB
:103F6000D8D00020DBE700002DE9F04782464FF073
:103F700081415046FCF718FC02D20020BDE8F087D2
:103F80005046FCF7FEFB80460A4A0B4BFCF7EDFA65
:103F900006464FF03332094BFCF7E1FA0446FCF7D2
:103FA000D7FB00EBC00101EB00104FF6FF7101EAF7
:103FB0008000E3E714AE47E17AD4324033D3524075
:103FC0000EB500200090019002901248124908603E
:103FD000002111488160017301754FF46021C161B6
:103FE00000200D49486001210B480161FCF706FEE5
:103FF00008B1FCF752FD0020009001200190002044
:10400000029069460448FCF749FD08B1FCF745FDFC
:104010000EBD0000002401404C02002008B500BF86
:104020002548406940F0010023494861084640693D
:1040300000F00100009000BF00BF00BF08464069CB
:1040400040F0020048610846406900F0020000901C
:1040500000BF00BF002211460C20FDF7BBFF0C2063
:10406000FDF7A8FF002211460D20FDF7B3FF0D203C
:10407000FDF7A0FF002211460E20FDF7ABFF0E203A
:10408000FDF798FF002211460F20FDF7A3FF0F2038
:10409000FDF790FF002211463A20FDF79BFF3A20E2
:1040A000FDF788FF002211463B20FDF793FF3B20E0
:1040B000FDF780FF08BD00000010024000B585B08C
:1040C0000020019002900390049000BF684880692E
:1040D00040F04000664988610846806900F0400071
:1040E000009000BF00BF00BF0846806940F010008C
:1040F00088610846806900F01000009000BF00BF92
:1041000000BF0846806940F0040088610846806965
:1041100000F00400009000BF00BF00BF08468069A7
:1041200040F0080088610846806900F008000090AF
:1041300000BF00BF00BF0846806940F020008861D2
:104140000846806900F02000009000BF00BF0122F7
:104150004FF4D8714748FDF741FB012240F203318B
:104160004548FDF73BFB0122D1034448FDF736FBF0
:1041700001224CF220014248FDF730FB01224FF4AE
:1041800001414048FDF72AFB44F27D0001900020E8
:1041900002900120039001A93848FDF777F94EF20B
:1041A00007200190002002900120039001A93148CE
:1041B000FDF76CF9302001900120029003900490EB
:1041C00001A92C48FDF762F940F20330019001206B
:1041D00002900390049001A92748FDF757F94FF486
:1041E000004001901120029001200390049001A949
:1041F0002248FDF74BF94FF47050019000200290D7
:104200000120039001A91E48FDF740F94CF220005F
:1042100001901120029001200390049001A91848F8
:10422000FDF734F94FF4C070019011200290012085
:104230000390049001A90F48FDF728F94FF480700E
:1042400001901120029001200390049001A90D48D3
:10425000FDF71CF94FF400400190012002900390FB
:104260000320049001A90748FDF710F905B000BD2F
:104270000010024000100140000C014000180140F5
:10428000001401400008014010B50B480B490860BC
:104290000B484860002109488160C1604FF48041AB
:1042A0000161002141618161C1610162FDF7A2FAF2
:1042B00008B1FCF7F2FB10BD005800407C02002062
:1042C000A086010010B50E480E4908604FF48270B8
:1042D000486000210B488160C1600161012141619A
:1042E000490281613821C16100210162416281621C
:1042F0000A21C162FEF7E2FA08B1FCF7CEFB10BD5D
:1043000000300140D002002010B50E480E49086070
:104310004FF48270486000210B488160C1600161E8
:1043200041614FF4007181613821C1610021016256
:10433000416281620A21C162FEF7C0FA08B1FCF74E
:10434000ACFB10BD003800402803002000B589B048
:104350000020079008901C216846FBF77AFF184858
:1043600018490860002048600021164881604FF617
:10437000FF71C160002101618161FEF7E4FF08B1B6
:10438000FCF78BFB00200790089007A90D48FEF76B
:10439000F7FD08B1FCF781FB602000900020019040
:1043A00002900490002269460648FEF748FF08B1D3
:1043B000FCF773FB0348FEF709FF09B000BD0000DE
:1043C000000400408003002010B511481149086026
:1043D0004FF4E130486000210E488160C160016106
:1043E0000C21416100218161C161FFF7F5F808B13D
:1043F000FCF753FB07480068C06840F0100005490F
:104400000968C860FF2204490248FFF7E3FA10BDBB
:10441000004C00406CB8002070B1002010B511486D
:10442000114908604FF41650486000210E48816021
:10443000C16001610C21416100218161C161FFF70F
:10444000CBF808B1FCF729FB07480068C06840F0CA
:10445000100005490968C860FF2204490248FFF7B7
:10446000B9FA10BD00380140ACB8002074AD00208E
:1044700010B50B480B4908604FF4E130486000214B
:1044800008488160C16001610C21416100218161A6
:10449000C161FFF7A1F808B1FCF7FFFA10BD0000F9
:1044A00000440040C003002010B5114811490860C5
:1044B0004FF46140486000210E488160C160016195
:1044C0000C21416100218161C161FFF785F808B1CC
:1044D000FCF7E3FA07480068C06840F0100005499F
:1044E0000968C860FF2204490248FFF773FA10BD4B
:1044F00000480040ECB8002072AF002000BFFEE78B
:104500007047000008B508490968C9084FF47A7275
:10451000B1FBF2F14143009100BF00BF00994A1E78
:1045200000920029F9D108BD1C000020F8B504460E
:104530000E4615466068B0F5827F0DD1A068B0F5D3
:10454000004F03D0A068B0F5806F05D120680068E7
:1045500020F04000216808606068B0F5827F11D1CA
:10456000A068B0F5806F0DD13346002201212046AE
:10457000009500F02BF898B1606D40F02000606568
:104580000320F8BD3346002280212046009500F02C
:104590001DF828B1606D40F0200060650320F0E751
:1045A0000020EEE7F8B504460D4616462B460022DD
:1045B00080212046009600F009F828B1606D40F097
:1045C000200060650320F8BD0020FCE72DE9F041E4
:1045D00004460E4617461D46DDF818803EE0681C6E
:1045E000D8B3FDF701F9A0EB0800A84200D2A5BBA3
:1045F0002068406820F0E000216848606068B0F5FD
:10460000827F0DD1A068B0F5004F03D0A068B0F54F
:10461000806F05D12068006820F0400021680860A4
:10462000A06AB0F5005F0DD100BF2068006820F4DB
:104630000050216808602068006840F4005021683C
:10464000086000BF012084F8510000BF002084F8FA
:10465000500000BF0320BDE8F081FFE720688068BC
:104660003040B04201D1012000E00020B842B6D174
:104670000020F0E702F0BEFF00BF00222021084822
:10468000FDF7ACF80A2001F08BFD0122202104483F
:10469000FDF7A4F840F2DE3001F082FDEDE7000006
:1046A0000014014000BF4FF47A7001F079FDFAE781
:1046B00010B500BF502080F31188BFF34F8FBFF3B8
:1046C0006F8F00BF04F09CFD18B14FF0805004497B
:1046D000086000BF002080F3118800BF10BD0000FB
:1046E00004ED00E000B595B028210BA8FBF7B1FD63
:1046F000142106A8FBF7ADFD18216846FBF7A9FDBC
:1047000002200B9001200F90102010900220129098
:10471000002113914FF4601114910BA8FDF79CFE3A
:1047200008B1FCF7BAF90F2006900220079000208C
:1047300008904FF48060099000200A90022106A89A
:10474000FDF732FD08B1FCF7A8F9022000904FF404
:10475000404002906846FDF78FFC08B1FCF79DF9D8
:1047600015B000BD1148006840F001000F49086015
:10477000084640680E4908400C49486008460068F1
:104780000C490840094908600846006820F4802068
:1047900008600846406820F4FE0048604FF41F009F
:1047A0008860C80304490860704700000010024098
:1047B0000000FFF8FFFFF6FE08ED00E02DE9F047EE
:1047C00086B004460E4654B94FF6FF702049086083
:1047D00000201F490831086006B0BDE8F0871D4879
:1047E0000068B0FBF4FA4FF6FF7000EA1A45681C47
:1047F00085B218480068B0FBF5FABAFBF4F01FFA6E
:1048000080F9A9F1010012490860681E091F0860BB
:10481000091D0968481CFBF78EFF0746884630468D
:10482000FBF789FF00220C4BCDE90001FBF70FFFDE
:104830003A464346CDE90201FBF797FECDE9040174
:10484000FBF786FF80B202490831086000BFC3E76A
:104850002C0400401C0000200000594010B5024804
:10486000FEF7E9FB10BD00000004002010B502684F
:10487000204B98420ED0204B98420BD0B0F1804F85
:1048800008D01E4B984205D01D4B984202D01D4BBC
:10489000984203D122F070024B681A43154B98429C
:1048A0000ED0154B98420BD0B0F1804F08D0134B6F
:1048B000984205D0124B984202D0124B984203D135
:1048C00022F44072CB681A4322F080034C6943EA19
:1048D000040202608B68C3620B688362054B9842D6
:1048E00002D0054B984201D10B6903630123436158
:1048F00010BD0000002C01400034014000040040C5
:1049000000080040000C004030B501F01F050124F4
:1049100004FA05F3046A9C430462046A01F01F056B
:1049200002FA05F52C43046230BD000030B5056A7B
:1049300025F001050562026A4368846924F0700469
:1049400024F003040D682C4322F002028D682A43F0
:10495000104DA84200D103E00F4DA84206D100BF80
:1049600022F00802CD682A4322F00402094DA84231
:1049700002D0094DA84207D123F4807323F40073B9
:104980004D692B438D692B43436084614D684563BA
:10499000026230BD002C01400034014030B5056A90
:1049A00025F010050562026A4368846924F4E04436
:1049B00024F440740D6844EA052422F020028D6836
:1049C00042EA0512124DA84200D103E0114DA8425F
:1049D00007D100BF22F08002CD6842EA051222F022
:1049E00040020B4DA84202D00A4DA84209D123F43F
:1049F000806323F400634D6943EA85038D6943EACC
:104A00008503436084614D688563026230BD0000A8
:104A1000002C01400034014030B5056A25F4807552
:104A20000562026A4368C46924F0700424F0030438
:104A30000D682C4322F400728D6842EA0522124D63
:104A4000A84200D103E0114DA84207D100BF22F4D3
:104A50000062CD6842EA052222F480620A4DA84233
:104A600002D00A4DA84209D123F4805323F4005305
:104A70004D6943EA05138D6943EA05134360C46138
:104A80004D68C563026230BD002C01400034014016
:104A900030B5056A25F480550562036A4468C26929
:104AA00022F4E04222F440720D6842EA052223F427
:104AB00000538D6843EA0533084DA84202D0084DE3
:104AC000A84204D124F480444D6944EA851444602A
:104AD000C2614D680564036230BD0000002C0140D6
:104AE0000034014010B50348FEF7D0FC014800F047
:104AF00089F810BD6CB8002070B505466C6A0020BE
:104B0000E085E0842046FEF7BFFC70BD70B5064628
:104B10000025746A20684069C0F3C01594F8390014
:104B2000212805D125B10020E084204600F060F85E
:104B300020684069C0F3801594F83A00222805D116
:104B400025B10020E085204600F032F8E06B40F00F
:104B50001000E0632046FEF797FC70BD70B5054677
:104B60006C6A2868006800F02000B0B90020E08579
:104B70002068C06820F480702168C860206840699F
:104B800020F00100216848612068406920F0400061
:104B900021684861202084F83A002046FEF77CFF17
:104BA00070BD70B50446656A2846FEF776FF70BD95
:104BB0000168C96821F490710268D160016849698F
:104BC00021F0010102685161202180F83A107047FC
:104BD00010B504462068C06820F040002168C86015
:104BE000202084F839002046FEF758FF002010BD31
:104BF0000168C96821F0C0010268D160202180F8F5
:104C00003910704738B5044620680068C0F30010BA
:104C100000284CD000BF0020009020680068009061
:104C200020684068009000BF00BF206805682068C9
:104C3000456800BF2046FEF7F4FB514920688842D2
:104C400036D1504800684068C0F1FF004E490870F6
:104C500008460078012812DD4C48007878B94C49A4
:104C60004C4A1278881848490A784B49FBF7D8FA19
:104C70004848007844490978084446490870FF22AA
:104C800045494648FEF7A6FEFF214548FBF7E1FAF5
:104C90004048027840494248FBF7C2FA3D48017853
:104CA0003F4800F0D7FBFF213B48FBF7D2FA66E014
:104CB0003C492068884231D13B4800684068C0F1D7
:104CC000FF003A49087008460078012812DD38488C
:104CD000007878B93749384A1278881833490A7801
:104CE0003649FBF79DFA3448007830490978084482
:104CF00031490870FF2231493148FEF76BFEFF2130
:104D00003048FBF7A6FA294802782C492D48FBF7D2
:104D100087FAFF212948FBF79CFA30E02A492068EE
:104D200088422CD1294800684068C0F1FF0028491A
:104D3000087008460078012812DD2648007878B906
:104D40002549264A1278881821490A782449FBF710
:104D500067FA224800781E49097808441F490870FC
:104D6000FF221F491F48FEF735FEFF211E48FBF7B3
:104D700070FA174802781A491B48FBF751FA38BDF8
:104D800000380140B4B900201602002018020020AB
:104D900073AE00201902002074AD0020ACB80020D2
:104DA0006DB40020004800403CBA00201A020020E8
:104DB0001C02002071B000201D02002072AF0020F4
:104DC000ECB800206BB60020004C004070B9002009
:104DD0001E020020200200206FB2002021020020CD
:104DE00070B100206CB800206AB7002070B504468E
:104DF00094F83A0022284AD1A068B0F5805F13D118
:104E0000A56A206940B920684068C0F3080028807E
:104E1000A06A801CA06219E020684068C0B22880A7
:104E2000A06A401CA06211E0206938B9206840687F
:104E3000C1B2A26A501CA062117007E020684068ED
:104E400000F07F01A26A501CA0621170E08D401E2C
:104E500080B2E085C8B92068C06820F020002168D1
:104E6000C8602068C06820F480702168C86020682D
:104E7000406920F0010021684861202084F83A0050
:104E80002046FEF709FE002070BD0020FCE702204E
:104E9000FAE7000070B504462168096921F4405121
:104EA000E2681143226811612269A16811436269B5
:104EB00041EA02052168C96841F20C629143294325
:104EC0002268D1602168496921F44071A2691143C7
:104ED00022685161564A2168914254D1FDF762FA25
:104EE00000EBC00101EB001162689200B1FBF2F12E
:104EF00000EBC00202EB001263689B00B2FBF3F20E
:104F00006423B2FBF3F202EBC20303EB0212A1EB48
:104F10008201322202EB01116422B1FBF2F101F0B5
:104F2000F00100EBC00202EB001263689B00B2FBD1
:104F3000F3F26423B2FBF3F201EB021200EBC001C7
:104F400001EB001163689B00B1FBF3F100EBC003C0
:104F500003EB00136668B600B3FBF6F36426B3FBFD
:104F6000F6F303EBC30606EB0313A1EB8301322335
:104F700003EB01116423B1FBF3F101F00F011144C4
:104F80002268916053E0FDF7FDF900EBC00101EBF1
:104F9000001162689200B1FBF2F100EBC00202EB7B
:104FA000001263689B00B2FBF3F26423B2FBF3F2DE
:104FB00002EBC20303EB0212A1EB8201322202EBED
:104FC00001116422B1FBF2F101F0F00100EBC0022B
:104FD00002EB001263689B00B2FBF3F26423B2FBA6
:104FE000F3F201EB021200EBC00101EB0011636868
:104FF0009B00B1FBF3F100EBC00303EB0013666809
:10500000B600B3FBF6F36426B3FBF6F303EBC3067B
:1050100006EB0313A1EB8301322303EB011164239D
:10502000B1FBF3F101F00F0111442268916070BDF2
:1050300000380140014691F8390021282CD18868B8
:10504000B0F5805F0FD10A6A1088C0F308000B68C2
:105050005860086918B9086A801C086209E0086A83
:10506000401C086205E00B6A581C086218780B683F
:105070005860C88C401E80B2C88458B90868C0689F
:1050800020F080000B68D8600868C06840F04000DD
:105090000B68D860002070470220FCE710B5034879
:1050A000FEF7F4F90148FFF7ADFD10BDACB80020E4
:1050B00010B50248FEF7EAF910BD0000C003002059
:1050C00010B50348FEF7E2F90148FFF79BFD10BD5C
:1050D000ECB8002000BFFEE702480068C0F30220E1
:1050E000704700000CED00E010B5002804DB0A0753
:1050F000130E054A135406E00A07140E034A00F083
:105100000F031B1FD45410BD00E400E018ED00E0B5
:10511000EFF311807047EFF305807047EFF31080D5
:10512000704702E008C8121F08C1002AFAD1704770
:105130007047002001E001C1121F002AFBD1704717
:10514000014601F00F000A1102EB820200EB42005F
:10515000C0B270472DE9F04105460E462C460027A7
:105160000CB9BDE8F081701E275C2078012802D0C0
:10517000022853D11EE02079062818D2DFE800F07B
:105180001703070B0F13204600F020FF10E0204606
:1051900000F0D8F80CE0204600F0F1F808E02046D6
:1051A00000F0EAFC04E0204600F0E6FC00E000BF6E
:1051B00000BF34E0A0780C282DD2DFE800F02C06E8
:1051C0000A0E12161A1E22262A2B204602F0E6F894
:1051D00022E0204602F04BF81EE0204602F07CF868
:1051E0001AE0204602F03BF816E0204602F02FF8C5
:1051F00012E0204600F0FCFE0EE0204600F0AAF887
:105200000AE0204600F0F0F906E0204603F06CF8D2
:1052100002E001E000E000BF00BF00E000BF00BF0F
:1052200000BF9EE710B504460648007800B110BDE7
:1052300001F074F9044800F031F8012001490870C8
:1052400000BFF4E7140100201801002010B5002071
:1052500001F07EF910BD10B50446322001F078F956
:10526000A0B201F06DF910BD10B50448006818B186
:10527000024909680868804710BD00000802002044
:1052800010B504460448006820B10348006841682E
:105290002046884710BD0000080200200149086030
:1052A000704700000802002070B504460D461646FF
:1052B00002480088FFF7E4FF70BD000036010020BF
:1052C00030B58BB00446684600F0ECF8054615B9D9
:1052D00003200BB030BD0598A0800498401CA0713D
:1052E0000398E07102982070019860700098A07097
:1052F0000698401C20720020EBE710B500F02CF956
:1053000008B9012010BD0020FCE730B58BB0044681
:10531000A0880590A079401E0490E0790390207841
:10532000029060780190A0780090207A401E06904C
:10533000684600F01DF9054615B902200BB030BDD6
:105340000020FBE710B50146CB798C7903EB0423F1
:105350009AB210BD70B5044626463579012D02D0AB
:10536000FF2D09D104E04FF0FF3000F029FC04E0EC
:10537000012000F025FC00E000BF00BF70BD10B5AB
:105380000146CB798C7903EB04239AB210BD00005F
:1053900010B50F4801214268002090470C480121B8
:1053A0004268022090470A4801214268072090473E
:1053B00008480021426802209047064800214268C0
:1053C000084690470348002142680120904710BDDD
:1053D000A8A3000864A3000870B50446082C01DDEA
:1053E000002070BD012010490870104A32F82420B6
:1053F00091B20F4A52F82400FCF7E8F90A49087004
:105400000846007838B90B4850F8240008B901253F
:1054100008E0002506E0074850F8240008B90025F8
:1054200000E001252846DCE7DC000020BC0000206D
:105430009C00002014AD002001460A2091FBF0F2F0
:1054400000FB12100A2291FBF2F200EB0210C0B234
:10545000704700002DE9F04107460C460D4D2646E9
:105460000D48007810B101280DD107E00BA12846A6
:10547000FAF7FAFE08B9BDE8F08104E031462846A3
:10548000FFF768FE00BF00BF01200549087000BF9C
:10549000F1E700006DB40020290200206F6B0000CE
:1054A000280200203EB5044600BF0CB900203EBDD6
:1054B00000BF072001AB0022D1210090254800F059
:1054C000FDF80546012D01D02846F0E79DF80400BF
:1054D000FFF736FE20609DF80500FFF731FE6060A3
:1054E0009DF8060000F0400080B19DF8061001F024
:1054F0001F00FFF725FE401EA0609DF8060000F08B
:10550000200040B1A0680C30A06004E09DF80600C7
:10551000FFF716FEA0609DF80700FFF711FE401E82
:10552000A0619DF80800FFF70BFEE0609DF80910F0
:1055300001F01F00FFF704FE401E20619DF80A00E5
:10554000FFF7FEFD00F5FA60606100202062012097
:10555000ADE700001002002010B50349034800F039
:1055600033F9012010BD00007C0200201002002051
:105570003EB5044600BF0CB900203EBD00BF2078F8
:10558000FFF75AFF8DF804002079FFF755FF8DF8DB
:105590000500207AFFF750FF8DF80600217E491C98
:1055A000C8B2FFF749FF8DF80700207BFFF744FFE3
:1055B0008DF80800217C491CC8B2FFF73DFF8DF82B
:1055C0000900217DA1F5FA61C8B2FFF735FF8DF81A
:1055D0000A00072001AB0022D0210090014800F012
:1055E000B1F8CAE71002002070B5044625462E79AE
:1055F000012E02D0FF2E0CD105E0074801214268A0
:105600000220904705E004480021426802209047AC
:1056100000BF00BF70BD000064A3000810B50249C0
:10562000024800F0D1F810BD7C02002024020020C6
:10563000F8B505460C4616460027E2B20E2000EAF1
:10564000E41040F0A1012B460348009600F036F824
:1056500007463846F8BD000024020020F8B505468C
:105660000C4616460027E2B20E2000EAE41040F095
:10567000A0012B460348009600F064F80746384620
:10568000F8BD00002402002038B504460020009038
:105690000848694682680020904708B1002038BD5C
:1056A0000098FEF761FC20800349009848600120C3
:1056B000F5E70000A8A300087CBD00202DE9FE430B
:1056C0000546884616461F46DDF828900024FF2030
:1056D0001A490870611E1A48006800F0BFFD20B129
:1056E000012016490870601CC4B2022013490870DA
:1056F0003220F2B2CDE900790290012341462868B8
:10570000FCF754F920B103200C490870601CC4B2A6
:1057100004200A4908700A48006800F057FE20B1CA
:10572000052006490870601CC4B2062003490870B1
:1057300014B10020BDE8FE830120FBE71402002025
:10574000040000202DE9FE430546884616461F4604
:10575000DDF828900024611E1948006800F07EFDE5
:1057600020B1012017490870601CC4B202201549FD
:1057700008703220F2B2CDE900790290012341464F
:105780002868FCF79BFA20B103200E490870601CC2
:10579000C4B204200B4908700948006800F016FEE6
:1057A00020B1052007490870601CC4B206200549D5
:1057B000087014B10020BDE8FE830120FBE7000063
:1057C0000400002015020020024609B9002070479D
:1057D00011600120FBE7000010B501F09BFE0C49B1
:1057E000086880470B490868804704462CB103E0ED
:1057F0004FF47A7000F0D4FCFAE707490868804754
:1058000006490868804706490868804710BD0000BF
:10581000B8A30008A8A3000864A3000890A3000888
:105820009CA300082DE9F0410446082C02DD00206D
:10583000BDE8F0810025002703F0DCFC0646204689
:10584000FFF7CAFD05461648005DA84205D0154879
:1058500040F824600020144908551348005DD8B969
:10586000104850F82400301A1E2815D9012D08D1EF
:105870000E48005D01280CD0012701200B49085576
:1058800007E00A48005D022803D0022702200749EA
:105890000855012004490855014805553846C7E711
:1058A000F500002054AD0020FD000020050100207F
:1058B00070B50446082C01DD002070BD002503F002
:1058C00099FC06462046FFF787FD05461148005D16
:1058D000A84205D0104840F8246000200F49085520
:1058E0000E48005D88B90C4850F82400301A1E2874
:1058F0000BD9012D03D103200949085502E00420EA
:10590000074908550120054908550248055504482E
:10591000005DD2E7DD00002034AD0020E50000206E
:10592000ED0000203EB504460D4600200290019097
:10593000082C15D2DFE804F00406080A0C0E101239
:1059400007240EE006240CE005240AE0042408E005
:10595000002406E0012404E0022402E0032400E025
:1059600000BF00BF611CC8B202A901F079FF08B1F5
:1059700004203EBD9DF8080008B90220F9E7611C2B
:10598000C8B201A901F0DAFF08B10420F1E79DF8DF
:10599000040008B90320ECE7611CC8B2694601F0B5
:1059A00015FF08B10420E4E7009802F02DF9286003
:1059B0000020DEE73EB504460D460020029001902F
:1059C000082C15D2DFE804F00406080A0C0E1012A9
:1059D00007240EE006240CE005240AE0042408E075
:1059E000002406E0012404E0022402E0032400E095
:1059F00000BF00BF611CC8B202A901F031FF08B1AD
:105A000004203EBD9DF8080008B90220F9E7611C9A
:105A1000C8B201A901F092FF08B10420F1E79DF896
:105A2000040008B10320ECE7611CC8B2694601F02C
:105A3000CDFE08B10420E4E7009802F0E5F8286004
:105A40000020DEE710B502F011F808B1012010BD0A
:105A50000020FCE77CB504460D4600200190009034
:105A6000082C15D2DFE804F00406080A0C0E101208
:105A700007240EE006240CE005240AE0042408E0D4
:105A8000002406E0012404E0022402E0032400E0F4
:105A900000BF00BF611CC8B2294601F087FF08B1F2
:105AA00005207CBD611CC8B201A901F047FF08B107
:105AB0000420F6E79DF80400854201D00320F0E7BA
:105AC000611CC8B2012101F001FF08B10520E8E71F
:105AD000611CC8B2694601F0C3FE08B10420E0E7CA
