:020000040800F2
:10000000D8C10020DD0100086B39000881310008EB
:1000100069390008950B0008D9420008000000006B
:100020000000000000000000000000004501000882
:100030000B0C00080000000089010008B93A000814
:10004000F7010008F7010008F7010008F7010008B0
:10005000F7010008F7010008F7010008F7010008A0
:10006000F7010008F7010008F7010008F701000890
:10007000990B0008A50B0008B10B0008BD0B000888
:10008000F7010008F7010008F7010008F701000870
:10009000F7010008F7010008F7010008F701000860
:1000A000F7010008F7010008F7010008F701000850
:1000B000F7010008F7010008F7010008F701000840
:1000C000F7010008F7010008F7010008F701000830
:1000D000F70100089D420008B5420008C14200082F
:1000E000F7010008F7010008F7010008F701000810
:1000F000F7010008F7010008F7010008F701000800
:10010000F7010008F7010008F7010008F7010008EF
:100110003D3E0008F7010008F7010008053C000813
:10012000F7010008F7010008C90B0008D50B00080B
:10013000DFF80CD000F06AFC004800473D5400088E
:10014000D8C10020224B19680868B0E8F00F80F38E
:100150000988BFF36F8F4FF0000080F311884EF0D5
:100160000D0E70470000000006480068006880F32C
:10017000088862B661B6BFF34F8FBFF36F8F00DFA1
:1001800000BF00BF08ED00E0EFF30980BFF36F8F01
:100190000F4B1A6820E9F00F106008B54FF05000BF
:1001A00080F31188BFF34F8FBFF36F8F07F0B2F862
:1001B0004FF0000080F31188BDE808401968086816
:1001C000B0E8F00F80F30988BFF36F8F704700BF6E
:1001D00020000020EFF305807047000006488047AC
:1001E00006480047FEE7FEE7FEE7FEE7FEE7FEE71C
:1001F000FEE7FEE7FEE7FEE7493B000831010008A5
:10020000202A04DB203A21FA02F00021704721FA6B
:1002100002F3D040C2F120029140084319467047D2
:1002200040EA01039B0703D009E008C9121F08C078
:10023000042AFAD203E011F8013B00F8013B521EF8
:10024000F9D27047D2B201E000F8012B491EFBD26F
:1002500070470022F6E710B513460A4604461946D1
:10026000FFF7F0FF204610BD30B505462A460B4685
:1002700012F8010B13F8014B08B1A042F8D01CB1E1
:10028000002802D06D1CF1E7284630BD421C10F852
:10029000011B0029FBD1801A7047000070B50F4D7B
:1002A00000B92868002412E00A4602E09E4203D00A
:1002B000521C1378002BF9D1DAB2224305D02BB1AE
:1002C00024B1002100F8011B04E00446401C06781C
:1002D000002EE9D12860204670BD00002C020020CD
:1002E00070B5064604F01EF8046805460A2200218F
:1002F000304600F0BEFA2C6070BDF0B480EA010216
:10030000D40F4200B2EB410F02D20246084611461A
:100310004A0042D0C30DDDB2C1F3C752AD1A202D41
:1003200035DAC1F3160141F4000204B15242C5F1BD
:10033000200602FA06F12A411044B3EBD05F23D025
:10034000C4B1012DA0EBC35009DCF0BC4FF000425A
:1003500002EAC352DBB200F5000000F0CBBA400065
:1003600000F1807000EBC350A0F1807040EAD170C2
:10037000490009E0490841EAC071A0EBC35000F50B
:100380000000400800EBC350F0BC00F0AABA614284
:10039000012202EB4101001BF6E7F0BC704781F03F
:1003A0000041AAE780F00040A7E780EA010210B50B
:1003B00002F00043400022D04A001FD0010E01EBA2
:1003C0001261C0F35600C2F3560240F4000042F43A
:1003D0000002A0FB022000047F39140400D0401C5E
:1003E00050EA124001D44000491EC2B20C0604EB90
:1003F000D010401C4008802A02D003E0002010BD2D
:1004000020F00100002900DA0020184310BD42004E
:1004100005D0C0F3C7525242914201DC0020704720
:1004200000EBC15070472DE9FE4F804681EA030082
:10043000C00F0C46009021F0004123F00045B8EBBE
:100440000200A94105D24046214690461C460B4673
:10045000024623F00040104347D0270DC7F30A009F
:10046000C3F30A510290401A019040286BDAC3F39B
:10047000130040F4801B0098924620B10023D2EB79
:10048000030A63EB0B0B01985946C0F1400250463A
:1004900000F0CEF906460D4650465946019A00F046
:1004A000D6F910EB08006141002487EA115284EA72
:1004B000E7731A4340D0009A62B3019A012A4FEAC7
:1004C000075215DC001B61EB02014FF0004202EA0B
:1004D0000752CDE90042001C41F5801132462B46FF
:1004E00000F045FA03B0BDE8F08F40462146F9E739
:1004F000001B61EB0201001C41F5801300185B41F9
:100500002018A2F5001747EB030140EAD570B61991
:100510006D4111E06D084FEA360645EAC0754FEAB5
:100520000752001B61EB0201001C41F580114908D4
:100530004FEA30000019514132462B4603B0BDE866
:10054000F04F00F005BA0098012240000023D0EBE4
:10055000020263EBE073009821464FEAE074B8EBC7
:10056000000061EB0401E9E783F000435BE781F001
:10057000004158E72DE9FE4F81EA030404F00044EE
:1005800021F0004100944FF0000B23F0004350EAAB
:1005900001045ED052EA03045BD0C3F30A54C1F3F2
:1005A0000A552C44A4F2F3340194A0FB0254C1F385
:1005B000130141F48011C3F3130343F4801301FBCF
:1005C000024400FB034E840A970A44EA815447EA36
:1005D0008357A4FB076802958D0A05FB07854FEA40
:1005E000932C04FB0C542705029D4FEA065847EA5A
:1005F0001637B5EB08056EEB070C870E920E47EA2F
:10060000811742EA8312A7FB0201B6EB0B0164EBF0
:1006100000042B0D43EA0C335E1844EB1C50DA4601
:100620005146E7FB0201C5F313044FEA0B3343EADB
:1006300014534FEA0432019C43EA0603A4F10C046C
:100640000294009CCDE900B400F091F903B0BDE83C
:10065000F08F00200146F9E72DE9F04D81EA03040F
:1006600004F0004B21F0004514464FF0000A23F03F
:10067000004150EA050220D054EA01021DD0C5F322
:100680000A570246C5F31303C1F31300C1F30A5618
:1006900040F4801543F48013A7EB0608101BD646E0
:1006A00008F2FD3873EB050002D308F1010801E000
:1006B00092185B41B8F1000F03DA00200146BDE853
:1006C000F08D00204FF48011064684460EE0171B83
:1006D00073EB050705D3121B63EB050306434CEAD6
:1006E000010C49084FEA300092185B4150EA0107BB
:1006F000EDD152EA030012D082EA040083EA050138
:10070000084305D0101BAB4106D20122002306E0AE
:1007100000224FF0004302E06FF0010253101AEB89
:1007200006004CEB085110EB0A0041EB0B01BDE851
:10073000F04D00F00DB996230022114600F0DAB812
:100740000EB540F2334102910021CDE900110A4675
:100750000B4600F00CF903B000BD20F00040C10DC5
:10076000C0F3160040F400007F2901DA0020704732
:10077000962903DCC1F19601C8407047963988403C
:100780007047C1F30A5210B5C1F3130140F2FF33B1
:1007900041F480119A4201DA002010BD40F2334347
:1007A0009A42A2F2334203DC5242FFF729FD10BD08
:1007B000904010BD00F0004230F000400AD0C10D62
:1007C00001F56071C0F3160042EA0151C20840070A
:1007D000114370470020014670470000002801DBEC
:1007E000C0F10040002901DBC1F1004181427047A6
:1007F000002801DBC0F10040002901DBC1F100410C
:100800008842704730B50B46014600202022012463
:1008100009E021FA02F59D4205D303FA02F5491BCE
:1008200004FA02F52844151EA2F10102F1DC30BDE4
:10083000202A04DB203A00FA02F1002070479140A0
:10084000C2F1200320FA03F3194390407047202A95
:1008500006DBCB17203A41FA02F043EAE07306E0E8
:1008600041FA02F3D040C2F12002914008431946F8
:1008700070472DE9F04791460F4680460446002612
:1008800014F8015B2DB100F0D3F80068405DC0079B
:10089000F6D12B2D02D02D2D18D0641E4A46394694
:1008A000204600F0C9F827B13968A14201D1C7F844
:1008B000008071054FF002040BD54042002803DD93
:1008C00003F030FD0460A007BDE8F08746F48066C1
:1008D000E4E70028F8DA03F025FD04606FF000403B
:1008E000F2E70029A8BF7047401C490008BF20F06C
:1008F0000100704710B4B0FA80FC00FA0CF050EA26
:10090000010404BF10BC704749B1CCF1200421FAA6
:1009100004F411FA0CF118BF012121430843A3EBA1
:100920000C01CB1D4FEA00614FEA102042BF0020AE
:1009300010BC704700EBC35010440029A4BF10BC8A
:100940007047401C490008BF20F0010010BC7047F0
:1009500010B5141E73F1000408DA401C41F10001C7
:1009600092185B411A4301D120F0010010BD2DE91E
:10097000F04D92469B4611B1B1FA81F202E0B0FA15
:1009800080F220329046FFF753FF04460F4640EABC
:100990000A0041EA0B0153465A46084313D0114658
:1009A00053EA010019D0C8F140025046FFF728FC75
:1009B00005460E46504659464246FFF739FF084362
:1009C00005D0012004E020463946BDE8F08D002026
:1009D000054346EAE0762C4337430A986305E40A68
:1009E000A0EB08000022FD0A44EA47540A3002D571
:1009F00000200146E9E7010510196941DDE90845D4
:100A000000196941BDE8F04DA2E70000064C074D12
:100A100006E0E06840F0010394E8070098471034CE
:100A2000AC42F6D3FFF788FBB0920008D0920008E2
:100A3000004870473C9100082DE9F05F824600783D
:100A4000002715468B460AF10104B946302801D02B
:100A50009DB113E014F8010B0127782803D0582822
:100A600001D045B10AE00DB1102D07D100271025A6
:100A700014F8010B02E0082500E00A250026B04624
:100A80000EE005FB080005FB06F1012701EB10460F
:100A90001FFA80F8B6F5803F00D3B94614F8010B71
:100AA000294600F018F80028EBDABBF1000F05D05A
:100AB0000FB1641E00E05446CBF80040B9F1000FBE
:100AC00006D003F02FFC02210160C81EBDE8F09F94
:100AD00048EA0640FAE73A2800D2303820F02002EF
:100AE000412A01D3A2F13700884201D34FF0FF30F1
:100AF000704770B58C1810F8015B15F0070301D131
:100B000010F8013B2A1106D110F8012B03E010F870
:100B1000016B01F8016B5B1EF9D12B0705D4002393
:100B2000521E0DD401F8013BFAE710F8013BCB1A35
:100B3000921C03E013F8015B01F8015B521EF9D52A
:100B4000A142D8D3002070BD70B50446006881680A
:100B5000C943C9071CD1816821F00101816000F0FF
:100B6000EFFC05460FE000BF00F0EAFC401B022846
:100B700009D9A06A40F01000A062E06A40F00100CC
:100B8000E062012070BD20688068C043C007EBD0E0
:100B9000002070BDFEE70000014800F031BA0000FF
:100BA00068B90020014800F02BBA00009CB8002072
:100BB000014800F025BA000024B90020014800F0E7
:100BC0001FBA000058B80020014800F019BA000010
:100BD00014B80020014800F013BA0000E0B800206B
:100BE00030B590F840500124AC40C56B6C6004688F
:100BF00063604368102B036803D099600068C2608B
:100C000030BD9A600068C16030BD70477047000019
:100C1000F8B50024009490F824202546012A12D02B
:100C2000012280F824204A681F23072A0DD2066873
:100C3000776B521E02EB820293409F430B689340F6
:100C40001F43776319E00220F8BD06680D2A0AD217
:100C5000376BD21F02EB820293409F430B68934095
:100C60001F43376309E0F76A0D3A02EB82029340B3
:100C70009F430B6893401F43F7620A680723066887
:100C80000A2A0AD3F7680A3A02EB420293409F43CA
:100C90008B6893401F43F76008E0376902EB42021C
:100CA00093409F438B6893401F4337610A68102A23
:100CB00001D0112A20D1124B02689A4217D19368B1
:100CC0001B0219D4936843F4000393600968102948
:100CD00012D10C490C4A0968B1FBF2F101EB810118
:100CE000490000E0491E00910029FBD104E0816A1F
:100CF00041F020018162012480F824502046F8BD93
:100D0000002401401C00002040420F002DE9F0416A
:100D100004004FF0000514D0A06A002628B9E6624E
:100D200084F82460204600F083F82046FFF70CFF8B
:100D3000A16A01F01001014304D0A06A40F0100044
:100D4000A0626BE0A16A21F4885141F00201A16226
:100D5000334923688B42E16904D1B1F5402F01D1B9
:100D60004FF40021277B4FF4807C41EA4702616801
:100D70000A43A168614509D0012907D05FF000014D
:100D800094F814E0BEF1010F02D00AE06146F7E7E3
:100D9000C7B1A76A47F02007A762E76A47F00107D3
:100DA000E7625F6827F469470F435F6023689968CB
:100DB0001C4F394011439960A16861450BD001294E
:100DC00009D00CE0DFF860E0A7690EEB47370F436E
:100DD00047F40061E5E7218A0D05A5F58015216836
:100DE000CB6A23F470032B43CB62216889680F4BD5
:100DF0001940914208D1E662A16A21F0020141F056
:100E00000101A162BDE8F081A06A20F0020040F07B
:100E10001000A062E06A40F00100E0620120F1E70A
:100E2000003C0140FDF7E1FF00E0FFFFFE0E1FFF69
:100E300000B585B0002100910191029103910068F5
:100E40000E49884218D10E48816941F400718161D0
:100E5000816901F400710491816941F004018161AB
:100E60008069694600F0040004900120009003208E
:100E70000190044800F05EFA05B000BD0024014076
:100E8000001002400008014010B590F82110002227
:100E9000022905D00421816380F82020012010BDA3
:100EA00001680B6823F00E030B6001680B6823F0E8
:100EB00001030B6090F84030C46B012101FA03F389
:100EC000636080F8211080F82020104610BD0000DB
:100ED0002DE9F05F90F821100024022903D00421AD
:100EE0008163012485E001680A6822F00E020A602D
:100EF00001680A6822F001020A603F4E3E4FB215B7
:100F0000DFF8F4C0DFF8F090DFF8ECA0DFF8E8B02D
:100F1000DFF8E4E00168783F13011502ACF1640CDE
:100F2000A9F15009AAF13C0AABF1280BAEF1140E5D
:100F30004FF48018B14227D9B9420ED0614512D082
:100F400049451DD0514518D0594518D0714501D19A
:100F5000424615E0294EB14201D1012210E0274E50
:100F60001436B14201D110220AE0244E2836B14293
:100F700006D0224A3C32914201D11A4600E02A466C
:100F80001E49091F0A602BE0B94213D0614517D0F2
:100F9000494522D051451DD059451DD0714501D13B
:100FA00042461AE0B14202D14FF0807215E0134E72
:100FB000B14201D1012210E0104E1436B14201D1EC
:100FC00010220AE00D4E2836B14206D00B4A3C32C0
:100FD000914201D11A4600E02A46074980394A6009
:100FE000012180F82110002180F82010416B01B10F
:100FF00088472046BDE8F09F800002400804024078
:101000002DE9F05FC16B0A6801680B68046C4FF052
:10101000040808FA04F8844D844E854FDFF814C2A2
:10102000DFF81492DFF814A2DFF814B2DFF814E24C
:1010300018EA020F65D05FEA437862D50A68920623
:1010400003D40A6822F004020A60DFF8F0814FF44A
:101050008062016808F1140813011402414524D983
:10106000A9420DD0B1420FD0B9421AD0614515D076
:10107000494515D0514501D1120312E0594501D11E
:1010800004220EE0714501D140220AE06D4D143575
:10109000A94206D06B4A2832914201D11A4600E09B
:1010A00022466749091F0A6029E0A94213D0B142CC
:1010B00015D0B94220D061451BD049451BD05145C0
:1010C00002D14FF4800217E0414502D14FF0806217
:1010D00012E0594501D104220EE0714501D14022B0
:1010E0000AE0584D1435A94206D0564A283291429A
:1010F00001D11A4600E022464B4908394A60C16ACC
:1011000071E04FF0020808FA04F818EA020F70D0F4
:101110005FEA83786DD50A68920606D40A6822F0E1
:101120000A020A60012180F82110DFF810814FF4D3
:101130000072016808F1140813011402414524D912
:10114000A9420DD0B1420FD0B9421AD0614515D095
:10115000494515D0514501D1120312E0594501D13D
:1011600002220EE0714501D120220AE0354D1435EE
:10117000A94206D0334A2832914201D11A4600E0F2
:1011800022462F49091F0A6029E0A94213D0B14223
:1011900015D0B94220D061451BD049451BD05145DF
:1011A00002D14FF4001217E0414502D14FF0007216
:1011B00012E0594501D102220EE0714501D12022F1
:1011C0000AE0204D1435A94206D01E4A2832914229
:1011D00001D11A4600E02246134908394A6000212D
:1011E00080F82010816A00291CD0BDE8F05F084714
:1011F000FFE70825A540154214D01A0712D50A6842
:1012000022F00E020A6090F84020C36B012101FA1F
:1012100002F25A60816380F82110002180F82010CA
:10122000016BE0E7BDE8F09F080002401C000240AF
:101230003000024044000240580002406C0002406E
:10124000080402401C04024030B560B11A4B026829
:1012500014219A4209D2194B1344B3FBF1F18900CE
:10126000016417490AE0012030BD134B5B4213446F
:10127000B3FBF1F1890001640F490839C163022110
:1012800080F82110136843F6F0718B43F0E90114E4
:101290002143D0E902452C43214304692143446999
:1012A00021438469214319431160002141630122D4
:1012B00042770177084630BD08040240F8FFFDBFC1
:1012C0000000024070B5044690F820000025012877
:1012D0000CD0012084F8200094F821600020012E19
:1012E00006D084F820000225284670BD022070BD7B
:1012F000022684F82160A0632068066826F00106B3
:1013000006602046FFF76CFCE06A00282068016850
:1013100002D041F00E0106E021F0040101602068D6
:10132000016841F00A0101602068016841F0010193
:101330000160D9E72DE9F84FDFF8C891002409F1E1
:10134000040A0AF1040B23460F270BF1040ED1E027
:101350000125A54006EA0502AA4276D1DFF8A8C118
:101360004E68A6EB0C0866452BD00DDC032E34D05E
:1013700005DC36B3012E19D0022E2FD11BE0112E21
:1013800016D0122E2AD119E0B8F5881F19D006DC24
:10139000B8F5803F15D0B8F5801F1FD111E0B8F522
:1013A000001F0ED0B8F5041F18D10AE0CB6815E075
:1013B000CB681B1D12E0CB6808330FE0CB680C3301
:1013C0000CE08B682BB1012B4FF0080303D0456173
:1013D00004E0042302E0056100E00023FF2A01D8B5
:1013E000064601E000F104064FEA840501D9A5F1A3
:1013F0002005D6F8008007FA05FC28EA0C0803FA55
:1014000005F548EA0508C6F800804D68ED0070D57E
:101410003E4DAE6946F00106AE61AD6924F00306AB
:1014200005F0010500953A4D06EB050CDCF8085077
:10143000A607360F07FA06F825EA0805DFF8D48074
:10144000404503D14FF0000825E052E0DFF8C880A6
:10145000404502D14FF001081DE0DFF8C080404553
:1014600002D14FF0020816E0DFF8B480404502D107
:101470004FF003080FE0DFF8AC80404502D14FF099
:10148000040808E0DFF8A080404502D14FF00508CD
:1014900001E04FF0060808FA06F848EA0508CCF81B
:1014A00008804D68D9F80060ED034D4601D516431C
:1014B00000E096432E604D68DAF80060AD035546B3
:1014C00001D5164300E096432E604D68DBF80060BE
:1014D000ED025D4601D5164300E096432E604D684F
:1014E000DEF80060AD02754601D5164300E0964374
:1014F0002E60641C0A681646E2407FF429AFBDE8FE
:10150000F88F00000004014000001110001002409C
:101510000000014000080140000C014000100140A3
:101520000014014000180140001C01408068084080
:1015300000D0012070470AB1016170470904FBE740
:1015400001488068704700001000002070B504005A
:101550001BD094F83D00002520B984F83C5020466B
:1015600000F056FA242084F83D002068016821F03C
:101570000101016000F05AFC4D4A6168914201D8B6
:101580004C4900E04C49884201D2012070BD4B49D2
:101590002368B0FBF1F15E6826F03F060E435E6003
:1015A0006368934206D94FF4967359434FF47A73A4
:1015B000B1FBF3F12368491C1E6A26F03F06314354
:1015C00019626168914210D84900401EB0FBF1F2E7
:1015D000521CC2F30B02042A01D2042022E0B0FB09
:1015E000F1F0401CC0F30B001CE0A368F3B301EB67
:1015F000C10202EB0116421EB2FBF6F2521C42F48B
:101600008042120549D093B301EBC10202EB0111F4
:10161000401EB0FBF1F0401CC0F30B0040F48040D2
:1016200040F400402168CA694CF6FF739A431043A6
:10163000C861D4E90701084321680A6822F0C002A2
:1016400010430860D4E9030101432068826848F22E
:10165000FF339A4311438160D4E9050108432168AF
:10166000CA6822F0FF021043C86001E00EE016E0F5
:101670002068016841F0010101602564202084F8A0
:101680003D00256384F83E50002070BD01EB41060B
:10169000421EB2FBF6F2521CB3E70120C2E701EB97
:1016A0004101401EB0FBF1F0401CC0F30B00B7E756
:1016B000A086010080841E0000093D0040420F000A
:1016C0002DE9FF4F83B09A46DDE911979346044612
:1016D000DDF84080FFF734FF054694F83D002028F0
:1016E0006FD1192301227B492046009501F044FE69
:1016F0000028F5D194F83C00012862D0012084F83C
:101700003C0020680168C90703D1016841F001016C
:1017100001602168086820F400600860222084F8D5
:101720003D00402084F83E0000262664C4F8248052
:10173000A4F82A90608D20856748E062CDE90075A5
:1017400053465A462046049901F032FD00287DD1C7
:10175000208DDFF8888168B1012814D0022820D0BC
:101760002068016841F480610160206841698069F6
:101770000090A0E02068416981690091016841F40E
:101780000071016097E02068016821F480610160C8
:1017900072B62068416981690091016841F4007165
:1017A0000CE02168086840F40060086072B62068A8
:1017B000416981690091016821F48061016062B62C
:1017C00079E084E003284FD801280BD002283B465B
:1017D0004FF000024146204600950ED001F0CCFDAE
:1017E000A0BB0FE02A463946204601F044FE68BB04
:1017F00020680069616A087054E001F0BDFD28BBF3
:1018000072B61AE02068016821F48061016072B646
:1018100020680069616A0870606A401C6062208DFF
:10182000401E2085608D401E60853B46002241465B
:101830002046009501F0A0FD40B92068016841F400
:101840000071016020680069616A00E012E00870C0
:10185000606A401C6062218D491E2185618D491E90
:10186000618562B621681BE02A463946204601F0B0
:1018700002FE18B1012007B0BDE8F08F20680069B2
:10188000616A0870606A401C6062218D491E218572
:10189000618D491E618521684A69D24352070AD485
:1018A00009690170606A401C6062208D401E2085BD
:1018B000608D401E6085208D002883D1202084F813
:1018C0003D0084F83E6084F83C600020D3E70220AD
:1018D000D1E70000020010000000FFFF040001003B
:1018E0002DE9FF4F83B09A46DDE9119793460446F0
:1018F000DDF84080FFF724FE054694F83D002028DF
:101900007FD11923012240492046009501F034FD82
:10191000002876D194F83C00012872D0012084F888
:101920003C0020680168C90703D1016841F001014A
:1019300001602068016821F400610160212084F8C1
:101940003D00402084F83E0000262664C4F8248030
:10195000A4F82A90608D20852C48E062CDE90075BE
:1019600053465A462046049901F096FC70B930E07F
:101970002A463946204601F0B1FD58B1206C0428B2
:1019800004D12068016841F400710160012007B0B2
:10199000BDE8F08F606A216800780861606A401CC9
:1019A0006062218D491E89B22185628D521E628539
:1019B00022685369DB435B070BD469B1007810617F
:1019C000606A401C6062208D401E2085608D401E34
:1019D0006085208D0028CBD12A463946204601F06B
:1019E000A5FC0028CAD154F83D0B016841F40071F0
:1019F0000160202004F81E09E67766770020C6E71C
:101A0000FFE70220C3E70000020010000000FFFF14
:101A100010B586B0002100910191029103910068F8
:101A2000104988421BD1104CA06940F00800A06109
:101A3000A069694600F0080004904FF440600090EF
:101A400012200190032003900848FFF773FCE0691F
:101A500040F48000E061E06900F48000049006B08A
:101A600010BD00000058004000100240000C014072
:101A7000024881680278114481607047100000209C
:101A8000074810B5016841F010010160032000F023
:101A90008FF8002000F006F800F03EF8002010BD9E
:101AA0000020024000B5014687B00022372000F038
:101AB0005FF8372000F04EF81348C16941F020016B
:101AC000C161C06905A900F020000690684600F0D9
:101AD0008DF900F0ABF90D494000B0FBF1F10D4874
:101AE0000B4A491E0260416040F2E7320021C0E922
:101AF0000321816000F090FE10B1012007B000BD0D
:101B0000044800F0A5FEF9E70010024040420F0033
:101B100000140040E80300200C4808B5816941F03A
:101B200001018161816901F001010091C16941F008
:101B30008051C161C06900F0805000900448416844
:101B400021F0E06141F00071416008BD00100240E9
:101B500000000140002809DB00F01F020121914034
:101B60004009800000F1E020C0F80011704700003B
:101B7000F0B40E4B1B680C46C3F30223C3F10705F8
:101B8000042D00D90425191D072901D2002300E0E6
:101B9000DB1E012606FA05F1491E214099409E40B0
:101BA000761E16403143F0BC02F0ACBB0CED00E0F9
:101BB000064900F0070208684FF6FF03184040EAA4
:101BC0000220034A10430860704700000CED00E05B
:101BD0000000FA052DE9F84305460078354CC007AA
:101BE00054D0E0690026C00008D4E06940F080507D
:101BF000E061E069012600F0805000902E48016805
:101C0000C90512D40168804641F480710160FFF774
:101C100097FC074605E000BFFFF792FCC01B642855
:101C200023D8D8F80000C005F6D5206A10F440701B
:101C300021D0A98801F4407181421CD0206A1F493B
:101C4000012220F440700A6000220A602062C0076E
:101C500011D0FFF775FC074641F2883808E000BF55
:101C6000FFF76EFCC11B414502D90320BDE8F88394
:101C7000206A8007F4D5206A696820F44070084320
:101C800020621EB1E06920F08050E0612878800772
:101C900005D56068A96820F4404008436060287852
:101CA000C00605D56068696920F48000084360605B
:101CB0000020DBE700100240007000404004424278
:101CC0002DE9F0470F46050061D0434E306800F023
:101CD0000700B84209D2306820F00700384330606E
:101CE000306800F00700B84251D128683B4C8107AA
:101CF00012D5400703D5606840F4E0606060287842
:101D0000000703D5606840F4605060606068A968AF
:101D100020F0F000084360602878C00728D0686889
:101D2000012810D02168022810D0890700292EDA56
:101D3000616821F0030101436160FFF701FC804607
:101D400041F288390DE021688903EFE78901EDE769
:101D5000FFF7F6FBA0EB0801494502D90320BDE8D7
:101D6000F0876068696800F00C00B0EB810FEFD17C
:101D7000306800F00700B8420BD9306820F0070047
:101D800038433060306800F00700B84201D00120CD
:101D9000E5E72878400705D56068E96820F4E06049
:101DA000084360602878000706D56068296920F438
:101DB000605040EAC100606000F058F86168084A6D
:101DC000C1F30311515CC840064908600648006829
:101DD000FFF768FE0020C2E700200240001002402A
:101DE000888400081C000020140000200F220260DC
:101DF0000C4A536803F003034360536803F0F00395
:101E00008360536803F4E063C36052684FF4E06397
:101E100003EAD20202610448006800F0070008608B
:101E200070470000001002400020024004480549AD
:101E300000684968044AC1F30221515CC8407047F8
:101E40001C00002000100240988400080448054946
:101E500000684968044AC1F3C221515CC840704718
:101E60001C000020001002409884000812A185B0D8
:101E70000FC98DE80F0014A0144A0068049051683F
:101E8000134801F00C03042B10D0082B0ED1C1F322
:101E90008343C9031DF803000AD5516804AAC1F39E
:101EA0004041515C0A4A5043B0FBF1F005B0704725
:101EB00008494843FAE70000020304050607080939
:101EC0000A0B0C0D0E0F1010010200000010024052
:101ED00000127A0000093D002DE9F84F040070D08F
:101EE0002078C04DC00749D06868C0F38100012840
:101EF00007D06868C0F38100022809D16868C00370
:101F000006D52868800339D560680028E7D035E019
:101F10006068B0F5803F0BD010B1B0F5A02F11D0A4
:101F2000286820F480302860286820F4802002E0AF
:101F3000286840F480302860606890B1FFF700FBAB
:101F400006460AE0286840F480202860F0E700BFD9
:101F5000FFF7F6FA801B642873D828688003F7D54A
:101F60000CE0FFF7EDFA064605E000BFFFF7E8FAE0
:101F7000801B6428F0D828688003F7D420789A4E14
:101F800080074FF001094FF0000839D5686810F05C
:101F90000C0F07D06868C0F38100022809D1686877
:101FA000C00306D42868800714D52069012808D109
:101FB00010E02069B0B1C6F80090FFF7C1FA0746FB
:101FC00005E00AE1FFF7BCFAC01B0228C4D8286864
:101FD0008007F7D52868616920F0F80040EAC10061
:101FE00028600DE0C6F80080FFF7AAFA074604E073
:101FF000FFF7A6FAC01B022823D828688007F7D469
:10200000207800072CD57948A169D9B1C0F8009093
:10201000FFF796FA074604E0FFF792FAC01B022882
:102020000FD8686A8007F7D571484FF4FA510068F5
:10203000B0FBF1F0009000BF0098411E0091FAD271
:102040000EE080E0C0F80080FFF77AFA074604E06F
:10205000FFF776FAC01B022875D8686A8007F7D4A4
:102060002078400760D5E8690027C00008D4E869F7
:1020700040F08050E861E869012700F0805000904E
:102080005C480168C90513D40168834641F4807136
:102090000160FFF755FA824606E000BFFFF750FAED
:1020A000A0EB0A0064284ED8DBF80000C005F5D587
:1020B000E06801280AD008B1052813D0286A20F06A
:1020C00001002862286A20F0040002E0286A40F03B
:1020D00001002862E06841F2883B98B1FFF730FACE
:1020E00082460BE0286A40F004002862EEE700BF59
:1020F000FFF726FAA0EB0A0159455AD8286A80074B
:10210000F6D50CE0FFF71CFA824605E0FFF718FA57
:10211000A0EB0A0159454CD8286A8007F6D41FB1B4
:10212000E86920F08050E861E06988B36968C1F32C
:102130008101022944D00228C6F8608004D0FFF74C
:10214000FFF9044638E034E0FFF7FAF9074604E007
:10215000FFF7F6F9C01B02282BD828688001F7D4B6
:10216000206AB0F5803F05D16868A16820F400308E
:1021700008436860D4E908010843696821F47411D0
:1021800008436860C6F86090FFF7DAF9044606E095
:1021900025E000BFFFF7D4F9001B022809D8286802
:1021A0008001F7D51BE000BFFFF7CAF9001B02282A
:1021B00002D90320BDE8F88F28688001F4D40EE02E
:1021C0000128F7D06868226A00F48031914204D176
:1021D000616A00F47010884201D00120EAE7002013
:1021E000E8E7000000100240000042428004424242
:1021F0001C0000200070004070B5040005D00025D0
:10220000A56294F8510010B106E0012070BD84F879
:102210005050204600F02EF8022084F8510020682B
:10222000016821F040010160D4E901010843D4E9CB
:1022300003121143084361690843218B01F40071C3
:102240000843E1690843216A0843A16A08432168F9
:102250000860A069042101EA1040216848602068F4
:10226000C16921F40061C1616565012084F85100F4
:10227000002070BD70B586B00024009401940294D3
:1022800003942B4E03682B49022003222A4DB342AC
:1022900028D18B6943F480538B618B6903F480539D
:1022A00004938B6943F008038B618969039201F001
:1022B000080104912821CDE9001069462846FFF75E
:1022C00039F81020CDE90004694628460294FFF74A
:1022D00031F81A48416841F0E06141F00101416084
:1022E00006B070BD164EB342FAD1CB6943F48043B9
:1022F000CB61CB6903F4804304938B6943F00803FB
:102300008B618969039201F0080104914FF4204127
:10231000CDE9001069462846FFF70CF83014CDE9E6
:102320000004694628460294FFF704F8D8E7000045
:102330000030014000100240000C0140000001404C
:10234000003800402DE9F84F0446406800259846C3
:1023500016460F464FF0040BB0F5827F01D1A068FE
:1023600088B194F85000012818D0012084F850005A
:10237000FFF7E6F8814694F851004FF0000A012873
:102380000ED002257DE084F851B013460A4620465F
:10239000CDF8008000F02CF9BDE8F88F0220FBE7B3
:1023A000002F6DD0002E6BD084F851B0C4F854A02B
:1023B000A763A687E687C4F830A0A4F834A0A4F8E1
:1023C00036A0C4F840A0C4F844A0A068B0F5004FFF
:1023D00004D12068016821F480410160206801680F
:1023E000490603D4016841F040010160E068D8B1BA
:1023F00039E020688168C90709D0007BA16B0870AB
:10240000A06B401CA063E08F401EE0870CE0FFF74C
:1024100097F8A0EB0901414503D3B8F1FF3F03D082
:1024200036E0B8F1000F33D0E08F0028E1D11DE095
:1024300020688168C90709D0C068A16B0880A06BBB
:10244000801CA063E08F401EE0870CE0FFF778F867
:10245000A0EB0901414503D3B8F1FF3F03D017E0DA
:10246000B8F1000F14D0E08F0028E1D14A46414670
:10247000204601F07BFA08B120206065606D00B154
:102480000125012084F8510084F850A0284683E7F4
:102490000325F6E72DE9F84F044690F85000002791
:1024A0001D461646894601280DD04FF0010B84F8D1
:1024B00050B0FFF745F8804694F85100BA4601281D
:1024C00004D002278EE00220BDE8F88FB9F1000F9A
:1024D0007DD0002E7BD0032084F85100C4F854A096
:1024E000C4F83090A686E686C4F838A0A4F83CA0CC
:1024F000A4F83EA0C4F844A0C4F840A0A068B0F579
:10250000004F04D12068016841F4804101602068D7
:102510000168490603D4016841F040010160E068A8
:10252000B0F5006F606803D030B3012E24D040E0D6
:1025300008B1012E1CD1206B21680088C86006E01C
:1025400020688168890709D5216B0988C160206BE3
:10255000801C2063E08E401EE08609E0FEF7F0FF5D
:10256000A0EB0800A84202D3681C01D031E07DB383
:10257000E08E0028E4D11FE0206B2168007808730A
:1025800006E020688168890709D5216B0978017305
:10259000206B401C2063E08E401EE08609E0FEF7C1
:1025A000CFFFA0EB0800A84202D3681C01D010E0C6
:1025B00075B1E08E0028E4D142462946204601F05C
:1025C00003FA08B120206065A06820B107E008E0A8
:1025D000FFE7032706E02068C16880680090606D0F
:1025E00000B1012784F851B084F850A038466BE759
:1025F0002DE9F84F044690F8500000270A9E1D462A
:1026000092468B464FF0010901280ED0012084F834
:102610005000FEF795FF804694F85100616801284C
:102620000CD0B1F5827F07D102E00220BDE8F88F1F
:10263000A16809B9042801D00227C2E0BBF1000F4C
:1026400027D0BAF1000F24D01DB394F8510004280C
:1026500002D0052084F8510000206065C4F838A03D
:10266000E587A587C4F830B0E586A5862064606458
:1026700020680168490603D4016841F04001016007
:10268000E068B0F5006F606805D0E8B3012D46D072
:102690007FE0012795E008B1012D39D1206B216839
:1026A0000088C860206B801C2063E08E401EE0869E
:1026B0002EE02068816889070FD5E18E69B1B9F1F4
:1026C000010F0AD1216B0988C160206B801C206337
:1026D000E08E401EE0864FF0000920688168C9073F
:1026E0000CD0E18F51B1C068A16B0880A06B801C39
:1026F000A063E08F401EE0874FF00109FEF720FF46
:10270000A0EB0800B04200E009E001D3701C50D1FA
:10271000E08E0028CDD1E08F0028CAD13FE0206BA9
:10272000216800780873206B401C2063E08E401EF7
:10273000E0862EE02068816889070FD5E18E69B1B7
:10274000B9F1010F0AD1216B09780173206B401C8C
:102750002063E08E401EE0864FF00009206881680B
:10276000C9070CD0E18F51B1C068A16B0870A06B94
:10277000401CA063E08F401EE0874FF00109FEF788
:10278000DFFEA0EB0800B04202D3701C01D010E0C5
:102790007EB1E08E0028CDD1E08F0028CAD142461C
:1027A0003146204601F010F928B10127202060654C
:1027B00007E0032705E0A06818B92068C1688068B1
:1027C0000090012084F85100002084F85000384621
:1027D0002CE77047704770B590F83C20012A19D05B
:1027E000012400F83C4F0222427050F83C3C5A68E9
:1027F0009D6822F070060A684968324325F080051A
:1028000029435A6050F83C2C9160447000210170BB
:10281000084670BD022070BD10B5040003D094F8C6
:102820003D0010B107E0012010BD002084F83C00FD
:10283000204600F00CF8022084F83D00211D20689D
:1028400001F0E6F9012084F83D00002010BD70473A
:102850000168CA6842F00102CA600068816801F03C
:102860000701062903D0016841F001010160002041
:102870007047704770B50446006801694FF0000565
:10288000C943890715D4C168C943890711D4E91E12
:10289000016101202077206880698007204602D0EE
:1028A000FFF7E7FF04E000F0C9F8204600F05EF90A
:1028B000257720680169C943490717D4C168C9430E
:1028C000490713D46FF004010161022020772068CA
:1028D000806910F4407F204602D0FFF7CAFF04E071
:1028E00000F0ACF8204600F041F925772068016936
:1028F000C943090716D4C168C943090712D46FF048
:1029000008010161042020772068C0698007204603
:1029100002D0FFF7AEFF04E000F090F8204600F090
:1029200025F9257720680169C943C90617D4C1680C
:10293000C943C90613D46FF0100101610820207744
:102940002068C06910F4407F204602D0FFF791FF55
:1029500004E000F073F8204600F008F925772068BD
:102960000169C943C90708D1C168C943C90704D16E
:10297000891E0161204600F01DF920680169C943E4
:10298000090609D4C168C943090605D46FF080015E
:1029900001612046FFF71DFF20680169C943490610
:1029A00009D4C168C943490605D46FF040010161EB
:1029B000204600F009F920680169C94389060BD453
:1029C000C168C943890607D46FF020010161204620
:1029D000BDE87040FFF7FEBE70BD000000B585B0D9
:1029E0000021009101910291039100680F498842F2
:1029F0001AD10F48816941F01001816180696946EF
:102A000000F01000049040200090022001900390FC
:102A10000848FEF78FFC0848416821F4406141F006
:102A2000E06141F44061416005B000BD0004004038
:102A3000001002400010014000000140704770B5D6
:102A4000044690F83C000D4601280DD0012684F87C
:102A50003C60022084F83D0042B1042A18D0082AC4
:102A60002AD00C2A4DD139E0022070BD206801F037
:102A700023F92068816941F008018161206881693A
:102A800021F004018161206881692A69114311E004
:102A9000206801F041F92068816941F40061816199
:102AA0002068816921F480618161206881692A69D7
:102AB00041EA0221816124E0206801F063F9206885
:102AC000C16941F00801C1612068C16921F00401B8
:102AD000C1612068C1692A69114311E0206801F0D1
:102AE00085F92068C16941F40061C1612068C1694C
:102AF00021F48061C1612068C1692A6941EA02212B
:102B0000C16184F83D60002084F83C0070BD10B5C0
:102B1000040003D094F83D0010B107E0012010BD7F
:102B2000002084F83C00204600F00CF8022084F8D5
:102B30003D00211D206801F06BF8012084F83D0064
:102B4000002010BD08B500680649884208D1064833
:102B5000C16941F00201C161C06900F0020000904A
:102B600008BD000000040040001002407047000053
:102B700010B504460068012201F090F80B49206866
:102B8000884202D00A49884203D1416C41F4004195
:102B900041642068816801F00701062903D00168BB
:102BA00041F001010160002010BD0000002C014037
:102BB0000034014000680349884201D1FEF758BF44
:102BC0007047000000140040704710B504460068CC
:102BD000416994F83920C1F3C011212A0BD151B1B8
:102BE000416921F080014161206B08B1FEF74CF989
:102BF000204601F0A9F92068416994F83A20C1F310
:102C00008011222A0BD151B1416921F0400141616B
:102C1000606B08B1FEF738F9204601F087F9002013
:102C200010BD704770B5026804461068D1685369DA
:102C300010F00F0F51D003F0010501F490763543E9
:102C40005DD0C20705D0CA0503D5E26B42F0010290
:102C5000E263420705D5DA0703D0E26B42F00202D5
:102C6000E263820705D5DA0703D0E26B42F0040283
:102C7000E263020705D5DA0703D0E26B42F00802EF
:102C8000E263E26B002A34D0800604D5880602D5C0
:102C9000204601F029FA20684069E16BC0F38010FA
:102CA00001F008010143204624D001F03FF92068DB
:102CB000416949061AD5416921F040014161606BC3
:102CC000A0B11B494163606BFEF702F9002810D0E8
:102CD000606B416BBDE87040084783060FD58B06DB
:102CE0000DD52046BDE8704001F0FEB92046FFF743
:102CF00098FF70BDFFF795FF0020E06370BD0306ED
:102D000006D50B0604D52046BDE8704001F094BA04
:102D10004006F3D54806F1D5D168204621F04001A0
:102D2000D160202184F8391000F028FA70BD00002D
:102D3000553E000870B5040004D094F83900002511
:102D400010B106E0012070BD84F83850204600F034
:102D500023F8242084F839002068C16821F4005148
:102D6000C160204601F00CFA2068016921F490410D
:102D700001612068416921F02A0141612068C16830
:102D800041F40051C160E563202084F8390084F8E3
:102D90003A00002070BD00002DE9F04F85B00025FD
:102DA00000950195029503950446DFF870C203680B
:102DB0009B4802210322012780264FF4806A4FF0AE
:102DC000100963454BD1C36943F40023C361C36950
:102DD00003F400230493836943F010038361806943
:102DE000CDE900A100F01000CDE90320DFF8348226
:102DF00069464046FEF79EFA30018DE8A10069461B
:102E00004046FEF797FA894F8748C7E90005C7E9AA
:102E100002563D617D61BD613846FD61FEF714FAE1
:102E200008B1FDF7F3FE67637C62814F7E48C7E916
:102E300002563D617D61BD612830FD61C7E9000931
:102E40003846FEF701FA08B1FDF7E0FE27630022DD
:102E5000114634207C62FEF78BFE342051E0DFF80F
:102E6000D4C1DFF8D4814FF4007B63454ED1836930
:102E700043F480438361836903F48043049383694B
:102E800043F0040383618069CDE900B100F00400E0
:102E9000CDE9032069464046FEF74CFACDF800A084
:102EA000CDE9015769464046FEF744FA644F63484E
:102EB000C7E90005C7E902563D617D61BD6138463D
:102EC000FD61FEF7C1F908B1FDF7A0FE67637C6202
:102ED0005C4F5A48C7E902563D617D61BD611438B7
:102EE000FD61C7E900093846FEF7AEF908B1FDF704
:102EF0008DFE27630022114625207C62FEF738FEF6
:102F00002520FEF727FE05B0BDE8F08FDFF838C1B9
:102F1000634525D1C36943F40033C361C36903F436
:102F200000330493836943F004038361806903924F
:102F300000F0040004900420CDE9000169464046F9
:102F4000FEF7F8F908208DE8A10069464046FEF733
:102F5000F1F9002211462620FEF70AFE2620D0E7CE
:102F6000DFF8E8C06345CED1C36943F48023C36171
:102F7000C36903F480230493836943F020038361CE
:102F80008069DFF8CC8000F0200004904FF480705E
:102F9000CDE90001039269464046FEF7CBF9CDF832
:102FA00000B0CDE9015769464046FEF7C3F929480C
:102FB000416821F0300141F0E06141F030014160B1
:102FC0001E48254F2838C7E90005C7E902563D616C
:102FD0007D61BD613846FD61FEF736F908B1FDF748
:102FE00015FE67637C621D4F1448C7E902563D61B8
:102FF0007D61BD613C38FD61C7E900093846FEF7D7
:1030000023F908B1FDF702FE2763002211462720AD
:103010007C62FEF7ADFD272073E70000004C004006
:1030200000100240001001403004024014B800209B
:10303000E0B800200038014000080140580002407C
:1030400058B8002024B90020004400400048004047
:1030500000140140000001409CB8002068B9002025
:10306000F8B5044690F83A0020283CD1C1B3BAB371
:1030700094F83800012836D0012084F83800A16285
:10308000A2850025E563222084F83A00636B174887
:103090009862636B1648D862636B16481863606B5E
:1030A000134645630846666B216802463046091D93
:1030B000FEF708F9206801684168009184F83850EB
:1030C000C16841F48071C1602068416941F001012B
:1030D00041612068416941F0400141610020F8BD33
:1030E000FFE70120FBE70220F9E70000AF3E000800
:1030F000EB3E0008653E00087047704770B5044617
:1031000090F83900202830D169B362B394F83800C0
:1031100001282AD0012084F838002162A284E284A8
:103120000025E563212084F83900236B104898625C
:10313000236B1048D862236B0F481863206B13462B
:1031400045632668206B321DFEF7BCF821686FF0DE
:103150004000086084F838502068416941F08001DF
:103160004161002070BD012070BD022070BD0000D3
:10317000F53E0008233F0008653E00087047704791
:10318000FEE701684A69D24352050FD46FF48062AA
:103190004A61002140F8301F202242738173026986
:1031A00042F0040202610173012070470020704761
:1031B0002DE9F84F0446006889460B9D0168984642
:1031C000174641F4806101602068016841F4807114
:1031D000016000954FF0011A0022514620460A9BDB
:1031E00000F0CAF8002853D1216809F0FE000861F8
:1031F0000AF1010B2B46594620460A9A00F0F0F8D6
:10320000F0BB20684169806900902A4620460A99EF
:1032100000F064F940B1206C042839D120680168BD
:1032200041F40071016033E0FEB2B8F1010F09D042
:103230002168380A08612A4620460A9900F04EF9AA
:103240000028E8D1206806612A4620460A9900F045
:1032500045F90028DFD12068016841F480710160E0
:1032600000950022514620460A9B00F085F838B9A7
:10327000216809F0FF0040F0010008612B4600E0E2
:1032800006E0594620460A9A00F0AAF8002800D025
:103290000120BDE8F88F00002DE9F84304460068DE
:1032A0000D46DDE9089701689846164641F480719D
:1032B00001604B4600224FF001112046009700F0BC
:1032C0005BF8E0B9216805F0FE0008613B464A461C
:1032D0001549204600F084F888B920684169806962
:1032E00000903A464946204600F0F8F850B1206C6C
:1032F000042804D12068016841F4007101600120B4
:10330000BDE8F883F5B2B8F1010F09D02168300AA1
:1033100008613A464946204600F0E0F80028E6D128
:10332000206805610020EBE70200010070B5164639
:103330000D4604460DE02046FFF723FF08B10120AB
:1033400070BD681C05D0FEF7FBF8801BA84207D8AB
:1033500035B120684069C0434007ECD4002070BDFF
:10336000002044F8300F20216173A073216941F0DF
:10337000200121612073E2E72DE9F0471E469046C7
:103380000D460446C1F30747DDF8209008E0701CA5
:1033900006D0FEF7D5F8A0EB0900B0420FD876B101
:1033A0002068012F18D0806925EA00000004000C75
:1033B00014D000214145EAD00020BDE8F08700206C
:1033C00044F8300F20216173A073216941F020017E
:1033D000216120730120F0E74069E5E70121E9E779
:1033E0002DE9F0479A4691460E46044600254FF0D7
:1033F0002008C1F3074725E020684069C043400525
:1034000014D42068016841F40071016021686FF4F0
:1034100080604861256384F83D8084F83E50206CCC
:1034200040F00400206484F83C501FE0B9F1FF3FF5
:1034300008D0FEF785F8A0EB0A0149450CD8B9F190
:10344000000F09D02068012F13D0806926EA000000
:103450000004000C0BD0CFE744F8305F84F80D80F7
:10346000A573206940F02000206125730120BDE88C
:10347000F0874069EAE72DE9F041002590460E46C5
:103480000446202717E04069C043C0060CD454F816
:10349000301B6FF01000486144F810596777A5772A
:1034A000206A2062257717E0FEF74AF8A0EB0800B3
:1034B000B04208D83EB120684169C9434906E2D408
:1034C0000020BDE8F08144F8305F6773A573206980
:1034D00040F02000206125730120F2E770B5164608
:1034E0000D4604460DE02046FFF74BFE08B10120D3
:1034F00070BD681C05D0FEF723F8801BA84207D8D2
:1035000035B120684069C0430006ECD4002070BD8E
:10351000002044F8300F20216173A073216941F02D
:10352000200121612073E2E710B5B0F1814F01DA8B
:10353000002010BDFDF73EF9094A0A4BFDF71AF8C5
:10354000094A0A4BFDF710F8FDF71BF9FDF7F8F8EB
:103550000022074BFDF70EF8FDF713F980B210BDFE
:10356000713D0AD7A3B03840A4703D0AD7835740B5
:10357000000059403EB500240D4800940194029487
:103580000A498460016004730475012505614FF4E4
:1035900060214460C161FDF7B9FBCDE90045694692
:1035A00003480294FDF734FB3EBD000000240140B7
:1035B00034020020214808B5416941F00101416110
:1035C000416901F001010091416941F0020141614D
:1035D0004069002200F00200009011460C20FEF726
:1035E000C7FA0C20FEF7B6FA002211460D20FEF7AE
:1035F000BFFA0D20FEF7AEFA002211460E20FEF7AC
:10360000B7FA0E20FEF7A6FA002211460F20FEF7A9
:10361000AFFA0F20FEF79EFA002211463A20FEF77D
:10362000A7FA3A20FEF796FA002211463B20FEF751
:103630009FFABDE808403B20FEF78CBA001002401C
:103640002DE9F04F85B00025584800950195029569
:103650000395816941F040018161816901F0400178
:103660000491816941F010018161816901F01001CB
:103670000491816941F004018161816901F00401D3
:103680000491816941F008018161816901F00801BB
:103690000491816941F0200181618069DFF810B1F6
:1036A00000F02000049001224FF4D8715846FDF735
:1036B00042FFDFF8009140F20336012231464846CE
:1036C000FDF739FF0122D70339463B48FDF733FFA9
:1036D000DFF8E8A04CF22008012241465046FDF7F1
:1036E0002AFF01224FF401413548FDF724FF44F23F
:1036F0007D00CDE900050124694602942E48FDF7BE
:1037000019FE4EF20720CDE900056946029458469D
:10371000FDF710FE3020CDE90004029469465846BA
:103720000394FDF707FECDE900640294694648461C
:103730000394FDF7FFFD11260097CDE9016469466A
:103740001D480394FDF7F6FD4FF47050CDE90005D8
:10375000694602945046FDF7EDFDCDF80080CDE9B5
:103760000164694650460394FDF7E4FD4FF4C070D0
:103770000090CDE90164694658460394FDF7DAFDEF
:1037800020020090CDE9016469460D480394FDF7DD
:10379000D1FD0320CDE90240CDE900746946084817
:1037A000FDF7C8FD05B0BDE8F08F00000010024035
:1037B00000100140000C01400018014000140140BD
:1037C000000801400C480B49012201604FF482714E
:1037D000416000218160C160C0E90412520282612F
:1037E0003822C0E90721416281620A21C162FEF7E5
:1037F00003BD000000300140B80200200C480B4916
:103800004FF4007201604FF48271416000218160C9
:10381000C1600161C0E905123822C0E90721416297
:1038200081620A21C162FEF7E7BC00000038004057
:103830001003002010B58AB0002407941C216846AC
:103840000894FCF706FD11480F49C0E900144FF633
:10385000FF71C0E9024104618461FFF758F90794E0
:1038600007A90A480894FEF7B6FF6020CDE90004D6
:1038700002940022694605480494FFF7E0F80348E3
:10388000FFF7ACF80AB010BD000400406803002048
:1038900010B50F4C0D480C2120604FF4E1306060F2
:1038A0000020A060E060C4E90401A061E06120465E
:1038B000FFF740FA2068C16841F01001C16020465E
:1038C000BDE81040FF220349FFF7CABB004C00408F
:1038D00054B7002057B2002010B50F4C0D480C21F2
:1038E00020604FF4165060600020A060E060C4E9E2
:1038F0000401A061E0612046FFF71CFA2068C1685E
:1039000041F01001C1602046BDE81040FF2203498C
:10391000FFF7A6BB0038014094B700205BAE002043
:1039200010B50F4C0D480C2120604FF4165060600C
:103930000020A060E060C4E90401A061E0612046CD
:10394000FFF7F8F92068C16841F01001C160204616
:10395000BDE81040FF220349FFF782BB004800404A
:10396000D4B7002059B00020FEE77047F8B50446F0
:1039700040684FF48273984217D1A0684FF4806575
:10398000B0F5004F01D0A8420FD12068066826F09C
:10399000400606606068984207D1A068A84204D13A
:1039A00000920B460022012103E000920B46002208
:1039B0008021204600F018F8002804D0606D40F007
:1039C000200060650320F8BD38B50B460092044620
:1039D0000022802100F008F8002804D0606D40F03B
:1039E00020006065032038BD2DE9F0411D461746D3
:1039F0000E460446DDF8188008E0681C06D0FDF786
:103A00009FFDA0EB0800A8420BD255B1206880684A
:103A100036EA000030D00020B842EED10020BDE8E8
:103A2000F0812068416821F0E00141606068B0F5F4
:103A3000827F0BD1A068B0F5004F02D0B0F5806F47
:103A400004D12068016821F040010160A06AB0F54E
:103A5000005F09D12068016821F4005101602068ED
:103A6000016841F400510160012084F851000020F8
:103A700084F850000320D2E70120CDE702F006FFD2
:103A8000094C40F2DE35002220212046FDF753FD8F
:103A90000A2001F051FF012220212046FDF74BFDB5
:103AA000284601F049FFEEE7001401404FF47A7414
:103AB000204601F041FFFBE710B5502080F311884C
:103AC000BFF34F8FBFF36F8F04F0B2FA18B1044900
:103AD0004FF080500860002080F3118810BD000076
:103AE00004ED00E030B595B028216846FCF7B1FB45
:103AF00014210AA8FCF7ADFB18210FA8FCF7A9FBBD
:103B000002240120049000941020059000254FF419
:103B10006010CDE9085007946846FEF7DDF90AA960
:103B20000F2081E831006002CDE90D0502210AA8CD
:103B3000FEF7C6F84FF4404011900F940FA8FEF71F
:103B400049F815B030BD00000D48016841F0010191
:103B5000016041680B4A1140416001680A4A114006
:103B60000160016821F480210160416821F4FE01B7
:103B700041604FF41F0181600449C0030860704731
:103B8000001002400000FFF8FFFFF6FE08ED00E025
:103B90002DE9F0410E46184D1749083538B3174A3C
:103BA0001368B3FBF0F2120C521C92B2B3FBF2F3A7
:103BB000B3FBF0F080B2401E0860081F521E026086
:103BC0000868401CFCF7BCFD07460C463046FCF775
:103BD000B7FD00220A4BFCF73FFD3A462346FCF7AF
:103BE000C9FCFCF7CEFD80B22860BDE8F0814FF63D
:103BF000FF7008600020F7E72C0400401C00002044
:103C0000000059400148FEF735BE0000E8030020DF
:103C1000F0B502681C4B1D4D1D4E1E4F1E4C4FF043
:103C2000804C984209D0A04207D0604505D0A842F8
:103C300003D0B04201D0B84204D122F0700E4A68DD
:103C400042EA0E02984209D0A04207D0604505D052
:103C5000A84203D0B04201D0B84203D122F440754B
:103C6000CA682A434D6922F080022A4302608A68AA
:103C7000C2620A688262984201D0A04201D10969F9
:103C8000016301214161F0BD002C014000040040AE
:103C900000080040000C00400034014010B501F065
:103CA0001F030121046A99408C430462016A9A400F
:103CB0001143016210BD0000F0B5026A22F001025A
:103CC0000262036A42688469124E24F073050C682C
:103CD0002C4323F002058B682B430D4DA84201D0E5
:103CE000B04205D123F00807CB683B4323F004031F
:103CF000A84201D0B04205D14D6922F4407215436B
:103D00008A692A4342608461496841630362F0BD65
:103D1000002C014000340140F0B5026A22F010028C
:103D20000262026A436884690D6824F4E64444EA46
:103D300005248D6822F0200242EA05120F4D104E34
:103D4000A84201D0B04206D1CF6822F0800242EAF8
:103D5000071222F04002A84201D0B04207D14D69BB
:103D600023F4406343EA85038D6943EA8503436096
:103D70008461496881630262F0BD0000002C01404B
:103D800000340140F0B5026A22F480720262026AD5
:103D90004368C46922F4007224F073050C68124E63
:103DA0002C438D6842EA05220E4DA84201D0B04254
:103DB00006D1CF6822F4006242EA072222F4806230
:103DC000A84201D0B04207D14D6923F4405343EAE1
:103DD00005138D6943EA05134360C4614968C163F3
:103DE0000262F0BD002C01400034014030B5026A8F
:103DF00022F480520262046A4268C3690D6823F4A7
:103E0000E64343EA05238D6824F4005444EA05346C
:103E1000084DA84202D0084DA84204D14D6922F4B1
:103E2000804242EA85124260C361496801640462CB
:103E300030BD0000002C01400034014010B50448A2
:103E4000FEF7F0FEBDE81040014800F087B8000022
:103E500054B7002010B5406A0021C185C184FEF727
:103E6000E0FE10BD70B5446A2068406994F83910CE
:103E7000C0F3C0100025212904D118B1E5842046E3
:103E800000F062F82068406994F83A10C0F380109E
:103E9000222904D118B1E585204600F047F8E06BEF
:103EA00040F01000E0632046FEF7BBFE70BD10B589
:103EB0000146406A09680968890613D40021C18552
:103EC0000168CA6822F48072CA6001684A6922F0F7
:103ED00001024A6101684A6922F040024A612021D8
:103EE00080F83A10FFF708F910BD10B5406AFFF7E7
:103EF00004F910BD10B50146406A096809688906D1
:103F00000CD40021C18401684A6922F080024A6110
:103F10000068C16841F04001C16010BDFFF72EF993
:103F200010BD10B5406AFFF72AF910BD0168CA68D4
:103F300022F49072CA6001684A6922F001024A6163
:103F4000202180F83A1070470168CA6822F0C00248
:103F5000CA60202180F839107047000038B5016828
:103F600004460868C043C00676D4086848680090D4
:103F7000086848682046FEF728FE52492068524CDF
:103F8000884232D1514800684068C0F1FF0020707B
:103F9000207801280DD9607858B94D48A178227849
:103FA00008444B49FF39FCF73BF9A07821780844D5
:103FB000A0704749FF22FF3901F63910FFF750F88A
:103FC000FF214448FCF745F9A27841494148FF39AF
:103FD000FCF726F9A1783F4800F06CFDBDE83840B9
:103FE0003B48FF21FF38FCF734B93B49884234D1C4
:103FF0003648443000684068C0F1FF00E070E07867
:1040000001280DD9207958B934486179E2780844FB
:104010002F49FF31FCF704F96079E17808446071B9
:104020002B49FF22FF3101F27B70FFF719F8294875
:10403000FF21FF30FCF70DF9E2782549FF3101F24D
:10404000FB40FCF7EDF82248FF21FF30FCF701F9B7
:10405000E1782048FF302FE032E0214988422FD11B
:104060001A48443800684068C0F1FF00A071A07988
:1040700001280ED9E07960B91648217AFF38A27973
:1040800008441649FF31FCF7CBF8207AA17908449F
:1040900020721249FF22FF3101F2FD40FEF7E0FFDE
:1040A000FF211048FCF7D5F8A2790C490D48FF31E3
:1040B000FCF7B6F8A1790B48BDE8384000F010BD18
:1040C00038BD0000003801400602002058B800202A
:1040D0005AAF002055B400200048004058B10020DD
:1040E000004C004053B6002010B590F83A10222939
:1040F00001D0022010BD8168B1F5805F11D0016947
:10410000002901681FD0496801F07F03816A4A1CB9
:1041100082620B70C18D491E0904090CC18518D03B
:104120002BE00269816A002A0268526805D0D2B287
:104130000A80816A491C8162ECE7C2F308020A80A6
:10414000816A891CF7E74A68816A4B1C83620A709E
:10415000E0E70168CA6822F02002CA600168CA6804
:1041600022F48072CA6001684A6922F001024A6141
:10417000202180F83A10FEF7BFFF002010BD00009C
:104180002DE9F041044600680169E26821F44051DC
:10419000114301612169A0680843616908432168EE
:1041A000CA6841F20C639A430243CA6020684169BD
:1041B000A26921F44071114341611E4920686425C0
:1041C0003226884202D1FDF741FE01E0FDF72EFEC6
:1041D00000EBC00101EB001160686FF01807800070
:1041E000B1FBF0F2B2FBF5F2B1FBF0F37A4303EB73
:1041F0008202B1FBF0F306EB0212B2FBF5F2B3FB65
:10420000F5F302F0F00202EB0312B1FBF0F3B1FBA5
:10421000F0F0B0FBF5F0784303EB800006EB001004
:10422000B0FBF5F0216800F00F0010448860BDE895
:10423000F08100000038014090F83910212901D0A8
:10424000022070478168B1F5805F016A0BD04A1C7B
:104250000262026809785160C18C491E0904090C88
:10426000C1840ED017E009880268C1F308015160CB
:1042700001690029016A02D0491C0162ECE7891C2E
:10428000FBE70168CA6822F08002CA600068C16862
:1042900041F04001C16000207047000010B50448A3
:1042A000FEF7C0FCBDE810400148FFF757BE000014
:1042B00094B700200148FEF7B5BC0000A803002019
:1042C00010B50448FEF7AEFCBDE810400148FFF70A
:1042D00045BE0000D4B70020FEE700000FB41CB5B7
:1042E0000A46521ECDE9000207A9054B6A46069808
:1042F00000F02CF8009A002111701CBC5DF814FB32
:10430000054500080907090E002804DB00F1E0203C
:1043100080F80014704700F00F0000F1E02080F8F2
:10432000141D7047004870473002002002E008C8A2
:10433000121F08C1002AFAD170477047002001E01F
:1043400001C1121F002AFBD1704700002DE9FF4F69
:104350008BB09A460F460546002606E025280BD06E
:1043600052460D9990476D1C761C28780028F5D18F
:104370000FB03046BDE8F08F0024A046012260490E
:1043800000E0044315F8013F203B02FA03F0084225
:10439000F7D128782E2817D115F8010F44F004041E
:1043A0002A280ED06FF02F022878A0F130010929B9
:1043B0000AD808EB880102EB410100EB01086D1CF3
:1043C000F2E757F8048B6D1C287869283ED006DC8C
:1043D0000028CDD063280BD0642804D136E07328A0
:1043E00010D075284BD052460D999047761C85E029
:1043F00017F8040B8DF8000000208DF80100E94645
:10440000012003E057F8049B4FF0FF3061074FF0A5
:10441000000401D40AE0641C44450DDA8442FADB4E
:1044200019F804100029F6D106E0641C8442FCDB74
:1044300019F804100029F8D1264404E019F8010BFA
:1044400052460D999047641EF8D257E001CF4FF0C5
:104450000A0B002802DA40422D2102E0210504D592
:104460002B218DF82410012103E0E10705D0202144
:10447000F7E70DF1200908910CE00021F9E701CFE1
:104480004FF00A0BF9E75946FCF7BCF901F130028D
:1044900009F8012D0028F6D1ADEB090000F1200B41
:1044A000600701D44FF00108D84502DDA8EB0B00EE
:1044B00000E000208046002406E009A85246005D86
:1044C0000D999047641C761C08988442F5DB04E043
:1044D000302052460D999047761CB8F10001A8F1A2
:1044E0000108F5DC05E019F8010B52460D999047DB
:1044F000761CBBF10001ABF1010BF4DC6D1C34E761
:10450000092801004A68002A06D00A68531C0B607B
:1045100010704868401E4860704700F00F010009A5
:1045200000EB800001EB4000C0B2704770B590B066
:104530000D460646144640216846FBF78AFE0221D6
:104540008DF800108DF80110200A8DF80250E2B2AB
:10455000032D22D08DF804008DF803108DF805206E
:104560009DF8032001A9FF2050549DF80320491C09
:1045700050549DF80320491C50549DF8032069466F
:104580003046D21DFBF74CFE9DF80320314609480A
:10459000D21DFEF7B3FD10B070BD04218DF80310DD
:1045A00000218DF804108DF805108DF806008DF8A7
:1045B0000720D5E794B7002070B5002830D00178E7
:1045C00001290FD002292BD181780124264D0E29F3
:1045D00026D2DFE801F0251F2226292D3135393D6D
:1045E00025254044017906291AD2DFE801F0190394
:1045F000070B0F0FBDE8704001F004B9BDE8704033
:1046000000F0B1B8BDE8704000F0BAB8BDE8704045
:1046100000F074BF02F072F801E001F0F1FF2C70BD
:1046200070BD02F021F8FAE7BDE8704001F0E7BF85
:10463000BDE8704001F0E2BFBDE8704001F0EEB8A7
:10464000BDE8704000F090B8BDE8704000F032BBAB
:1046500002F092FEE3E7BDE8704000F0B7B8BDE8B5
:10466000704002F047B900001402002010B5064C5B
:104670002078002806D101F0CFFA201D00F028F89C
:104680000120207010BD000014010020002001F066
:10469000D7BA10B50446322001F0D2FAA0B2BDE874
:1046A000104001F0C9BA000003480068002801D09A
:1046B0000068004770470000F801002003490968BE
:1046C000002901D04968084770470000F801002020
:1046D0000149086070470000F80100200148408847
:1046E000FFF7ECBF2001002010B58CB004466846EF
:1046F00000F04EFA90B10598A0800498401CA0717B
:104700000398E07102982070019860700098A07082
:104710000698401C207200200CB010BD0320FBE75F
:1047200010B500F081FA08B1002010BD012010BDC5
:1047300000B58BB0818805918179491E0491C179BA
:104740000391017802914178019181780091007A7A
:10475000401E0690684600F073FA10B100200BB0BE
:1047600000BD0220FBE770470079012804D0FF2834
:1047700005D1012000F0DEBE4FF0FF30FAE77047B0
:104780007047000070B50446082817D80D4D012069
:10479000287005F1540030F8240081B205F134008E
:1047A00050F82400FCF7C2FE07492870002851F891
:1047B000240002D0002802D002E008B1002070BD21
:1047C000012070BD9C000020FCAC002000B50079E9
:1047D000C1B04FF4807101280CD002280FD00328FB
:1047E00006D16846FBF735FD0321684600F00CF85A
:1047F00041B000BD6846FBF72CFD0121F5E7684696
:10480000FBF727FD0221F0E72DE9F34FC1B00E467B
:1048100000252C464FF480716846FBF71AFD0220F4
:104820008DF800009A4B8DF801004FF6FF72EB46B1
:10483000012E04D0022E66D0032E7DD1B8E00620D2
:104840008DF8020000214FF0040A994601EBC10ED9
:10485000D9F814600AEBCE00002306444FEA0300A7
:1048600000EB400536F81570974242D006EB45073D
:10487000B7F802C094453CD0BF88974239D004EBCA
:10488000C3073F1D07F0FF0C471C0BF80C70DC44FE
:104890004F1C8CF80170D9F8148008EBCE070AEB96
:1048A000450837F80880CDF800814FEA18288CF8C1
:1048B0000280DDF800818CF803804FF0060808EBD9
:1048C000450837F80880CDF800814FEA18288CF8A1
:1048D0000480DDF800818CF805804FF0080808EBB3
:1048E00045057D5B2F0A8CF806705B1C8CF8075021
:1048F000DBB2401C0C28B3D304EBC300491CC4B288
:104900000229A3DBBBE008208DF8020000204FF451
:10491000AE794FF4B07A00BF5E6909EBC001765AF8
:10492000964222D05F690AEBC00179584F1C1CD017
:10493000C5EBC5073F1D00E034E0FFB200F1010CFC
:104940000BF807C05F444FEA116C87F801C04FEACB
:10495000114C87F802C04FEA112C87F803C0397157
:10496000310A79716D1CBE71EDB2401C0628D3D39B
:10497000C5EBC5002044C0B28DF803005844FF21A8
:104980000171417180F806109DF803205946D21D2F
:104990004198FBF745FC9DF803203E48D21D419904
:1049A000FEF7ACFB3C490120C87043B0BDE8F08F76
:1049B00007208DF8020000214FF0980901EB410A11
:1049C0005F69002509EB4A103E18284636F830701A
:1049D000974249D006EBC007B7F802C0944543D0D0
:1049E0007F687F1C40D005EB850704EB47073F1D20
:1049F00007F0FF0800F1010C0BF808C00BEB0807EB
:104A000001F1010C87F801C0D3F814806D1C08EB8C
:104A10004A1E09EBC0083EF808C0EDB24FEA1C2858
:104A200087F802804FF09A0887F803C008EBC008A7
:104A30003EF808C04FEA1C2887F804804FF09C0815
:104A400008EBC00887F805C05EF808C04FEA1C688C
:104A500087F806804FEA1C4887F807804FEA1C2831
:104A600087F8088087F809C0401C0C28AED305EBF6
:104A7000850004EB4000491CC4B202299EDB0BEB0D
:104A800004018DF80340FF200871487188717BE7AD
:104A90007C90000894B70020140200200A21B0FB8B
:104AA000F1F201FB1202B0FBF1F002EB0010C0B218
:104AB0007047000010B5084CA27812B1012A08D145
:104AC00005E006A1FBF7D0FB002804D001E0FFF7CA
:104AD00073FD0120607010BD140200206F6B000098
:104AE00070B5064614A1FBF7BFFB144C012500B1BD
:104AF000257013A13046FBF7B7FB48B112A1304631
:104B0000FBF7CCFB13A1FBF7C9FBFBF7E9FB6070DC
:104B100011A13046FBF7A8FB00B1A57010A13046EB
:104B2000FBF7A2FB00B1E57014A13046FBF79CFB3C
:104B3000002800D0257170BD4F4B000019020020E5
:104B40004353513A200000000D0A2B4353513A20A1
:104B5000000000002C0000004552524F520000009F
:104B60002B4D515454444953434F4E4E45443A20E3
:104B70004C696E6B20436C6F736564002B434C4F24
:104B800055444844415554483A204F4B00000000DA
:104B90003EB5040041D00720009001AB0022D12196
:104BA000204800F0C7F8012836D19DF80400FFF72F
:104BB000B4FC20609DF80500FFF7AFFC60609DF835
:104BC000060041062BD500F01F00FFF7A6FC401E93
:104BD000A0609DF80610890601D50C30A0609DF8F4
:104BE0000700FFF79AFC401EA0619DF80800FFF740
:104BF00094FCE0609DF8090000F01F00FFF78DFCB9
:104C0000401E20619DF80A00FFF787FC00F5FA605E
:104C100060610020206201203EBD00203EBDFFF704
:104C20007CFCDBE70002002010B50349034800F0DC
:104C3000F7F8012010BD00006402002000020020EF
:104C40000EB5030032D01878FFF728FF8DF8040066
:104C50001879FFF723FF8DF80500187AFFF71EFF7C
:104C60008DF80600187E401CC0B2FFF717FF8DF8C4
:104C70000700187BFFF712FF8DF80800187C401C16
:104C8000C0B2FFF70BFF8DF80900187DA0F5FA60A0
:104C9000C0B2FFF703FF8DF80A000720009001ABB8
:104CA0000022D021024800F081F80EBD00200EBD88
:104CB0000002002000790649012805D0FF2806D10E
:104CC0004A680021022010474A680121FAE770472C
:104CD000289000080149024800F0A2B864020020B0
:104CE0001002002008B50E230092CAB203EAD111C7
:104CF000034641F0A101024800F01CF808BD000085
:104D00001002002008B50E230092CAB203EAD111A6
:104D1000034641F0A001024800F048F808BD000039
:104D20001002002002484069B0F89400FBF703BD70
:104D30007C9000082DE9FE4F1A4D81461A4EFF2047
:104D4000DDF830A08B46002428701F469046611E77
:104D5000306800F047FE10B10120287004460220A0
:104D6000287032210097CDE901A108F0FF0201234C
:104D70005946D9F80000FCF7A3FC10B103202870B5
:104D8000641C04202870306800F0BEFE10B10520BD
:104D90002870641C0620287014B10020BDE8FE8F26
:104DA0000120FBE704020020040000202DE9FE4F53
:104DB000194E8B46814600241F469046611EDDF841
:104DC00030A0306800F00EFE144D10B10120687064
:104DD00004460220687032210097CDE901A108F055
:104DE000FF0201235946D9F80000FCF779FD10B104
:104DF00003206870641C04206870306800F084FE32
:104E000010B105206870641C0620687014B1002081
:104E1000BDE8FE8F0120FBE7040000200402002013
:104E200011B1016001207047002070471CB50020BF
:104E300000F0C2F940211F48FBF70BFA1D48FF2183
:104E4000FF38FBF706FA1C481CA2402103781948DA
:104E5000FFF744FA174920A0CDE9000115482DA31A
:104E600030A2FF21FF38FFF739FA1248FF38FBF76D
:104E70000DFA104982B2FF392E48FEF73FF901F0D2
:104E8000B7FC2D48006880472C480068804728B14F
:104E90004FF47A74204600F04FFDFBE72848006885
:104EA00080472848006880472748006802B0BDE86E
:104EB0001040004786BD00201A0200207B706172FE
:104EC000616D733A7B4353513A25642C737461745A
:104ED000653A317D7D0000002F7379732F61317742
:104EE00030316C50356C6D422F76616C76655F6D3C
:104EF000616E61676572312F7468696E672F6576C0
:104F0000656E742F70726F70657274792F706F7325
:104F10007400000041542B434C4F55445055423DC2
:104F200000000000257325732C312C222573220DDF
:104F30000000000054B700207C9000086C9000082E
:104F40002890000854900008609000082DE9F04176
:104F50000446082802D90020BDE8F081002503F0AE
:104F600061F806462046FFF70DFC124B124903F18B
:104F700008021F5D874204D041F8246000271755BE
:104F800001E0175D9FB951F82410711A1E290ED93E
:104F90000849012610310F5D20B1012F06D00125EF
:104FA0000E5503E0022F01D002250D551655185558
:104FB0002846D1E7B50000203CAD00202DE9F041A6
:104FC0000446082802D90020BDE8F08103F02AF841
:104FD00005462046FFF7D6FB0F4B104E03F10801A4
:104FE0001F5D01F10802874204D046F824500027D3
:104FF0000F5501E00F5D5FB956F82460AD1B1E2D03
:1050000006D908B1032500E00425155501250D55E5
:105010001855105DD8E700009D0000201CAD002051
:105020003EB50D4600218DF800108DF804100828BB
:1050300014D2DFE800F00406080A0C0E1012072054
:105040000CE006200AE0052008E0042006E000202D
:1050500004E0012002E0022000E00320441CE0B252
:10506000694601F033FD90B99DF8000028B1E0B227
:1050700001A901F08DFD50B901E002203EBD9DF86F
:10508000040030B1E0B202A901F0E6FC18B104203E
:105090003EBD03203EBD029801F0CCFE28600020FA
:1050A0003EBD3EB50D4600218DF800108DF8041070
:1050B000082814D2DFE800F00406080A0C0E1012CB
:1050C00007200CE006200AE0052008E0042006E0A6
:1050D000002004E0012002E0022000E00320441C44
:1050E000E0B2694601F0F2FCA0B99DF8000028B1D9
:1050F000E0B201A901F04CFD60B901E002203EBD23
:105100009DF8040008B103203EBDE0B202A901F001
:10511000A3FC08B104203EBD029801F08BFE28607C
:1051200000203EBD10B501F0BBFD002800D00120DD
:1051300010BD7CB50D4600218DF800108DF80410CF
:10514000082814D2DFE800F00406080A0C0E10123A
:1051500007200CE006200AE0052008E0042006E015
:10516000002004E0012002E0022000E00320441CB3
:10517000E0B2294601F040FD68B9E0B2694601F0AD
:1051800007FD78B99DF80000854212D1E0B20121F7
:1051900001F0CAFC08B105207CBDE0B201A901F014
:1051A00095FC08B104207CBD9DF8040008B10020E6
:1051B0007CBD03207CBD00002DE9F041ADF5007DF4
:1051C00004464FF4807631466846FBF742F8314694
:1051D00040A8FBF73EF84FF00008654E4FF4FA6721
:1051E0001EE00F2C19D2DFE804F045505B66717C9D
:1051F0008729929DA8B3183A0800307838B10D2D50
:1052000017D00B2D25D06C1C86F8008005E0B078F7
:10521000012801D1082D0AD02C46384600F08CFB1D
:10522000632CDED30DF5007D0020BDE8F0810D2458
:1052300099E086F80080384600F07EFB4D4C204611
:10524000FBF724F882B221464B48FDF757FF0725AC
:1052500088E086F80080384600F06EFBE2E747A45D
:105260002046FBF713F882B221464348FDF746FF7C
:105270000D2577E045A42046FBF708F882B22146C9
:105280003D48FDF73BFF00256CE041A42046FAF7BE
:10529000FDFF82B221463848FDF730FF012561E06D
:1052A0003DA42046FAF7F2FF82B221463248FDF7CC
:1052B00025FF022556E03BA42046FAF7E7FF82B21D
:1052C00021462D48FDF71AFF03254BE037A4204661
:1052D000FAF7DCFF82B221462748FDF70FFF0425CD
:1052E00040E039A42046FAF7D1FF82B22146224895
:1052F000FDF704FF052535E036A42046FAF7C6FF82
:1053000082B221461C48FDF7F9FE06252AE0344CFE
:105310002046FAF7BBFF82B221461748FDF7EEFEA2
:1053200008251FE02F4C2046FAF7B0FF82B2214635
:105330001148FDF7E3FE092514E02BA42046FAF7F7
:10534000A5FF82B221460C48FDF7D8FE0A2509E0E8
:105350002BA42046FAF79AFF82B221460648FDF7B1
:10536000CDFE0B250E24384600F0E6FA39E70000A2
:10537000190200207C91000854B7002041542B4DA5
:10538000515454444953434F4E4E0D0041540D0067
:10539000415445300D00000061742B6370696E3F0D
:1053A0000D00000061742B6373710D0041542B4E8E
:1053B000455441504E3D22434D4E4554222C22220D
:1053C0002C22220D0000000041542B584949433D36
:1053D000310D000041542B584949433F0D00000056
:1053E000FC9100084892000841542B434C4F55440F
:1053F000434F4E4E3D36302C302C340D0000000013
:1054000041542B434C4F55445355423D222F61315B
:105410007730316C50356C6D422F76616C76655FFC
:105420006D616E61676572312F757365722F73657B
:1054300074706172616D73222C310D00FCF720FBDA
:10544000FEF750FBFEF7FCF8FEF7B4F8FEF792F813
:1054500023482249002401602249C0E901144FF485
:105460008041C0E9034144618461C4610462FCF786
:105470006DF8FEF70DFAFEF72FFA1C481A49016085
:105480004FF4E131C0E901140C21C460C0E90441CA
:105490008461C461FDF74EFCFEF742FAFEF7CAF9DB
:1054A000FEF790F9FEF7AAF900F060FA0121104A20
:1054B000084600F0D1FA0F4C0D4A0121606010320D
:1054C000084600F0C9FA0A4AA060243A00210A48B6
:1054D00000F050FB206000F065FAFEE70058004045
:1054E00064020020A086010000440040A8030020C0
:1054F00044840008000000207D3A000810B580793F
:105500000B4C01280BD0FF2810D10121626800202C
:10551000904762680021BDE810400120104700213B
:1055200062680846904701216268F4E710BD0000F8
:1055300028900008B0F1FF3F07D050B101280DD1ED
:10554000002211464FF07E5006E00022114604482A
:1055500002E000221146104601F01EB8704700001C
:10556000000080BF2DE9F04108680D4602EB800184
:10557000154C08894F89A169164611B101291DD022
:105580001EE00021FE2810D0FF2815D0FFF796F866
:10559000306845F6C0517843B1FBF0F0401EA06181
:1055A0002868401C2860BDE8F0812960206908B1A6
:1055B0002161F8E76161F6E72960F4E7FFF774F825
:1055C000A069401EA061EEE72001002010B50C4646
:1055D0001AB1012A03D0062010BD114B00E0114B77
:1055E000032815D003DC50B1012806D109E0952825
:1055F00010D0A0F5807159390ED0072010BD0122BE
:1056000000E0022201462046984738B1002010BD34
:105610009222F7E7C422F5E73422F3E7032010BD16
:10562000054D0008E54C0008F8B534486946007897
:105630008DF80000002000F0DBF800285CD1304C31
:105640004FF47A7000226080A11C0120FFF7BEFF9A
:10565000F0BB00214FF6FF7501EBC102002004EB07
:10566000C20300BF00EB400203EB4202401C158165
:105670009580D5800C28F5D3491C0229ECD302274C
:10568000A4F894700022211D0320FFF79FFFF8B9B2
:105690000020461E00EB4002002104EB421300BF35
:1056A00003EBC102491CC2F89C6022F8985F0C29E8
:1056B0005580F5D3401C0228ECD30A201049A4F8E9
:1056C0005801002298319520FFF780FF00B900E0D3
:1056D00012E004EBC001401CA1F85C51C1F860610C
:1056E0000628F4D3A4F88C710022064940F2591020
:1056F000FFF76CFF002800D00220F8BD2402002034
:10570000F8B9002054BB002010B5FFF7E3FA0C49AC
:10571000002000F019F880B909480178094800789C
:10572000814202D1052001F08DF84FF4FA7000F0AB
:1057300003F900F011F8002800D0012010BD00008E
:10574000F8B900202402002010B50122FFF73EFF27
:10575000002800D0042010BD10B50F4C0122A11C60
:105760001046FFF733FFA8B90122211D0320FFF7E0
:105770002DFF78B9012204F198019520FFF726FF4B
:1057800040B9012204F5AE7140F25910FFF71EFF37
:10579000002800D0042010BDF8B9002038B55520ED
:1057A0008DF800006946002000F022F8E0B90F4CA7
:1057B0000022A11C0120FFF709FFA8B90022211D2A
:1057C0000320FFF703FF78B9002204F19801952028
:1057D000FFF7FCFE40B9002204F5AE7140F259100B
:1057E000FFF7F4FE002800D0022038BDF8B90020F1
:1057F00010B50022FFF7EAFE002800D0022010BDFD
:10580000FEF752BFC179807901EB002002494A6955
:1058100050800869004700007C90000880790128CA
:1058200001D1FFF787BE704770B51B4D002405F10D
:10583000200600BF55F8240010B956F8240028B3FC
:10584000082C14D2DFE804F00406080A0C0E10122B
:1058500000200CE001200AE0022008E0032006E01E
:10586000042004E0052002E0062000E00720FFF706
:105870006DFB58B1012802D0022807D102E055F88B
:10588000240001E056F8240000B18047641CE4B213
:10589000082CCFD370BD0000B8B9002010B500248B
:1058A000082814D2DFE800F00406080A0C0E1012D3
:1058B00000200CE001200AE0022008E0032006E0BE
:1058C000042004E0052002E0062000E00720FFF7A6
:1058D00075FB38B1032802D0042803D101E003246A
:1058E00000E00424204610BD10B5044A00210448FD
:1058F00000F040F903490860002010BD3090000816
:105900002959000820020020012903D0022903D0D0
:1059100002207047034901E00249203141F820206C
:1059200000207047B8B900200020FFF77DFF0A2053
:1059300000F002F8F8E7000010B5EFF3058149B96F
:10594000EFF3108131B908490968022905D1EFF355
:10595000118111B16FF0050403E0002408B101F0DA
:10596000DDFB204610BD000070000020EFF3058035
:1059700058B9EFF3108040B909490868022801D0EE
:1059800030B109E0EFF3118030B16FF005007047DE
:1059900001200860002070474FF0FF307047000082
:1059A0007000002010B5EFF3058060B9EFF31080B0
:1059B00048B90B490868022802D0012806D00BE03C
:1059C000EFF3118040B16FF0050010BD02200860B8
:1059D00001F054FC002010BD4FF0FF3010BD00005E
:1059E00070000020F8B50D460024211F4E1C002831
:1059F0000DD0EFF305824AB9EFF3108232B9144AA1
:105A00001268022A17D1EFF31182A2B10DB10C4630
:105A10001BE000216A46009102F05AF9012813D1D7
:105A2000009890B10B494FF080500860BFF34F8F42
:105A3000BFF36F8F09E0294602F098F9012804D0DE
:105A400015B16FF0010400E034462046F8BD0000B7
:105A50007000002004ED00E0F8B5144603460E4641
:105A60004FF00005EFF30580E8BBEFF31080D0BBEB
:105A700024480068022802D1EFF3118098BB93B349
:105A80009E423DD84CB1A0680028E06803D0502861
:105A900036D3012002E008B132E00020012B05D00E
:105AA00010B31846A26801F060FE20E040B1032068
:105AB0000090002211460120A36801F09AFE04E044
:105AC00003220021012001F070FE050018D086B1EC
:105AD00000231A46194601F003FF012809D0284681
