:020000040800F2
:1000000010230020DD010008273E00086F2A0008A9
:10001000253E0008E9110008E9430008000000003F
:100020000000000000000000000000004501000882
:100030002F1200080000000089010008013F00089D
:10004000F7010008F7010008F7010008F7010008B0
:10005000F7010008F7010008F7010008F7010008A0
:10006000F7010008F7010008F7010008F701000890
:10007000F7010008F7010008ED110008F911000868
:10008000F7010008F7010008F7010008F701000870
:10009000F7010008F7010008F7010008F701000860
:1000A000F7010008F7010008F7010008F701000850
:1000B000C53F0008D13F0008F7010008F70100081C
:1000C000F7010008F7010008F7010008F701000830
:1000D000F7010008D1430008F7010008F701000804
:1000E000F7010008F7010008F7010008F701000810
:1000F000F7010008F7010008F7010008F701000800
:10010000F7010008F7010008F7010008F7010008EF
:10011000F7010008F7010008F7010008F7010008DF
:10012000F7010008F7010008F7010008F7010008CF
:10013000DFF80CD000F0F8FD004800470D81000802
:1001400010230020224B19680868B0E8F00F80F3F4
:100150000988BFF36F8F4FF0000080F311884EF0D5
:100160000D0E70470000000006480068006880F32C
:10017000088862B661B6BFF34F8FBFF36F8F00DFA1
:1001800000BF00BF08ED00E0EFF30980BFF36F8F01
:100190000F4B1A6820E9F00F106008B54FF05000BF
:1001A00080F31188BFF34F8FBFF36F8F09F07AFA96
:1001B0004FF0000080F31188BDE808401968086816
:1001C000B0E8F00F80F30988BFF36F8F704700BF6E
:1001D000B0010020EFF3058070470000064880471B
:1001E00006480047FEE7FEE7FEE7FEE7FEE7FEE71C
:1001F000FEE7FEE7FEE7FEE77D3F0008310100086D
:10020000202A04DB203A21FA02F00021704721FA6B
:1002100002F3D040C2F120029140084319467047D2
:1002200040EA01039B0703D009E008C9121F08C078
:10023000042AFAD203E011F8013B00F8013B521EF8
:10024000F9D27047D2B201E000F8012B491EFBD26F
:1002500070470022F6E710B513460A4604461946D1
:10026000FFF7F0FF204610BD30B505462A460B4685
:1002700012F8010B13F8014B08B1A042F8D01CB1E1
:10028000002802D06D1CF1E7284630BD10B50446A9
:1002900004E00B7800F8013B03B1491C521EF8D270
:1002A000204610BDCAB2401E10F8011F8A4202D07B
:1002B0000029F9D100207047421C10F8011B0029C9
:1002C000FBD1801A704730B504460020034600E099
:1002D0005B1C934203D2E05CCD5C401BF8D030BD88
:1002E000034611F8012B00F8012B002AF9D118461A
:1002F000704730B505460020034600E05B1C934282
:1003000005D2EC5CC85C201A01D1002CF6D130BDBE
:100310002DE9FF4F087881B09946FF2805D0491C88
:100320002D2804D00024002308E000230BE0012442
:10033000F9E703EB830300EB4303491C0878FF282C
:10034000F7D104B15B4200200090147801462D2CB7
:1003500001D02B2C04D1521C2D2C12D0002400943F
:1003600000251678FF2E0ED00A24A0FB04C801FB3E
:100370000481002700FB0711521C16EB0C00694199
:10038000EFE70124EBE7994450EA01020ED0002484
:10039000AA4D2646DFF8A88200F085FC82468B46EF
:1003A000B9F1000009DAC9F100071BE0019800214A
:1003B000C0E9001105B0BDE8F08F074612E0F8076C
:1003C00007D022462B463046414600F08BFB0646BE
:1003D000884622462B461046194600F083FB044609
:1003E0000D467F10002FEAD1B9F1000F3246434687
:1003F0005046594602DA00F0E7FB01E000F072FBDC
:10040000009A0AB181F00041019AC2E90001D1E7E6
:100410002DE9FF4F1F468DB0D7E901464FF0FF3859
:100420002E2045464FF000090B90B9696D1C0E98BF
:100430008847396A824688470028F6D1BAF1FF3FDB
:100440000AD024F4D064002E11DDBAF12B0F08D0AD
:10045000BAF12D0F0BD102E0404611B0ABE744F4E6
:100460008064B9696D1C0E9888478246761E69467D
:10047000600501D52D2000E02B208DF8000001F152
:10048000010B0DF1200809E0B9696D1C0E98884731
:1004900082460F9844F40074761E0560002E02DD3B
:1004A000BAF1300FF0D00B998A453ED144F0800468
:1004B00006E00F99681CA9F1010944F40074086072
:1004C000B9696D1C761E0E98884782463028F0D098
:1004D0002BE00B998A4505D1200603D444F0800413
:1004E000761E18E0504604F045FA08B30DF11301EA
:1004F000761E44F400748B4508D2AAF130000BF844
:10050000010B200607D5A9F1010003E0200602D463
:1005100009F101008146A00502D50F99681C086009
:10052000B9696D1C0E9888478246002ED1DC53E0D5
:10053000002E51DDBAF1650F02D0BAF1450F4BD153
:10054000A00549D5B9696D1C24F44074761E0E9837
:1005500088478246002E0CDD2B2804D0BAF12D0FDF
:1005600007D144F48074B9696D1C0E98884782469F
:10057000761EE00501D52D2100E02B2108F8011B96
:10058000CDF82C8021E00DF12901761E44F4007491
:1005900088450CD2AAF1300010F0FF0088F8000066
:1005A00002D10B99884509D908F1010806E0E00558
:1005B00001D5244801E042F20F708146B9696D1CF3
:1005C0000E98884782460F980560002E04DD50463D
:1005D00004F0D0F90028D6D1F9690E988847FF2099
:1005E0008BF8000088F800000020069007904B462A
:1005F0006A4608A906A8FFF78BFEA00502D46FF093
:1006000001002AE714F0240F0AD0E00714D1DDE935
:1006100006123868031D3B600068C0E900120BE059
:10062000DDE9060100F063FB0146E00704D138680C
:10063000021D3A600068016028460EE70000244071
:100640000000F03FF1D8FFFF70B5064603F0F8FE5A
:10065000046805460A220021304600F007F92C60A4
:1006600070BD70B5C1F30A5201F000450024C1F31A
:10067000130140F2FF3341F480119A4201DA002065
:1006800070BD40F233439A42A2F2334203DC52423D
:10069000FFF7B6FD00E090402C43F1D0404270BD22
:1006A00030B5041E71F1000404DB4FF000444042F9
:1006B00064EB0101141E73F1000405DB1C464FF0CE
:1006C0000043524263EB04038B4208BF824230BDB9
:1006D00030B5041E71F1000404DB4FF000444042C9
:1006E00064EB0101141E73F1000405DB1C464FF09E
:1006F0000043524263EB0403994208BF904230BD6D
:1007000030B50B46014600202022012409E021FAE1
:1007100002F59D4205D303FA02F5491B04FA02F5DE
:100720002844151EA2F10102F1DC30BD2DE9F05F75
:100730000546002092469B46884606468146402450
:100740001BE02846414647462246FFF759FD5346DF
:100750005A46C01A914110D311461846224600F05D
:10076000F5FA2D1A67EB01084F46224601200021B9
:1007700000F0ECFA17EB00094E41201EA4F1010431
:10078000DFDC484631462A464346BDE8F09F4268D2
:1007900042B1016811F8013B23B1521EC0E90012B9
:1007A000184670470121C160881E704742685AB1DF
:1007B000C368016843B983688B4205D0491E521C47
:1007C000C0E90012002070474FF0FF307047000072
:1007D0000FB4002300B589B00CA900910B996FF0FC
:1007E0000042CB601E4B06931E4B07930423CDE9BA
:1007F00001321D4A089202466B460020FFF708FEB0
:1008000009B05DF814FB70B586B006464FF0FF30B6
:100810000091CDE90101002015460C4604903246B6
:10082000694604A8FFF7D4FF03460498211825B1B0
:1008300008B10A4600E022462A6000280DD0002BAD
:1008400002DD0098884208D0081B0094CDE901041D
:100850003246694604A8FFF7BBFF06B070BD000032
:100860008F070008AD070008990D00082DE9F04733
:1008700091460F4680460446002614F8015B2DB1D0
:1008800000F086FA0068405DC007F6D12B2D02D03B
:100890002D2D18D0641E4A463946204600F085FAB0
:1008A00027B13968A14201D1C7F8008071054FF026
:1008B00002040BD54042002803DD03F0C1FD0460B3
:1008C000A007BDE8F08746F48066E4E70028F8DA80
:1008D00003F0B6FD04606FF00040F2E710B5141E9F
:1008E00073F1000408DA401C41F1000192185B41E9
:1008F0001A4301D120F0010010BD2DE9F04D9246C0
:100900009B4611B1B1FA81F202E0B0FA80F22032D6
:10091000904600F01BFA04460F4640EA0A0041EAFE
:100920000B0153465A46084313D0114653EA0100BF
:1009300019D0C8F140025046FFF762FC05460E464A
:1009400050465946424600F001FA084305D00120BE
:1009500004E020463946BDE8F08D0020054346EA14
:10096000E0762C4337430A986305E40AA0EB0800BD
:100970000022FD0A44EA47540A3002D5002001460D
:10098000E9E7010510196941DDE9084500196941E8
:10099000BDE8F04DA2E72DE9FE4F804681EA030055
:1009A000C00F0C46009021F0004123F00045B8EB49
:1009B0000200A94105D24046214690461C460B46FE
:1009C000024623F00040104347D0270DC7F30A002A
:1009D000C3F30A510290401A019040286BDAC3F326
:1009E000130040F4801B0098924620B10023D2EB04
:1009F000030A63EB0B0B01985946C0F140025046C5
:100A000000F0A4F906460D4650465946019A00F0FA
:100A1000ACF910EB08006141002487EA115284EA26
:100A2000E7731A4340D0009A62B3019A012A4FEA51
:100A3000075215DC001B61EB02014FF0004202EA95
:100A40000752CDE90042001C41F5801132462B4689
:100A5000FFF753FF03B0BDE8F08F40462146F9E7AA
:100A6000001B61EB0201001C41F5801300185B4183
:100A70002018A2F5001747EB030140EAD570B6191C
:100A80006D4111E06D084FEA360645EAC0754FEA40
:100A90000752001B61EB0201001C41F5801149085F
:100AA0004FEA30000019514132462B4603B0BDE8F1
:100AB000F04FFFF713BF0098012240000023D0EB56
:100AC000020263EBE073009821464FEAE074B8EB52
:100AD000000061EB0401E9E783F000435BE781F08C
:100AE000004158E72DE9FE4F81EA030404F0004479
:100AF00021F0004100944FF0000B23F0004350EA36
:100B000001045ED052EA03045BD0C3F30A54C1F37C
:100B10000A552C44A4F2F3340194A0FB0254C1F30F
:100B2000130141F48011C3F3130343F4801301FB59
:100B3000024400FB034E840A970A44EA815447EAC0
:100B40008357A4FB076802958D0A05FB07854FEACA
:100B5000932C04FB0C542705029D4FEA065847EAE4
:100B60001637B5EB08056EEB070C870E920E47EAB9
:100B7000811742EA8312A7FB0201B6EB0B0164EB7B
:100B800000042B0D43EA0C335E1844EB1C50DA468C
:100B90005146E7FB0201C5F313044FEA0B3343EA66
:100BA00014534FEA0432019C43EA0603A4F10C04F7
:100BB0000294009CCDE900B4FFF79FFE03B0BDE8AE
:100BC000F08F00200146F9E72DE9F04D81EA03049A
:100BD00004F0004B21F0004514464FF0000A23F0CA
:100BE000004150EA050220D054EA01021DD0C5F3AD
:100BF0000A570246C5F31303C1F31300C1F30A56A3
:100C000040F4801543F48013A7EB0608101BD6466A
:100C100008F2FD3873EB050002D308F1010801E08A
:100C200092185B41B8F1000F03DA00200146BDE8DD
:100C3000F08D00204FF48011064684460EE0171B0D
:100C400073EB050705D3121B63EB050306434CEA60
:100C5000010C49084FEA300092185B4150EA010745
:100C6000EDD152EA030012D082EA040083EA0501C2
:100C7000084305D0101BAB4106D20122002306E039
:100C800000224FF0004302E06FF0010253101AEB14
:100C900006004CEB085110EB0A0041EB0B01BDE8DC
:100CA000F04DFFF71BBE0EB540F233420292002218
:100CB000CDE900221346FFF720FE03B000BDC1F3CB
:100CC0000A52C1F3130140F2FF3341F480119A42FA
:100CD00002DA00200146704740F233439A42A2F202
:100CE000334202DC5242FFF78BBA00F02FB801F01A
:100CF000004330B421F0004150EA010206D00A0D51
:100D0000A2F56072C1F31301002A02DC30BC00209E
:100D10007047440F44EAC104C100E01830BC00EB46
:100D2000C25000F091B80000064C074D06E0E068A4
:100D300040F0010394E8070098471034AC42F6D322
:100D4000FFF7FAF928AB000848AB0008202A04DBBB
:100D5000203A00FA02F1002070479140C2F12003CE
:100D600020FA03F3194390407047202A06DBCB1783
:100D7000203A41FA02F043EAE07306E041FA02F356
:100D8000D040C2F12002914008431946704700004C
:100D90000048704714A8000810B50446FFF7F8FF94
:100DA0000068005D00F0010010BD2DE9F05F824693
:100DB0000078002715468B460AF10104B946302811
:100DC00001D09DB113E014F8010B0127782803D05E
:100DD000582801D045B10AE00DB1102D07D10027E8
:100DE000102514F8010B02E0082500E00A25002672
:100DF000B0460EE005FB080005FB06F1012701EBFC
:100E000010461FFA80F8B6F5803F00D3B94614F8B3
:100E1000010B294600F04FF80028EBDABBF1000F78
:100E200005D00FB1641E00E05446CBF80040B9F184
:100E3000000F06D003F004FB02210160C81EBDE8CC
:100E4000F09F48EA0640FAE70029A8BF7047401C17
:100E5000490008BF20F00100704710B4B0FA80FCD0
:100E600000FA0CF050EA010404BF10BC704749B10D
:100E7000CCF1200421FA04F411FA0CF118BF01217D
:100E800021430843A3EB0C01CB1D4FEA00614FEA5D
:100E9000102042BF002010BC704700EBC35010442C
:100EA0000029A4BF10BC7047401C490008BF20F0B7
:100EB000010010BC70473A2800D2303820F02002E0
:100EC000412A01D3A2F13700884201D34FF0FF300D
:100ED000704770B58C1810F8015B15F0070301D14D
:100EE00010F8013B2A1106D110F8012B03E010F88D
:100EF000016B01F8016B5B1EF9D12B0705D40023B0
:100F0000521E0DD401F8013BFAE710F8013BCB1A51
:100F1000921C03E013F8015B01F8015B521EF9D546
:100F2000A142D8D3002070BD10B504F03BFB0028CF
:100F300004D003A000F0F4FE4FF0FF3010BD00001D
:100F4000636C6F7365736F636B6574206572726F2A
:100F5000720A00007FB50E460A46044601461AA0F2
:100F600000F0DEFE6946204604F03EFB01004FF033
:100F7000FF3505D03346224622A000F0D1FE07E01F
:100F8000012004F009FC040005D52BA000F0C8FEE8
:100F9000284604B070BD3246694604F023FC50B1C7
:100FA000204604F0FFFA2AA000F0BAFE2C462CA03E
:100FB00000F0B6FE05E0601CF9D021462EA000F03E
:100FC000AFFE2046E5E7000065737461626C6973EB
:100FD000682074637020636F6E6E656374696F6EF2
:100FE00020776974682073657276657228686F73FC
:100FF000743D272573272C20706F72743D5B257517
:101000005D290A0067657461646472696E666F20A9
:101010006572726F72282564292C20686F737420A2
:101020003D20272573272C20706F7274203D205B94
:1010300025645D0A000000006372656174652061CB
:101040007420636F6E6E206572726F720A0000000A
:10105000636F6E6E656374206572726F720A000052
:101060006661696C20746F2065737461626C69736A
:1010700068207463700A000073756363657373207E
:10108000746F2065737461626C6973682074637037
:101090002C2066643D25640A000000002DE9F05F05
:1010A0001C4691468A46834603F066FB07190024D6
:1010B00041F1000625464FF0FF3800BF03F05CFB0E
:1010C00002460B463846314604F025FA084324D040
:1010D000584604F028FB68B103F04EFB02460B466D
:1010E0003846314604F017FA084316D00A2001F0BA
:1010F000DEF8EDE7A9EB04020AEB0401584604F020
:10110000ABFA002803DD04444C45D7D305E040B1D9
:1011100007A000F005FE6FF001053CB12046BDE8D8
:10112000F09F06A000F0FCFD4546F6E72846F6E7EE
:1011300072656376206661696C0A0000636F6E6E8B
:10114000656374696F6E20697320636C6F73656487
:101150000A0000002DE9F0471C4616460F4681465E
:1011600003F00AFB10EB040841F100050024321BD8
:101170003919484604F0EDFA011E01DD044403E08C
:1011800011D10CA000F0CCFDB44209D203F0F4FA66
:1011900002460B464046294604F0BDF90843E6D115
:1011A0002046BDE8F08708A000F0BAFD4FF0FF3000
:1011B000F7E700004E6F2064617461206265207360
:1011C000656E740A0000000073656E6420666169D4
:1011D0006C2C20726574203D2073656E6428292074
:1011E0003D2025640A000000FEE70000014800F0F1
:1011F000B1B90000B0080020014800F0ABB9000010
:101200006C08002030B590F840500124AC40C56B0C
:101210006C60046863604368102B036803D09960B6
:101220000068C26030BD9A600068C16030BD704720
:101230007047012070470000074A10B512784FF040
:10124000FF342AB120B119B1FFF736F8402801D98F
:10125000204610BD002010BD9C01002070B51E4C22
:101260000025207808B1002070BD80211B48FEF7C2
:10127000F0FF00F0F7FC4FF0FF36A060F8B100F08F
:10128000F1FCE060B8B100F0F5FF206198B11348BF
:1012900018211838FEF7DDFF1048183805EB450116
:1012A0006D1C40F82160022DF8D306F055FE10B9F0
:1012B00006F038FD68B1A06808B100F0D6FCE0681F
:1012C00008B100F0D2FC206908B100F0D7FF304629
:1012D00070BD01202070C6E79C0100206010002036
:1012E000012070470120704738B54FF0FF3468B1D6
:1012F000074900200122A1F88200A1F880000548DA
:101300006946406801F046FB002800D0204638BD01
:10131000C40F00209C0100202DE9F0471F46144611
:101320000E46DDF820A008F073FE4FF0000881465D
:10133000C7F80080802C00D98024164D204600215B
:10134000434613E0B5F88220B5F880C062450DD061
:10135000AA5C06F8012BB5F88220491C521C92B2F7
:10136000A5F88220802A01D3A5F88230401EE9D258
:101370003868641A0844386009D008F049FEA0EBC8
:1013800009005045DAD94FF0FF30BDE8F087002062
:10139000FBE70000C40F00202DE9F0410E4D0020B6
:1013A0001E46687092B2686801F037FB4FF0FF3755
:1013B00048B908F02DFE044608E000BF08F028FEFA
:1013C000001BB04202D93846BDE8F0816878012898
:1013D000F4D10020F8E700009C01002010B590F83F
:1013E00021100022022905D00421816380F82020E9
:1013F000012010BD01680B6823F00E030B6001682B
:101400000B6823F001030B6090F84030C46B01219E
:1014100001FA03F3636080F8211080F82020104661
:1014200010BD00002DE9F05F90F821100024022982
:1014300003D004218163012485E001680A6822F059
:101440000E020A6001680A6822F001020A603F4E3B
:101450003E4FB215DFF8F4C0DFF8F090DFF8ECA0F3
:10146000DFF8E8B0DFF8E4E00168783F1301150227
:10147000ACF1640CA9F15009AAF13C0AABF1280BBC
:10148000AEF1140E4FF48018B14227D9B9420ED0F4
:10149000614512D049451DD0514518D0594518D045
:1014A000714501D1424615E0294EB14201D10122D8
:1014B00010E0274E1436B14201D110220AE0244E2A
:1014C0002836B14206D0224A3C32914201D11A4616
:1014D00000E02A461E49091F0A602BE0B94213D0DA
:1014E000614517D0494522D051451DD059451DD0E1
:1014F000714501D142461AE0B14202D14FF08072EB
:1015000015E0134EB14201D1012210E0104E143605
:10151000B14201D110220AE00D4E2836B14206D068
:101520000B4A3C32914201D11A4600E02A46074953
:1015300080394A60012180F82110002180F82010B4
:10154000416B01B188472046BDE8F09F8000024012
:10155000080402402DE9F05FC16B0A6801680B685E
:10156000046C4FF0040808FA04F8844D844E854F4B
:10157000DFF814C2DFF81492DFF814A2DFF814B217
:10158000DFF814E218EA020F65D05FEA437862D50B
:101590000A68920603D40A6822F004020A60DFF89F
:1015A000F0814FF48062016808F1140813011402FD
:1015B000414524D9A9420DD0B1420FD0B9421AD029
:1015C000614515D0494515D0514501D1120312E0AE
:1015D000594501D104220EE0714501D140220AE0B3
:1015E0006D4D1435A94206D06B4A2832914201D183
:1015F0001A4600E022466749091F0A6029E0A9420D
:1016000013D0B14215D0B94220D061451BD0494515
:101610001BD0514502D14FF4800217E0414502D161
:101620004FF0806212E0594501D104220EE071456D
:1016300001D140220AE0584D1435A94206D0564A3D
:101640002832914201D11A4600E022464B4908391E
:101650004A60C16A71E04FF0020808FA04F818EA1B
:10166000020F70D05FEA83786DD50A68920606D4BF
:101670000A6822F00A020A60012180F82110DFF8CE
:1016800010814FF40072016808F11408130114026C
:10169000414524D9A9420DD0B1420FD0B9421AD048
:1016A000614515D0494515D0514501D1120312E0CD
:1016B000594501D102220EE0714501D120220AE0F4
:1016C000354D1435A94206D0334A2832914201D112
:1016D0001A4600E022462F49091F0A6029E0A94264
:1016E00013D0B14215D0B94220D061451BD0494535
:1016F0001BD0514502D14FF4001217E0414502D1F1
:101700004FF0007212E0594501D102220EE07145FE
:1017100001D120220AE0204D1435A94206D01E4AEC
:101720002832914201D11A4600E022461349083975
:101730004A60002180F82010816A00291CD0BDE891
:10174000F05F0847FFE70825A540154214D01A07A7
:1017500012D50A6822F00E020A6090F84020C36B8E
:10176000012101FA02F25A60816380F82110002100
:1017700080F82010016BE0E7BDE8F09F0800024010
:101780001C00024030000240440002405800024069
:101790006C000240080402401C04024030B560B1F5
:1017A0001A4B026814219A4209D2194B1344B3FB15
:1017B000F1F18900016417490AE0012030BD134BA3
:1017C0005B421344B3FBF1F1890001640F4908390E
:1017D000C163022180F82110136843F6F0718B4336
:1017E000F0E901142143D0E902452C432143046967
:1017F0002143446921438469214319431160002135
:101800004163012242770177084630BD0804024057
:10181000F8FFFDBF0000024070B5044690F82000BC
:10182000002501280CD0012084F8200094F82160C4
:101830000020012E06D084F820000225284670BD25
:10184000022070BD022684F82160A063206806682B
:1018500026F0010606602046FFF7D4FCE06A002867
:101860002068016802D041F00E0106E021F0040179
:1018700001602068016841F00A0101602068016888
:1018800041F001010160D9E707F0C2BD2DE9F84F31
:10189000DFF8C891002409F1040A0AF1040B234679
:1018A0000F270BF1040ED1E00125A54006EA050241
:1018B000AA4276D1DFF8A8C14E68A6EB0C086645AF
:1018C0002BD00DDC032E34D005DC36B3012E19D01D
:1018D000022E2FD11BE0112E16D0122E2AD119E084
:1018E000B8F5881F19D006DCB8F5803F15D0B8F5DB
:1018F000801F1FD111E0B8F5001F0ED0B8F5041FEE
:1019000018D10AE0CB6815E0CB681B1D12E0CB684C
:1019100008330FE0CB680C330CE08B682BB1012B44
:101920004FF0080303D0456104E0042302E00561A1
:1019300000E00023FF2A01D8064601E000F104067A
:101940004FEA840501D9A5F12005D6F8008007FAF1
:1019500005FC28EA0C0803FA05F548EA0508C6F86C
:1019600000804D68ED0070D53E4DAE6946F0010631
:10197000AE61AD6924F0030605F0010500953A4D0E
:1019800006EB050CDCF80850A607360F07FA06F838
:1019900025EA0805DFF8D480404503D14FF0000860
:1019A00025E052E0DFF8C880404502D14FF0010841
:1019B0001DE0DFF8C080404502D14FF0020816E07C
:1019C000DFF8B480404502D14FF003080FE0DFF8A4
:1019D000AC80404502D14FF0040808E0DFF8A08059
:1019E000404502D14FF0050801E04FF0060808FA23
:1019F00006F848EA0508CCF808804D68D9F8006078
:101A0000ED034D4601D5164300E096432E604D6828
:101A1000DAF80060AD03554601D5164300E0964361
:101A20002E604D68DBF80060ED025D4601D516437F
:101A300000E096432E604D68DEF80060AD0275460A
:101A400001D5164300E096432E60641C0A681646D2
:101A5000E2407FF429AFBDE8F88F000000040140A8
:101A60000000111000100240000001400008014079
:101A7000000C01400010014000140140001801401A
:101A8000001C01400AB1016170470904FBE7000036
:101A900070B505460C242021FEF7DBFB224604A18D
:101AA0002846FEF7F3FB2846BDE87040FEF704BC6D
:101AB000576174657256616C76655F310000000095
:101AC00070B5054620244021FEF7C3FB224603A142
:101AD0002846FEF7DBFB204670BD00006437623805
:101AE0003663666665393933333665656639303253
:101AF000383532336662393539303434000000000D
:101B000070B5044617254021FEF7A3FB2A4605A120
:101B10002046FEF7BBFB0020E0752046BDE8704084
:101B2000FEF7CABB6170702D312E302E302D323051
:101B30003230303731362E313030300070B5054616
:101B40000B241421FEF785FB224603A12846FEF74D
:101B50009DFB204670BD0000613132454F6E5874C8
:101B6000494934000148806870470000080000209F
:101B700002488168027811448160704708000020A3
:101B8000074810B5016841F010010160032000F022
:101B9000B5F8002000F006F800F040F8002010BD75
:101BA0000020024000B5014687B000221C2000F052
:101BB00085F81C2000F075F81448C16941F0010156
:101BC000C161C06905A900F001000690684600F0F7
:101BD0004BF900F069F90E494000B0FBF1F10D48F6
:101BE0004FF08042491E0260416040F2E73200211E
:101BF000C0E90321816000F088FB10B1012007B02B
:101C000000BD044800F0BAFBF9E7000000100240F4
:101C100040420F00F408002006F0A6BF0F4808B5A8
:101C2000816941F001018161816901F00101009147
:101C3000C16941F08051C161C069002200F080504B
:101C400000900F21901E00F039F80548416821F0FE
:101C5000E06141F00071416008BD000000100240E9
:101C600000000140012007F054BF002801D007F018
:101C70000FBC704770B500280AD04FF0FF350446FE
:101C8000294601E02946204608F066F80128F9D1E6
:101C900070BD002804D000231A46194607F0ACBFD7
:101CA0007047002809DB00F01F0201219140400924
:101CB000800000F1E020C0F800117047F0B40E4B36
:101CC0001B680C46C3F30223C3F10705042D00D99A
:101CD0000425191D072901D2002300E0DB1E01267F
:101CE00006FA05F1491E214099409E40761E164095
:101CF0003143F0BC02F094BB0CED00E0064900F06B
:101D0000070208684FF6FF03184040EA0220034A22
:101D100010430860704700000CED00E00000FA0579
:101D20000FB410B503A9029802F060FB024800202E
:101D300000BF10BC5DF814FB100200202DE9F04735
:101D40000F46050061D0434E306800F00700B842EE
:101D500009D2306820F0070038433060306800F066
:101D60000700B84251D128683B4C810712D5400783
:101D700003D5606840F4E06060602878000703D510
:101D8000606840F4605060606068A96820F0F0000E
:101D9000084360602878C00728D06868012810D000
:101DA0002168022810D0890700292EDA616821F005
:101DB000030101436160FFF7D5FE804641F2883997
:101DC0000DE021688903EFE78901EDE7FFF7CAFE1F
:101DD000A0EB0801494502D90320BDE8F0876068FF
:101DE000696800F00C00B0EB810FEFD1306800F0B3
:101DF0000700B8420BD9306820F007003843306044
:101E0000306800F00700B84201D00120E5E72878EB
:101E1000400705D56068E96820F4E0600843606029
:101E20002878000706D56068296920F4605040EAE8
:101E3000C100606000F058F86168084AC1F30311FE
:101E4000515CC8400649086006480068FFF7AAFED2
:101E50000020C2E7002002400010024064A30008F6
:101E6000140000200C0000200F2202600C4A53686E
:101E700003F003034360536803F0F0038360536887
:101E800003F4E063C36052684FF4E06303EAD202F4
:101E900002610448006800F0070008607047000015
:101EA00000100240002002400448054900684968CB
:101EB000044AC1F30221515CC8407047140000205D
:101EC0000010024074A300080448054900684968EE
:101ED000044AC1F3C221515CC8407047140000207D
:101EE0000010024074A3000812A185B00FC98DE84C
:101EF0000F0014A0144A006804905168134801F0C0
:101F00000C03042B10D0082B0ED1C1F38343C9035B
:101F10001DF803000AD5516804AAC1F34041515C81
:101F20000A4A5043B0FBF1F005B0704708494843F6
:101F3000FAE7000002030405060708090A0B0C0D66
:101F40000E0F1010010200000010024000127A0073
:101F500000093D002DE9F84F040070D02078C04DF5
:101F6000C00749D06868C0F38100012807D06868BD
:101F7000C0F38100022809D16868C00306D528682B
:101F8000800339D560680028E7D035E06068B0F597
:101F9000803F0BD010B1B0F5A02F11D0286820F4ED
:101FA00080302860286820F4802002E0286840F40F
:101FB00080302860606890B1FFF7D4FD06460AE0E3
:101FC000286840F480202860F0E700BFFFF7CAFDD2
:101FD000801B642873D828688003F7D50CE0FFF7CE
:101FE000C1FD064605E000BFFFF7BCFD801B64286D
:101FF000F0D828688003F7D420789A4E80074FF0F5
:1020000001094FF0000839D5686810F00C0F07D0AF
:102010006868C0F38100022809D16868C00306D44B
:102020002868800714D52069012808D110E02069AC
:10203000B0B1C6F80090FFF795FD074605E00AE14C
:10204000FFF790FDC01B0228C4D828688007F7D589
:102050002868616920F0F80040EAC10028600DE0BE
:10206000C6F80080FFF77EFD074604E0FFF77AFD23
:10207000C01B022823D828688007F7D420780007DF
:102080002CD57948A169D9B1C0F80090FFF76AFD55
:10209000074604E0FFF766FDC01B02280FD8686AF8
:1020A0008007F7D571484FF4FA510068B0FBF1F0A2
:1020B000009000BF0098411E0091FAD20EE080E02F
:1020C000C0F80080FFF74EFD074604E0FFF74AFD29
:1020D000C01B022875D8686A8007F7D420784007AB
:1020E00060D5E8690027C00008D4E86940F0805056
:1020F000E861E869012700F0805000905C480168C1
:10210000C90513D40168834641F480710160FFF76B
:1021100029FD824606E000BFFFF724FDA0EB0A0080
:1021200064284ED8DBF80000C005F5D5E06801282A
:102130000AD008B1052813D0286A20F001002862CF
:10214000286A20F0040002E0286A40F001002862BA
:10215000E06841F2883B98B1FFF704FD82460BE04E
:10216000286A40F004002862EEE700BFFFF7FAFC9F
:10217000A0EB0A0159455AD8286A8007F6D50CE029
:10218000FFF7F0FC824605E0FFF7ECFCA0EB0A014C
:1021900059454CD8286A8007F6D41FB1E86920F069
:1021A0008050E861E06988B36968C1F38101022960
:1021B00044D00228C6F8608004D0FFF7D3FC044660
:1021C00038E034E0FFF7CEFC074604E0FFF7CAFC36
:1021D000C01B02282BD828688001F7D4206AB0F5EC
:1021E000803F05D16868A16820F40030084368602A
:1021F000D4E908010843696821F474110843686050
:10220000C6F86090FFF7AEFC044606E025E000BF8C
:10221000FFF7A8FC001B022809D828688001F7D521
:102220001BE000BFFFF79EFC001B022802D9032021
:10223000BDE8F88F28688001F4D40EE00128F7D0BB
:102240006868226A00F48031914204D1616A00F426
:102250007010884201D00120EAE70020E8E7000082
:10226000001002400000424280044242140000205C
:102270000070004000210A2007F02EBC002801D089
:1022800007F006B97047002804D000231A46194603
:1022900007F0B2BC704710B54FF0FF3418B107F02B
:1022A0005BFD012801D0204610BD002010BD05F0C7
:1022B00045BF0FB410B505AB049A02F09FF810BCEF
:1022C0005DF814FB7047704770B590F83C20012A08
:1022D00019D0012400F83C4F0222427050F83C3CD7
:1022E0005A689D6822F070060A684968324325F0F2
:1022F000800529435A6050F83C2C916044700021BD
:102300000170084670BD022070BD10B5040003D0F6
:1023100094F83D0010B107E0012010BD002084F8C2
:102320003C00204600F00CF8022084F83D00211DFE
:10233000206801F053FE012084F83D00002010BD0C
:1023400008B500680B49884212D10B48C16941F0B9
:102350000201C161C069002200F002000090052165
:102360001D20FFF7ABFCBDE808401D20FFF799BC1E
:1023700008BD000000040040001002400168CA6867
:1023800042F00102CA600068816801F00701062975
:1023900003D0016841F0010101600020704770B571
:1023A000044690F83C00012817D0012584F83C50E1
:1023B000022084F83D002068826822F0770222F42F
:1023C0007F4282600868502830D00DDC20284DD034
:1023D00005DC98B310283BD148E0022070BD3028BE
:1023E00044D0402834D139E0602828D0702806D065
:1023F000B0F5805F2CD0B0F5005F29D10AE0CB6842
:10240000D1E90121206801F02FFE2068816841F0A8
:10241000770109E0CB68D1E90121206801F024FEB1
:102420002068816841F48041816011E0CA68496890
:10243000206801F02BFE5021206807E016E0CA68F2
:102440004968206801F033FE6021206801F016FE23
:1024500084F83D50002084F83C0070BDCA6849688B
:10246000206801F013FE40212068EFE72268014652
:102470001046EBE7704770B50446006801694FF0FD
:102480000005C943890715D4C168C943890711D418
:10249000E91E0161012020772068806980072046BD
:1024A00002D0FFF7E7FF04E000F098F8204600F0C4
:1024B00096F8257720680169C943490717D4C16890
:1024C000C943490713D46FF004010161022020774A
:1024D0002068806910F4407F204602D0FFF7CAFFD1
:1024E00004E000F07BF8204600F079F825772068BA
:1024F0000169C943090716D4C168C943090712D441
:102500006FF008010161042020772068C06980070E
:10251000204602D0FFF7AEFF04E000F05FF820464F
:1025200000F05DF8257720680169C943C90617D412
:10253000C168C943C90613D46FF0100101610820B6
:1025400020772068C06910F4407F204602D0FFF752
:1025500091FF04E000F042F8204600F040F82577B3
:1025600020680169C943C90708D1C168C943C907BF
:1025700004D1891E0161204600F032F8206801690B
:10258000C943090609D4C168C943090605D46FF0D7
:10259000800101612046FFF795FE20680169C9436B
:1025A000490609D4C168C943490605D46FF0400102
:1025B0000161204600F01BF820680169C9438906C3
:1025C0000BD4C168C943890607D46FF020010161AB
:1025D0002046BDE87040FFF776BE70BD704770477B
:1025E0000068B0F1804F01D1FFF7C2BA7047704761
:1025F000F0B587B004000C980E464FF0FF351DD0A3
:10260000E6B1DBB1D0B100270760186900B90CA0B2
:10261000996809B94FF48071CDE900061888ADF8C2
:102620000800C91C8808CDE903701146684605F00A
:1026300091FD18B12060002007B0F0BD2846FBE7EF
:102640006C696E6B6B69745F7461736B0000000082
:1026500010B504460068416994F83920C1F3C011EF
:10266000212A0BD151B1416921F080014161206BD8
:1026700008B1FEF7B3FE204601F089FD20684169EC
:1026800094F83A20C1F38011222A0BD151B141694B
:1026900021F040014161606B08B1FEF79FFE2046CA
:1026A00001F067FD002010BD7047000070B50268A2
:1026B00004461068D168536910F00F0F51D003F031
:1026C000010501F4907635435DD0C20705D0CA05F7
:1026D00003D5E26B42F00102E263420705D5DA0757
:1026E00003D0E26B42F00202E263820705D5DA070B
:1026F00003D0E26B42F00402E263020705D5DA0779
:1027000003D0E26B42F00802E263E26B002A34D0AD
:10271000800604D5880602D5204601F07FFD20689A
:102720004069E16BC0F3801001F0080101432046CD
:1027300024D001F01EFD2068416949061AD541697F
:1027400021F040014161606BA0B11B494163606BA6
:10275000FEF768FE002810D0606B416BBDE870404A
:10276000084783060FD58B060DD52046BDE870407F
:1027700001F054BD2046FFF797FF70BDFFF794FFAF
:102780000020E06370BD030606D50B0604D5204685
:10279000BDE8704001F0EABD4006F3D54806F1D52A
:1027A000D168204621F04001D160202184F8391001
:1027B00000F052F970BD0000D340000870B504006D
:1027C00004D094F83900002510B106E0012070BD56
:1027D00084F83850204600F023F8242084F839008B
:1027E0002068C16821F40051C160204601F062FDFB
:1027F0002068016921F4904101612068416921F05C
:102800002A0141612068C16841F40051C160E5635B
:10281000202084F8390084F83A00002070BD0000C0
:10282000F0B585B000240646009401940294039408
:1028300000682D49884254D12C48816941F4804177
:102840008161816901F480410491816941F0040151
:1028500081618069264D00F0040004904FF40070FF
:102860000090022001900320039069462846FFF75C
:102870000DF82815CDE90004694628460294FFF7B3
:1028800005F81D4D1B488027C5E90004C5E902472E
:102890002C616C61AC612846EC61FEF77FFF08B1EA
:1028A000FEF7C6FC75636E62134D1248443514384A
:1028B00001C5102091C5104845F8104944306C619D
:1028C000AC61EC61FEF76AFF08B1FEF7B1FC35635D
:1028D0000022052125206E62FFF7F0F92520FFF781
:1028E000E0F905B0F0BD00000038014000100240E2
:1028F00000080140580002406C080020F8B504466A
:1029000090F83A0020283CD1C1B3BAB394F838000B
:10291000012836D0012084F83800A162A285002564
:10292000E563222084F83A00636B17489862636B72
:102930001648D862636B16481863606B134645638C
:102940000846666B216802463046091DFEF764FFA3
:10295000206801684168009184F83850C16841F4EA
:102960008071C1602068416941F0010141612068C6
:10297000416941F0400141610020F8BDFFE70120BD
:10298000FBE70220F9E700002D410008694100083B
:10299000E340000890F83A30202B22D1F9B1F2B18F
:1029A00090F83830012B1CD081628285C2850021CD
:1029B000C163222280F83A2080F838100168CA6882
:1029C00042F48072CA6001684A6942F001024A61B9
:1029D0000068C16841F02001C160002070470120FB
:1029E00070470220704700000948B0F88010491C69
:1029F00089B2A0F88010802902D30021A0F88010AD
:102A000089B20144034801224068FFF7C3BF0000B8
:102A1000C40F00209C010020704790F83930202B13
:102A200018D1A9B1A2B190F83830012B12D00162AF
:102A30008284C2840021C163212280F8392080F879
:102A400038100068C16841F08001C1600020704703
:102A500001207047022070470149012048707047EB
:102A60009C01002010B507F0D3FA002110BDFEE74D
:102A700010B503F031F84FF0FF34002803DB02F00B
:102A8000C7FD002801DA204610BD002010BD00005F
:102A90002DE9F04100263C4C771E0D4600285ADBFC
:102AA000002D58D005210E286AD2DFE800F0070A71
:102AB0000D2640434646496A6A69694F2878206076
:102AC0005FE0207828705CE028462160FDF7F4FB89
:102AD000402840D82846FDF7EFFB411C04F10800D0
:102AE0000446FDF7B6FB2846FDF7E6FB02462946FD
:102AF0002046FDF795FB254817E028462160FDF7A5
:102B0000DBFB402827D82846FDF7D6FB411C04F103
:102B10004C000446FDF79DFB2846FDF7CDFB024621
:102B200029462046FDF77CFB1948446129E02868C6
:102B3000606026E06068286023E02946012001E00B
:102B40002946022003F013FE06461AE02846FDF748
:102B5000B3FB502802D93846BDE8F0812846FDF77E
:102B6000ABFB411C04F18D000446FDF772FB2846C7
:102B7000FDF7A2FB024629462046FDF751FB00E087
:102B80003E463046E8E70000300D002028010020D6
:102B9000400100202DE9F047CEB0044638212EA890
:102BA000FDF757FB0025DFF814924A954B95D9F8AD
:102BB00000002E46002863D14AA90120FFF768FFD4
:102BC0004BA90520FFF764FFB8216846FDF741FBDC
:102BD0006846FEF7B3FF0DF156008246FEF758FF38
:102BE0009DF8000000284AD09DF81400002846D126
:102BF0009DF85600002842D09DF87600A8BB0DF144
:102C00007700FEF75DFF9DF8770070B39DF8B70081
:102C100058BB4A986A4AC0B2694600F07BF900285E
:102C20002DDB6846FDF748FB024669462EA8FDF7F6
:102C3000F7FA2EA8FDF740FB2EAF2E21C1555046C6
:102C4000FDF73AFB80462EA8FDF736FB3844424696
:102C50005146FDF7E5FA4CB1606920B159A1FDF785
:102C600003FB00B10126626901E008E0002254483C
:102C7000334642302EA9804602F0AEFB18B1002048
:102C80004EB0BDE8F08738213CA8FDF7E2FA4FF4DA
:102C9000FA6044908DF80C514EF6602048954995A5
:102CA0004590474D4FF480604790469005F58577F5
:102CB00005F5A576F4B3606828B1FDF7FDFA10B10B
:102CC00060683D9000E03D95208848B1ADF8F00087
:102CD000A06840B1FDF7F0FA28B1A0683E9004E08A
:102CE000B5F84000F2E7CDF8F880E06828B1FDF7CC
:102CF000E3FA10B1E0683F9000E03F97206928B107
:102D0000FDF7DAFA10B12069409000E04096206AA1
:102D100041F29512A0F5FA71914200D24490207FC1
:102D200008B1012801D18DF80C01606AA0F5EA41D3
:102D3000303900E010E0274A914200D24590E06A25
:102D400000B14790A06A00B14690206B00B1489056
:102D5000606B48B1499007E0B5F84000ADF8F0006D
:102D6000CDE93D58CDE93F763CA806F0FBFC4C9000
:102D7000002885D006F0D0FC28B12C3003D04CA818
:102D800006F048FD7BE74C9C204604F0AFFC12485F
:102D900004F094FE204604F08FFE204604F0A0FDCF
:102DA000204604F00BFE4C991020C9F8001003F0E7
:102DB000E1FC00B180474C9862E7000094010020DC
:102DC000380E002061757468747970653D696432ED
:102DD0000000000051DA1100412E000838B50A4CFD
:102DE000002520B1016800910560009801E020688D
:102DF000009028B1684606F00DFD0020256038BD22
:102E00006FF0010038BD00009401002070B5164637
:102E10000C4608B90948006805000BD054B10846B3
:102E2000FDF74AFA30B1324621462846BDE87040E7
:102E300006F0ADBC6FF0010070BD000094010020F1
:102E40002DE9F04385B01F46DDF8308015460E466B
:102E500008B1044601E0134804684FF0FF39ECB1B3
:102E6000E6B10846FDF728FAC0B114216846FDF71F
:102E7000F0F900208DF802508DF804008DF8030061
:102E80006A4631462046CDF80880049706F07FFC5C
:102E9000002800DA484605B0BDE8F0836FF0010075
:102EA000F9E70000940100202DE9F8431E46089F31
:102EB0001546884608B1044601E0114804689CB1F3
:102EC0000846B8F1000F18D0FDF7F6F9A8B1A6B181
:102ED000022D00D9002533462A4641462046009758
:102EE00006F008FDBDE8F88301B03B4632462946AE
:102EF0004046BDE8F04304F02BBC6FF00100F1E761
:102F00009401002008B90248006806F02DBD0000B9
:102F1000940100202DE9F04F8FB00D46064614466F
:102F2000382101A8FDF795F9062E2FD275B34FF47D
:102F3000C6712046FDF78DF92846FDF7BDF902461A
:102F4000294601A8FDF76CF901A8FDF7B5F901AF15
:102F50004FF02E0900F8079005F156008346FDF763
:102F6000ABF9804601A8FDF7A7F938444246594617
:102F7000FDF756F900231A4601A904F1420002F0B8
:102F80002BFA30B14E480FB0BDE8F08F4FF0FF3054
:102F9000F9E704F5A57041210746FDF75AF905F157
:102FA00077032A46594601A8009701F0F9FB00284B
:102FB000E9DBDFF80CA1DFF80C810AF1010A052E2C
:102FC0000ED02846FDF778F9074658F82600FDF799
:102FD00073F93844801C80B2402819D35046D2E798
:102FE000D8F81400464680B1FDF766F9401C80B25F
:102FF0004028F3D240212046FDF72BF97069FDF7F8
:103000005BF902462046716920E06FF48A60BAE7F6
:1030100040212046FDF71DF92846FDF74DF90246EF
:1030200029462046FDF7FCF82046FDF745F900F853
:103030000490474658F82600FDF73EF980462046A2
:10304000FDF73AF9204457F826104246FDF7E8F814
:103050005846FDF731F906462846FDF72DF930446C
:10306000801C80B2402802D31548401E8BE704F52F
:10307000857040210746FDF7ECF85846FDF71CF92E
:10308000024659463846FDF7CBF83846FDF714F9A5
:103090002044262180F80A112846FDF70DF906463E
:1030A0003846FDF709F920443246294600F5857077
:1030B000FDF7B6F840F25B70A4F84000002062E72C
:1030C000B3FBFFFF28010020F8B504004FF0FF36E6
:1030D00013D004F16805D4F8D400FEF7CBFD2846E0
:1030E00000F0FCFB00F0E0F90146204601F0F2F9A7
:1030F00028B1D4F8D400FEF7CCFD3046F8BD2A46FE
:103100002169606A00F05EFB051E09DC204602F0C2
:1031100054F9D4F8D400FEF7BCFD6FF01D00F8BDE3
:10312000684604F0D1FC6846A16806F0CBF86B460F
:103130002A462046616A04F00BFA0028204608D08F
:1031400002F03BF9D4F8D400FEF7A3FD6FF00D00B8
:10315000F8BD02F032F9D4F8D400FEF79AFD002051
:10316000F8BD7CB5064614460D466846009305F04A
:1031700085FDC0F3C00129700009307001A90098D5
:1031800000F05AF90099019A014400910A44511A39
:10319000022904DB684605F077FD208001207CBD14
:1031A0002DE9FC41074600240E462546684600925C
:1031B00005F064FD0221B1EB101F19D101A900989F
:1031C00000F03AF90099054608440199009001443D
:1031D000081A02280CDB684605F050FD60F307046E
:1031E00004F001003870684605F048FD3070012594
:1031F0002846BDE8FC812DE9FC5F07460D46DDE968
:103200000E900021DDE90CBACDE900019846164682
:103210000C46684605F032FD0321B1EB101F2AD1A0
:10322000C0F3C0013970C0F34101296000F0010012
:10323000307001A9009800F0FFF800990446084496
:1032400001990090461832466946584605F025FD1A
:1032500088B10098301A0ED42868002804DD68462A
:1032600005F012FDA8F800000098321AC9F80020F5
:103270000124CAF800002046BDE8FC9F2DE9FC4768
:1032800081460A98002700909A46154688463C4693
:10329000684605F0F3FC0921B1EB101F26D101A906
:1032A000009800F0C9F8009904460844019900907C
:1032B0004618301A022819DB684605F0E5FCA9F823
:1032C00000002F600EE02968414502DB4FF0FF341B
:1032D0000CE0684605F0D2FC29688B00491C296087
:1032E0004AF803000098B042EDD301242046BDE81F
:1032F000FC870EB500238DF804308DF8083000925D
:103300000B46024602A901A8FFF72BFF9DF8041007
:103310000B2900D101200EBDF8B504004FF0FF3697
:103320000ED0D4F8D400FEF7A5FC0021204601F011
:10333000D1F8002806DA00BFD4F8D400FEF7A9FCC3
:103340003046F8BD2169606A00F003FB0546684617
:1033500004F0BAFB6846A16805F0B4FF002D06DD55
:103360006B462A462046616A04F0F2F8064620467B
:1033700002F023F8E0E738B504004FF0FF3515D030
:10338000684604F0A1FB4FF47A71684605F09AFF95
:10339000D4F8D400FEF76EFC0021204601F09AF824
:1033A000002805DAD4F8D400FEF773FC284638BDAF
:1033B0002169606A00F0D0FA021E09DC204601F0A3
:1033C000FCFFD4F8D400FEF764FC6FF01E0038BD9B
:1033D0006B462046616A04F0BBF80028204608D0FE
:1033E00001F0EBFFD4F8D400FEF753FC6FF00D00B2
:1033F00038BD01F0E2FFD4F8D400FEF74AFC00200B
:1034000038BDF8B5012500240E4607460C60641C43
:10341000042C0FDC01216846B84701280AD19DF829
:103420000000316800F07F0202FB0511ED01316000
:103430000006ECD42046F8BD024A10600248FFF7AF
:10344000E0BF0000980100208161000810B503462C
:103450000020CA1701EB526424F07F02891ACAB215
:10346000E111002901DD42F080021A5400F101004F
:10347000EFDC10BD70B504680E4624B12046FCF7A1
:103480001BFF054601E0D0E901543046FCF714FF6C
:10349000854205D12A4631462046FCF714FF08B183
:1034A000002070BD012070BD401C802801DA401C46
:1034B0007047B0F5804F01DA801C7047034988429D
:1034C00001DAC01C7047001D70470000FFFF1F009D
:1034D0002DE9F843050008D0D5F8D000FEF7CAFB67
:1034E000D5F8C4406668103C43E04FF0FF30BDE8BB
:1034F000F8832079012805D0284603F0EBFB022849
:1035000035D107E0D4E90401416008602046FEF7A8
:10351000BBF92CE0204605F0EDFEA968B0EB410FA9
:1035200025D9D4E90278684604F0CEFA6846A9683D
:1035300005F0C8FED5F8D400FEF79CFB6B463A4672
:103540004146284604F004F80028D5F8D40009D0F4
:10355000FEF79FFB204604F0C9FA0321284604F039
:1035600027F80AE0FEF795FB204604F0BFFA344640
:103570007669601B103EB028BBD1D5F8D000FEF7AD
:1035800088FB0020B3E72DE9FC4115460E460400F8
:103590004FF0FF3714D001A804F096FA01A8A168F3
:1035A00005F090FED4F8D400FEF764FB042D09D09A
:1035B000D4F8D400FEF76DFB6FF00C00BDE8FC8181
:1035C0003846FBE70021204600F084FF002804DA9B
:1035D000D4F8D400FEF75DFBF2E7B0B20090002310
:1035E00004222169606A00F0C3F8021E09DC20464B
:1035F00001F0E3FED4F8D400FEF74BFB6FF01200AD
:10360000DCE701AB2046616A03F0A2FF00282046F8
:1036100008D001F0D2FED4F8D400FEF73AFB6FF0E8
:103620000D00CBE701F0C9FED4F8D400FEF731FB62
:103630000020C3E72DE9F0418AB04FF0000615469F
:103640000F4604004FF0FF38079622D00FB305B3A2
:1036500008A804F039FA08A8A16805F033FED4F8E8
:10366000D000FEF707FBD4F8D400FEF703FB384682
:10367000FCF722FEA9680144204600F02BFF002839
:103680000BDAD4F8D400D034FEF703FB2068FEF741
:1036900000FB40460AB0BDE8F081A9682869CDE981
:1036A0000501CDE90276049629882879CDE9000143
:1036B000AB7800222169606A00F051F9071E0DDC29
:1036C000204601F07AFED4F8D400D034FEF7E1FAB7
:1036D0002068FEF7DEFA6FF01400DBE70796A878A3
:1036E000A0B12A8807AB3946204603F0E0FD68B157
:1036F000204601F062FED4F8D400D034FEF7C9FAB7
:103700002068FEF7C6FA6FF02900C3E708AB3A4617
:103710002046616A03F01CFFB8B1A87838B1079859
:10372000103002F055FD0798FEF7AEF807962046D8
:1037300001F043FED4F8D400D034FEF7AAFA206892
:10374000FEF7A7FA6FF00D00A4E73E2204212869D6
:1037500003F01EF8204601F030FED4F8D400D03437
:10376000FEF797FA2068FEF794FA002092E700002F
:10377000F8B50024069E05460090042901DAA01E33
:10378000F8BD100744EA1064082000EAC3000443AF
:10379000062A14D05FF0000044EA4001684606F0B3
:1037A00017F902210098FFF751FE00990844009094
:1037B0003146684606F012F90098401BF8BD01201A
:1037C000EAE700002DE9F843064600900F4614464C
:1037D0000025104600F082F88046FFF765FEB842EB
:1037E00002DDA81EBDE8F88345F01001684606F02A
:1037F000EFF841460098FFF729FE00990844009031
:10380000207A042820D031A1684606F0CDF80321A3
:10381000684606F0DDF8A07E00B102200543E07E98
:1038200000B1042045EA000148070AD594F83D009C
:1038300000F0030041EAC00194F83C0000B12020F0
:103840000143206C40B905E022A1684606F0ACF8BF
:103850000421DDE7A06C08B141F08001E06C08B9FB
:10386000606D08B141F040010D46684606F0B0F8C1
:10387000218B684606F0B2F804F10C0268460ECAC5
:1038800006F0BBF8E07E68B12434684694E80E0088
:10389000243C06F0B2F83034684694E80E00303C20
:1038A00006F0ABF8280605D504F1400168460EC9BC
:1038B00006F0A3F8680605D54C34684694E80E0077
:1038C00006F09BF80098801B8CE700004D5149736F
:1038D000647000004D5154540000000070B504465F
:1038E000007A0025032802D0042802D002E00C252B
:1038F00000E00A2504F10C0007C800F0C5F90544F2
:10390000E07EAD1C78B1243494E80700243C00F03C
:10391000BBF93034064694E80700303C00F0B4F9B7
:10392000304405442D1D206C08B9A16C29B1D4E99F
:10393000111200F0A9F90544AD1CE06C08B9616DE5
:1039400029B1D4E9141200F09FF90544AD1C2846B2
:1039500070BD0E2200F0B5B80C2200F0B2B82DE90F
:10396000FC5F1C46129DCDE900500DF138089246CF
:10397000894698E80E0006460027DDF830B020465C
:1039800000F035F88046FFF78FFD484502DDB81E90
:10399000BDE8FC9F082247F0300102EACA0001435B
:1039A000062000EA440001430BF00100014301A896
:1039B00006F00EF841460198FFF748FD01990844CA
:1039C00001900EA890E80E0001A806F016F8002C51
:1039D00003DD01A80D9906F001F82A461199019816
:1039E000FCF71EFC019828440190801BD0E770B5BD
:1039F0000E46114604461A463046049D00F044F92E
:103A00002844801C002C00DD801C70BD2DE9FF4F78
:103A100083B0054610A88A4690E8400900279146E1
:103A20003C4641463046009500F034F80190FFF7DF
:103A30003BFD504503DDB81E07B0BDE8F08F0822FE
:103A400047F0800002EAC901084340F002016846DD
:103A500005F0BEFFDDE90001FFF7F8FC009908441E
:103A600000906846069905F0B9FF0EE004EB4401AA
:103A700008EB810090E80E00684605F0BEFF1BF8D9
:103A80002410684605F0A4FF641CB442EEDB0098E5
:103A9000401BD1E72DE9F04102250F4606460024E0
:103AA0000AE000BF04EB440007EB800007C800F009
:103AB000EBF80544641CED1CB442F3DB2846BDE87A
:103AC000F08138B50B46002104460090022B01DA44
:103AD000881E38BD100741EA1061684605F078FF7E
:103AE00000210098FFF7B2FC009908440090001BE9
:103AF00038BD2DE9FF4F87B04FF00006DDF850804C
:103B00009B460F460500039604964FF0FF3A059634
:103B10004CD0002F4AD05FEA080047D006A8039790
:103B200003F0D2FF06A8A96805F0CCFB1820FEF729
:103B300073F804003AD01821FCF78BFB04F1100055
:103B40006061814620613846FCF7B6FB401CFEF7F9
:103B500063F8E06038B33846FCF7AEFB411CE06820
:103B6000FCF777FB3846FCF7A7FB421C3946E068B8
:103B7000FCF756FBC4F804801598A060D5F8D40073
:103B8000FEF778F83846FCF797FB0146284600F028
:103B9000A1FC00280EDAD5F8D400FEF77AF8E06828
:103BA000FDF772FEE6602046FDF76EFE50460BB054
:103BB000BDE8F08F09AA03A901208DE807001FFACC
:103BC0008BF300222969686AFFF720FF021E10DCD0
:103BD000E068FDF759FE2046E660FDF755FE2846F1
:103BE00001F0EBFBD5F8D400FEF753F86FF01900A5
:103BF000DDE706AB2846696A03F0AAFC80B1E068FD
:103C0000FDF742FE2046E660FDF73EFE284601F045
:103C1000D4FBD5F8D400FEF73CF86FF00D00C6E7F2
:103C2000284601F0CAFBD5F8D400FEF732F84FF071
:103C300000082868FEF71EF82F6B07E0214638467B
:103C400002F0DAFE08B94FF001087F69103F781BD7
:103C50001C28F3D1B8F1000F0BD0E068FDF714FE7B
:103C60002046E660FDF710FE2868FEF712F80020F7
:103C70009DE7484605F12C01EA6AC0E90021C2F837
:103C80000490C5F82C90EFE710B510B1FCF714FBC9
:103C90000146084610BD00000D4808B5416941F0D5
:103CA000010141614069002200F0010000900521FE
:103CB0000E20FEF703F80E20FDF7F3FF002205218A
:103CC0000F20FDF7FBFFBDE808400F20FDF7E9BF1F
:103CD0000010024000B587B01C2206496846FCF778
:103CE0009FFA0021684604F035FA0349086007B0DE
:103CF00000BD000048A300080000002070B586B099
:103D0000002418480094019402940394816941F0BE
:103D100080018161816901F080010491816941F034
:103D200004018161816901F004010491816941F01C
:103D30000801816180690C4E00F008004FF4707535
:103D40000490002229463046FDF79CFE0120009594
:103D5000CDE901040220039069463046FDF796FD47
:103D600006B070BD00100240001C014010B586B0C6
:103D70000024174800940194029403940494134976
:103D8000059401604721C0E9011442F20F71C0E9B6
:103D900003148461FEF7B9FA08B1FDF749FA4FF44C
:103DA0008050009069460A48FEF7F9FA08B1FDF71D
:103DB0003FFA049404A906480594FEF785FA002802
:103DC00001D0FDF735FA06B010BD00000004004038
:103DD000EC04002010B5114C0F480C2120604FF46A
:103DE000E13060600020A060E060C4E90401A061EF
:103DF000E0612046FEF7E2FC08B1FDF719FA206801
:103E0000C16841F01001C160BDE81040FF220449C3
:103E10000248FEF773BD0000003801402C08002066
:103E20002B060020FEE7704770B50025ADF5207D1C
:103E30002C462E469F95FEF71BFE002847DBB82137
:103E400063A8FCF706FA63A8FDF778FE0DF5F1709C
:103E5000FDF71EFE0DF20320FDF732FE4FF4C67192
:103E60006846FCF7F6F96A4663A93046FFF752F850
:103E700000282CDB382191A8FCF7EBF9BDF84000B5
:103E8000ADF844020DF142009390C8309490403058
:103E900095904FF4FA6099904EF660209A904FF406
:103EA0008060CDF848D29C909B908DF8605213486A
:103EB000CDE99D0591A8FEF76DFE9F90002806D0E4
:103EC00004F0BCFF002805DA9FA8FEF787FF0DF578
:103ED000207D70BD5FF0140594FBF5F005FB1040EC
:103EE00010B99F9804F0C8FDC8219F98FFF70AF801
:103EF0000A20641C04F022F9EEE700002F65000898
:103F000010B5502080F31188BFF34F8FBFF36F8F30
:103F100006F084F818B104494FF080500860002082
:103F200080F3118810BD000004ED00E030B58FB0C3
:103F300028216846FCF78DF914210AA8FCF789F9B5
:103F400001210804CDE90010002402940225049107
:103F5000CDE907504FF4E01009906846FDF7FAFFED
:103F60000F20CDE90A056802CDE90C4002210AA81C
:103F70000E94FDF7E3FE0FB030BD00000D48016860
:103F800041F00101016041680B4A11404160016844
:103F90000A4A11400160016821F4802101604168F2
:103FA00021F4FE0141604FF41F0181600449C00308
:103FB00008607047001002400000FFF8FFFFF6FEA7
:103FC00008ED00E00148FEF756BA0000F4080020B2
:103FD0000148FEF750BA0000EC040020F0B502687A
:103FE0001C4B1D4D1D4E1E4F1E4C4FF0804C9842D9
:103FF00009D0A04207D0604505D0A84203D0B04206
:1040000001D0B84204D122F0700E4A6842EA0E0292
:10401000984209D0A04207D0604505D0A84203D0FD
:10402000B04201D0B84203D122F44075CA682A4395
:104030004D6922F080022A4302608A68C2620A68DF
:104040008262984201D0A04201D109690163012135
:104050004161F0BD002C0140000400400008004018
:10406000000C00400034014010B5846842EA03228D
:1040700024F47F440A432243826010BD826822F008
:1040800070020A4342F007018160704710B5036A6D
:10409000046A24F001040462846924F0F00444EA10
:1040A000021423F00A020A438461026210BD10B5B3
:1040B000036A23F0100303628369046A23F47043E4
:1040C00043EA023224F0A00343EA01118261016253
:1040D00010BD10B5406A0021C185C184FEF7E4FA25
:1040E00010BD70B5446A2068406994F83910C0F377
:1040F000C0100025212904D118B1E584204600F024
:1041000046F82068406994F83A10C0F380102229DC
:1041100004D118B1E585204600F02BF8E06B40F0A3
:104120001000E0632046FEF7BFFA70BD10B50146EF
:10413000406A09680968890613D40021C1850168AD
:10414000CA6822F48072CA6001684A6922F00102DA
:104150004A6101684A6922F040024A61202180F8E0
:104160003A10FEF741FC10BD10B5406AFEF754FC52
:1041700010BD0168CA6822F49072CA6001684A6979
:1041800022F001024A61202180F83A10704701684C
:10419000CA6822F0C002CA60202180F83910704736
:1041A00038B5016804460868C043C0062CD40868C6
:1041B00048680090086848682046FEF749FA1349A5
:1041C0002068884220D1124800684068114CC0F134
:1041D000FF002070207801280DD9607858B90E486A
:1041E000A178227808440C49FF39FCF719F8A07827
:1041F00021780844A0700849BDE83840FF22FF3903
:1042000001F20120FEF77ABB38BD00000038014002
:104210006C080020040000202A07002010B590F848
:104220003A10222901D0022010BD8168B1F5805FCB
:1042300011D00169002901681FD0496801F07F038E
:10424000816A4A1C82620B70C18D491E0904090CE7
:10425000C18518D02BE00269816A002A0268526881
:1042600005D0D2B20A80816A491C8162ECE7C2F3B0
:1042700008020A80816A891CF7E74A68816A4B1C38
:1042800083620A70E0E70168CA6822F02002CA600F
:104290000168CA6822F48072CA6001684A6922F023
:1042A00001024A61202180F83A10FEF79DFB0020B0
:1042B00010BD00002DE9F041044600680169E26884
:1042C00021F44051114301612169A06808436169EB
:1042D00008432168CA6841F20C639A430243CA60EA
:1042E00020684169A26921F44071114341611E496E
:1042F000206864253226884202D1FDF7E5FD01E001
:10430000FDF7D2FD00EBC00101EB001160686FF01A
:1043100018078000B1FBF0F2B2FBF5F2B1FBF0F34D
:104320007A4303EB8202B1FBF0F306EB0212B2FB1D
:10433000F5F2B3FBF5F302F0F00202EB0312B1FB6E
:10434000F0F3B1FBF0F0B0FBF5F0784303EB800045
:1043500006EB0010B0FBF5F0216800F00F001044F0
:104360008860BDE8F08100000038014090F8391005
:10437000212901D0022070478168B1F5805F016A70
:104380000BD04A1C0262026809785160C18C491E38
:104390000904090CC1840ED017E009880268C1F332
:1043A0000801516001690029016A02D0491C0162BB
:1043B000ECE7891CFBE70168CA6822F08002CA604A
:1043C0000068C16841F04001C160002070470000F2
:1043D00010B50448FEF76AF9BDE810400148FFF740
:1043E000DFBE00002C080020FEE70000014B024A5F
:1043F00000F03EBC31650008100200207CB5491E6B
:104400001C461546CDE90001044B6A462146284664
:1044100000F02EFC009A002111707CBD01550008AF
:104420000907090E002804DB00F1E02080F80014E1
:10443000704700F00F0000F1E02080F8141D704775
:10444000004870471402002002E008C8121F08C18B
:10445000002AFAD170477047002001E001C1121F05
:10446000002AFBD1704700002DE9F04105001ED065
:10447000A86901F10804A04200D20446A86A144FBA
:104480000028204617D0FDF7C7FB06001DD02146A7
:10449000FBF7DFFEEA69A24200D322463046A96A52
:1044A000FBF7BEFEA86AFDF7EFF9AE620AE04FF037
:1044B000FF30BDE8F081FDF7AFFBA86228B12146CF
:1044C000FBF7C7FE0020EC61F3E73846F1E7000098
:1044D0000AFCFFFF70B5050016D0686901F14004C1
:1044E000A04200D20446686A18B1FDF7CDF9002059
:1044F00068622046FDF790FB686240B12146FBF7F9
:10450000A8FE00202C6170BD4FF0FF3070BD014847
:1045100070BD00000AFCFFFF03480068002801D0BE
:10452000FDF7A8BB70470000B80C002003480068E6
:10453000002801D0FDF7ADBB70470000B80C00208B
:10454000094B10B5DA68843AD41A7C3409D014685F
:10455000844203D101B10A60002010BDD2F8882046
:10456000F1E74FF0FF3010BD140D00202DE9F84F9A
:104570008046DDE90AA90D46DDE90CB40020009073
:104580001E46174669462846FFF7DAFF18B14FF076
:10459000FF30BDE8F88FC4F80080E660C4E9015739
:1045A00000980830FBF788FE0099024604F11000DD
:1045B0000831FBF735FE00981D30FBF77DFE0099B2
:1045C000024604F125001D31FBF72AFEC4F850B065
:1045D000C4E912A90020DCE770B50C4C0546206840
:1045E00048B1FDF747FB032D08D2094850F82500D4
:1045F00020B1002504E06FF0010070BD4FF0FF35E1
:104600002068FDF746FB284670BD000058000020DA
:10461000240D00202DE9FF5FDDE90220010DDDF80A
:1046200038B0024318D044F61050A1F2FF31414394
:104630000D140F98012820D0A5EB0B00401C5FEA59
:10464000000A4FF00004474EDFF81C91A046504688
:1046500016D5CAF1000728E00F98012443A20128CB
:1046600008D0002100980F9BC0E90021C0E9024357
:10467000BDE8FF9F6FEA0B01F4E7CBF10000DEE736
:10468000074612E0F80707D022463346404649461F
:10469000FCF728FA804689462246334610461946DA
:1046A000FCF720FA04460E467F10002FEAD1DDE920
:1046B0000201BAF1000F42464B4602DAFCF712FA49
:1046C00001E0FCF781FA04460E460022284BFBF776
:1046D000FFFF03D84FF0FF30014607E00022254BD3
:1046E00020463146FCF757F9FCF7E9FA102409E0B7
:1046F000002C0ADB0A220023FCF718F8019B303259
:104700001A55641E50EA0102F2D1641C019AC4F1E8
:10471000110314440F9A012A03D0012208430DD13A
:104720000AE0084304D000204FF0110B0F9080E7FF
:10473000A3EB0B056D1E0DE05B4504DD4FF00002A1
:1047400005F1010504E003DA4FF00002A5F10105CF
:10475000002AECD000980F99C0E90231C0E9004569
:1047600086E70000000024400000F03F3000000019
:104770000000F0430000E03FFEF774B970B548B1A7
:1047800003683BB1054C012525604068984700202F
:10479000206070BD4FF0FF3070BD00009001002020
:1047A0002DE9F047C8B08A4681461F469046C82189
:1047B00001A8509DFBF74DFD30224CA13BA8FBF713
:1047C0002FFD202133A8FBF744FD4846FBF774FD7D
:1047D00004465046FBF770FD04444046FBF76CFD71
:1047E00020443B3080B2C82803D34C4848B0BDE8D1
:1047F000F087C82101A8FBF72CFD49A1D1E90001F0
:10480000CDE901014846FBF757FD064601A8FBF735
:1048100053FD01AC204432464946FBF701FD01A897
:10482000FBF74AFD011941A002680A6042684A602C
:10483000008908815046FBF73FFD064601A8FBF7BB
:104840003BFD204432465146FBF7EAFC01A8FBF74A
:1048500033FD39A120440A6802604A684260098930
:1048600001814046FBF728FD064601A8FBF724FD21
:10487000204432464146FBF7D3FC01A8FBF71CFD60
:1048800030A120440A6802604968416070210172C9
:1048900001A8FBF711FD20440D222DA1FBF7C0FC60
:1048A0003846FBF709FD044601A8FBF705FD014664
:1048B00033A8009023463A4601A804F00DFB2024BB
:1048C000002133AB26A208465E5C02EB1616367852
:1048D0002E545E5C401C06F00F06491C965D2E545B
:1048E000401CA142F0DB002080E70000636C69659A
:1048F0006E74496425736465766963654E616D65A0
:10490000257370726F647563744B65792573746970
:104910006D657374616D702573000000B0FBFFFF5F
:10492000636C69656E7449640000000064657669B3
:1049300063654E616D65000070726F647563744BE2
:104940006579000074696D657374616D70000000B5
:1049500032353234363038303030303030000000CC
:1049600030313233343536373839414243444546A5
:104970000000000030380A2801D2012070470020D2
:10498000704700002DE9FE4F0F460021DDF8309002
:104990000D460C460E46009101914FF0FF3C0291EE
:1049A000C8B3C2B3BBB35FEA090835D01AE000BF91
:1049B00010F80480B8F15B0F03D0B8F15D0F10D18F
:1049C00004E046BB012661B901190AE01EB300EB01
:1049D000040A00261AF8018CB8F15B0F1CD005B947
:1049E0005546641CBC42E3DBA9B1A5B12C1A641C7A
:1049F000BC4211D1081A10606A1A6846491C521E3E
:104A00001C60FBF70DFC6846FBF71EFEC9F80000B2
:104A10000020BDE8FE8FFFE76046FAE72DE9F04190
:104A200094B01E46154688466C464FF0FF37002866
:104A30006ED0016840296BD14168002968D0C168F7
:104A4000002965D0B8F1000F62D0002D60DD002E86
:104A50005ED0002100910191029103914168009183
:104A600080680190002853DD08787B2850D1012010
:104A70000290204601F096FBDDE90101814204DA53
:104A800002990098405C7D2842D0DDE901108842FF
:104A90003EDA401E0290202104A8FBF7DAFB202119
:104AA0000CA8FBF7D6FB0298401C0290204601F0B0
:104AB00079FB214604A803F0F2FC48BB204601F034
:104AC00071FB2CB3DDE90110884221DA0099095C01
:104AD0003A291DD1401C0290204601F063FB21467B
:104AE0000CA803F00BFD98B9204601F05BFB06987B
:104AF000A84205D12A4641460598FBF7E4FB58B188
:104B0000DDE90110884203DA0099085C2C28C2D044
:104B1000384614B0BDE8F08120220CA93046FBF7DE
:104B20007FFB0020F5E72DE9F0470126040020D0A7
:104B3000B4F880504FF6FF7000EA45004FF49661DC
:104B4000A4F88000884201D9A4F880106FF0200AF0
:104B50004FF4FA6904F134082046FEF7B5FA07006D
:104B6000A4F8805008D0216D404688473846BDE8FB
:104B7000F0876FF00100FAE7204602F06DFD00F1CA
:104B80002601042903D8216D4046884720E058B10A
:104B90004846FDF78CFB216D40468847616D4046D5
:104BA0008847761C092ED7DB092E11D0002084F807
:104BB00020000221204602F0FBFCB4F880104FF4E4
:104BC0007A70414304F1580004F07CFB0020CEE7EA
:104BD0005046CCE738B50446684602F075FF684693
:104BE000E16804F06FFB00BFD4F8DC00FDF742F889
:104BF0006946204601F088FF10B92046FEF768FCA0
:104C0000D4F8DC00FDF745F8684602F062FF0A2898
:104C100000D30A20FDF74BFB684604F05CFB00283C
:104C2000E2D038BD2DE9F041104E0027F4686568E8
:104C3000103C103DA01B08300DD0D4E904014160A8
:104C400008602068FCF720FE20462760FCF71CFE69
:104C50002C466D69EDE7706808B1FDF706F837601E
:104C60007760B7600020F760BDE8F081280E002073
:104C70002DE9FF4F95B09B468946064600250FE279
:104C8000252877D100242746F84A0121059400E021
:104C9000044316F8013F203B01FA03F01042F7D11C
:104CA00030782A2811D06FF02F033078A0F130022D
:104CB000092A16D8059A44F0020402EB820203EB9B
:104CC00042021044761C0590EFE759F8042B059238
:104CD000002A03DA504244F40054059044F00204E0
:104CE000761C30782E2816D116F8010F44F00404F3
:104CF0002A280DD06FF02F023078A0F13003092B55
:104D000009D807EB870302EB4303C718761CF3E7C8
:104D100059F8047B761C30786C280FD006DC4C28C0
:104D200017D068280DD06A2814D104E0742810D058
:104D30007A280FD10DE044F400140AE044F4801402
:104D400001E044F440147278824202D104F58014E8
:104D5000761C761C307866280BD013DC582877D068
:104D600009DC002875D04528F6D04628F4D047281D
:104D70001AD19DE118E0632835D0642879D06528E0
:104D800012D195E1702873D008DC6728F1D069282A
:104D90006FD06E280DD06F2806D1B5E073282CD0C7
:104DA000752875D0782874D05A46179990476D1C8D
:104DB00075E1C4F30250022809D003280DD0D9F8B8
:104DC000001004280DD00D6009F1040967E1D9F83D
:104DD0000010EA17C1E90052F6E7D9F800100D807B
:104DE000F2E70D70F0E719F8041B8DF800100020B1
:104DF0008DF80100EA46012003E059F804AB4FF0BA
:104E0000FF3061074FF0000102D40DE008F101010D
:104E10008846B9420FDA8045F8DB1AF808100029F5
:104E2000F4D108E008F1010188468142FADB1AF862
:104E300008100029F6D105985B46A0EB080721462B
:104E40003846179A00F094FA284400EB080507E06A
:104E50004DE029E10DE01AF8010B5A4617999047E9
:104E6000B8F10108F7D25B4621463846179A13E19C
:104E700042E00A220092C4F302524FF0000A022AD2
:104E800008D059F804CB032A4FEAEC710AD00DE0A0
:104E900029E02AE009F1070121F00702F2E802C146
:104EA000914609E00FFA8CFC4FEAEC71042A03D119
:104EB0004FFA8CFC4FEAEC71002907DA0A46002110
:104EC000DCF1000C61EB02012D2202E0220504D589
:104ED0002B228DF80420012203E0E20701D02022DA
:104EE000F7E7904659E00A2102E010220DE0102178
:104EF0004FF0000A00910BE010224FF0000A44F03E
:104F000004040827009203E008224FF0000A0092F0
:104F1000C4F30252022A05D059F804CB0021032A17
:104F200008D009E009F1070121F00702F2E802C107
:104F3000914605E01FFA8CFC042A01D10CF0FF0C0D
:104F40004FF00008220728D5702806D0009B83F078
:104F5000100353EA0A0305D00EE040228DF8042026
:104F6000012208E05CEA010206D030228DF804201C
:104F70008DF8050002229046009B83F0080353EA57
:104F80000A030AD15CEA010201D1620705D5302289
:104F90008DF804204FF001087F1E582804D034A05B
:104FA00003900EA802900DE036A0F9E75346604644
:104FB000009AFBF7BBFB84460398825C0298401E74
:104FC000029002705CEA0100F0D1029806A9081A6A
:104FD00000F1200A600702D524F4803400E00127A4
:104FE000574502DDA7EB0A0000E0002000EB0A01B4
:104FF000009005984144401A0590E00306D45B46B2
:105000002146179A059800F0B3F90544002706E0F9
:1050100001A85A46C05D179990476D1C7F1C4745F3
:10502000F6DBE0030CD55B462146179A059800F0A5
:105030009FF9054404E030205A46179990476D1CAB
:105040000099481E00900029F5DC08E002980299BA
:105050005A460078491C0291179990476D1CBAF185
:105060000001AAF1010AF1DC65E100000928010054
:1050700030313233343536373839616263646566CE
:105080000000000030313233343536373839414290
:10509000434445460000000000F058F90544761CE2
:1050A000307800287FF4ECAD19B02846BDE8F08FC9
:1050B000620700D4062709F1070222F0070CFCE87A
:1050C0000223E14603F000485FEA080C02D00FF229
:1050D000702C0DE05FEA045C02D50FF2682C07E04B
:1050E0005FEAC47C02D00FF2602C01E0AFF2700CDA
:1050F0004FF0FF3823F00043CDF850C065280CD0A6
:1051000006DC452809D046281DD047283DD13DE082
:10511000662818D067287ED138E00021112F01DBE6
:10512000112000E0781CCDE9000106A90EA8FFF7C8
:1051300071FADDE90F010E9A03910021009207F147
:10514000010A04914DE04FF000400097CDE90110B5
:1051500006A90EA8FFF75EFADDE90F0203920E9B87
:1051600011990022DDF80CA00093049211B9791C6A
:1051700000EB010AB7EB0A0004D4C0F1FF3007F1DD
:10518000010A0490AAEB0700019044E0012F00DA25
:1051900001270021112F01DD112000E03846CDE963
:1051A000000106A90EA8FFF735FADDE90F010E9AF6
:1051B0000391002104910092BA4621070CD403996F
:1051C000514500DA8A46BAF1010F05DD009AAAF1CD
:1051D0000101515C302908D0B84202DA10F1040F05
:1051E00006DA0121CDE9011015E0AAF10101E9E794
:1051F000002805DC049901440491AAEB000102E0B7
:10520000411C514500DD8A460499401A401C01901A
:105210004FF000400290200704D40198504501DB74
:10522000CDF8048000208DF84F0002980DF14F0753
:10523000B0F1004F25D02B200E9002984FF00208BD
:1052400000280CDA404202902D200E9007E00A213F
:105250000298FBF755FA3031029007F8011DB8F1BA
:105260000001A8F10108F2DC02980028EFD1791EB4
:105270000E980870307800F0200040F0450007F8E4
:10528000020D12A8C01B00F107081498007800B1A5
:10529000012000EB0A01019801EBE07105984144FF
:1052A000401A401E0590E00306D45B462146179A3B
:1052B000059800F05DF805441498007818B15A4636
:1052C000179990476D1CE00324D55B462146179A39
:1052D000059800F04DF805441CE00498002807DB11
:1052E000DDE90301884203DD0098405C179901E085
:1052F000179930205A469047049805F10105401C43
:1053000004900198401E019004D12E205A4617990E
:1053100090476D1CBAF10001AAF1010ADDDC05E03D
:1053200017F8010B5A46179990476D1CB8F1000108
:10533000A8F10108F4DC5B462146179A0598ABE614
:105340002D0000002B000000200000002DE9F0419E
:10535000044600251E461746880404D405E0394655
:105360002020B0476D1C641EF9D52846BDE8F081A9
:105370002DE9F041044600251E469046C80301D59C
:10538000302700E02027880404D505E04146384650
:10539000B0476D1C641EF9D52846BDE8F08110B5F4
:1053A000040007D0A06A28B1FCF76EFA0020A062C2
:1053B000E06110BD4FF0FF3010BD10B5040007D004
:1053C000606A28B1FCF760FA00206062206110BDBD
:1053D0004FF0FF3010BD00002DE9FF4F81B01E4699
:1053E0000D4604004FF0FF3B66D0002D64D0C8216D
:1053F000FAF72FFF2846FAF75FFF024629462046B4
:10540000FAF70EFF2046FAF757FF4FF07C0A00F834
:1054100004A038480EB138A100E038A1002580462C
:105420004FF02C0941612046FAF746FF07464646F1
:1054300058F83500FAF740FF06EBC50607447068D8
:10544000FAF73AFF3844801CC82835D2474658F846
:105450003500FAF731FF00902046FAF72DFF20447F
:1054600057F83510009AFAF7DBFE2046FAF724FFCA
:105470003D2101557068FAF71FFF07462046FAF7ED
:105480001BFF20443A467168FAF7CAFE2046FAF735
:1054900013FF6D1CEDB200F80490072DC3D30398E1
:1054A000F8B12046FAF708FF05460398FAF704FF1B
:1054B0002844401CC82803D3584605B0BDE8F08FE7
:1054C0000398FAF7F9FE05462046FAF7F5FE204460
:1054D0002A460399FAF7A4FE2046FAF7EDFE00F8F3
:1054E00004902046FAF7E8FE0119002001F801AC0B
:1054F000E3E70000600000203800000033000000F7
:105500004A68002A06D00A68531C0B60107048686D
:10551000401E4860704710B5141A73EB010403D2A3
:10552000801A61EB030110BD0020014610BD000090
:1055300010B505A42046FAF7BFFE01462046BDE897
:10554000104003F0F9BA00007B2274656D706C6145
:105550007465223A20227472616365436F6E7465CC
:105560007874206C6F67436F6E74656E74222C22A2
:10557000636F6E74656E7473223A5B00084810B5F1
:10558000816806A4491E81602046FAF795FE01460F
:105590002046BDE8104003F0CFBA00005D7D00005A
:1055A0002400002070B5064600F0D6FF04004FF03E
:1055B000FF3512D06079032803D129463046FBF726
:1055C00038FE084E3068FCF755FB204600F064F9C1
:1055D00004463068FCF75DFB0CB1284670BD002026
:1055E00070BD00001800002070B50C4605004FF09B
:1055F000FF360BD054B1FAF75FFEB0F5807F05DCC3
:1056000021462846FBF718FE002800D0304670BD22
:1056100070B50F4C606808B1002070BD00200D49C6
:10562000451E00BFC0EBC002401C41F832500328A9
:10563000F8DBFCF717FB206028B1FBF70FFE20B169
:105640002068FCF712FB284670BD01206060E3E78C
:1056500018000020340900202DE9F84F4FF0000712
:1056600016465FEA010BBA4639D02EB300F074FF3C
:10567000040034D0A569A5B900200090D4B104F18C
:105680002000054600F0F4F9A0B169462846626B97
:1056900000F073F9401C0DD0009D5DB1286848B141
:1056A000A561A988A08B091A1FFA81F94E4504D972
:1056B000C84604E0002F34DC11E01FFA86F82968A0
:1056C000424601440BEB0700FAF7AAFD2079474454
:1056D000012802D04FF0010A12E0464503D24FF0F4
:1056E000FF30BDE8F88FB6EB080601D14FF0010A94
:1056F000C14505D9A561A18B01EB0800A0830DE090
:105700004FF00008C4F81880A4F81C80286800F046
:105710001DFF2846C5F8008000F013FFBAF1000F06
:10572000A8D03846DDE770B500F016FF4FF0FF3423
:1057300068B1816909B1002070BD2030054600F0D4
:1057400097F920B12846BDE8704000F009B920461D
:1057500070BD2DE9FC4114460E0007464FF0FF35A1
:1057600015D0A4B1B4F5BD6F11D800F0F5FE70B13D
:105770000179012901D1417949B1006B0023CDE9BB
:105780000050224631463846FBF7AAFD10B12846A4
:10579000BDE8FC812046FBE72DE9F04104464FF0CF
:1057A000FF37022816D2ACB10D4D2868FCF762FA1B
:1057B00000F066F90646401C0ED0304600F0CCFEE4
:1057C00050B10471002141712868FCF762FA30463B
:1057D000BDE8F0813846FBE72868FCF75AFAF9E79C
:1057E000180000202DE9F04786B08946824616460B
:1057F0001CA718216846FAF72CFD1C4D2868FCF7F9
:1058000039FA504600F0A8FE04004FF0FF3813D0DC
:10581000607988B902A9CDF800A05FEA090081E8A3
:10582000410100D102972079012805D18DF80400AB
:105830006846FBF757FD30B12868FCF72AFA404666
:1058400006B0BDE8F087102204F108000299FAF7CB
:10585000E7FCE680032060712868FCF71AFA002054
:10586000EEE70000302E302E302E300018000020E1
:105870000348D0F8C000002801D0FCF7F6B9704703
:10588000F00900200348D0F8B800002801D0FCF748
:10589000ECB97047F0090020F8B504004FF0FF376D
:1058A00013D0A66900253EB1306810B100F04EFE5D
:1058B0003560304600F045FEA56104F12000A58367
:1058C000064600F0D5F868B918E03846F8BD0098EB
:1058D00040B1006818B100F039FE009805600098EA
:1058E00000F02FFE6946304600F0B5F8401CEED1BE
:1058F000304600F06AF8304600F0A8F8257165716E
:1059000000202760F8BD0000FEB505004FF0000044
:105910000F464FF0FF36019017D00F480078A0B126
:105920000E4CD4F8B800FCF7A5F9009701AB0122A2
:1059300002A9206800F07CF90746D4F8B800FCF70B
:10594000A8F917B90198012801D03046FEBD9DF88D
:10595000080028700020FEBD20000020F009002073
:1059600010B528B1006800F069F920B1002010BD21
:105970004FF0FF3010BD012010BD2DE9F843174650
:10598000884606004FF0FF340AD0FDF76BF8054655
:105990006FB16B463A464146306800F064F910B189
:1059A0002046BDE8F883FDF75DF8401BF9E76B463C
:1059B00022464146306800F056F90028F7D1FDF73D
:1059C00051F8401BEDD10120EBE700280AD0006818
:1059D000002807D0016819B10021C1608160016011
:1059E000FBF752BF704700002DE9F04106004FF071
:1059F000FF3816D0AAB10D461746022903DA0AA0CD
:105A0000FCF78EF90DE01420FCF706F9040008D02D
:105A10001421FAF71EFCC4E9007500203460BDE8CB
:105A2000F0814046FBE700004572726F723A2072C7
:105A3000696E67627566206C656E204D5553542003
:105A4000657863656564206F6E652100002801D06C
:105A500000210160704738B54FF0FF3430B1006865
:105A60006B46002200F0FFF8002800D0204638BD29
:105A7000002803D00068002800D0012070470000F3
:105A80002DE9F041134E00254FF0FF38C5EBC5005E
:105A900056F83000401C05D06D1C032DF6DB404647
:105AA000BDE8F081C5EBC50706EBC70404F124028D
:105AB000101F0321FFF798FF0028F0D120716071BB
:105AC000A061A08346F837504FF47A70206360637A
:105AD0002846E5E7340900202DE9F04F89B048A5B4
