:020000040800F2
:1000000098160020DD0100080B180008A316000850
:10001000091800086D020008651C000800000000B7
:100020000000000000000000000000004501000882
:10003000CB02000800000000890100081518000824
:10004000F7010008F7010008F7010008F7010008B0
:10005000F7010008F7010008F7010008F7010008A0
:10006000F7010008F7010008F7010008F701000890
:10007000F7010008F7010008710200087D0200087E
:10008000F7010008F7010008F7010008F701000870
:10009000F7010008F7010008F7010008F701000860
:1000A000F7010008F7010008F7010008F701000850
:1000B000D9180008E5180008F7010008F701000842
:1000C000F7010008F7010008F7010008F701000830
:1000D000F7010008591C0008F7010008F7010008A3
:1000E000F7010008F7010008F7010008F701000810
:1000F000F7010008F7010008F7010008F701000800
:10010000F7010008F7010008F7010008F7010008EF
:10011000F7010008F7010008F7010008F7010008DF
:10012000F7010008F7010008F7010008F7010008CF
:10013000DFF80CD000F088F800480047A51C000844
:1001400098160020224B19680868B0E8F00F80F379
:100150000988BFF36F8F4FF0000080F311884EF0D5
:100160000D0E70470000000006480068006880F32C
:10017000088862B661B6BFF34F8FBFF36F8F00DFA1
:1001800000BF00BF08ED00E0EFF30980BFF36F8F01
:100190000F4B1A6820E9F00F106008B54FF05000BF
:1001A00080F31188BFF34F8FBFF36F8F02F01EF9FA
:1001B0004FF0000080F31188BDE808401968086816
:1001C000B0E8F00F80F30988BFF36F8F704700BF6E
:1001D00024000020EFF305807047000006488047A8
:1001E00006480047FEE7FEE7FEE7FEE7FEE7FEE71C
:1001F000FEE7FEE7FEE7FEE7911800083101000880
:1002000040EA01039B0703D009E008C9121F08C098
:10021000042AFAD203E011F8013B00F8013B521E18
:10022000F9D27047D2B201E000F8012B491EFBD28F
:1002300070470022F6E710B513460A4604461946F1
:10024000FFF7F0FF204610BD064C074D06E0E068C2
:1002500040F0010394E8070098471034AC42F6D30D
:10026000FFF76AFF6C2700088C270008FEE70000F4
:10027000014800F0C5B800009C04002010B50548F6
:1002800000F0BEF8BDE810404FF480720249034808
:1002900001F07EB958040020180300201804002043
:1002A00030B590F840500124AC40C56B6C600468D8
:1002B00063604368102B036803D099600068C260D4
:1002C00030BD9A600068C16030BD70477047000063
:1002D0002DE9F05F90F821100024022903D00421B9
:1002E0008163012485E001680A6822F00E020A6039
:1002F00001680A6822F001020A603F4E3E4FB215C3
:10030000DFF8F4C0DFF8F090DFF8ECA0DFF8E8B039
:10031000DFF8E4E00168783F13011502ACF1640CEA
:10032000A9F15009AAF13C0AABF1280BAEF1140E69
:100330004FF48018B14227D9B9420ED0614512D08E
:1003400049451DD0514518D0594518D0714501D1A6
:10035000424615E0294EB14201D1012210E0274E5C
:100360001436B14201D110220AE0244E2836B1429F
:1003700006D0224A3C32914201D11A4600E02A4678
:100380001E49091F0A602BE0B94213D0614517D0FE
:10039000494522D051451DD059451DD0714501D147
:1003A00042461AE0B14202D14FF0807215E0134E7E
:1003B000B14201D1012210E0104E1436B14201D1F8
:1003C00010220AE00D4E2836B14206D00B4A3C32CC
:1003D000914201D11A4600E02A46074980394A6015
:1003E000012180F82110002180F82010416B01B11B
:1003F00088472046BDE8F09F800002400804024084
:100400002DE9F05FC16B0A6801680B68046C4FF05E
:10041000040808FA04F8844D844E854FDFF814C2AE
:10042000DFF81492DFF814A2DFF814B2DFF814E258
:1004300018EA020F65D05FEA437862D50A6892062F
:1004400003D40A6822F004020A60DFF8F0814FF456
:100450008062016808F1140813011402414524D98F
:10046000A9420DD0B1420FD0B9421AD0614515D082
:10047000494515D0514501D1120312E0594501D12A
:1004800004220EE0714501D140220AE06D4D143581
:10049000A94206D06B4A2832914201D11A4600E0A7
:1004A00022466749091F0A6029E0A94213D0B142D8
:1004B00015D0B94220D061451BD049451BD05145CC
:1004C00002D14FF4800217E0414502D14FF0806223
:1004D00012E0594501D104220EE0714501D14022BC
:1004E0000AE0584D1435A94206D0564A28329142A6
:1004F00001D11A4600E022464B4908394A60C16AD8
:1005000071E04FF0020808FA04F818EA020F70D000
:100510005FEA83786DD50A68920606D40A6822F0ED
:100520000A020A60012180F82110DFF810814FF4DF
:100530000072016808F1140813011402414524D91E
:10054000A9420DD0B1420FD0B9421AD0614515D0A1
:10055000494515D0514501D1120312E0594501D149
:1005600002220EE0714501D120220AE0354D1435FA
:10057000A94206D0334A2832914201D11A4600E0FE
:1005800022462F49091F0A6029E0A94213D0B1422F
:1005900015D0B94220D061451BD049451BD05145EB
:1005A00002D14FF4001217E0414502D14FF0007222
:1005B00012E0594501D102220EE0714501D12022FD
:1005C0000AE0204D1435A94206D01E4A2832914235
:1005D00001D11A4600E02246134908394A60002139
:1005E00080F82010816A00291CD0BDE8F05F084720
:1005F000FFE70825A540154214D01A0712D50A684E
:1006000022F00E020A6090F84020C36B012101FA2B
:1006100002F25A60816380F82110002180F82010D6
:10062000016BE0E7BDE8F09F080002401C000240BB
:100630003000024044000240580002406C0002407A
:10064000080402401C04024030B560B11A4B026835
:1006500014219A4209D2194B1344B3FBF1F18900DA
:10066000016417490AE0012030BD134B5B4213447B
:10067000B3FBF1F1890001640F490839C16302211C
:1006800080F82110136843F6F0718B43F0E90114F0
:100690002143D0E902452C432143046921434469A5
:1006A00021438469214319431160002141630122E0
:1006B00042770177084630BD08040240F8FFFDBFCD
:1006C0000000024070B5044690F820000025012883
:1006D0000CD0012084F8200094F821600020012E25
:1006E00006D084F820000225284670BD022070BD87
:1006F000022684F82160A0632068066826F00106BF
:1007000006602046FFF7CCFDE06A002820680168FB
:1007100002D041F00E0106E021F0040101602068E2
:10072000016841F00A0101602068016841F001019F
:100730000160D9E770B5044600F010F90546601C69
:1007400002D004480078044400F008F9401BA0429D
:10075000FAD370BD0C0000202DE9F84FDFF8C891E6
:10076000002409F1040A0AF1040B23460F270BF1B8
:10077000040ED1E00125A54006EA0502AA4276D181
:10078000DFF8A8C14E68A6EB0C0866452BD00DDC3F
:10079000032E34D005DC36B3012E19D0022E2FD112
:1007A0001BE0112E16D0122E2AD119E0B8F5881FA1
:1007B00019D006DCB8F5803F15D0B8F5801F1FD1E1
:1007C00011E0B8F5001F0ED0B8F5041F18D10AE0EB
:1007D000CB6815E0CB681B1D12E0CB6808330FE037
:1007E000CB680C330CE08B682BB1012B4FF0080366
:1007F00003D0456104E0042302E0056100E000232A
:10080000FF2A01D8064601E000F104064FEA8405FC
:1008100001D9A5F12005D6F8008007FA05FC28EAE1
:100820000C0803FA05F548EA0508C6F800804D688B
:10083000ED0070D53E4DAE6946F00106AE61AD6982
:1008400024F0030605F0010500953A4D06EB050C72
:10085000DCF80850A607360F07FA06F825EA08055F
:10086000DFF8D480404503D14FF0000825E052E086
:10087000DFF8C880404502D14FF001081DE0DFF8E5
:10088000C080404502D14FF0020816E0DFF8B48086
:10089000404502D14FF003080FE0DFF8AC8040453F
:1008A00002D14FF0040808E0DFF8A080404502D1F3
:1008B0004FF0050801E04FF0060808FA06F848EA8C
:1008C0000508CCF808804D68D9F80060ED034D4666
:1008D00001D5164300E096432E604D68DAF80060BB
:1008E000AD03554601D5164300E096432E604D6892
:1008F000DBF80060ED025D4601D5164300E096434B
:100900002E604D68DEF80060AD02754601D51643D5
:1009100000E096432E60641C0A681646E2407FF4AD
:1009200029AFBDE8F88F000000040140000011105D
:10093000001002400000014000080140000C01408E
:10094000001001400014014000180140001C01404B
:100950000AB1016170470904FBE7000001488068A3
:10096000704700000C0000200248816802781144A2
:10097000816070470C000020074810B5016841F005
:1009800010010160032000F095F8002000F006F847
:1009900000F03EF8002010BD0020024000B50146E6
:1009A00087B000221C2000F065F81C2000F054F8ED
:1009B0001448C16941F00101C161C06905A900F095
:1009C00001000690684600F01DF900F03BF90E4961
:1009D0004000B0FBF1F10D484FF08042491E02602B
:1009E000416040F2E7320021C0E90321816000F05C
:1009F00032FB10B1012007B000BD044800F064FBD9
:100A0000F9E700000010024040420F00E00400201F
:100A10000F4808B5816941F001018161816901F0E8
:100A200001010091C16941F08051C161C06900229A
:100A300000F0805000900F21901E00F01BF8054838
:100A4000416821F0E06141F08061416008BD000033
:100A50000010024000000140002809DB00F01F02E6
:100A6000012191404009800000F1E020C0F8001110
:100A700070470000F0B40E4B1B680C46C3F3022312
:100A8000C3F10705042D00D90425191D072901D23A
:100A9000002300E0DB1E012606FA05F1491E214075
:100AA00099409E40761E16403143F0BC01F0DBB801
:100AB0000CED00E0064900F0070208684FF6FF035E
:100AC000184040EA0220034A1043086070470000C3
:100AD0000CED00E00000FA052DE9F0470F46050097
:100AE00061D0434E306800F00700B84209D2306848
:100AF00020F0070038433060306800F00700B8424B
:100B000051D128683B4C810712D5400703D5606856
:100B100040F4E06060602878000703D5606840F426
:100B2000605060606068A96820F0F0000843606071
:100B30002878C00728D06868012810D021680228CA
:100B400010D0890700292EDA616821F003010143E2
:100B50006160FFF703FF804641F288390DE02168AC
:100B60008903EFE78901EDE7FFF7F8FEA0EB080145
:100B7000494502D90320BDE8F0876068696800F044
:100B80000C00B0EB810FEFD1306800F00700B842E5
:100B90000BD9306820F0070038433060306800F02F
:100BA0000700B84201D00120E5E72878400705D5C5
:100BB0006068E96820F4E060084360602878000716
:100BC00006D56068296920F4605040EAC100606081
:100BD00000F058F86168084AC1F30311515CC8403D
:100BE0000649086006480068FFF7D8FE0020C2E703
:100BF0000020024000100240482700081800002092
:100C0000100000200F2202600C4A536803F0030317
:100C10004360536803F0F0038360536803F4E063B8
:100C2000C36052684FF4E06303EAD20202610448F1
:100C3000006800F0070008607047000000100240E4
:100C4000002002400448054900684968044AC1F38D
:100C50000221515CC840704718000020001002407B
:100C6000582700080448054900684968044AC1F348
:100C7000C221515CC840704718000020001002409B
:100C80005827000812A185B00FC98DE80F0014A0E5
:100C9000144A006804905168134801F00C03042BB7
:100CA00010D0082B0ED1C1F38343C9031DF80300F4
:100CB0000AD5516804AAC1F34041515C0A4A504325
:100CC000B0FBF1F005B0704708494843FAE700006F
:100CD00002030405060708090A0B0C0D0E0F10107D
:100CE000010200000010024000127A0000093D00DD
:100CF0002DE9F84F040070D02078C04DC00749D0CE
:100D00006868C0F38100012807D06868C0F38100DB
:100D1000022809D16868C00306D52868800339D540
:100D200060680028E7D035E06068B0F5803F0BD000
:100D300010B1B0F5A02F11D0286820F480302860C1
:100D4000286820F4802002E0286840F48030286081
:100D5000606890B1FFF702FE06460AE0286840F49A
:100D600080202860F0E700BFFFF7F8FD801B6428B3
:100D700073D828688003F7D50CE0FFF7EFFD06462F
:100D800005E000BFFFF7EAFD801B6428F0D8286863
:100D90008003F7D420789A4E80074FF001094FF076
:100DA000000839D5686810F00C0F07D06868C0F3E8
:100DB0008100022809D16868C00306D4286880072A
:100DC00014D52069012808D110E02069B0B1C6F817
:100DD0000090FFF7C3FD074605E00AE1FFF7BEFDFF
:100DE000C01B0228C4D828688007F7D52868616925
:100DF00020F0F80040EAC10028600DE0C6F800804D
:100E0000FFF7ACFD074604E0FFF7A8FDC01B022872
:100E100023D828688007F7D4207800072CD5794894
:100E2000A169D9B1C0F80090FFF798FD074604E02A
:100E3000FFF794FDC01B02280FD8686A8007F7D51A
:100E400071484FF4FA510068B0FBF1F0009000BF18
:100E50000098411E0091FAD20EE080E0C0F80080B8
:100E6000FFF77CFD074604E0FFF778FDC01B022872
:100E700075D8686A8007F7D42078400760D5E8699C
:100E80000027C00008D4E86940F08050E861E869B4
:100E9000012700F0805000905C480168C90513D418
:100EA0000168834641F480710160FFF757FD824677
:100EB00006E000BFFFF752FDA0EB0A0064284ED801
:100EC000DBF80000C005F5D5E06801280AD008B1BC
:100ED000052813D0286A20F001002862286A20F033
:100EE000040002E0286A40F001002862E06841F254
:100EF000883B98B1FFF732FD82460BE0286A40F04C
:100F000004002862EEE700BFFFF728FDA0EB0A010E
:100F100059455AD8286A8007F6D50CE0FFF71EFD20
:100F2000824605E0FFF71AFDA0EB0A0159454CD8AF
:100F3000286A8007F6D41FB1E86920F08050E86184
:100F4000E06988B36968C1F38101022944D00228AD
:100F5000C6F8608004D0FFF701FD044638E034E0B5
:100F6000FFF7FCFC074604E0FFF7F8FCC01B022873
:100F70002BD828688001F7D4206AB0F5803F05D1CE
:100F80006868A16820F4003008436860D4E908016B
:100F90000843696821F4741108436860C6F86090DA
:100FA000FFF7DCFC044606E025E000BFFFF7D6FCB7
:100FB000001B022809D828688001F7D51BE000BF74
:100FC000FFF7CCFC001B022802D90320BDE8F88FF4
:100FD00028688001F4D40EE00128F7D06868226AFE
:100FE00000F48031914204D1616A00F470108842AB
:100FF00001D00120EAE70020E8E7000000100240ED
:10100000000042428004424218000020007000406C
:101010007047704770B590F83C20012A19D0012420
:1010200000F83C4F0222427050F83C3C5A689D68E0
:1010300022F070060A684968324325F0800529438A
:101040005A6050F83C2C91604470002101700846B1
:1010500070BD022070BD10B5040003D094F83D00AF
:1010600010B107E0012010BD002084F83C002046AC
:1010700000F00CF8022084F83D00211D206800F0EB
:1010800037FC012084F83D00002010BD08B5006841
:101090000B49884212D10B48C16941F00201C1617C
:1010A000C069002200F00200009005211D20FFF71A
:1010B000E1FCBDE808401D20FFF7CEBC08BD0000E4
:1010C00000040040001002400168CA6842F00102BA
:1010D000CA600068816801F00701062903D0016831
:1010E00041F0010101600020704770B5044690F89E
:1010F0003C00012817D0012584F83C50022084F8D8
:101100003D002068826822F0770222F47F428260EC
:101110000868502830D00DDC20284DD005DC98B36D
:1011200010283BD148E0022070BD302844D0402830
:1011300034D139E0602828D0702806D0B0F5805F1F
:101140002CD0B0F5005F29D10AE0CB68D1E90121AC
:10115000206800F013FC2068816841F0770109E005
:10116000CB68D1E90121206800F008FC2068816883
:1011700041F48041816011E0CA684968206800F04C
:101180000FFC5021206807E016E0CA684968206813
:1011900000F017FC6021206800F0FAFB84F83D5055
:1011A000002084F83C0070BDCA684968206800F0DF
:1011B000F7FB40212068EFE7226801461046EBE785
:1011C000704770B50446006801694FF00005C943D7
:1011D000890715D4C168C943890711D4E91E016183
:1011E00001202077206880698007204602D0FFF721
:1011F000E7FF04E000F098F8204600F096F8257725
:1012000020680169C943490717D4C168C943490720
:1012100013D46FF0040101610220207720688069F7
:1012200010F4407F204602D0FFF7CAFF04E000F030
:101230007BF8204600F079F8257720680169C943DA
:10124000090716D4C168C943090712D46FF0080111
:101250000161042020772068C0698007204602D001
:10126000FFF7AEFF04E000F05FF8204600F05DF805
:10127000257720680169C943C90617D4C168C943E5
:10128000C90613D46FF0100101610820207720688F
:10129000C06910F4407F204602D0FFF791FF04E0C0
:1012A00000F042F8204600F040F8257720680169F8
:1012B000C943C90708D1C168C943C90704D1891EF8
:1012C0000161204600F032F820680169C94309062F
:1012D00009D4C168C943090605D46FF080010161D2
:1012E0002046FFF795FE20680169C943490609D4E5
:1012F000C168C943490605D46FF040010161204629
:1013000000F01BF820680169C94389060BD4C16845
:10131000C943890607D46FF0200101612046BDE86A
:101320007040FFF776BE70BD704770470068B0F13F
:10133000804F01D1FFF718BB70477047704700001E
:1013400070B5026804461068D168536910F00F0F39
:1013500051D003F0010501F4907635435DD0C2070A
:1013600005D0CA0503D5E26B42F00102E2634207F1
:1013700005D5DA0703D0E26B42F00202E26382078E
:1013800005D5DA0703D0E26B42F00402E2630207FC
:1013900005D5DA0703D0E26B42F00802E263E26BA4
:1013A000002A34D0800604D5880602D5204600F0F5
:1013B0007AFB20684069E16BC0F3801001F00801FE
:1013C0000143204624D000F057FB206841694906BC
:1013D0001AD5416921F040014161606BA0B11B4900
:1013E0004163606BFEF774FF002810D0606B416BA7
:1013F000BDE87040084783060FD58B060DD5204603
:10140000BDE8704000F04FBB2046FFF797FF70BD6E
:10141000FFF794FF0020E06370BD030606D50B06BE
:1014200004D52046BDE8704000F0E4BB4006F3D58B
:101430004806F1D5D168204621F04001D160202135
:1014400084F8391000F026F970BD0000E719000893
:1014500070B5040004D094F83900002510B106E0FE
:10146000012070BD84F83850204600F023F8242075
:1014700084F839002068C16821F40051C160204619
:1014800000F05CFB2068016921F490410161206853
:10149000416921F02A0141612068C16841F400518D
:1014A000C160E563202084F8390084F83A00002008
:1014B00070BD0000F0B585B000240646009401948C
:1014C0000294039400682D49884254D12C488169C4
:1014D00041F480418161816901F480410491816915
:1014E00041F0040181618069264D00F00400049000
:1014F0004FF4007000900220019003200390694691
:101500002846FFF729F92815CDE900046946284641
:101510000294FFF721F91D4D1B488027C5E90004FF
:10152000C5E902472C616C61AC612846EC61FFF7AC
:101530008BF808B1FEF7CAFE75636E62134D124850
:101540004435143801C5102091C5104845F810499C
:1015500044306C61AC61EC61FFF776F808B1FEF7DE
:10156000B5FE35630022052125206E62FFF782FA61
:101570002520FFF771FA05B0F0BD000000380140EA
:1015800000100240000801405800024058040020AA
:1015900090F83A30202B22D1F9B1F2B190F83830DE
:1015A000012B1CD081628285C2850021C163222269
:1015B00080F83A2080F838100168CA6842F48072D6
:1015C000CA6001684A6942F001024A610068C16864
:1015D00041F02001C16000207047012070470220C7
:1015E000704700000948B0F88010491C89B2A0F883
:1015F0008010802902D30021A0F8801089B2014414
:10160000034801224068FFF7C3BF00002005002007
:101610001C00002070B5044690F83900202830D115
:1016200069B362B394F8380001282AD0012084F805
:1016300038002162A284E2840025E563212084F839
:101640003900236B10489862236B1048D862236BD3
:101650000F481863206B134645632668206B321DC4
:10166000FFF730F821686FF04000086084F83850C8
:101670002068416941F080014161002070BD012076
:1016800070BD022070BD0000411A00086F1A0008EA
:10169000F719000801490120087070471C0000205C
:1016A0007047FEE70D4808B5416941F0010141610D
:1016B0004069002200F00100009005210E20FFF794
:1016C000D9F90E20FFF7C8F9002205210F20FFF7F6
:1016D000D1F9BDE808400F20FFF7BEB90010024065
:1016E00000B587B01C2206496846FEF789FD002137
:1016F000684600F009FB0349086007B000BD000020
:101700002C2700080800002070B586B0002414487B
:101710000094019402940394816941F080018161F5
:10172000816901F080010491816941F004018161C6
:1017300080690C4E00F004004FF470750490002294
:1017400029463046FFF704F901200095CDE9010450
:101750000220039069463046FEF7FEFF06B070BDDA
:1017600000100240001C014010B586B0002417484C
:101770000094019402940394049413490594016025
:101780004721C0E9011442F20F71C0E903148461DA
:10179000FFF761FC08B1FEF799FD4FF4805000900F
:1017A00069460A48FFF7A1FC08B1FEF78FFD0494D3
:1017B00004A906480594FFF72DFC002801D0FEF788
:1017C00085FD06B010BD000000040040D8020020D6
:1017D0000C4810B50A4901604FF4E1314160002125
:1017E00081600C22C160C0E904128161C161FFF710
:1017F0002FFE002803D0BDE81040FEF767BD10BDE6
:101800000038014018040020FEE77047012000F076
:101810006FFAFBE710B5502080F31188BFF34F8FAC
:10182000BFF36F8F00F0BCFE18B104494FF0805039
:101830000860002080F3118810BD000004ED00E076
:1018400030B58FB028216846FEF7F3FC14210AA8B2
:10185000FEF7EFFC01210804CDE9001000240294FA
:1018600002250491CDE907504FF4E0100990684635
:10187000FFF73EFA0F20CDE90A056802CDE90C40DA
:1018800002210AA80E94FFF727F90FB030BD00001F
:101890000D48016841F00101016041680B4A1140A7
:1018A000416001680A4A11400160016821F4802109
:1018B0000160416821F4FE0141604FF41F01816025
:1018C0000449C00308607047001002400000FFF8A0
:1018D000FFFFF6FE08ED00E00148FFF772BC0000D4
:1018E000E00400200148FFF76CBC0000D802002093
:1018F000F0B502681C4B1D4D1D4E1E4F1E4C4FF087
:10190000804C984209D0A04207D0604505D0A8423B
:1019100003D0B04201D0B84204D122F0700E4A6820
:1019200042EA0E02984209D0A04207D0604505D095
:10193000A84203D0B04201D0B84203D122F440758E
:10194000CA682A434D6922F080022A4302608A68ED
:10195000C2620A688262984201D0A04201D109693C
:10196000016301214161F0BD002C014000040040F1
:1019700000080040000C00400034014010B58468AD
:1019800042EA032224F47F440A432243826010BDCA
:10199000826822F070020A4342F0070181607047BA
:1019A00010B5036A046A24F001040462846924F017
:1019B000F00444EA021423F00A020A43846102623A
:1019C00010BD10B5036A23F0100303628369046A33
:1019D00023F4704343EA023224F0A00343EA0111E6
:1019E0008261016210BD10B5406A0021C185C184C9
:1019F000FFF7A4FC10BD70B5446A2068406994F8F4
:101A00003910C0F3C0100025212904D118B1E58494
:101A1000204600F03FF82068406994F83A10C0F37F
:101A20008010222904D118B1E585204600F024F861
:101A3000E06B40F01000E0632046FFF77FFC70BDD4
:101A400010B50146406A0968096889060CD400216E
:101A5000C18401684A6922F080024A610068C16855
:101A600041F04001C16010BDFFF714FE10BD10B57C
:101A7000406AFFF715FE10BD0168CA6822F4907233
:101A8000CA6001684A6922F001024A61202180F897
:101A90003A1070470168CA6822F0C002CA6020216B
:101AA00080F83910704710B590F83A10222901D00B
:101AB000022010BD8168B1F5805F11D00169002955
:101AC00001681FD0496801F07F03816A4A1C826265
:101AD0000B70C18D491E0904090CC18518D02BE07B
:101AE0000269816A002A0268526805D0D2B20A806F
:101AF000816A491C8162ECE7C2F308020A80816AAC
:101B0000891CF7E74A68816A4B1C83620A70E0E728
:101B10000168CA6822F02002CA600168CA6822F41B
:101B20008072CA6001684A6922F001024A6120217C
:101B300080F83A10FFF756FD002010BD2DE9F04166
:101B4000044600680169E26821F4405111430161D3
:101B50002169A0680843616908432168CA6841F2A5
:101B60000C639A430243CA6020684169A26921F468
:101B70004071114341611E49206864253226884224
:101B800002D1FFF76FF801E0FFF75CF800EBC0014E
:101B900001EB001160686FF018078000B1FBF0F2F4
:101BA000B2FBF5F2B1FBF0F37A4303EB8202B1FB37
:101BB000F0F306EB0212B2FBF5F2B3FBF5F302F021
:101BC000F00202EB0312B1FBF0F3B1FBF0F0B0FB5B
:101BD000F5F0784303EB800006EB0010B0FBF5F066
:101BE000216800F00F0010448860BDE8F08100001B
:101BF0000038014090F83910212901D002207047A7
:101C00008168B1F5805F016A0BD04A1C02620268EC
:101C100009785160C18C491E0904090CC1840ED099
:101C200017E009880268C1F30801516001690029C1
:101C3000016A02D0491C0162ECE7891CFBE70168DC
:101C4000CA6822F08002CA600068C16841F04001A1
:101C5000C1600020704700000148FFF771BB000021
:101C600018040020FEE70907090E002804DB00F134
:101C7000E02080F80014704700F00F0000F1E02031
:101C800080F8141D704702E008C8121F08C1002A1E
:101C9000FAD170477047002001E001C1121F002AED
:101CA000FBD17047FEF768FEFFF7CAFDFFF72CFD7A
:101CB000FFF7F8FCFFF78CFDFFF756FDFFF710FD6F
:101CC00000F01DF84FF47A74052204490448FFF728
:101CD000A1FC2046FEF72EFDF6E7000000000020E4
:101CE0001804002001460020842900D0C81C704739
:101CF00010B500B9012000F015FB002010BD10B593
:101D000000F036FB002010BD7FB50D46044641694A
:101D1000B0F9080081B1A16971B1FFF7E3FFD4E91F
:101D200005128DE80700D4E900102B46226900F067
:101D30000CFC039004B070BDFFF7D4FF03A9CDE9FC
:101D40000001208A2B4682B2D4E9001000F0D0FBBB
:101D5000012801D00020EDE70398EBE72DE9F041E1
:101D6000184C0F46054666692068001D00F016FAFB
:101D700038B9206890F82C1001208840A16981436F
:101D8000A161681C07D137B12168BDE8F0410E4858
:101D9000091D00F047BA20683544B5424560216806
:101DA00005D2A068BDE8F041091D00F023BA6068C3
:101DB000091D00F01FFA206B854200D22563BDE8A3
:101DC000F081000024000020800600202DE9F04171
:101DD000054600F033FA2E4C2069401C2061206833
:101DE0002C4F10B1E06940B32DE025602069012837
:101DF00029D1002606EB860007EB800000F0ECF905
:101E0000761C072EF6D323488C3000F0E5F92148E4
:101E1000A03000F0E1F91F48B43000F0DDF91D48B2
:101E2000C83000F0D9F91B48DC3000F0D5F919486A
:101E30008C3060601430A06005E02068E96AC06AF8
:101E4000884200D82560E06A401CE062E96A01200F
:101E5000A26988401043A06101EB810007EB80007C
:101E6000291D00F0DFF900F009FAE06900280CD024
:101E70002068E96AC06A884207D207494FF080505B
:101E80000860BFF34F8FBFF36F8FBDE8F081000094
:101E900024000020A405002004ED00E010B5044655
:101EA00090F8510058B101280CD002280FD05020D2
:101EB00080F31188BFF34F8FBFF36F8FFEE7206B66
:101EC00000F0F0F92046BDE8104000F0EBB910BD7D
:101ED00010484FF44061420706D0C01D0D4920F064
:101EE0000700411AC1F540610B4A00230144C2E9D1
:101EF00000030839103A21F0070111604B600B60B4
:101F00000B1AC0E9001393604FF000405360D0609B
:101F1000704700009406002070000020144E154CFD
:101F2000A6F1C8074FF08058DFF84C9012E000BFD0
:101F300000F084F9F068C568281D00F02FF92069C9
:101F4000401E2061E068401EE06000F097F92846DE
:101F5000FFF7A4FFE0680028EAD138680128F9D922
:101F6000C9F80080BFF34F8FBFF36F8FF2E7000017
:101F70006C0600202400002004ED00E02DE9F0476D
:101F80009A46DDE9098481466FF00303206B03EB79
:101F900082021044089D20F00706700707D05020E9
:101FA00080F31188BFF34F8FBFF36F8FFEE72318C5
:101FB0000A5C83F834200A5C12B1401C1028F6D366
:101FC000002784F84370072D00D30625E562C4E995
:101FD0001157201D00F00BF904F1180000F007F96B
:101FE0002461C5F107006462A061E76484F8507061
:101FF00052464946304600F0BFF82060B8F1000F65
:1020000001D0C8F80040BDE8F087000030B51149A4
:1020100000E011460A688242FBD34B685C18844298
:1020200003D1406818444860084643681C1894422D
:1020300009D1084C103C2468A24209D052681A44C5
:1020400042600A6812680260814200D0086030BDB8
:102050000460F9E77000002006484168096829B16A
:102060004168C968C9684968016370474FF0FF312A
:10207000FAE700002400002008484068401C4FF0A8
:10208000500080F3118804D0BFF34F8FBFF36F8FE0
:10209000FEE7BFF34F8FBFF36F8FFEE7780000209E
:1020A0002DE9F0410546002700F098F9314E3068DF
:1020B00008B9FFF70DFFF06805424BD1C5B30835ED
:1020C00068070ED005F00700C0F108000544680756
:1020D00007D0502080F31188BFF34F8FBFF36F8F6D
:1020E000FEE72DB37068854234D82248103001468F
:1020F0000C6801E020460C466168A94202D22168C2
:102100000029F7D131688C4224D00768216801602A
:1021100060680837411B10290FD96019420708D0A1
:10212000502080F31188BFF34F8FBFF36F8FFEE70E
:1021300010E041606560FFF769FF61687068401AF0
:102140007060B268904200D2B060F0680143002035
:10215000C4E9000100F088FA780707D0502080F326
:102160001188BFF34F8FBFF36F8FFEE73846BDE88E
:10217000F08100006000002010B5031F4FF0807454
:102180001C601B1F21F001011960191F024B0B601D
:10219000143940380A6010BD79200008D0E90132B6
:1021A00001699A60D0E901235A604A68824201D1EC
:1021B00082684A60002202610868401E0860086860
:1021C00070470000034B036003F154000860802057
:1021D000106070478400002000F108014FF0FF32CA
:1021E000C0E90112C1600161002101607047002156
:1021F0000161704730B50B685A1C02D000F108022B
:1022000002E0026904E02246546825689D42FAD93A
:1022100053684B6099608A60516008610168491C8D
:10222000016030BD42684A6093688B609368596072
:10223000916008610168491C01607047502080F37B
:102240001188BFF34F8FBFF36F8F0A494868401C56
:10225000486001280CD10848006810F0FF0F07D033
:10226000502080F31188BFF34F8FBFF36F8FFEE7CD
:10227000704700007800002004ED00E0084948683D
:1022800028B1401E486001D180F31188704750206A
:1022900080F31188BFF34F8FBFF36F8FFEE700000D
:1022A0007800002070B5002827D0144DA0F1080454
:1022B0006168E868014207D1502080F31188BFF3BC
:1022C0004F8FBFF36F8FFEE722683AB1502080F343
:1022D0001188BFF34F8FBFF36F8FFEE781436160BB
:1022E00000F07CF860686968084468602046FFF781
:1022F0008DFEBDE8704000F0B7B970BD60000020F1
:102300004FF0E02000210161816105494FF47A72AC
:102310000968B1FBF2F1491E416107210161704773
:102320001800002010B5020014D00F48806B38B19F
:10233000502080F31188BFF34F8FBFF36F8FFEE7FC
:1023400000F04CF800211046FFF708FD00F08CF972
:10235000002807D105494FF080500860BFF34F8F28
:10236000BFF36F8F10BD00002400002004ED00E0DB
:1023700010B586B00024039405AA04A903A8049408
:10238000FFF720FFDDE903010094CDE901100023F0
:102390000EA11048059A00F0D8F80F4900284863AC
:1023A00011D0502080F31188BFF34F8FBFF36F8F90
:1023B0004FF0FF3008630120C8614C6106B0BDE8F2
:1023C000104000F041B806B010BD000049444C4533
:1023D000000000001D1F0008240000200248816B3F
:1023E000491C816370470000240000201448816B61
:1023F00011B1012141627047002141628169B1FA46
:1024000081F1C1F11F0101EB81020E4951F8223027
:102410006BB101EB820101F108034A6852684A601E
:102420009A4201D152684A60D168016070475020D9
:1024300080F31188BFF34F8FBFF36F8FFEE700006B
:1024400024000020A40500201CB52649087801902E
:10245000FF20087008788DF800009DF800009DF8B6
:10246000002000F0F000904207D0502080F3118847
:10247000BFF34F8FBFF36F8FFEE79DF800001A4B3D
:1024800000F0500018700720986005E09DF80020CB
:1024900052008DF80020401E9DF800201206F5D451
:1024A0009860032807D0502080F31188BFF34F8F26
:1024B000BFF36F8FFEE74FF440709860019808708B
:1024C0000A48016841F470010160016841F07041FF
:1024D0000160FFF715FF00205860FDF745FE002062
:1024E0001CBD000000E400E07800002020ED00E0CA
:1024F0002DE9FF5F8346DDE90E87994616468A4639
:102500009000FFF7CDFD05001CD05420FFF7C8FD5B
:10251000040014D00020256384F85100CDE9024066
:10252000CDE900874B46324651465846FFF726FD17
:102530002046FFF74BFC012004B0BDE8F09F284681
:10254000FFF7B0FE4FF0FF30F6E7F0B585B0DDE9FC
:102550000B640A9DA6B1DCB15427009726630226BE
:1025600084F85160002604AFCDE90246CDE900575A
:10257000FFF704FD2046FFF729FC049805B0F0BDE5
:10258000502080F31188BFF34F8FBFF36F8FFEE7AA
:10259000502080F31188BFF34F8FBFF36F8FFEE79A
:1025A0002DE9F0412E4C0027A06B40B1206A401C61
:1025B0002062606A00B101273846BDE8F081666993
:1025C000761C666113D16068006838B1502080F3D2
:1025D0001188BFF34F8FBFF36F8FFEE76068A1686C
:1025E0006160A060A06A401CA062FFF735FD206B0F
:1025F000DFF87080864209D36068006880B1606847
:10260000C068C568686886420DD220632068C06AC9
:1026100000EB800158F821000128CAD90127C8E73A
:102620004FF0FF30F1E7281DFFF7B8FDA86A18B199
:1026300005F11800FFF7B2FDE86A0121A2698140A7
:102640001143A16100EB800108EB8100291DFFF718
:10265000E9FDE86A2168C96A8842CDD30127CBE742
:1026600024000020A40500202DE9F0472C4D002473
:102670002746A86B38B1FFF7E1FDA86B401EA863A1
:10268000A86B40B146E0502080F31188BFF34F8F14
:10269000BFF36F8FFEE72969224E0120D1B3A6F167
:1026A000B40980463068E8B1F068C46804F11800E5
:1026B000FFF774FD201DFFF771FDE06AAA6908FAB3
:1026C00000F11143A96100EB800109EB8100211D9C
:1026D000FFF7A8FDE06A2968C96A8842E2D3C5F815
:1026E0002480DFE70CB1FFF7B7FC2C6A44B1464603
:1026F000FFF756FF00B16E62641EF9D10020286218
:10270000686A38B10849012738070860BFF34F8F5E
:10271000BFF36F8FFFF7B2FD3846BDE8F0870000CA
:10272000240000205806002004ED00E06027000887
:102730000D180008000000000000000080000000EC
:102740000000000000000000000000000000000089
:102750000102030406070809000000000102030447
:102760005461736B5F4C6564000000008C270008A7
:102770000000002084000000861C000810280008CB
:102780008400002014160000961C000841540D0A15
:102790000000000000000000010000001000000028
:1027A000000000000024F4000000000018040020D5
:1027B0000000000000000000000000000000000019
:1027C0000000000000000000000000000000000009
:1027D00000000000000000000000000000000000F9
:1027E00000000000000000000000000000000000E9
:1027F00000000000000000000000000000000000D9
:102800000000000000000000AAAAAAAA0000000020
:0400000508000131BD
:00000001FF
